:020000040000FA
:06000000B8EF0FF0120042
:020006001200E6
:0600080050EF09F01200A8
:06001800BDEF09F012002B
:02001E000100DF
:0C0020009A1F0000DC0500000F0000002B
:04002C00D9CFE6FF43
:10003000E1CFD9FFE652A09A6A6A686A706A020E36
:10004000E66EE66AE66A710EE66E0F0EE66E8EECFE
:100050000FF0106E050EE15E1050160E6F6E9F0EC3
:100060006B6E7B0E696EDF6ADF50106E116A0C0ECC
:10007000105C000E115810E2DF50040DF3CFE9FFC1
:10008000F4CFEAFF000EE926040EEA22EE6AEE6AD9
:10009000EE6AEE6ADF2AE8D76D8C6E6A6D986D9C09
:1000A00068A607D068960501A66BAB6BAC6BAD6B11
:1000B000F7D70501010EBF6FC06FC16BC26BB36B89
:1000C000DF6A030EDF5C26E2EA6ADF34FE0BEA3603
:1000D000E96E9C0EE926050EEA22EE6AED6AEA6AEE
:1000E000DF34FE0BEA36E96E960EE926050EEA22AB
:1000F000EE6AED6ADF50EA6AB70FE96E050EEA2292
:10010000EF6ADF50EA6ABA0FE96E050EEA22EF6A7B
:10011000DF2AD7D70501080E9C6F040E9D6F160EBF
:10012000706E0401300E026F040E036F080E016F33
:10013000840E006F0501906B8F6BE552E552E7CF9F
:10014000D9FF1200D9CFE6FFE1CFD9FFE652050172
:100150008F0507E16DBA05D0686A69806988020E6B
:100160008F6F6850040B05E06950040B02E068943F
:10017000C6D86DB257D06850010B09E06950010B29
:1001800006E054DFA08A0501040E8F6F6890685066
:10019000100B05E06950100B02E09CD8689868AC21
:1001A00019D069AC0FD0010EE66EE66A000EE66E5D
:1001B000E66A730EE66EE66A9EEC0BF0106E060EB3
:1001C000E15E1050689C0501BD5101E0BD07BD51C5
:1001D00001E156DB6850200B04E06950200B01E080
:1001E00060D86850020B13E06950020B10E0010E5A
:1001F000E66EE66A000EE66EE66AE6687F0EE66E7A
:100200009EEC0BF0106E060EE15E10506A6A040E52
:100210000501E76E8F19E8AE02D0E73402D0E7504F
:100220008F5D02E2A19A38D069A635D0DF6A040E4C
:10023000DF5C31E268A62FD06CCFB4F50501B45174
:10024000780BE842E842E842B56F6896B4B506D04C
:10025000B551EA6ABA0FE96E050E05D0B551EA6AE2
:10026000B70FE96E050EEA22EF70B55102E15ED8D4
:1002700010D0000EE66EE66AB40EE66E050EE66E6F
:10028000720EE66EE66A9EEC0BF0106E060EE15EF4
:100290001050DF2ACCD7A19AE552E552E7CFD9FF1B
:1002A000120070A015D092C5E9FF93C5EAFFEF5088
:1002B00080080DE19CC5E9FF9DC5EAFFEF50840869
:1002C00006E192C5E9FF93C5EAFF8C0EEF6E7090D0
:1002D000689A1200698468986D820501010EB36FF7
:1002E000000EE66EE66AE66EE66A750EE66EE66A91
:1002F0009EEC0BF0106E060EE15E10501200050130
:10030000B36B000EE66EE66AE66EE66A740EE66EA3
:10031000E66A9EEC0BF0106E060EE15E10506D92D8
:10032000699468A402D06894FCD71200D9CFE6FF84
:10033000E1CFD9FFE65205012D0EBD6FFD0EB415BC
:1003400053E17E0EB415E8407F0B040DF3CF92F518
:10035000F4CF93F5000E9227040E932392C594F5E3
:1003600093C595F5947592C5E9FF93C5EAFFEF50E3
:100370003C0BE842E8420D0835E1DF6A080EDF5C1D
:1003800023E292C5E9FF93C5EAFF020EE926000EBB
:10039000EA22EE50EFCFEAFFE96EEF50E66EDF5053
:1003A000EA6A300FE96E040EEA22E552E750EF6E7A
:1003B00092C5E9FF93C5EAFF020EE926000EEA2284
:1003C000EE2AEF22DF2ADAD792C5E9FF93C5EAFFCA
:1003D000020EE926000EEA22300EEE6E040EED6EDD
:1003E0000DD807D03AD805D0FD0EB415040801E1A8
:1003F00059D8E552E552E7CFD9FF12000501A26BAB
:10040000BE6BC16BC26BB66BA36B9CC5E9FF9DC590
:10041000EAFFEF9E9C759CC5E9FF9DC5EAFFEF9E34
:100420009C7594C5E9FF95C5EAFFEF9EA66BA76B87
:10043000A86BAB6BAC6BAD6B8CD8000EE66EE66A4E
:10044000E66EE66A030EE66EE66A9EEC0BF0106E50
:10045000060EE15E10508DEF05F0020E0501A35D62
:1004600002E14DEF06F0A36BB6511AE194C5E9FF26
:1004700095C5EAFFEE52080EEF6E94C5E9FF95C5EB
:10048000EAFF020EE926000EEA22300EEE6E040E9E
:10049000ED6E94C5E9FF95C5EAFF8C0EEF6E120074
:1004A000B66B1200D9CFE6FFE1CFD9FFE6529CC56B
:1004B000E9FF9DC5EAFFEF50400B01E0010EDF6E42
:1004C00005019C75080E8F5D08E132C46EFF6E5009
:1004D00002E0100E01D0040E8F6FA30526E19CC52B
:1004E000E9FF9DC5EAFF020EE926000EEA22380E5A
:1004F000EE6E040EED6E72DB020E0501A25D06E1EA
:100500009CC5E9FF9DC5EAFF840E0DD0DF5006E1D2
:100510009CC5E9FF9DC5EAFFC80E05D09CC5E9FF53
:100520009DC5EAFF880EEF6E0FD0ABAF0CD0AE5179
:10053000AF1107E005D0AFC5FAFF0501AE51F96E66
:10054000FADF0501AB9FA36BE552E552E7CFD9FF78
:10055000120004013051600BE842E842E842E842F0
:10056000E842000901E0120031510C0A50E00B0A88
:100570003FE00C0A31E0010A22E00B0A1EE0020A09
:100580001CE0030A18E0080A10E0010A0CE00F0A58
:1005900008E0030A01E012000501A68F080E8F6F24
:1005A0001200CFEF04F0ECEF06F00501900EA46FFF
:1005B000050EA56F0CD02CEF05F008EF03F03451B9
:1005C0000501A46FA56B910EA427050EA523A68196
:1005D000010EA76FA68F12000501A68F04013451EA
:1005E000EA6A910FE96E050EEA2232C4EFFF1200AB
:1005F000000EE66EE66AE66EE66A020EE66EE66AF1
:100600009EEC0BF0106E060EE15E10501200120010
:10061000D9CFE6FFE1CFD9FF050EE126040132056F
:1006200010E130511F0B00090CE10501A68F030EEC
:100630000401315D04E10501010EB26F02D0050134
:10064000B26B0401325101E011D130511F0B02088D
:1006500001E00CD134510F0B000901E107D13451F5
:100660000F0B020801E202D1200E05018F5D01E0AF
:10067000FDD0A68F040134BF16D034510F0BE96EA4
:10068000EA6AD890E936EA36960EE926050EEA229D
:10069000EECFDEFFEDCFDDFF34510F0BEA6ABA0F6C
:1006A000E96E050E15D034510F0BE96EEA6AD89049
:1006B000E936EA369C0EE926050EEA22EECFDEFF89
:1006C000EDCFDDFF34510F0BEA6AB70FE96E050E6F
:1006D000EA22020EEFCFDBFFD950020FE96EDACF2C
:1006E000EAFFEF50010B03E1000EDF9401D0DF843D
:1006F00034BF0BD034510F0BE96EEA6AD890E9365B
:10070000EA36960EE926050E0AD034510F0BE96E33
:10071000EA6AD890E936EA369C0EE926050EEA2206
:10072000DECFEEFFDDCFEDFF030E315D20E1DECF4A
:10073000E9FFDDCFEAFFEF50800B11E034BF07D0B7
:1007400034510F0BEA6ABA0FE96E050E06D0345128
:100750000F0BEA6AB70FE96E050EEA22EF82840EEC
:10076000DECFE9FFDDCFEAFFE850EF127FD0DF7484
:10077000DECFE9FFDDCFEAFFEF50800B1BE0DECFDD
:10078000E9FFDDCFEAFFEF9EDECFE9FFDDCFEAFF35
:10079000EF8C020EE66EE66ADECFE6FFDDCFE6FF07
:1007A000050EE66EE66A9EEC0BF0106E060EE15E3C
:1007B000105005D0DECFE9FFDDCFEAFFEF8CDF740C
:1007C000D950020FE96EDACFEAFFEF50020B07E1D2
:1007D000DECFE9FFDDCFEAFFEF50800B2BE0040115
:1007E00034BF07D034510F0BEA6ABA0FE96E050E19
:1007F00006D034510F0BEA6AB70FE96E050EEA22F4
:10080000EF923B0E106EDECFE9FFDDCFEAFFE8503E
:10081000EF16020EE66EE66ADECFE6FFDDCFE6FFFC
:10082000050EE66EE66A9EEC0BF0106E060EE15EBB
:10083000105007D03B0EDECFE9FFDDCFEAFFE850D6
:10084000EF16040134510F0B116A700F106E0F0E6A
:100850001122030E10C0DBFF040E11C0DBFF030EDC
:10086000DBCFE9FF040EDBCFEAFFEF90050EE15C82
:1008700002E2E16AE552E16EE552E7CFD9FF1200EC
:100880000501BF514DE1010EBF6FC05149E1010E9D
:10089000C06F020EA35D0DE19CC5E9FF9DC5EAFF97
:1008A000EE52EF6A9CC5E9FF9DC5EAFFC80EEF6EE8
:1008B0001200A30535E1B66B92C5E9FF93C5EAFFC7
:1008C000EE52080EEF6E92C5E9FF93C5EAFF020EE5
:1008D000E926000EEA22300EEE6E040EED6E92C591
:1008E000E9FF93C5EAFF840EEF6E010EB66F94C563
:1008F000E9FF95C5EAFFEE52080EEF6E94C5E9FFD9
:1009000095C5EAFF020EE926000EEA22300EEE6ED1
:10091000040EED6E94C5E9FF95C5EAFF800EEF6EFB
:1009200012000501C16BC26B020EA35D18E194C5F4
:10093000E9FF95C5EAFFEE52080EEF6E94C5E9FF98
:1009400095C5EAFF020EE926000EEA22380EEE6E89
:10095000040EED6E94C5E9FF95C5EAFF1DD0A751C1
:100960000401365D0501A8510401375904E236C47B
:10097000A7F537C4A8F532D99CC5E9FF9DC5EAFFA4
:10098000020EE926000EEA22380EEE6E040EED6E1F
:100990009CC5E9FF9DC5EAFFC80EEF6E1200800EF0
:1009A0000401305D58E10501C00EA66F040133510A
:1009B000030A2FE0010A09E0030A4BE10501AC0E2E
:1009C000A46F1C0EA56F120E3ED03251F66EF76A60
:1009D000D890F636F7364D0EF6261D0EF722090092
:1009E000F5CFA4F50A00F5CFA5F5020E0501F76ACB
:1009F000A425F66EA551F7220800F5CFA7F5030E42
:100A0000F76AA425F66EA551F7220800F5CFA8F5E0
:100A10001200030E325D1AE23251F66EF76AD89078
:100A2000F636F7364F0EF6261D0EF7220900F5CFE3
:100A3000A4F50A00F5CFA5F5A4C5F6FFA5C5F7FFF7
:100A40000800F5500501A76FA86B12000501A66B01
:100A500012000501A66B1200D9CFE6FFE1CFD9FF46
:100A6000020EE1260401386B396B30511F0B020A6C
:100A700011E0030A0CE0010A3CE10501A68F040124
:100A800038810501B20535E10401388332D0050112
:100A9000A68F2FD00501A68F040134BF0BD034518F
:100AA0000F0BE96EEA6AD890E936EA36960EE92627
:100AB000050E0AD034510F0BE96EEA6AD890E93678
:100AC000EA369C0EE926050EEA22EECFDEFFEDCFD8
:100AD000DDFFDECFE9FFDDCFEAFFEF50800B09E05D
:100AE000DECFE9FFDDCFEAFFEF50040B02E0010E9D
:100AF000386F0501A6AF07D0380EA46F040EA56F9E
:100B0000A681020EA76F020EE15C02E2E16AE552E5
:100B1000E16EE552E7CFD9FF12006D980501A6BF3F
:100B20002BD0ABAF09D0020EA36FC25101E1F9DEA9
:100B30000501C06BBF6B120094C5E9FF95C5EAFFC4
:100B4000EE52080EEF6E94C5E9FF95C5EAFF020E5E
:100B5000E926000EEA22300EEE6E040EED6E94C50C
:100B6000E9FF95C5EAFF8C0EEF6E9CC5E9FF9DC5B8
:100B7000EAFF840EEF6E1200040130AF0DD00501C4
:100B8000010EA36FC15101E1CCDE0501C06BBF6B4B
:100B9000BE5123E140EF04F00501020EA36F94C59E
:100BA000E9FF95C5EAFFEE52080EEF6E94C5E9FF26
:100BB00095C5EAFF020EE926000EEA22300EEE6E1F
:100BC000040EED6E94C5E9FF95C5EAFF840EEF6E45
:100BD000C06BBF6BBE5101E153DE1200D9CFE6FFFF
:100BE000E1CFD9FFE652080EDF6E0501A75D000ECA
:100BF000A8590AE2A7C5DFFFA25102E1010E03D006
:100C0000A20502E1020EA26FDF50116AE850A75D53
:100C1000A76F1150A859A86F9CC5E9FF9DC5EAFFB1
:100C2000EE52DFCFEFFF380EB06F040EB16FA6B1FA
:100C300018D0DF502DE0A4C5F6FFA5C5F7FFA42B03
:100C4000000EA5230800F550E66EB0C5E9FFB1C55A
:100C5000EAFFB02B000EB123E552E750EF6EDF063E
:100C6000E8D7DF5015E0A4C5E9FFA5C5EAFFA42B2E
:100C7000000EA523EF50E66EB0C5E9FFB1C5EAFF4F
:100C8000B02B000EB123E552E750EF6EDF06E9D737
:100C9000E552E552E7CFD9FF1200D9CFE6FFE1CF09
:100CA000D9FF020EE12692C5E9FF93C5EAFFEE5295
:100CB000EFCFDFFFDFCF10F010500501AC5D000E6D
:100CC000AD5902E2ACC5DFFFDF50106E116AE8508B
:100CD000AC5DAC6F1150AD59AD6F010EDB6ADF50EA
:100CE000F36E010EDBCFF4FFF350F45C16E2010E5D
:100CF000DB50EA6A380FE96E040EEA22EF50E66E26
:100D0000A9C5E9FFAAC5EAFFA92B000EAA23E5524F
:100D1000E750EF6E010EDB2AE2D7000ED880AC550B
:100D2000000EAD5527E294C5E9FF95C5EAFFEE52E6
:100D3000080EEF6E94C5E9FF95C5EAFF020EE9269D
:100D4000000EEA22380EEE6E040EED6E92C5E9FF3B
:100D500093C5EAFFEF50400B06E194C5E9FF95C546
:100D6000EAFFC80E05D094C5E9FF95C5EAFF880ED5
:100D7000EF6E28D094C5E9FF95C5EAFFEE52080E44
:100D8000EF6E94C5E9FF95C5EAFF020EE926000E55
:100D9000EA22300EEE6E040EED6E94C5E9FF95C5A5
:100DA000EAFF840EEF6EAE51AF1107E005D0AFC57C
:100DB000FAFF0501AE51F96EFADF0501AB9FBE5196
:100DC00001E15EDD020EE15C02E2E16AE552E16E04
:100DD000E552E7CFD9FF1200D9CFE6FFE1CFD9FF27
:100DE000E6520501A68F020EE66EE66AE66A710E0D
:100DF000E66E0F0EE66E8EEC0FF0106E050EE15EE5
:100E00001050DF6ADF50106E116A0C0E105C000E7D
:100E1000115810E2DF50040DF3CFE9FFF4CFEAFFE1
:100E2000000EE926040EEA22EE6AEE6AEE6AEE6A27
:100E3000DF2AE8D76D8CDF6A030EDF5C10E2DF503B
:100E4000EA6AB70FE96E050EEA22EF6ADF50EA6A36
:100E5000BA0FE96E050EEA22EF6ADF2AEDD7010E1E
:100E6000E66EE66AE66A910EE66E050EE66E8EECBA
:100E70000FF0106E050EE15E10506D9C0501080E1E
:100E80009C6F040E9D6F000E926F040E936F92C5BF
:100E900094F5956F32C490F5905102E1100E12D086
:100EA000010EE66EE66A900EE66E050EE66E010E27
:100EB000E66EE66A9EEC0BF0106E060EE15E1050D8
:100EC0000501200E8F6FE552E552E7CFD9FF1200E2
:100ED000D9CFE6FFE1CFD9FF020EE126000EDE6E8C
:100EE000040EDD6EFD0EDB50E824126EFE0EDB50AC
:100EF000040DF3501224040DF4CF11F0D9CFE9FF03
:100F0000DACFEAFFF350EE261150ED22DECFE9FFF3
:100F1000DDCFEAFFEF9EFD0EDB500AE1FE0EEA6A2E
:100F2000DB34FE0BEA36E96E960EE926050E09D093
:100F3000FE0EEA6ADB34FE0BEA36E96E9C0EE92609
:100F4000050EEA22DECFEEFFDDCFEDFFDECFE9FFBB
:100F5000DDCFEAFFEF9CDECFE9FFDDCFEAFF040E35
:100F6000E926000EEA22EF8C020EE15C02E2E16A61
:100F7000E552E16EE552E7CFD9FF1200D9CFE6FF87
:100F8000E1CFD9FF020EE126FD0EDBA407D0E66A11
:100F9000FE0EDBCFE6FF9CDFE552E552FD0EDBA245
:100FA00008D0010EE66EFE0EDBCFE6FF91DFE552C4
:100FB000E552FE0EDB50116A700F106E0F0E1122FB
:100FC00010C0DEFF11C0DDFFDECFE9FFDDCFEAFF9D
:100FD000FD0EDBCFEFFF020EE15C02E2E16AE552BB
:100FE000E16EE552E7CFD9FF1200D9CFE6FFE1CF9E
:100FF000D9FF020EE126FE0EDB5020E194C5E9FF89
:1010000095C5EAFFEE52080EEF6E94C5E9FF95C54F
:10101000EAFF020EE926000EEA22300EEE6E040E02
:10102000ED6E94C5E9FF95C5EAFF8C0EEF6E9CC589
:10103000E9FF9DC5EAFF840EEF6E3BD0FD0EDB504D
:10104000E824126EFE0EDB50040DF3501224040D42
:10105000F3CF10F0F4CF11F0000E1026040E112281
:1010600010C0DEFF11C0DDFF840EDECFE9FFDDCF53
:10107000EAFFE850EF12FD0EDB50E824126EFE0E80
:10108000DB50040DF3501224010F040DF3CF10F0C8
:10109000F4CF11F0000E1026040E112210C0DEFF56
:1010A00011C0DDFF840EDECFE9FFDDCFEAFFE8509F
:1010B000EF12020EE15C02E2E16AE552E16EE552F6
:1010C000E7CFD9FF1200D9CFE6FFE1CFD9FF020E5B
:1010D000E126FD0EDB500AE0FE0EEA6ADB34FE0B71
:1010E000EA36E96E9C0EE926050E09D0FE0EEA6A84
:1010F000DB34FE0BEA36E96E960EE926050EEA228F
:10110000EECFDEFFEDCFDDFFD9CFE9FFDACFEAFF8B
:10111000EE50ED1003E1F36AF46A44D0DECFE9FF4C
:10112000DDCFEAFF020EE926000EEA22FB0EDBCF3E
:10113000EEFFFC0EDBCFEDFFDECFE9FFDDCFEAFFF8
:10114000EE52FA0EDBCFEFFF400EDECFE9FFDDCF30
:10115000EAFFE850EF16880EDECFE9FFDDCFEAFFA9
:10116000E850EF12FD0EDB500AE0FE0EEA6ADB34B7
:10117000FE0BEA36E96E9C0EE926050E09D0FE0E3E
:10118000EA6ADB34FE0BEA36E96E960EE926050EB6
:10119000EA22EF74DECF10F0DDCF11F010C0F3FFC4
:1011A00011C0F4FF020EE15C02E2E16AE552E16E79
:1011B000E552E7CFD9FF1200D9CFE6FFE1CFD9FF43
:1011C0006DA84ED0FE0EEA6ADB34FE0BEA36E96EFD
:1011D0009C0EE926050EEA22EE50EFCFEAFFE96EFB
:1011E000400EEE16EE6AEE6AEE6AFE0EEA6ADB3436
:1011F000FE0BEA36E96E9C0EE926050EEA22EE5059
:10120000EFCFEAFFE96EEE7CFE0EEA6ADB34FE0BFE
:10121000EA36E96E9C0EE926050EEA22EF74400ECE
:10122000106EFE0EEA6ADB34FE0BEA36E96E9C0EA7
:10123000E926050EEA22EE50EFCFEAFFE96E1050E4
:10124000EF16FE0EEA6ADB34FE0BEA36E96E9C0E00
:10125000E926050EEA22EE50EFCFEAFFE96EEF7CB9
:10126000E552E7CFD9FF12006D6A696A05018F6BFD
:10127000120005018F5113E16D6A696A160E6F6ED7
:101280009F0E6B6E7B0E696ED08EA28AA08AF28E44
:101290006DB602D06D86FCD70501010E8F6F12006E
:1012A000DACFE4FFE2CFDAFFE9CFE4FFEACFE4FFF1
:1012B000F6CFE4FFF7CFE4FFF5CFE4FFF3CFE4FF91
:1012C000F4CFE4FFFACFE4FF00EE00F0100EE804E4
:1012D00003E3EECFE4FFFBD700EE10F0080EE804C6
:1012E00003E3EECFE4FFFBD7E652F2A420D0F29462
:1012F000580EE66E8A0EE66E57EC0FF0E552E55298
:10130000960EE66E050EE66ECA0EE66EE8D8E5525B
:10131000E552E552F3CFE2F5E66A030EE66ECA0E39
:10132000E66EDDD8E552E552E552F3CFE2F5A2ECE8
:1013300000F0E55200EE17F0080EE80403E3E5CFF5
:10134000EDFFFBD700EE0FF0100EE80403E3E5CF4E
:10135000EDFFFBD7E5CFFAFFE5CFF4FFE5CFF3FFD5
:10136000E5CFF5FFE5CFF7FFE5CFF6FFE5CFEAFFE5
:10137000E5CFE9FFE5CFDAFF1100D8CFE4FFE0CFFA
:10138000E4FFE46EDACFE4FFE652E552E5CFDAFFA0
:10139000E550E5CFE0FFE5CFD8FF10000501EB6B8E
:1013A000EC6B640E0501ECAF02D0D89003D0EB5D7E
:1013B000000EEC5906E200000501EB2B000EEC23B9
:1013C000F0D70F0EC16E9268936A946A8188819AF1
:1013D00016EC00F039EC09F08188818AE66A080E83
:1013E000E66E73EC0FF0E552E5521D0EC86E0C0E62
:1013F000E66E010EE66ECA0EE66E71D8E552E55253
:10140000E552F3CFE0F5400EE66E020EE66ECA0E30
:10141000E66E65D8E552E552E552F3CFE1F5010EEF
:10142000E66E030EE66ECA0EE66E59D8E552E55238
:10143000E552F3CFE2F5400EE66E040EE66ECA0EFC
:10144000E66E4DD8E552E552E552F3CFE1F5010ED7
:10145000E66E050EE66ECA0EE66E41D8E552E5521E
:10146000E552F3CFE2F5840ED56E580EE66E8A0E85
:10147000E66E57EC0FF0E552E552F28EF28AE66A1C
:10148000030EE66ECA0EE66E2AD8E552E552E55224
:10149000F3CFE2F5E66A050EE66ECA0EE66E1FD8D9
:1014A000E552E552E552F3CFE2F505018F5102E135
:1014B00039EC09F00501C45103E0AFEC0DF0FAD7A7
:1014C000090EE66EE00EE66E050EE66E11EC0DF00E
:1014D000E552E552E552AFEC0DF0E7D71200D9CF57
:1014E000E6FFE1CFD9FFC6EC0FF0C580C5B0FED74F
:1014F000FE0EDBCFE6FFFAEC0EF0E552000902E04B
:10150000020E27D0C6EC0FF0C5AC02D0030E21D0DE
:101510009E96FD0EDBCFE6FFFAEC0EF0E5520009D9
:1015200002E0040E16D0C6EC0FF0C5AC02D0050EDA
:1015300010D09E96FC0EDBCFE6FFFAEC0EF0E552E3
:10154000000902E0080E05D0C6EC0FF0C5AC03D0D0
:10155000090EF36E06D09E96C584C5B4FED79E963E
:10156000F36AF46AE552E7CFD9FF1200D9CFE6FF5C
:10157000E1CFD9FFC6EC0FF0C580C5B0FED7FE0E97
:10158000DBCFE6FFFAEC0EF0E552000902E0210E97
:1015900036D0C6EC0FF0C550400B01E0010E05013E
:1015A000EF6FF06BF16BF26BE850F011F111F2118B
:1015B00002E0220E24D09E96FD0EDBCFE6FFFAEC71
:1015C0000EF0E552000902E0230E19D0C6EC0FF030
:1015D000C5AC02D0240E13D09E96C582C5B2FED7EC
:1015E000FE0EDB28E66EFAEC0EF0E552000902E092
:1015F000260E05D0C6EC0FF0C5AC04D0270EF36E56
:10160000F46A14D09E96C586C5B6FED7C58AC5882D
:10161000C5B8FED79E96C584C5B4FED79E969E9645
:10162000C950106E116AF36E11C0F4FFE552E7CF96
:10163000D9FF1200D9CFE6FFE1CFD9FF040EE12692
:10164000D880000E05010055C20E0155010E02554D
:10165000000E03553CE300C588F501C589F502C5B8
:101660008AF503C58BF5146A1B0E156EB70E166E40
:10167000176A14C004F015C005F0066E17C007F015
:1016800088C509F089C50AF08AC50BF08BC50CF036
:1016900033EC0FF004C010F005C011F006C012F0DA
:1016A00007C013F01006000E115A125A135A10C038
:1016B000DFFF010E11C0DBFF020E12C0DBFF030EC5
:1016C00013C0DBFFDF50AF6E010EDB50B06E040EB7
:1016D000E15C02E2E16AE552E16EE552E7CFD9FF53
:1016E00012001200120012001200E8EF0BF01200BC
:1016F00038EF0CF00501B20520E10501B3051DE14D
:10170000A09AF0DF6D920501B36B0501100EF36F27
:101710000E0EF46FF307000EF45BF351F411FAE1CF
:101720006D84080EF36F070EF46FF307000EF45B81
:10173000F351F411FAE16D94A08A1200D9CFE6FFBB
:10174000E1CFD9FFFD0EDBCF06F0FE0EDBCF07F0B9
:10175000050E061801E1075036E0E868061802E1B8
:101760007F0E07182FE0030E061801E1075028E04E
:10177000020E061801E1075021E0010E061801E1F2
:1017800007501AE0740E061801E1075013E0750EB9
:10179000061801E107500CE0730E061801E107502E
:1017A00005E0720E06180FE107500DD09CDF0BD03C
:1017B00098DF09D097DF07D09BDF05D098DF03D0F3
:1017C00094DF01D091DF010EE552E7CFD9FF12007F
:1017D000040130511F0B010801E012003051600B71
:1017E000E842E842E842E842E842010801E012002B
:1017F000345103E0340501E012003151220A33E094
:10180000030A26E0010A15E0210A0DE0010A01E0C1
:1018100012000501D40EA46F050EA56F080EA76F68
:10182000A86BA68123D00501D40EA46F050EA56F69
:101830001DD036C4ACF537C4ADF50501000EA96F57
:10184000050EAA6F340EAE6F160EAF6FAB8F12007F
:101850000501880EA46F050EA56F070EA76FA86B74
:10186000C10EA66F120032C4CFF50501A68F12007B
:101870000501886B4B0E896F8A6B8B6B8C6B8D6B44
:10188000080E8E6F0501C36B1A0EE66E010EE66E32
:10189000BEEC07F0E552E5521E0EE66E020EE66E55
:1018A000BEEC07F0E552E552400EE66E080EE66E1D
:1018B000050EE66EE66A020EE66E63EC08F0106E48
:1018C000050EE15E1050F3CFCBF5F4CFCCF505015A
:1018D000CD6BCE6BC46B1200D9CFE6FFE1CFD9FF41
:1018E000FD0EDBCF06F0FE0EDBCF07F0050E06186F
:1018F00001E1075002E0000E30D0FB0EDBCF10F00C
:10190000FC0EDBCF11F00501CB51101816E1CC51C4
:10191000111813E1400EE66E080EE66E050EE66E37
:10192000E66A020EE66E63EC08F0106E050EE15EEC
:101930001050F3CFCBF5F4CFCCF5FB0EDBCF10F08E
:10194000FC0EDBCF11F00501CD51101805E1CE5191
:10195000111802E1C46BC96B010EE552E7CFD9FF44
:101960001200D9CFE6FFE1CFD9FF0501C36BCB5100
:10197000CC1102E1000E08D0CBC5E9FFCCC5EAFFCF
:10198000EF50800B01E0010E000945E1FC0EDBCFBA
:1019900010F0CBC5E9FFCCC5EAFFEE52EF50D8807E
:1019A000105408E2CBC5E9FFCCC5EAFFEE52FC0EAD
:1019B000EFCFDBFFC36BFC0EDB50C35D19E2C351FD
:1019C000EA6A080FE96E050EEA22EF50E66EC3518F
:1019D000E76EFD0EDBCFE9FFFE0EDBCFEAFFE7503F
:1019E000E926000EEA22E552E750EF6EC32BE3D75B
:1019F000400EE66E080EE66E050EE66EE66A020E14
:101A0000E66E63EC08F0106E050EE15E1050F3CF49
:101A1000CBF5F4CFCCF50501C351E552E7CFD9FFA3
:101A20001200D9CFE6FFE1CFD9FFA09A0501C4513A
:101A30000CE1FD0EDBCFC5F5FE0EDBCFC6F5FC0ECF
:101A4000DBCFC9F5010ECA6FC46FA08AE552E7CF9C
:101A5000D9FF1200D9CFE6FFE1CFD9FF030EE1266F
:101A6000A09A0501C4512DE1DF6AFD0EDBCF06F01F
:101A7000FE0EDBCF07F0DE5206C0DEFF07C0DDFF43
:101A8000DD52DF2ADF50106E116AFF0E101802E1DE
:101A900011500BE0010EDBCFE9FFDB2A020EDBCF9A
:101AA000EAFF01E3DB2AEF50ECE1FD0EDBCFC5F5E9
:101AB000FE0EDBCFC6F5DFCFC9F50501010ECA6FFB
:101AC000C46FA08A030EE15C02E2E16AE552E16EB6
:101AD000E552E7CFD9FF1200D9CFE6FFE1CFD9FF1A
:101AE000030EE126A09A0501C4512EE1DF6AFD0E26
:101AF000DBCF06F0FE0EDBCF07F0DE5206C0DEFFC6
:101B000007C0DDFFDD52DF2ADF50106E116AFF0EC5
:101B1000101802E111500CE0010EDBCFF6FFDB2ABA
:101B2000020EDBCFF7FF01E3DB2A0800F550EBE103
:101B3000FD0EDBCFC5F5FE0EDBCFC6F5DFCFC9F559
:101B40000501CA6B010EC46FA08A030EE15C02E2BC
:101B5000E16AE552E16EE552E7CFD9FF1200D9CF35
:101B6000E6FFE1CFD9FF020EE126A09A0501CD5193
:101B7000CE1102E1000E08D0CDC5E9FFCEC5EAFFC7
:101B8000EF50800B01E0010E000906E1030EC45D79
:101B900001E1C46BC45102E1A08A7ED0020EC45D93
:101BA00016E1E66A000EE66EE66A010EE66E020EC9
:101BB000E66E63EC08F0106E050EE15E1050F3CF98
:101BC000CDF5F4CFCEF50501030EC46F64D0C40586
:101BD00062E1400E106E116AC951105C000E11587E
:101BE00003E2400EDF6E02D0C9C5DFFFDF50C95DE2
:101BF000C96F480EC76F050EC86F010EDFCFDBFF40
:101C0000CA5116E1010EDB5028E0C5C5F6FFC6C576
:101C1000F7FF0800F550C7C5E9FFC8C5EAFFEF6E3A
:101C2000C72B000EC823C52BC623010EDB06EAD73F
:101C3000010EDB5012E0C5C5E9FFC6C5EAFFEF5053
:101C4000C7C5E9FFC8C5EAFFEF6EC72B000EC82362
:101C5000C52BC623010EDB06EBD70501C95107E1F1
:101C6000400EDF5C02E1020E01D0030EC46FDFCF35
:101C7000E6FF480EE66E050EE66E010EE66E020EFB
:101C8000E66E63EC08F0106E050EE15E1050F3CFC7
:101C9000CDF5F4CFCEF5A08A020EE15C02E2E16A56
:0C1CA000E552E16EE552E7CFD9FF1200DB
:041CAC00120100021F
:101CB00002020108D8040A00000101020001090221
:101CC0004300020100C0FA09040000010202010001
:101CD0000524001001042402020524060001052445
:101CE0000100010705810308000209040100020A3E
:101CF00000000007050202400000070582024000C4
:101D0000000403090434034D006900630072006F8E
:101D100000630068006900700020005400650063E3
:101D20000068006E006F006C006F00670079002093
:101D30000049006E0063002E00140343004400437A
:101D400000200069002D00500053004400BE1C011B
:051D50001D051D391DF9
:0A1D56001E0EF66E000EF76E000E72
:101D6000F86E05010900F550FA6F0900F550FB6F98
:101D700003E1FA6701D03DD00900F550F56F090085
:101D8000F550F66F0900F550F76F09000900F5509E
:101D9000E96E0900F550EA6E090009000900F550E6
:101DA000F86F0900F550F96F09000900F6CFFCF54E
:101DB000F7CFFDF5F8CFFEF5F5C5F6FFF6C5F7FF51
:101DC000F7C5F8FF0501F85302E1F95307E00900F0
:101DD000F550EE6EF807F8E2F907F9D7FCC5F6FF03
:101DE000FDC5F7FFFEC5F8FF0501FA07000EFB5B16
:041DF000BFD7120047
:0C1DF400D9CFE6FFDACFE6FFE1CFD9FF40
:101E0000E2CFDAFFFD0EDB50C96EC6AE02D0FF0E88
:101E100024D00F0EC61408080FE00F0EC6140B08CE
:101E20000BE0C6889EA6FED7C750040B03E1C7503F
:101E3000010B10E0000E11D00F0EC614080804E0CC
:101E40000F0EC6140B0809E1C7B0FED7C6EC0FF0A1
:101E5000C5AC02D0FE0E01D0000EE552E5CFDAFF90
:061E6000E7CFD9FF1200DC
:0A1E6600036A026A016A006A200E96
:101E7000E76ED8900436053606360736003601364A
:101E8000023603360950005C0A5001580B500258C4
:101E90000C50035809E30950005E0A50015A0B50D8
:0E1EA000025A0C50035A042AE72EE4D712000F
:021EAE00D9CF8A
:101EB000E6FFDACFE6FFE1CFD9FFE2CFDAFFE65265
:101EC000E652FC0EDBCFDEFFDBCFDDFF010EDB5089
:101ED000D76EDF50D66EE552E552E552E5CFDAFF18
:061EE000E7CFD9FF12005C
:0A1EE600D9CFE6FFDACFE6FFE1CF27
:101EF000D9FFE2CFDAFF3F0EC716C66AC56AFD0EEC
:101F0000DB50C612FC0EDB50C71293829380C68A48
:0C1F1000E552E5CFDAFFE7CFD9FF120061
:041F1C00FE0EE3CF03
:101F2000E9FFFF0EE3CFEAFFE9CFF3FFEACFF4FFCB
:101F3000FB0EE35003E1FC0EE35009E0FB0EE30669
:101F400002E2FC0EE306FD0EE350EE6EF1D7120046
:101F5000000EF36E00EE00F0080E01D81200EA60E9
:101F600002D0EE6AFCD7F350E9601200EE6AFCD7AB
:101F700013EE00F023EE00F0F86A0F9CABEC0EF0CD
:0C1F800003EC00F0CEEC09F0FBD71200DF
:041F8C001F0EC5144B
:0A1F9000FDE1C750040BFAE1120056
:061F9A00000000006B6175
:091FA0007368696B6F6D6100014B
:020000040030CA
:0100000021DE
:010001000EF0
:010002002ECF
:010003000AF2
:010005008179
:010006008178
:00000001FF
