:020000040000FA
:06000000C2EF0AF012003D
:020006001200E6
:0600080084EF08F0120075
:02000E000000F0
:020010000000EE
:06001800CFEF08F012001A
:02001E000100DF
:0C0020000E000000EA05000004000000D3
:04002C0059EC06F095
:10003000A09A6A6A686A706AA4EC05F0F1EC05F0AF
:10004000DF6ADAEC05F003E28AEC05F0FAD76D8C92
:100050006E6A6D986D9C68A607D068960501A66BC0
:10006000AB6BAC6BAD6BF7D70501010EBF6FC06F0B
:10007000C16BC26BB36BDF6A030EDF5C11E2EA6A2D
:10008000DF345CEC06F0EA22EE6AED6AEA6ADF34FD
:1000900063EC06F0EA22EE6AED6A9AEC05F0ECD722
:1000A0000501080E9C6F040E9D6F160E706E040104
:1000B000300E026F040E036F080E016F840E006F86
:1000C0000501906B8F6BE55264EF05F059EC06F07B
:1000D00005018F0507E16DBA05D0686A69806988F6
:1000E000020E8F6F6850040B05E06950040B02E0AC
:1000F000689498D86DB245D06850010B09E06950FA
:10010000010B06E093DFA08A0501040E8F6F689053
:100110006850100B05E06950100B02E078D8689821
:1001200068AC0FD069AC05D0F8EC05F0730E51EC5B
:1001300005F0689C0501BD5101E0BD07BD5101E11D
:1001400020DA6850200B04E06950200B01E04CD805
:100150006850020B0BE06950020B08E0F8EC05F068
:10016000E6687F0EE66E6AEC06F06A6A040E050128
:10017000E76E8F19E8AE02D0E73402D0E7508F5D0A
:1001800002E2A19A2ED069A62BD0DF6A040EDF5CB2
:1001900027E268A625D06CCFB4F50501B451780BE1
:1001A000E842E842E842B56F6896B4B504D0B5516C
:1001B00071EC06F003D0B55176EC06F0EA22EF7050
:1001C000B55102E13DD80AD0000EE66EE66AB40EE3
:1001D000E66E050EE66E720E51EC05F0DF2AD6D7FC
:1001E000A19AE55264EF05F070A00FD070EC05F015
:1001F000EF50800809E15AEC05F0EF50840804E163
:1002000070EC05F08C0EEF6E7090689A12006984A5
:1002100068986D820501010EB36FC0EC05F0750E94
:1002200051EF05F00501B36BC0EC05F0740E51EC15
:1002300005F06D92699468A402D06894FCD712000E
:1002400059EC06F005012D0EBD6FFD0EB41540E111
:100250007E0EB415E8407F0B040DF3CF92F5F4CF7A
:1002600093F5000E9227040E932392C594F593C53F
:1002700095F5947570EC05F0EF503C0BE842E842C0
:100280000D0824E1DF6A080EDF5C1AE270EC05F06D
:10029000020EE926000EADEC05F0EF50E66EDF50E1
:1002A000EA6A300FE96E040EEA22E552E750EF6E7B
:1002B00070EC05F085EC06F0EE2AEF22DF2AE3D79A
:1002C00070EC05F025EC06F00BD807D026D805D049
:1002D000FD0EB415040801E12FD8E55264EF05F0D6
:1002E0000501A26BBE6BC16BC26BB66BA36BE2DB8D
:1002F000EF9E9C75DFDBEF9E9C7514EC06F0EF9E85
:10030000A66BA76BA86BAB6BAC6BAD6B50D8C0EC9E
:1003100005F0030EC6DB7BEF03F0020E0501A35DC3
:1003200002E1E7EF03F0A36BB65104E1B1DB8C0E01
:10033000EF6E1200B66B120059EC06F0BBDBEF500B
:10034000400B01E0010EDF6E05019C75080E8F5D0C
:1003500008E132C46EFF6E5002E0100E01D0040EB0
:100360008F6FA30513E1A6DBC0DBF2D9020E0501F6
:10037000A25D03E19FDB840E07D0DF5003E19ADB2F
:10038000C80E02D097DB880EEF6E0FD0ABAF0CD04B
:10039000AE51AF1107E005D0AFC5FAFF0501AE5170
:1003A000F96EFADF0501AB9FA36BE5528DD3040113
:1003B0003051600BE842E842E842E842E842000976
:1003C00001E0120031510C0A45E00B0A3FE00C0A33
:1003D00031E0010A22E00B0A1EE0020A1CE0030AD7
:1003E00018E0080A10E0010A0CE00F0A08E0030A0E
:1003F00001E012000501A68F080E8F6F120003EFB7
:1004000003F04BEF04F00501900EA46F050EA56FED
:100410000CD040EF03F02BEF02F034510501A46F34
:10042000A56B910EA427050EA523A681010EA76F2B
:10043000A68F12000501A68F04013451EA6A910FBC
:10044000E96E050EEA2232C4EFFF120099DB020EBC
:1004500051EF05F0120033DB050EE12604013205F1
:1004600010E130511F0B00090CE10501A68F030EAE
:100470000401315D04E10501010EB26F02D00501F6
:10048000B26B0401325101E075D030511F0B0208EC
:1004900071E134510F0B00096DE034510F0B02086C
:1004A00069E3200E05018F5D65E1A68F040134BF6D
:1004B00004D0E6DB6BDB70DB03D0E7DB67DB70DBF4
:1004C000EA22020EEFCFDBFF9ADB010B03E1000E05
:1004D000DF9401D0DF8434BF02D0D2DB01D0D5DB82
:1004E000EA22DECFEEFFDDCFEDFF030E315D0DE141
:1004F000D1DB07E034BF02D04FDB01D051DBEA2271
:10050000EF82840E8AEC06F035D0DF74C3DB06E0A0
:10051000CCDAEF9ECADAEF8CA2DB02D0C6DAEF8C1F
:10052000DF746DDB020B02E1B5DB0DE0040134BFCB
:1005300002D032DB01D034DBEA22EF923B0E106EA8
:10054000DADB8DDB02D03B0ED6DB040134510F0B1E
:10055000116A700F106E0F0E1122030E10C0DBFF18
:10056000040E11C0DBFF030EDBCFE9FF040EDBCF6F
:10057000EAFFEF90050EE15C02E2E16AE552E16E0E
:10058000A3D20501BF5121E1010EBF6FC0511DE192
:10059000010EC06F020EA35D07E18CDAEE52EF6A26
:1005A00089DAC80EEF6E1200A3050FE1B66B98DA78
:1005B000EE52080EEF6E94DA48DB92DA840EEF6E9C
:1005C000010EB66F65DA800EEF6E12000501C16B89
:1005D000C26B020EA35D04E192DB87DA25DB10D04B
:1005E000A7510401365D0501A8510401375904E201
:1005F00036C4A7F537C4A8F5ABD85CDA76DA5ADA90
:10060000C80EEF6E1200800E0401305D38E1050166
:10061000C00EA66F04013351030A1AE0010A09E073
:10062000030A2BE10501A00EA46F130EA56F120E95
:100630001ED0F3DA410EF626140EC4DA020E0501BE
:10064000E5DAF5CFA7F5030EE1DAF5CFA8F512004C
:10065000030E325D0FE2E1DA430EF626140EB2DA33
:10066000A4C5F6FFA5C5F7FF0800F5500501A76F63
:10067000A86B12000501A66B12000501A66B120003
:10068000EADA0401386B396B30511F0B020A11E0B2
:10069000030A0CE0010A1EE10501A68F040138815E
:1006A0000501B20517E10401388314D00501A68FB6
:1006B00011D00501A68F040134BF02D0E1DA01D0C8
:1006C000E4DA64DAE7DA06E0F0D9EF50040B02E08E
:1006D000010E386F0501A6AF07D0380EA46F040EC7
:1006E000A56FA681020EA76F020EE15C02E2E16A2D
:1006F000E552E16EE9D16D980501A6BF0DD0ABAF13
:1007000009D0020EA36FC25101E160DF0501C06B89
:10071000BF6B120039EF06F0040130AF0DD00501B8
:10072000010EA36FC15101E151DF0501C06BBF6B29
:10073000BE510DE1C1EF02F00501020EA36FA8D971
:10074000840EEF6EC06BBF6BBE5101E11ADF120069
:10075000B0DA080EDF6E0501A75D000EA8590AE2A7
:10076000A7C5DFFFA25102E1010E03D0A20502E1FD
:10077000020EA26FDF50116AE850A75DA76F1150FB
:10078000A859A86F97D9EE52DFCFEFFF380EB06FA0
:10079000040EB16FA6B10DD0DF5017E0A4C5F6FF6F
:1007A000A5C5F7FFA42B000EA5230800F550DBD943
:1007B000F3D7DF500AE0A4C5E9FFA5C5EAFFA42BE3
:1007C000000EA523EF50CFD9F4D7E5527DD143DAFF
:1007D00087D9EE52EFCFDFFFDFCF10F010500501C9
:1007E000AC5D000EAD5902E2ACC5DFFFDF50106E0C
:1007F000116AE850AC5DAC6F1150AD59AD6F010E90
:10080000DB6ADF50F36E010EDBCFF4FFF350F45CD4
:1008100016E2010EDB50EA6A380FE96E040EEA2296
:10082000EF50E66EA9C5E9FFAAC5EAFFA92B000EA5
:10083000AA23E552E750EF6E010EDB2AE2D7000E45
:10084000D880AC55000EAD550DE259DA4ED948D9D5
:10085000EF50400B03E1E8D9C80E02D0E5D9880E6D
:10086000EF6E12D015D9840EEF6EAE51AF1107E0C6
:1008700005D0AFC5FAFF0501AE51F96EFADF0501EB
:10088000AB9FBE5101E17DDE020EE15C02E2E16A56
:10089000E552E16E19D10DDA0501A68F55D9DF6A4F
:1008A00089D902E237D9FCD76D8CDF6A030EDF5C91
:1008B00002E240D9FBD7010EE66EE66AE66A910EC7
:1008C000E66E050EEED96D9C0501080E9C6F040EB8
:1008D0009D6F000E926F040E936F92C594F5956F05
:1008E00032C490F5905102E1100E0BD0010EE66E6D
:1008F000E66A900EE66E050EE66E010ED2D8050190
:10090000200E8F6FE552E0D0A6D9000EDE6E040EE9
:10091000DD6EF1D8040DF4CF11F0D9CFE9FFDACFB5
:10092000EAFFF350EE261150ED22BFD8EF9EFD0EE8
:10093000DB5002E1EAD801D0AFD8EA22DECFEEFFE9
:10094000DDCFEDFFB2D8EF9CB0D8040EE926000E43
:10095000EA22EF8C020EE15C02E2E16AE552E16E0E
:10096000B3D079D9FD0EDBA402D0E66A33D9FD0EEF
:10097000DBA203D0010EE66E2DD9FE0EDB50116A0C
:10098000700F106E0F0E10D990D8FD0EDBCFEFFF59
:10099000020EE15C02E2E16AE552E16E95D05BD9BC
:1009A000FE0EDB5002E165D905D0A5D842D9A3D807
:1009B000010F3FD9020EE15C02E2E16AE552E16E0D
:1009C00083D049D9FD0EDB5002E066D801D09DD816
:1009D000DDD8D9CFE9FFDACFEAFFEE50ED1003E121
:1009E000F36AF46A21D061D890D9FB0EDBCFEEFF19
:1009F000FC0EDBCFEDFF59D8EE52FA0EDBCFEFFF46
:100A0000400E79D9880E86D9FD0EDB5002E044D81D
:100A100001D07BD8EA22EF74DECF10F0DDCF11F0E9
:100A200010C0F3FF11C0F4FF020EE15C02E2E16AC4
:100A3000E552E16E49D043D86DA812D02FD9400EAF
:100A4000EE16EE6AEE6AEE6A29D9EE7C25D8EA2225
:100A5000EF74400E106E22D91050EF161FD9EF7CA4
:100A600033D06D6A696A05018F6B120005018F51E1
:100A70000EE16D6A696AB5D8D08EA28AA08AF28E1C
:100A80006DB602D06D86FCD70501010E8F6F120086
:100A900036D9DBD814EF06F0FE0EEA6ADB345CEFE1
:100AA00006F0E66EE66A6AEF06F0DECFE9FFDDCF1C
:100AB000EAFF12009CC5E9FF9DC5EAFF1200D9CFED
:100AC000E6FFE1CFD9FF1200E552E7CFD9FF1200D0
:100AD00034510F0BE96EEA6AD890E936EA36120013
:100AE00092C5E9FF93C5EAFF12000FD9380EEE6EEA
:100AF000040EED6E1200FD0EDB50E824126EFE0EA9
:100B0000DB50040DF35012241200FE0EEA6ADB34AF
:100B100063EF06F0DF50040DF3CFE9FFF4CFEAFFF7
:100B2000000EE926040EEA22EE6AEE6AEE6AEE6A2A
:100B3000DF2A1200DF50DAD8EA22EF6ADF50D1D87C
:100B4000EA22EF6ADF2A1200020EE66EE66AE66A21
:100B5000710EE66E0F0E51EF06F0EA22EE50EFCF67
:100B6000EAFFE96E1200E66EB0C5E9FFB1C5EAFF23
:100B7000B02B000EB123E552E750EF6EDF061200F6
:100B8000000EE66EE66AE66EE66A1200EA22EECF34
:100B9000DEFFEDCFDDFF120034510F0B71EF06F0D9
:100BA00034510F0B76EF06F0112210C0DEFF11C09A
:100BB000DDFF1200DF50106E116A0C0E105C000E8B
:100BC00011581200F7220900F5CFA4F50A00F5CF5D
:100BD000A5F51200FE0EDBCFE6FF96DEE552E552EC
:100BE0001200160E6F6E9F0E6B6E7B0E696E1200FA
:100BF000010EE66EE66A000EE66EE66A1200D95055
:100C0000020FE96EDACFEAFFEF501200F76AA4256F
:100C1000F66EA551F722080012003251F66EF76AFF
:100C2000D890F636F736120094C5E9FF95C5EAFF6D
:100C30001200040DF3CF10F0F4CF11F0000E1026C7
:100C4000040EB2DF840E8AEF06F05FD8300EEE6E2F
:100C5000040EED6E120033DF020EE1261200020ECA
:100C6000E66EE66ADECFE6FFDDCFE6FF050E51EF6A
:100C700005F00EDF8C0EEF6E1DDF840EEF6E12009E
:100C800027DF960EE926050E120022DF9C0EE926CC
:100C9000050E12000ADFEF50800B1200FDDEADEFF3
:100CA00005F0E66E98EC0AF0106E050EE15E10504D
:100CB000120005DFE6521200FE0BEA36E96E9C0ECA
:100CC000E926050E1200FE0BEA36E96E960EE926BD
:100CD000050E120086EC09F0106E060EE15E105053
:100CE0001200EA6ABA0FE96E050E1200EA6AB70F3F
:100CF000E96E050E1200D9DEE850EF16120094DFFF
:100D0000EE52080EEF6E14EF06F0020EE926000E0A
:0C0D1000EA221200CADEE850EF121200C6
:040D1C00040130514D
:100D20001F0B010801E012003051600BE842E8425D
:100D3000E842E842E842010801E01200345103E0D1
:100D4000340501E012003151220A33E0030A26E0A3
:100D5000010A15E0210A0DE0010A01E01200050177
:100D6000D40EA46F050EA56F080EA76FA86BA68101
:100D700023D00501D40EA46F050EA56F1DD036C477
:100D8000ACF537C4ADF50501000EA96F050EAA6FCD
:100D9000040EAE6F120EAF6FAB8F12000501880EFE
:100DA000A46F050EA56F070EA76FA86BC10EA66FE7
:100DB000120032C4CFF50501A68F12000501886B21
:100DC0004B0E896F8A6B8B6B8C6B8D6B080E8E6FE5
:100DD0000501C36B1A0EE66E010EE66EB1EC04F06F
:100DE000E552E5521E0EE66E020EE66EB1EC04F020
:100DF000E552E55224D90501CD6BCE6BC46B1200D0
:100E000049D97BD9050E061801E1075002E0000E12
:100E100014D050D90501CB51101804E1CC51111850
:100E200001E10DD947D90501CD51101805E1CE5189
:100E3000111802E1C46BC96B010E31D12BD9050128
:100E4000C36BCB51CC1102E1000E05D041D9EF505C
:100E5000800B01E0010E00092DE1FC0EDBCF10F04C
:100E600037D9EE52EF50D880105405E231D9EE5206
:100E7000FC0EEFCFDBFFC36BFC0EDB50C35D19E252
:100E8000C351EA6A080FE96E050EEA22EF50E66EDA
:100E9000C351E76EFD0EDBCFE9FFFE0EDBCFEAFFAD
:100EA000E750E926000EEA22E552E750EF6EC32B29
:100EB000E3D7C5D80501C351F2D0ECD8A09A0501FB
:100EC000C45107E1F0D8FC0EDBCFC9F5010ECA6FA3
:100ED000C46FA08AE4D00AD917E1C6D8F2D802E1DB
:100EE00011500BE0010EDBCFE9FFDB2A020EDBCF56
:100EF000EAFF01E3DB2AEF50F1E1D5D8DFCFC9F5F6
:100F00000501010ECA6FC46FA08A030EE15C02E204
:100F1000E16AE552E16EC3D0E9D818E1A5D8D1D88D
:100F200002E111500CE0010EDBCFF6FFDB2A020ECE
:100F3000DBCFF7FF01E3DB2A0800F550F0E1B3D87F
:100F4000DFCFC9F50501CA6B010EC46FA08A030E7D
:100F5000E15C02E2E16AE552E16EA1D09BD8020EAB
:100F6000E126A09A0501CD51CE1102E1000E08D074
:100F7000CDC5E9FFCEC5EAFFEF50800B01E0010EC1
:100F8000000906E1030EC45D01E1C46BC45102E136
:100F9000A08A4ED0020EC45D09E1E66A000EE66E3C
:100FA000E66A5AD80501030EC46F41D0C4053FE17B
:100FB000400E106E116AC951105C000E115803E208
:100FC000400EDF6E02D0C9C5DFFFDF50C95DC96FBB
:100FD000480EC76F050EC86F010EDFCFDBFFCA5189
:100FE0000BE1010EDB5012E0C5C5F6FFC6C5F7FFE9
:100FF0000800F55042D8F5D7010EDB5007E0C5C513
:10100000E9FFC6C5EAFFEF5038D8F6D70501C95148
:1010100007E1400EDF5C02E1020E01D0030EC46F57
:10102000DFCFE6FF480EE66E050EE66E15D8A08A05
:10103000020EE15C02E2E16AE552E16E30D0400E60
:10104000E66E080EE66E050EE66EE66A46D8F3CF4B
:10105000CBF5F4CFCCF51200010EE66E3ED8F3CFFF
:10106000CDF5F4CFCEF51200DF6A47D8DE5206C0C8
:10107000DEFF07C0DDFFDD521200C7C5E9FFC8C5AE
:10108000EAFFEF6EC72B000EC823C52BC623010E47
:10109000DB061200D9CFE6FFE1CFD9FF1200E552FF
:1010A000E7CFD9FF1200FD0EDBCFC5F5FE0EDBCF7B
:1010B000C6F51200FB0EDBCF10F0FC0EDBCF11F0FB
:1010C0001200DF2ADF50106E116AFF0E1018120096
:1010D000CBC5E9FFCCC5EAFF1200020EE66EE1ECDB
:1010E00004F0106E050EE15E10501200D3DF030E07
:1010F000E126A09A0501C4511200FD0EDBCF06F0D7
:08110000FE0EDBCF07F0120028
:08110800DACFE4FFE2CFDAFFC9
:10111000E9CFE4FFEACFE4FFF6CFE4FFF7CFE4FF47
:10112000F5CFE4FFF3CFE4FFF4CFE4FFFACFE4FF21
:1011300000EE00F0100EE80403E3EECFE4FFFBD76F
:1011400000EE10F0080EE80403E3EECFE4FFFBD757
:10115000E65266EC00F0E55200EE17F0080EE804E7
:1011600003E3E5CFEDFFFBD700EE0FF0100EE80430
:1011700003E3E5CFEDFFFBD7E5CFFAFFE5CFF4FFC3
:10118000E5CFF3FFE5CFF5FFE5CFF7FFE5CFF6FFBE
:10119000E5CFEAFFE5CFE9FFE5CFDAFF1100D8CFD1
:1011A000E4FFE0CFE4FFE46EDACFE4FFE652E5527D
:1011B000E5CFDAFFE550E5CFE0FFE5CFD8FF10003F
:1011C0000501E66BE76B640E0501E7AF02D0D8902E
:1011D00003D0E65D000EE75906E200000501E62BAC
:1011E000000EE723F0D7819A92681C0E936E946AE2
:1011F00016EC00F0818A05018F5102E136EC05F012
:10120000FAD71200D9CFE6FFE1CFD9FF040EE126CD
:10121000D880000E05010055C20E0155010E025581
:10122000000E03553CE300C588F501C589F502C5EC
:101230008AF503C58BF5146A1B0E156EB70E166E74
:10124000176A14C004F015C005F0066E17C007F049
:1012500088C509F089C50AF08AC50BF08BC50CF06A
:1012600074EC0AF004C010F005C011F006C012F0D2
:1012700007C013F01006000E115A125A135A10C06C
:10128000DFFF010E11C0DBFF020E12C0DBFF030EF9
:1012900013C0DBFFDF50AF6E010EDB50B06E040EEB
:1012A000E15C02E2E16AE552E16EE552E7CFD9FF87
:1012B000120012001200120012008EEF06F012004F
:1012C000DEEF06F00501B20520E10501B3051DE1E1
:1012D000A09AF0DF6D920501B36B0501100EE86F67
:1012E0000E0EE96FE807000EE95BE851E911FAE13B
:1012F0006D84080EE86F070EE96FE807000EE95BE2
:10130000E851E911FAE16D94A08A1200D9CFE6FF05
:10131000E1CFD9FFFD0EDBCF06F0FE0EDBCF07F0ED
:10132000050E061801E1075036E0E868061802E1EC
:101330007F0E07182FE0030E061801E1075028E082
:10134000020E061801E1075021E0010E061801E126
:1013500007501AE0740E061801E1075013E0750EED
:10136000061801E107500CE0730E061801E1075062
:1013700005E0720E06180FE107500DD09CDF0BD070
:1013800098DF09D097DF07D09BDF05D098DF03D027
:1013900094DF01D091DF010EE552E7CFD9FF1200B3
:1013A0001201000202020108D8040A000001010231
:1013B000000109024300020100C0FA090400000113
:1013C0000202010005240010010424020205240683
:1013D000000105240100010705810308000209043A
:1013E0000100020A00000007050202400000070594
:1013F00082024000000403090434034D00690063C5
:101400000072006F006300680069007000200054E3
:10141000006500630068006E006F006C006F00677D
:10142000007900200049006E0063002E0014034381
:101430000044004300200069002D00500053004488
:0914400000B213F513F9132D1489
:06144A001E0EF66E000EFE
:10145000F76E000EF86E05010900F550E16F090006
:10146000F550E26F03E1E16701D03DD00900F5508E
:10147000DC6F0900F550DD6F0900F550DE6F0900E3
:101480000900F550E96E0900F550EA6E09000900FF
:101490000900F550DF6F0900F550E06F0900090001
:1014A000F6CFE3F5F7CFE4F5F8CFE5F5DCC5F6FFC9
:1014B000DDC5F7FFDEC5F8FF0501DF5302E1E053AC
:1014C00007E00900F550EE6EDF07F8E2E007F9D714
:1014D000E3C5F6FFE4C5F7FFE5C5F8FF0501E10741
:0814E000000EE25BBFD7120011
:0814E800036A026A016A006A4E
:1014F000200EE76ED89004360536063607360036DD
:101500000136023603360950005C0A5001580B5070
:1015100002580C50035809E30950005E0A50015A62
:101520000B50025A0C50035A042AE72EE4D712003B
:10153000FE0EE3CFE9FFFF0EE3CFEAFFE9CFF3FFB3
:10154000EACFF4FFFB0EE35003E1FC0EE35009E0A9
:10155000FB0EE30602E2FC0EE306FD0EE350EE6E28
:04156000F1D71200AD
:0C156400000EF36E00EE00F0080E01D83F
:101570001200EA6002D0EE6AFCD7F350E960120074
:04158000EE6AFCD73C
:0C15840013EE00F023EE00F0F86A0F9C5C
:1015900025EC0AF003EC00F0E0EC08F0FBD71200B9
:020000040030CA
:0100000021DE
:010001000EF0
:010002002ECF
:010003000AF2
:010005008377
:010006008178
:00000001FF
