:020000040000FA
:060000005EEF15F0120096
:020006001200E6
:0600080050EF09F01200A8
:02000E00C250DE
:08001000020B01E0010E1200D9
:06001800BBEF09F012002D
:02001E000100DF
:0C002000EA2A00008F0500001A00000012
:04002C00D9CFE6FF43
:10003000E1CFD9FFE652A09A6A6A686A706A020E36
:10004000E66EE66AE66A710EE66E0F0EE66E1DEC6F
:1000500015F0146E050EE15E1450160E6F6E9F0EB5
:100060006B6E7B0E696EDF6ADF50146E156A0C0EC4
:10007000145C000E155810E2DF50040DF3CFE9FFB9
:10008000F4CFEAFF000EE926040EEA22EE6AEE6AD9
:10009000EE6AEE6ADF2AE8D76D8C6E6A6D986D9C09
:1000A00068A607D068960101DC6BE16BE26BE36B3D
:1000B000F7D70101010EF56FF66FF76BF86BE96B7F
:1000C000DF6A030EDF5C26E2EA6ADF34FE0BEA3603
:1000D000E96ED20EE926010EEA22EE6AED6AEA6ABC
:1000E000DF34FE0BEA36E96ECC0EE926010EEA2279
:1000F000EE6AED6ADF50EA6AED0FE96E010EEA2260
:10010000EF6ADF50EA6AF00FE96E010EEA22EF6A49
:10011000DF2AD7D70101080ED26F040ED36F160E57
:10012000706E0401300E026F040E036F080E016F33
:10013000840E006F0101C66BC56BE552E552E7CF37
:10014000D9FF1200D9CFE6FFE1CFD9FFE652010176
:10015000C50507E16DBA05D0686A69806988020E35
:10016000C56F6850040B05E06950040B02E0689409
:10017000C6D86DB257D06850010B09E06950010B29
:1001800006E054DFA08A0101040EC56F6890685034
:10019000100B05E06950100B02E09CD8689868AC21
:1001A00019D069AC0FD0010EE66EE66A000EE66E5D
:1001B000E66A730EE66EE66AFCEC0FF0146E060E4D
:1001C000E15E1450689C0101F35101E0F307F35123
:1001D00001E156DB6850200B04E06950200B01E080
:1001E00060D86850020B13E06950020B10E0010E5A
:1001F000E66EE66A000EE66EE66AE6687F0EE66E7A
:10020000FCEC0FF0146E060EE15E14506A6A040EE8
:100210000101E76EC519E8AE02D0E73402D0E7501D
:10022000C55D02E2A19A38D069A635D0DF6A040E16
:10023000DF5C31E268A62FD06CCFEAF10101EA5110
:10024000780BE842E842E842EB6F6896EAB506D0E0
:10025000EB51EA6AF00FE96E010E05D0EB51EA6A44
:10026000ED0FE96E010EEA22EF70EB5102E15ED86C
:1002700010D0000EE66EE66AEA0EE66E010EE66E3D
:10028000720EE66EE66AFCEC0FF0146E060EE15E8E
:100290001450DF2ACCD7A19AE552E552E7CFD9FF17
:1002A000120070A015D0C8C1E9FFC9C1EAFFEF5024
:1002B00080080DE1D2C1E9FFD3C1EAFFEF50840805
:1002C00006E1C8C1E9FFC9C1EAFF8C0EEF6E70906C
:1002D000689A1200698468986D820101010EE96FC5
:1002E000000EE66EE66AE66EE66A750EE66EE66A91
:1002F000FCEC0FF0146E060EE15E145012000101CA
:10030000E96B000EE66EE66AE66EE66A740EE66E6D
:10031000E66AFCEC0FF0146E060EE15E14506D926E
:10032000699468A402D06894FCD71200D9CFE6FF84
:10033000E1CFD9FFE65201012D0EF36FFD0EEA1554
:1003400053E17E0EEA15E8407F0B040DF3CFC8F1B0
:10035000F4CFC9F1000EC827040EC923C8C1CAF1E1
:10036000C9C1CBF1CA75C8C1E9FFC9C1EAFFEF50E5
:100370003C0BE842E8420D0835E1DF6A080EDF5C1D
:1003800023E2C8C1E9FFC9C1EAFF020EE926000E57
:10039000EA22EE50EFCFEAFFE96EEF50E66EDF5053
:1003A000EA6A300FE96E040EEA22E552E750EF6E7A
:1003B000C8C1E9FFC9C1EAFF020EE926000EEA2220
:1003C000EE2AEF22DF2ADAD7C8C1E9FFC9C1EAFF66
:1003D000020EE926000EEA22300EEE6E040EED6EDD
:1003E0000DD807D03AD805D0FD0EEA15040801E172
:1003F00059D8E552E552E7CFD9FF12000101D86B79
:10040000F46BF76BF86BEC6BD96BD2C1E9FFD3C11E
:10041000EAFFEF9ED275D2C1E9FFD3C1EAFFEF9E9A
:10042000D275CAC1E9FFCBC1EAFFEF9EDC6BDD6B81
:10043000DE6BE16BE26BE36B8CD8000EE66EE66A76
:10044000E66EE66A030EE66EE66AFCEC0FF0146EEA
:10045000060EE15E14508DEF05F0020E0101D95D2C
:1004600002E14DEF06F0D96BEC511AE1CAC1E9FF88
:10047000CBC1EAFFEE52080EEF6ECAC1E9FFCBC155
:10048000EAFF020EE926000EEA22300EEE6E040E9E
:10049000ED6ECAC1E9FFCBC1EAFF8C0EEF6E120010
:1004A000EC6B1200D9CFE6FFE1CFD9FFE652D2C103
:1004B000E9FFD3C1EAFFEF50400B01E0010EDF6E10
:1004C0000101D275080EC55D08E132C46EFF6E50A1
:1004D00002E0100E01D0040EC56FD90526E1D2C18D
:1004E000E9FFD3C1EAFF020EE926000EEA22380E28
:1004F000EE6E040EED6E72DB020E0101D85D06E1B8
:10050000D2C1E9FFD3C1EAFF840E0DD0DF5006E16E
:10051000D2C1E9FFD3C1EAFFC80E05D0D2C1E9FFBD
:10052000D3C1EAFF880EEF6E0FD0E1AF0CD0E451DB
:10053000E51107E005D0E5C1FAFF0101E451F96ECC
:10054000FADF0101E19FD96BE552E552E7CFD9FF10
:10055000120004013051600BE842E842E842E842F0
:10056000E842000901E0120031510C0A50E00B0A88
:100570003FE00C0A31E0010A22E00B0A1EE0020A09
:100580001CE0030A18E0080A10E0010A0CE00F0A58
:1005900008E0030A01E012000101DC8F080EC56FBC
:1005A0001200CFEF04F0ECEF06F00101C60EDA6F97
:1005B000010EDB6F0CD02CEF05F008EF03F0345187
:1005C0000101DA6FDB6BC70EDA27010EDB23DC815A
:1005D000010EDD6FDC8F12000101DC8F040134514C
:1005E000EA6AC70FE96E010EEA2232C4EFFF120079
:1005F000000EE66EE66AE66EE66A020EE66EE66AF1
:10060000FCEC0FF0146E060EE15E145012001200A6
:10061000D9CFE6FFE1CFD9FF050EE126040132056F
:1006200010E130511F0B00090CE10101DC8F030EBA
:100630000401315D04E10101010EE86F02D0010106
:10064000E86B0401325101E011D130511F0B020857
:1006500001E00CD134510F0B000901E107D13451F5
:100660000F0B020801E202D1200E0101C55D01E07D
:10067000FDD0DC8F040134BF16D034510F0BE96E6E
:10068000EA6AD890E936EA36CC0EE926010EEA226B
:10069000EECFDEFFEDCFDDFF34510F0BEA6AF00F36
:1006A000E96E010E15D034510F0BE96EEA6AD8904D
:1006B000E936EA36D20EE926010EEA22EECFDEFF57
:1006C000EDCFDDFF34510F0BEA6AED0FE96E010E3D
:1006D000EA22020EEFCFDBFFD950020FE96EDACF2C
:1006E000EAFFEF50010B03E1000EDF9401D0DF843D
:1006F00034BF0BD034510F0BE96EEA6AD890E9365B
:10070000EA36CC0EE926010E0AD034510F0BE96E01
:10071000EA6AD890E936EA36D20EE926010EEA22D4
:10072000DECFEEFFDDCFEDFF030E315D20E1DECF4A
:10073000E9FFDDCFEAFFEF50800B11E034BF07D0B7
:1007400034510F0BEA6AF00FE96E010E06D03451F6
:100750000F0BEA6AED0FE96E010EEA22EF82840EBA
:10076000DECFE9FFDDCFEAFFE850EF127FD0DF7484
:10077000DECFE9FFDDCFEAFFEF50800B1BE0DECFDD
:10078000E9FFDDCFEAFFEF9EDECFE9FFDDCFEAFF35
:10079000EF8C020EE66EE66ADECFE6FFDDCFE6FF07
:1007A000050EE66EE66AFCEC0FF0146E060EE15ED6
:1007B000145005D0DECFE9FFDDCFEAFFEF8CDF7408
:1007C000D950020FE96EDACFEAFFEF50020B07E1D2
:1007D000DECFE9FFDDCFEAFFEF50800B2BE0040115
:1007E00034BF07D034510F0BEA6AF00FE96E010EE7
:1007F00006D034510F0BEA6AED0FE96E010EEA22C2
:10080000EF923B0E146EDECFE9FFDDCFEAFFE8503A
:10081000EF16020EE66EE66ADECFE6FFDDCFE6FFFC
:10082000050EE66EE66AFCEC0FF0146E060EE15E55
:10083000145007D03B0EDECFE9FFDDCFEAFFE850D2
:10084000EF16040134510F0B156A700F146E0F0E62
:100850001522030E14C0DBFF040E15C0DBFF030ED0
:10086000DBCFE9FF040EDBCFEAFFEF90050EE15C82
:1008700002E2E16AE552E16EE552E7CFD9FF1200EC
:100880000101F5514DE1010EF56FF65149E1010EFF
:10089000F66F020ED95D0DE1D2C1E9FFD3C1EAFFC7
:1008A000EE52EF6AD2C1E9FFD3C1EAFFC80EEF6E84
:1008B0001200D90535E1EC6BC8C1E9FFC9C1EAFFF7
:1008C000EE52080EEF6EC8C1E9FFC9C1EAFF020E81
:1008D000E926000EEA22300EEE6E040EED6EC8C15F
:1008E000E9FFC9C1EAFF840EEF6E010EEC6FCAC1C9
:1008F000E9FFCBC1EAFFEE52080EEF6ECAC1E9FF75
:10090000CBC1EAFF020EE926000EEA22300EEE6E9F
:10091000040EED6ECAC1E9FFCBC1EAFF800EEF6E97
:1009200012000101F76BF86B020ED95D18E1CAC124
:10093000E9FFCBC1EAFFEE52080EEF6ECAC1E9FF34
:10094000CBC1EAFF020EE926000EEA22380EEE6E57
:10095000040EED6ECAC1E9FFCBC1EAFF1DD0DD5127
:100960000401365D0101DE510401375904E236C449
:10097000DDF137C4DEF132D9D2C1E9FFD3C1EAFFDC
:10098000020EE926000EEA22380EEE6E040EED6E1F
:10099000D2C1E9FFD3C1EAFFC80EEF6E1200800E8C
:1009A0000401305D58E10101C00EDC6F04013351D8
:1009B000030A2FE0010A09E0030A4BE10101920E4C
:1009C000DA6F270EDB6F120E3ED03251F66EF76AE9
:1009D000D890F636F736330EF626280EF7220900A1
:1009E000F5CFDAF10A00F5CFDBF1020E0101F76A6B
:1009F000DA25F66EDB51F7220800F5CFDDF1030EA4
:100A0000F76ADA25F66EDB51F7220800F5CFDEF142
:100A10001200030E325D1AE23251F66EF76AD89078
:100A2000F636F736350EF626280EF7220900F5CFF2
:100A3000DAF10A00F5CFDBF1DAC1F6FFDBC1F7FF2F
:100A40000800F5500101DD6FDE6B12000101DC6B67
:100A500012000101DC6B1200D9CFE6FFE1CFD9FF14
:100A6000020EE1260401386B396B30511F0B020A6C
:100A700011E0030A0CE0010A3CE10101DC8F0401F2
:100A800038810101E80535E10401388332D00101E4
:100A9000DC8F2FD00101DC8F040134BF0BD0345127
:100AA0000F0BE96EEA6AD890E936EA36CC0EE926F1
:100AB000010E0AD034510F0BE96EEA6AD890E9367C
:100AC000EA36D20EE926010EEA22EECFDEFFEDCFA6
:100AD000DDFFDECFE9FFDDCFEAFFEF50800B09E05D
:100AE000DECFE9FFDDCFEAFFEF50040B02E0010E9D
:100AF000386F0101DCAF07D0380EDA6F040EDB6F00
:100B0000DC81020EDD6F020EE15C02E2E16AE55279
:100B1000E16EE552E7CFD9FF12006D980101DCBF0D
:100B20002BD0E1AF09D0020ED96FF85101E1F9DE07
:100B30000101F66BF56B1200CAC1E9FFCBC1EAFFF8
:100B4000EE52080EEF6ECAC1E9FFCBC1EAFF020EFA
:100B5000E926000EEA22300EEE6E040EED6ECAC1DA
:100B6000E9FFCBC1EAFF8C0EEF6ED2C1E9FFD3C122
:100B7000EAFF840EEF6E1200040130AF0DD00101C8
:100B8000010ED96FF75101E1CCDE0101F66BF56B77
:100B9000F45123E140EF04F00101020ED96FCAC104
:100BA000E9FFCBC1EAFFEE52080EEF6ECAC1E9FFC2
:100BB000CBC1EAFF020EE926000EEA22300EEE6EED
:100BC000040EED6ECAC1E9FFCBC1EAFF840EEF6EE1
:100BD000F66BF56BF45101E153DE1200D9CFE6FF5D
:100BE000E1CFD9FFE652080EDF6E0101DD5D000E98
:100BF000DE590AE2DDC1DFFFD85102E1010E03D068
:100C0000D80502E1020ED86FDF50156AE850DD5DAD
:100C1000DD6F1550DE59DE6FD2C1E9FFD3C1EAFFA7
:100C2000EE52DFCFEFFF380EE66F040EE76FDCB158
:100C300018D0DF502DE0DAC1F6FFDBC1F7FFDA2B69
:100C4000000EDB230800F550E66EE6C1E9FFE7C1C0
:100C5000EAFFE62B000EE723E552E750EF6EDF06D2
:100C6000E8D7DF5015E0DAC1E9FFDBC1EAFFDA2B94
:100C7000000EDB23EF50E66EE6C1E9FFE7C1EAFFB5
:100C8000E62B000EE723E552E750EF6EDF06E9D7CB
:100C9000E552E552E7CFD9FF1200D9CFE6FFE1CF09
:100CA000D9FF020EE126C8C1E9FFC9C1EAFFEE5231
:100CB000EFCFDFFFDFCF14F014500101E25D000E33
:100CC000E35902E2E2C1DFFFDF50146E156AE8501B
:100CD000E25DE26F1550E359E36F010EDB6ADF500E
:100CE000F36E010EDBCFF4FFF350F45C16E2010E5D
:100CF000DB50EA6A380FE96E040EEA22EF50E66E26
:100D0000DFC1E9FFE0C1EAFFDF2B000EE023E5527F
:100D1000E750EF6E010EDB2AE2D7000ED880E255D5
:100D2000000EE35527E2CAC1E9FFCBC1EAFFEE524C
:100D3000080EEF6ECAC1E9FFCBC1EAFF020EE92639
:100D4000000EEA22380EEE6E040EED6EC8C1E9FF09
:100D5000C9C1EAFFEF50400B06E1CAC1E9FFCBC1B0
:100D6000EAFFC80E05D0CAC1E9FFCBC1EAFF880E71
:100D7000EF6E28D0CAC1E9FFCBC1EAFFEE52080EE0
:100D8000EF6ECAC1E9FFCBC1EAFF020EE926000EF1
:100D9000EA22300EEE6E040EED6ECAC1E9FFCBC141
:100DA000EAFF840EEF6EE451E51107E005D0E5C1DE
:100DB000FAFF0101E451F96EFADF0101E19FF451FC
:100DC00001E15EDD020EE15C02E2E16AE552E16E04
:100DD000E552E7CFD9FF1200D9CFE6FFE1CFD9FF27
:100DE000E6520101DC8F020EE66EE66AE66A710EDB
:100DF000E66E0F0EE66E1DEC15F0146E050EE15E4C
:100E00001450DF6ADF50146E156A0C0E145C000E6D
:100E1000155810E2DF50040DF3CFE9FFF4CFEAFFDD
:100E2000000EE926040EEA22EE6AEE6AEE6AEE6A27
:100E3000DF2AE8D76D8CDF6A030EDF5C10E2DF503B
:100E4000EA6AED0FE96E010EEA22EF6ADF50EA6A04
:100E5000F00FE96E010EEA22EF6ADF2AEDD7010EEC
:100E6000E66EE66AE66AC70EE66E010EE66E1DECF9
:100E700015F0146E050EE15E14506D9C0101080E14
:100E8000D26F040ED36F000EC86F040EC96FC8C1B5
:100E9000CAF1CB6F32C4C6F1C65102E1100E12D0B6
:100EA000010EE66EE66AC60EE66E010EE66E010EF5
:100EB000E66EE66AFCEC0FF0146E060EE15E14506E
:100EC0000101200EC56FE552E552E7CFD9FF1200B0
:100ED000D9CFE6FFE1CFD9FF020EE126000EDE6E8C
:100EE000040EDD6EFD0EDB50E824166EFE0EDB50A8
:100EF000040DF3501624040DF4CF15F0D9CFE9FFFB
:100F0000DACFEAFFF350EE261550ED22DECFE9FFEF
:100F1000DDCFEAFFEF9EFD0EDB500AE1FE0EEA6A2E
:100F2000DB34FE0BEA36E96ECC0EE926010E09D061
:100F3000FE0EEA6ADB34FE0BEA36E96ED20EE926D3
:100F4000010EEA22DECFEEFFDDCFEDFFDECFE9FFBF
:100F5000DDCFEAFFEF9CDECFE9FFDDCFEAFF040E35
:100F6000E926000EEA22EF8C020EE15C02E2E16A61
:100F7000E552E16EE552E7CFD9FF1200D9CFE6FF87
:100F8000E1CFD9FF020EE126FD0EDBA407D0E66A11
:100F9000FE0EDBCFE6FF9CDFE552E552FD0EDBA245
:100FA00008D0010EE66EFE0EDBCFE6FF91DFE552C4
:100FB000E552FE0EDB50156A700F146E0F0E1522EF
:100FC00014C0DEFF15C0DDFFDECFE9FFDDCFEAFF95
:100FD000FD0EDBCFEFFF020EE15C02E2E16AE552BB
:100FE000E16EE552E7CFD9FF1200D9CFE6FFE1CF9E
:100FF000D9FF020EE126FE0EDB5020E1CAC1E9FF57
:10100000CBC1EAFFEE52080EEF6ECAC1E9FFCBC1B9
:10101000EAFF020EE926000EEA22300EEE6E040E02
:10102000ED6ECAC1E9FFCBC1EAFF8C0EEF6ED2C1F3
:10103000E9FFD3C1EAFF840EEF6E3BD0FD0EDB501B
:10104000E824166EFE0EDB50040DF3501624040D3A
:10105000F3CF14F0F4CF15F0000E1426040E152271
:1010600014C0DEFF15C0DDFF840EDECFE9FFDDCF4B
:10107000EAFFE850EF12FD0EDB50E824166EFE0E7C
:10108000DB50040DF3501624010F040DF3CF14F0C0
:10109000F4CF15F0000E1426040E152214C0DEFF46
:1010A00015C0DDFF840EDECFE9FFDDCFEAFFE8509B
:1010B000EF12020EE15C02E2E16AE552E16EE552F6
:1010C000E7CFD9FF1200D9CFE6FFE1CFD9FF020E5B
:1010D000E126FD0EDB500AE0FE0EEA6ADB34FE0B71
:1010E000EA36E96ED20EE926010E09D0FE0EEA6A52
:1010F000DB34FE0BEA36E96ECC0EE926010EEA225D
:10110000EECFDEFFEDCFDDFFD9CFE9FFDACFEAFF8B
:10111000EE50ED1003E1F36AF46A44D0DECFE9FF4C
:10112000DDCFEAFF020EE926000EEA22FB0EDBCF3E
:10113000EEFFFC0EDBCFEDFFDECFE9FFDDCFEAFFF8
:10114000EE52FA0EDBCFEFFF400EDECFE9FFDDCF30
:10115000EAFFE850EF16880EDECFE9FFDDCFEAFFA9
:10116000E850EF12FD0EDB500AE0FE0EEA6ADB34B7
:10117000FE0BEA36E96ED20EE926010E09D0FE0E0C
:10118000EA6ADB34FE0BEA36E96ECC0EE926010E84
:10119000EA22EF74DECF14F0DDCF15F014C0F3FFB8
:1011A00015C0F4FF020EE15C02E2E16AE552E16E75
:1011B000E552E7CFD9FF1200D9CFE6FFE1CFD9FF43
:1011C0006DA84ED0FE0EEA6ADB34FE0BEA36E96EFD
:1011D000D20EE926010EEA22EE50EFCFEAFFE96EC9
:1011E000400EEE16EE6AEE6AEE6AFE0EEA6ADB3436
:1011F000FE0BEA36E96ED20EE926010EEA22EE5027
:10120000EFCFEAFFE96EEE7CFE0EEA6ADB34FE0BFE
:10121000EA36E96ED20EE926010EEA22EF74400E9C
:10122000146EFE0EEA6ADB34FE0BEA36E96ED20E6D
:10123000E926010EEA22EE50EFCFEAFFE96E1450E4
:10124000EF16FE0EEA6ADB34FE0BEA36E96ED20ECA
:10125000E926010EEA22EE50EFCFEAFFE96EEF7CBD
:10126000E552E7CFD9FF12006D6A696A0101C56BCB
:1012700012000101C55113E16D6A696A160E6F6EA5
:101280009F0E6B6E7B0E696ED08EA28AA08AF28E44
:101290006DB602D06D86FCD70101010EC56F12003C
:1012A000DACFE4FFE2CFDAFFE9CFE4FFEACFE4FFF1
:1012B000F6CFE4FFF7CFE4FFF5CFE4FFF3CFE4FF91
:1012C000F4CFE4FFFACFE4FF00EE00F0140EE804E0
:1012D00003E3EECFE4FFFBD700EE14F0080EE804C2
:1012E00003E3EECFE4FFFBD7E652F2A41ED0F29464
:1012F000D00EE66E8A0EE66E01EC15F0E552E55270
:101300000101C55102E139EC09F0200E0101E76E3F
:10131000C519E8AE02D0E73402D0E750C55D05E359
:101320006D50020B02E12DD9827CA2EC00F0E55257
:1013300000EE1BF0080EE80403E3E5CFEDFFFBD75A
:1013400000EE13F0140EE80403E3E5CFEDFFFBD746
:10135000E5CFFAFFE5CFF4FFE5CFF3FFE5CFF5FFEB
:10136000E5CFF7FFE5CFF6FFE5CFEAFFE5CFE9FFF1
:10137000E5CFDAFF1100D8CFE4FFE0CFE4FFE46E61
:10138000DACFE4FFE652E552E5CFDAFFE550E5CFEC
:10139000E0FFE5CFD8FF10000101BB6BBC6BBD6B5C
:1013A000BE6BE80EBB5D030EBC59000EBD59000EAE
:1013B000BE5906E2BB2B000EBC23BD23BE23F1D7D2
:1013C0009268300E936E946A826B8251146E156A25
:1013D000400E145C000E155809E28251EA6A000FB3
:1013E000E96E010EEA22EF6A822BEFD7806B816BE8
:1013F00016EC00F039EC09F0190EE66E050EE66EFB
:10140000EF0EE66EA6EC14F0E552E552E552870EBB
:10141000D56ED00EE66E8A0EE66E01EC15F0E55242
:10142000E552F28EF28A39EC09F0FDD7D9CFE6FF0A
:10143000E1CFD9FF6CEC15F0C580C5B0FED7FE0E2C
:10144000DBCFE6FF6DEC14F0E552000902E0020E7E
:1014500027D06CEC15F0C5AC02D0030E21D09E96BF
:10146000FD0EDBCFE6FF6DEC14F0E552000902E063
:10147000040E16D06CEC15F0C5AC02D0050E10D0E1
:101480009E96FC0EDBCFE6FF6DEC14F0E5520009F2
:1014900002E0080E05D06CEC15F0C5AC03D0090EC7
:1014A000F36E06D09E96C584C5B4FED79E96F36AA9
:1014B000F46AE552E7CFD9FF1200D9CFE6FFE1CFBA
:1014C000D9FF6CEC15F0C580C5B0FED7FE0EDBCFA2
:1014D000E6FF6DEC14F0E552000902E0210E36D073
:1014E0006CEC15F0C550400B01E0010E0101B76F27
:1014F000B86BB96BBA6BE850B811B911BA1102E008
:10150000220E24D09E96FD0EDBCFE6FF6DEC14F08C
:10151000E552000902E0230E19D06CEC15F0C5ACC1
:1015200002D0240E13D09E96C582C5B2FED7FE0E01
:10153000DB28E66E6DEC14F0E552000902E0260EA1
:1015400005D06CEC15F0C5AC04D0270EF36EF46A30
:1015500014D09E96C586C5B6FED7C58AC588C5B8BF
:10156000FED79E96C584C5B4FED79E969E96C9505A
:10157000146E156AF36E15C0F4FFE552E7CFD9FF7C
:101580001200870EE66E37EC15F0E55273EC15F09D
:1015900007EC00F00009FCE1C4500101A36FA46B4B
:1015A000C350A56FA66B8F0EE66E37EC15F0E552B3
:1015B00073EC15F007EC00F00009FCE1C4500101E8
:1015C000A76FA86BC350A96FAA6B970EE66E37EC96
:1015D00015F0E55273EC15F007EC00F00009FCE1A2
:1015E000C4500101AB6FAC6BC350AD6FAE6BA70EB7
:1015F000E66E37EC15F0E55273EC15F007EC00F0F1
:101600000009FCE1C4500101AF6FB06BC350B16F72
:10161000B26B870EE66E37EC15F0E55273EC15F001
:1016200007EC00F00009FCE1C450146E156AE850A4
:101630000101A3271550A423C350146E156AE85066
:10164000A5271550A6238F0EE66E37EC15F0E55250
:1016500073EC15F007EC00F00009FCE1C450146EC7
:10166000156AE8500101A7271550A823C350146E2E
:10167000156AE850A9271550AA23970EE66E37EC95
:1016800015F0E55273EC15F007EC00F00009FCE1F1
:10169000C450146E156AE8500101AB271550AC23F5
:1016A000C350146E156AE850AD271550AE23A70E2F
:1016B000E66E37EC15F0E55273EC15F007EC00F030
:1016C0000009FCE1C450146E156AE8500101AF270F
:1016D0001550B023C350146E156AE850B127155049
:1016E000B223870EE66E37EC15F0E55273EC15F079
:1016F00007EC00F00009FCE1C450146E156AE850D4
:101700000101A3271550A423C350146E156AE85095
:10171000A5271550A6238F0EE66E37EC15F0E5527F
:1017200073EC15F007EC00F00009FCE1C450146EF6
:10173000156AE8500101A7271550A823C350146E5D
:10174000156AE850A9271550AA23970EE66E37ECC4
:1017500015F0E55273EC15F007EC00F00009FCE120
:10176000C450146E156AE8500101AB271550AC2324
:10177000C350146E156AE850AD271550AE23A70E5E
:10178000E66E37EC15F0E55273EC15F007EC00F05F
:101790000009FCE1C450146E156AE8500101AF273E
:1017A0001550B023C350146E156AE850B127155078
:1017B000B223870EE66E37EC15F0E55273EC15F0A8
:1017C00007EC00F00009FCE1C450146E156AE85003
:1017D0000101A3271550A423C350146E156AE850C5
:1017E000A5271550A6238F0EE66E37EC15F0E552AF
:1017F00073EC15F007EC00F00009FCE1C450146E26
:10180000156AE8500101A7271550A823C350146E8C
:10181000156AE850A9271550AA23970EE66E37ECF3
:1018200015F0E55273EC15F007EC00F00009FCE14F
:10183000C450146E156AE8500101AB271550AC2353
:10184000C350146E156AE850AD271550AE23A70E8D
:10185000E66E37EC15F0E55273EC15F007EC00F08E
:101860000009FCE1C450146E156AE8500101AF276D
:101870001550B023C350146E156AE850B1271550A7
:10188000B223870EE66E37EC15F0E55273EC15F0D7
:1018900007EC00F00009FCE1C450146E156AE85032
:1018A0000101A3271550A423C350146E156AE850F4
:1018B000A5271550A6238F0EE66E37EC15F0E552DE
:1018C00073EC15F007EC00F00009FCE1C450146E55
:1018D000156AE8500101A7271550A823C350146EBC
:1018E000156AE850A9271550AA23970EE66E37EC23
:1018F00015F0E55273EC15F007EC00F00009FCE17F
:10190000C450146E156AE8500101AB271550AC2382
:10191000C350146E156AE850AD271550AE23A70EBC
:10192000E66E37EC15F0E55273EC15F007EC00F0BD
:101930000009FCE1C450146E156AE8500101AF279C
:101940001550B023C350146E156AE850B1271550D6
:10195000B223870EE66E37EC15F0E55273EC15F006
:1019600007EC00F00009FCE1C4500101A36FA46B77
:10197000C350A56FA66B8F0EE66E37EC15F0E552DF
:1019800073EC15F007EC00F00009FCE1C450010114
:10199000A76FA86BC350A96FAA6B970EE66E37ECC2
:1019A00015F0E55273EC15F007EC00F00009FCE1CE
:1019B000C4500101AB6FAC6BC350AD6FAE6BA70EE3
:1019C000E66E37EC15F0E55273EC15F007EC00F01D
:1019D0000009FCE1C4500101AF6FB06BC350B16F9F
:1019E000B26B870EE66E37EC15F0E55273EC15F02E
:1019F00007EC00F00009FCE1C450146E156AE850D1
:101A00000101A3271550A423C350146E156AE85092
:101A1000A5271550A6238F0EE66E37EC15F0E5527C
:101A200073EC15F007EC00F00009FCE1C450146EF3
:101A3000156AE8500101A7271550A823C350146E5A
:101A4000156AE850A9271550AA23970EE66E37ECC1
:101A500015F0E55273EC15F007EC00F00009FCE11D
:101A6000C450146E156AE8500101AB271550AC2321
:101A7000C350146E156AE850AD271550AE23A70E5B
:101A8000E66E37EC15F0E55273EC15F007EC00F05C
:101A90000009FCE1C450146E156AE8500101AF273B
:101AA0001550B023C350146E156AE850B127155075
:101AB000B223870EE66E37EC15F0E55273EC15F0A5
:101AC00007EC00F00009FCE1C450146E156AE85000
:101AD0000101A3271550A423C350146E156AE850C2
:101AE000A5271550A6238F0EE66E37EC15F0E552AC
:101AF00073EC15F007EC00F00009FCE1C450146E23
:101B0000156AE8500101A7271550A823C350146E89
:101B1000156AE850A9271550AA23970EE66E37ECF0
:101B200015F0E55273EC15F007EC00F00009FCE14C
:101B3000C450146E156AE8500101AB271550AC2350
:101B4000C350146E156AE850AD271550AE23A70E8A
:101B5000E66E37EC15F0E55273EC15F007EC00F08B
:101B60000009FCE1C450146E156AE8500101AF276A
:101B70001550B023C350146E156AE850B1271550A4
:101B8000B223870EE66E37EC15F0E55273EC15F0D4
:101B900007EC00F00009FCE1C450146E156AE8502F
:101BA0000101A3271550A423C350146E156AE850F1
:101BB000A5271550A6238F0EE66E37EC15F0E552DB
:101BC00073EC15F007EC00F00009FCE1C450146E52
:101BD000156AE8500101A7271550A823C350146EB9
:101BE000156AE850A9271550AA23970EE66E37EC20
:101BF00015F0E55273EC15F007EC00F00009FCE17C
:101C0000C450146E156AE8500101AB271550AC237F
:101C1000C350146E156AE850AD271550AE23A70EB9
:101C2000E66E37EC15F0E55273EC15F007EC00F0BA
:101C30000009FCE1C450146E156AE8500101AF2799
:101C40001550B023C350146E156AE850B1271550D3
:101C5000B223870EE66E37EC15F0E55273EC15F003
:101C600007EC00F00009FCE1C450146E156AE8505E
:101C70000101A3271550A423C350146E156AE85020
:101C8000A5271550A6238F0EE66E37EC15F0E5520A
:101C900073EC15F007EC00F00009FCE1C450146E81
:101CA000156AE8500101A7271550A823C350146EE8
:101CB000156AE850A9271550AA23970EE66E37EC4F
:101CC00015F0E55273EC15F007EC00F00009FCE1AB
:101CD000C450146E156AE8500101AB271550AC23AF
:101CE000C350146E156AE850AD271550AE23A70EE9
:101CF000E66E37EC15F0E55273EC15F007EC00F0EA
:101D00000009FCE1C450146E156AE8500101AF27C8
:101D10001550B023C350146E156AE850B127155002
:101D2000B223A3C106F0A4C107F0B6EC12F005C0BF
:101D300014F006C015F007C016F008C017F00A6AC4
:101D40000B6A200E0C6E410E0D6EC9EC12F01CECED
:101D500013F007C097F1A5C106F0A6C107F0B6ECD5
:101D600012F005C014F006C015F007C016F008C048
:101D700017F00A6A0B6A200E0C6E410E0D6EC9EC4C
:101D800012F01CEC13F007C098F1A7C106F0A8C12F
:101D900007F0B6EC12F005C014F006C015F007C04D
:101DA00016F008C017F00A6A0B6A200E0C6E410E7E
:101DB0000D6EC9EC12F01CEC13F007C099F1A9C12B
:101DC00006F0AAC107F0B6EC12F005C014F006C088
:101DD00015F007C016F008C017F00A6A0B6A200E4B
:101DE0000C6E410E0D6EC9EC12F01CEC13F007C026
:101DF0009AF1ABC106F0ACC107F0B6EC12F005C029
:101E000014F006C015F007C016F008C017F00A6AF3
:101E10000B6A200E0C6E410E0D6EC9EC12F01CEC1C
:101E200013F007C09BF1ADC106F0AEC107F0B6ECF0
:101E300012F005C014F006C015F007C016F008C077
:101E400017F00A6A0B6A200E0C6E410E0D6EC9EC7B
:101E500012F01CEC13F007C09CF1AFC106F0B0C14A
:101E600007F0B6EC12F005C014F006C015F007C07C
:101E700016F008C017F00A6A0B6A200E0C6E410EAD
:101E80000D6EC9EC12F01CEC13F007C09DF1B1C14E
:101E900006F0B2C107F0B6EC12F005C014F006C0AF
:101EA00015F007C016F008C017F00A6A0B6A200E7A
:101EB0000C6E410E0D6EC9EC12F01CEC13F007C055
:101EC0009EF101010D0E9F6F0A0EA06F0DEC12F036
:101ED0000501AA510BE10A0EE66E950EE66E050E9F
:101EE000E66E6FEC11F0E552E552E5520DEF12F09F
:101EF000D9CFE6FFE1CFD9FF040EE126D880000E4E
:101F000005010055C20E0155010E0255000E035584
:101F10003CE300C588F501C589F502C58AF503C50E
:101F20008BF5186A1B0E196EB70E1A6E1B6A18C055
:101F300004F019C005F0066E1BC007F088C509F053
:101F400089C50AF08AC50BF08BC50CF0DDEC14F0E6
:101F500004C014F005C015F006C016F007C017F055
:101F60001406000E155A165A175A14C0DFFF010E38
:101F700015C0DBFF020E16C0DBFF030E17C0DBFF30
:101F8000DF50AF6E010EDB50B06E040EE15C02E27A
:101F9000E16AE552E16EE552E7CFD9FF1200120087
:101FA00012001200120046EF10F0120096EF10F02F
:101FB0000101E80520E10101E9051DE1A09AF0DF3A
:101FC0006D920101E96B0101100EC36F0E0EC46F1B
:101FD000C307000EC45BC351C411FAE16D84080E3F
:101FE000C36F070EC46FC307000EC45BC351C41197
:101FF000FAE16D94A08A1200D9CFE6FFE1CFD9FFB4
:10200000FD0EDBCF06F0FE0EDBCF07F0050E061847
:1020100001E1075036E0E868061802E17F0E071874
:102020002FE0030E061801E1075028E0020E061803
:1020300001E1075021E0010E061801E107501AE006
:10204000740E061801E1075013E0750E061801E141
:1020500007500CE0730E061801E1075005E0720E00
:1020600006180FE107500DD09CDF0BD098DF09D088
:1020700097DF07D09BDF05D098DF03D094DF01D036
:0C20800091DF010EE552E7CFD9FF1200FE
:04208C0004013051CA
:102090001F0B010801E012003051600BE842E842DA
:1020A000E842E842E842010801E01200345103E04E
:1020B000340501E012003151220A33E0030A26E020
:1020C000010A15E0210A0DE0010A01E012000101F8
:1020D000BA0EDA6F050EDB6F080EDD6FDE6BDC818A
:1020E00023D00101BA0EDA6F050EDB6F1DD036C4A6
:1020F000E2F137C4E3F10101000EDF6F050EE06F7E
:10210000F00EE46F1E0EE56FE18F12000101880EE4
:10211000DA6F050EDB6F070EDD6FDE6BC10EDC6F55
:10212000120032C4B5F50101DC8F12000501886B85
:102130004B0E896F8A6B8B6B8C6B8D6B080E8E6F61
:102140000501A96B1A0EE66E010EE66EBEEC07F0F5
:10215000E552E5521E0EE66E020EE66EBEEC07F08C
:10216000E552E552400EE66E080EE66E050EE66E8E
:10217000E66A020EE66E63EC08F0146E050EE15E90
:102180001450F3CFB1F5F4CFB2F50501B36BB46BD6
:10219000AA6B1200D9CFE6FFE1CFD9FFFD0EDBCF4E
:1021A00006F0FE0EDBCF07F0050E061801E1075022
:1021B00002E0000E30D0FB0EDBCF14F0FC0EDBCFC4
:1021C00015F00501B151141816E1B251151813E1BB
:1021D000400EE66E080EE66E050EE66EE66A020E2C
:1021E000E66E63EC08F0146E050EE15E1450F3CF5A
:1021F000B1F5F4CFB2F5FB0EDBCF14F0FC0EDBCF64
:1022000015F00501B351141805E1B451151802E198
:10221000AA6BAF6B010EE552E7CFD9FF1200D9CF01
:10222000E6FFE1CFD9FF0501A96BB151B21102E17F
:10223000000E08D0B1C5E9FFB2C5EAFFEF50800B30
:1022400001E0010E000945E1FC0EDBCF14F0B1C541
:10225000E9FFB2C5EAFFEE52EF50D880145408E20D
:10226000B1C5E9FFB2C5EAFFEE52FC0EEFCFDBFFCE
:10227000A96BFC0EDB50A95D19E2A951EA6A080FAF
:10228000E96E050EEA22EF50E66EA951E76EFD0EEB
:10229000DBCFE9FFFE0EDBCFEAFFE750E926000EB9
:1022A000EA22E552E750EF6EA92BE3D7400EE66E27
:1022B000080EE66E050EE66EE66A020EE66E63EC4A
:1022C00008F0146E050EE15E1450F3CFB1F5F4CFB3
:1022D000B2F50501A951E552E7CFD9FF1200D9CFD8
:1022E000E6FFE1CFD9FFA09A0501AA510CE1FD0E4E
:1022F000DBCFABF5FE0EDBCFACF5FC0EDBCFAFF5E5
:10230000010EB06FAA6FA08AE552E7CFD9FF120085
:10231000D9CFE6FFE1CFD9FF030EE126A09A050150
:10232000AA512DE1DF6AFD0EDBCF06F0FE0EDBCFFA
:1023300007F0DE5206C0DEFF07C0DDFFDD52DF2AF8
:10234000DF50146E156AFF0E141802E115500BE0F1
:10235000010EDBCFE9FFDB2A020EDBCFEAFF01E350
:10236000DB2AEF50ECE1FD0EDBCFABF5FE0EDBCF51
:10237000ACF5DFCFAFF50501010EB06FAA6FA08AF3
:10238000030EE15C02E2E16AE552E16EE552E7CF5D
:10239000D9FF1200D9CFE6FFE1CFD9FF030EE12626
:1023A000A09A0501AA512EE1DF6AFD0EDBCF06F0EF
:1023B000FE0EDBCF07F0DE5206C0DEFF07C0DDFFFA
:1023C000DD52DF2ADF50146E156AFF0E141802E189
:1023D00015500CE0010EDBCFF6FFDB2A020EDBCF3F
:1023E000F7FF01E3DB2A0800F550EBE1FD0EDBCF40
:1023F000ABF5FE0EDBCFACF5DFCFAFF50501B06B73
:10240000010EAA6FA08A030EE15C02E2E16AE552C6
:10241000E16EE552E7CFD9FF1200D9CFE6FFE1CF59
:10242000D9FF020EE126A09A0501B351B41102E1D1
:10243000000E08D0B3C5E9FFB4C5EAFFEF50800B2A
:1024400001E0010E000906E1030EAA5D01E1AA6B9D
:10245000AA5102E1A08A7ED0020EAA5D16E1E66AC8
:10246000000EE66EE66A010EE66E020EE66E63ECA4
:1024700008F0146E050EE15E1450F3CFB3F5F4CFFF
:10248000B4F50501030EAA6F64D0AA0562E1400EFF
:10249000146E156AAF51145C000E155803E2400E1D
:1024A000DF6E02D0AFC5DFFFDF50AF5DAF6F480E0C
:1024B000AD6F050EAE6F010EDFCFDBFFB05116E141
:1024C000010EDB5028E0ABC5F6FFACC5F7FF0800F6
:1024D000F550ADC5E9FFAEC5EAFFEF6EAD2B000EBE
:1024E000AE23AB2BAC23010EDB06EAD7010EDB508B
:1024F00012E0ABC5E9FFACC5EAFFEF50ADC5E9FF9F
:10250000AEC5EAFFEF6EAD2B000EAE23AB2BAC23B6
:10251000010EDB06EBD70501AF5107E1400EDF5C92
:1025200002E1020E01D0030EAA6FDFCFE6FF480ED4
:10253000E66E050EE66E010EE66E020EE66E63ECCA
:1025400008F0146E050EE15E1450F3CFB3F5F4CF2E
:10255000B4F5A08A020EE15C02E2E16AE552E16EA6
:08256000E552E7CFD9FF12009C
:082568000F9E08D00F9E07AE84
:1025700005D0066C071EE86A07220F8E07C001F01F
:1025800006C000F0136A126A8E0E026E036A5FEFD5
:1025900013F00F6A9BEC13F0B3EC13F00FB643EF9C
:1025A00013F00FA205D00FBA43EF13F04AEF13F068
:1025B0000FBA56EF13F00FA005D00FB843EF13F08A
:1025C00056EF13F00FB84AEF13F0036A7F0E08249A
:1025D000026EE86A03220D50025EE86A035A1A0E80
:1025E000106E086A126A136A006A016A0A50055E70
:1025F0000B50065A0C50075A000E085A09E70A50A9
:1026000005260B5006220C500722000E082201D08E
:10261000128AD8900536063607360836D890123614
:10262000133600360136102EE1D70750061005107C
:10263000D8A4128A5FEF13F00F6A9BEC13F00FB669
:1026400026EF13F00FA20AD00FB403D07F0E076E4F
:1026500019D0800E076E16D0076A14D00FB0FCD7C1
:10266000870E0860F1D77E0E0864F6D7860E085CE8
:1026700004E0D8900732082AF9D70FA403D0076CDA
:1026800007AEEAD712007F0E086EFF0E076E066EC9
:10269000056E12007F0E0FBEFF0E086E02D07F0E79
:1026A000086E800E076E066A056AF3D70FAE04D077
:1026B000800E086E076AF7D7086A076AF4D70150D8
:1026C000001013101210F8E003BEF0D701BE0CD0BA
:1026D00002500310EBE0D890123613360036013664
:1026E0000206D8A00306F2D70350D4E10228D2E0B4
:1026F00012AE11D07F0E121402E113A00CD0132AD7
:10270000E86A0022012207E3D88001320032133246
:10271000022A0228BFE00250C9E013C005F000C041
:1027200006F00134076E0230086E0732089E0FBEB5
:10273000088E49EF13F00736083602E30F840F7E48
:1027400006E10F80086A076A066A056A120008280F
:1027500003E0D88007321200D890073202E10F82DE
:1027600012000F8612000C360D3602E30F8C0F7E1E
:1027700006E10F880D6A0C6A0B6A0A6A12000D28BE
:1027800003E0D8800C321200D8900C32EAE10F8AB4
:02279000120035
:0E2792001201000202020108D8040A00000130
:1027A0000102000109024300020100C0FA0904000D
:1027B00000010202010005240010010424020205A8
:1027C0002406000105240100010705810308000219
:1027D00009040100020A000000070502024000008F
:1027E000070582024000000403090434034D006918
:1027F00000630072006F00630068006900700020D1
:102800000054006500630068006E006F006C006F8C
:102810000067007900200049006E0063002E00145C
:1028200003430044004300200069002D0050005382
:0B283000004400A427E727EB271F2827
:04283C001E0EF66E08
:10284000000EF76E000EF86E05010900F550C76F17
:102850000900F550C86F03E1C76701D03DD00900FA
:10286000F550C26F0900F550C36F0900F550C46FF1
:1028700009000900F550E96E0900F550EA6E0900FB
:1028800009000900F550C56F0900F550C66F090031
:102890000900F6CFC9F5F7CFCAF5F8CFCBF5C2C519
:1028A000F6FFC3C5F7FFC4C5F8FF0501C55302E134
:1028B000C65307E00900F550EE6EC507F8E2C607FB
:1028C000F9D7C9C5F6FFCAC5F7FFCBC5F8FF0501A3
:0A28D000C707000EC85BBFD7120057
:0628DA00D9CFE6FFDACFC2
:1028E000E6FFE1CFD9FFE2CFDAFFFD0EDB50C96E84
:1028F000C6AE02D0FF0E24D00F0EC61408080FE09B
:102900000F0EC6140B080BE0C6889EA6FED7C75054
:10291000040B03E1C750010B10E0000E11D00F0EA5
:10292000C614080804E00F0EC6140B0809E1C7B06E
:10293000FED76CEC15F0C5AC02D0FE0E01D0000E37
:0C294000E552E5CFDAFFE7CFD9FF120027
:04294C00D9CFE6FFFA
:10295000DACFE6FFE1CFD9FFE2CFDAFFC26AC06A81
:10296000FC0EDB407F0B3C0BC26EFC0EDB38F00B29
:10297000300B146EFB0EDB500F0B1410C16EFD0EEE
:10298000DB50040DF350380B156EFD0EDB380F0BCA
:10299000070B146EFD0EDB50800B14101510C06E6B
:1029A000FC0EDBAE03D09E9C9D8CF28CC280E55267
:0A29B000E5CFDAFFE7CFD9FF1200F0
:0629BA00036A026A016AD3
:1029C000006A200EE76ED8900436053606360736C4
:1029D00000360136023603360950005C0A500158B1
:1029E0000B5002580C50035809E30950005E0A507E
:1029F000015A0B50025A0C50035A042AE72EE4D70E
:022A00001200C2
:0E2A0200D9CFE6FFDACFE6FFE1CFD9FFE2CF72
:102A1000DAFFE652E652FC0EDBCFDEFFDBCFDDFF56
:102A2000010EDB50D76EDF50D66EE552E552E5520F
:0A2A3000E5CFDAFFE7CFD9FF12006F
:062A3A00FE0EE3CFE9FFF0
:102A4000FF0EE3CFEAFFE9CFF3FFEACFF4FFFB0E7F
:102A5000E35003E1FC0EE35009E0FB0EE30602E263
:0E2A6000FC0EE306FD0EE350EE6EF1D7120001
:022A6E00D9CFBE
:102A7000E6FFDACFE6FFE1CFD9FFE2CFDAFFC30E00
:102A8000C214146EFD0EDB407F0B3C0B1410C26EA3
:0C2A9000E552E5CFDAFFE7CFD9FF1200D6
:042A9C00000EF36EC7
:102AA00000EE00F0080E01D81200EA6002D0EE6AD3
:0C2AB000FCD7F350E9601200EE6AFCD77E
:042ABC0013EE00F025
:102AC00023EE00F0F86A0F9C1EEC14F003EC00F00B
:082AD000CCEC09F0FBD7120069
:082AD8001F0EC514FDE1C750FB
:062AE000040BFAE11200F4
:042AE600C282120096
:062AEA00000000000000E6
:102AF0006B616E6F7065726F5F5F0D0A00000000A2
:042B000000000000D1
:020000040030CA
:0100000022DD
:010001000EF0
:010002002ECF
:010003000AF2
:010005008377
:010006008178
:00000001FF
