:020000040000FA
:06000000B9EF11F012003F
:020006001200E6
:0600080050EF09F01200A8
:02000E00C250DE
:08001000020B01E0010E1200D9
:06001800BBEF09F012002D
:02001E000100DF
:0C002000A0230000F90100000600000011
:04002C00D9CFE6FF43
:10003000E1CFD9FFE652A09A6A6A686A706A020E36
:10004000E66EE66AE66A710EE66E0F0EE66E78EC14
:1000500011F0106E050EE15E1050160E6F6E9F0EC1
:100060006B6E7B0E696EDF6ADF50106E116A0C0ECC
:10007000105C000E115810E2DF50040DF3CFE9FFC1
:10008000F4CFEAFF000EE926040EEA22EE6AEE6AD9
:10009000EE6AEE6ADF2AE8D76D8C6E6A6D986D9C09
:1000A00068A607D068960101DC6BE16BE26BE36B3D
:1000B000F7D70101010EF56FF66FF76BF86BE96B7F
:1000C000DF6A030EDF5C26E2EA6ADF34FE0BEA3603
:1000D000E96ED20EE926010EEA22EE6AED6AEA6ABC
:1000E000DF34FE0BEA36E96ECC0EE926010EEA2279
:1000F000EE6AED6ADF50EA6AED0FE96E010EEA2260
:10010000EF6ADF50EA6AF00FE96E010EEA22EF6A49
:10011000DF2AD7D70101080ED26F040ED36F160E57
:10012000706E0401300E026F040E036F080E016F33
:10013000840E006F0101C66BC56BE552E552E7CF37
:10014000D9FF1200D9CFE6FFE1CFD9FFE652010176
:10015000C50507E16DBA05D0686A69806988020E35
:10016000C56F6850040B05E06950040B02E0689409
:10017000C6D86DB257D06850010B09E06950010B29
:1001800006E054DFA08A0101040EC56F6890685034
:10019000100B05E06950100B02E09CD8689868AC21
:1001A00019D069AC0FD0010EE66EE66A000EE66E5D
:1001B000E66A730EE66EE66A51EC0DF0106E060EFE
:1001C000E15E1050689C0101F35101E0F307F35127
:1001D00001E156DB6850200B04E06950200B01E080
:1001E00060D86850020B13E06950020B10E0010E5A
:1001F000E66EE66A000EE66EE66AE6687F0EE66E7A
:1002000051EC0DF0106E060EE15E10506A6A040E9D
:100210000101E76EC519E8AE02D0E73402D0E7501D
:10022000C55D02E2A19A38D069A635D0DF6A040E16
:10023000DF5C31E268A62FD06CCFEAF10101EA5110
:10024000780BE842E842E842EB6F6896EAB506D0E0
:10025000EB51EA6AF00FE96E010E05D0EB51EA6A44
:10026000ED0FE96E010EEA22EF70EB5102E15ED86C
:1002700010D0000EE66EE66AEA0EE66E010EE66E3D
:10028000720EE66EE66A51EC0DF0106E060EE15E3F
:100290001050DF2ACCD7A19AE552E552E7CFD9FF1B
:1002A000120070A015D0C8C1E9FFC9C1EAFFEF5024
:1002B00080080DE1D2C1E9FFD3C1EAFFEF50840805
:1002C00006E1C8C1E9FFC9C1EAFF8C0EEF6E70906C
:1002D000689A1200698468986D820101010EE96FC5
:1002E000000EE66EE66AE66EE66A750EE66EE66A91
:1002F00051EC0DF0106E060EE15E1050120001017F
:10030000E96B000EE66EE66AE66EE66A740EE66E6D
:10031000E66A51EC0DF0106E060EE15E10506D9223
:10032000699468A402D06894FCD71200D9CFE6FF84
:10033000E1CFD9FFE65201012D0EF36FFD0EEA1554
:1003400053E17E0EEA15E8407F0B040DF3CFC8F1B0
:10035000F4CFC9F1000EC827040EC923C8C1CAF1E1
:10036000C9C1CBF1CA75C8C1E9FFC9C1EAFFEF50E5
:100370003C0BE842E8420D0835E1DF6A080EDF5C1D
:1003800023E2C8C1E9FFC9C1EAFF020EE926000E57
:10039000EA22EE50EFCFEAFFE96EEF50E66EDF5053
:1003A000EA6A300FE96E040EEA22E552E750EF6E7A
:1003B000C8C1E9FFC9C1EAFF020EE926000EEA2220
:1003C000EE2AEF22DF2ADAD7C8C1E9FFC9C1EAFF66
:1003D000020EE926000EEA22300EEE6E040EED6EDD
:1003E0000DD807D03AD805D0FD0EEA15040801E172
:1003F00059D8E552E552E7CFD9FF12000101D86B79
:10040000F46BF76BF86BEC6BD96BD2C1E9FFD3C11E
:10041000EAFFEF9ED275D2C1E9FFD3C1EAFFEF9E9A
:10042000D275CAC1E9FFCBC1EAFFEF9EDC6BDD6B81
:10043000DE6BE16BE26BE36B8CD8000EE66EE66A76
:10044000E66EE66A030EE66EE66A51EC0DF0106E9B
:10045000060EE15E10508DEF05F0020E0101D95D30
:1004600002E14DEF06F0D96BEC511AE1CAC1E9FF88
:10047000CBC1EAFFEE52080EEF6ECAC1E9FFCBC155
:10048000EAFF020EE926000EEA22300EEE6E040E9E
:10049000ED6ECAC1E9FFCBC1EAFF8C0EEF6E120010
:1004A000EC6B1200D9CFE6FFE1CFD9FFE652D2C103
:1004B000E9FFD3C1EAFFEF50400B01E0010EDF6E10
:1004C0000101D275080EC55D08E132C46EFF6E50A1
:1004D00002E0100E01D0040EC56FD90526E1D2C18D
:1004E000E9FFD3C1EAFF020EE926000EEA22380E28
:1004F000EE6E040EED6E72DB020E0101D85D06E1B8
:10050000D2C1E9FFD3C1EAFF840E0DD0DF5006E16E
:10051000D2C1E9FFD3C1EAFFC80E05D0D2C1E9FFBD
:10052000D3C1EAFF880EEF6E0FD0E1AF0CD0E451DB
:10053000E51107E005D0E5C1FAFF0101E451F96ECC
:10054000FADF0101E19FD96BE552E552E7CFD9FF10
:10055000120004013051600BE842E842E842E842F0
:10056000E842000901E0120031510C0A50E00B0A88
:100570003FE00C0A31E0010A22E00B0A1EE0020A09
:100580001CE0030A18E0080A10E0010A0CE00F0A58
:1005900008E0030A01E012000101DC8F080EC56FBC
:1005A0001200CFEF04F0ECEF06F00101C60EDA6F97
:1005B000010EDB6F0CD02CEF05F008EF03F0345187
:1005C0000101DA6FDB6BC70EDA27010EDB23DC815A
:1005D000010EDD6FDC8F12000101DC8F040134514C
:1005E000EA6AC70FE96E010EEA2232C4EFFF120079
:1005F000000EE66EE66AE66EE66A020EE66EE66AF1
:1006000051EC0DF0106E060EE15E1050120012005B
:10061000D9CFE6FFE1CFD9FF050EE126040132056F
:1006200010E130511F0B00090CE10101DC8F030EBA
:100630000401315D04E10101010EE86F02D0010106
:10064000E86B0401325101E011D130511F0B020857
:1006500001E00CD134510F0B000901E107D13451F5
:100660000F0B020801E202D1200E0101C55D01E07D
:10067000FDD0DC8F040134BF16D034510F0BE96E6E
:10068000EA6AD890E936EA36CC0EE926010EEA226B
:10069000EECFDEFFEDCFDDFF34510F0BEA6AF00F36
:1006A000E96E010E15D034510F0BE96EEA6AD8904D
:1006B000E936EA36D20EE926010EEA22EECFDEFF57
:1006C000EDCFDDFF34510F0BEA6AED0FE96E010E3D
:1006D000EA22020EEFCFDBFFD950020FE96EDACF2C
:1006E000EAFFEF50010B03E1000EDF9401D0DF843D
:1006F00034BF0BD034510F0BE96EEA6AD890E9365B
:10070000EA36CC0EE926010E0AD034510F0BE96E01
:10071000EA6AD890E936EA36D20EE926010EEA22D4
:10072000DECFEEFFDDCFEDFF030E315D20E1DECF4A
:10073000E9FFDDCFEAFFEF50800B11E034BF07D0B7
:1007400034510F0BEA6AF00FE96E010E06D03451F6
:100750000F0BEA6AED0FE96E010EEA22EF82840EBA
:10076000DECFE9FFDDCFEAFFE850EF127FD0DF7484
:10077000DECFE9FFDDCFEAFFEF50800B1BE0DECFDD
:10078000E9FFDDCFEAFFEF9EDECFE9FFDDCFEAFF35
:10079000EF8C020EE66EE66ADECFE6FFDDCFE6FF07
:1007A000050EE66EE66A51EC0DF0106E060EE15E87
:1007B000105005D0DECFE9FFDDCFEAFFEF8CDF740C
:1007C000D950020FE96EDACFEAFFEF50020B07E1D2
:1007D000DECFE9FFDDCFEAFFEF50800B2BE0040115
:1007E00034BF07D034510F0BEA6AF00FE96E010EE7
:1007F00006D034510F0BEA6AED0FE96E010EEA22C2
:10080000EF923B0E106EDECFE9FFDDCFEAFFE8503E
:10081000EF16020EE66EE66ADECFE6FFDDCFE6FFFC
:10082000050EE66EE66A51EC0DF0106E060EE15E06
:10083000105007D03B0EDECFE9FFDDCFEAFFE850D6
:10084000EF16040134510F0B116A700F106E0F0E6A
:100850001122030E10C0DBFF040E11C0DBFF030EDC
:10086000DBCFE9FF040EDBCFEAFFEF90050EE15C82
:1008700002E2E16AE552E16EE552E7CFD9FF1200EC
:100880000101F5514DE1010EF56FF65149E1010EFF
:10089000F66F020ED95D0DE1D2C1E9FFD3C1EAFFC7
:1008A000EE52EF6AD2C1E9FFD3C1EAFFC80EEF6E84
:1008B0001200D90535E1EC6BC8C1E9FFC9C1EAFFF7
:1008C000EE52080EEF6EC8C1E9FFC9C1EAFF020E81
:1008D000E926000EEA22300EEE6E040EED6EC8C15F
:1008E000E9FFC9C1EAFF840EEF6E010EEC6FCAC1C9
:1008F000E9FFCBC1EAFFEE52080EEF6ECAC1E9FF75
:10090000CBC1EAFF020EE926000EEA22300EEE6E9F
:10091000040EED6ECAC1E9FFCBC1EAFF800EEF6E97
:1009200012000101F76BF86B020ED95D18E1CAC124
:10093000E9FFCBC1EAFFEE52080EEF6ECAC1E9FF34
:10094000CBC1EAFF020EE926000EEA22380EEE6E57
:10095000040EED6ECAC1E9FFCBC1EAFF1DD0DD5127
:100960000401365D0101DE510401375904E236C449
:10097000DDF137C4DEF132D9D2C1E9FFD3C1EAFFDC
:10098000020EE926000EEA22380EEE6E040EED6E1F
:10099000D2C1E9FFD3C1EAFFC80EEF6E1200800E8C
:1009A0000401305D58E10101C00EDC6F04013351D8
:1009B000030A2FE0010A09E0030A4BE10101120ECC
:1009C000DA6F200EDB6F120E3ED03251F66EF76AF0
:1009D000D890F636F736B30EF626200EF722090029
:1009E000F5CFDAF10A00F5CFDBF1020E0101F76A6B
:1009F000DA25F66EDB51F7220800F5CFDDF1030EA4
:100A0000F76ADA25F66EDB51F7220800F5CFDEF142
:100A10001200030E325D1AE23251F66EF76AD89078
:100A2000F636F736B50EF626200EF7220900F5CF7A
:100A3000DAF10A00F5CFDBF1DAC1F6FFDBC1F7FF2F
:100A40000800F5500101DD6FDE6B12000101DC6B67
:100A500012000101DC6B1200D9CFE6FFE1CFD9FF14
:100A6000020EE1260401386B396B30511F0B020A6C
:100A700011E0030A0CE0010A3CE10101DC8F0401F2
:100A800038810101E80535E10401388332D00101E4
:100A9000DC8F2FD00101DC8F040134BF0BD0345127
:100AA0000F0BE96EEA6AD890E936EA36CC0EE926F1
:100AB000010E0AD034510F0BE96EEA6AD890E9367C
:100AC000EA36D20EE926010EEA22EECFDEFFEDCFA6
:100AD000DDFFDECFE9FFDDCFEAFFEF50800B09E05D
:100AE000DECFE9FFDDCFEAFFEF50040B02E0010E9D
:100AF000386F0101DCAF07D0380EDA6F040EDB6F00
:100B0000DC81020EDD6F020EE15C02E2E16AE55279
:100B1000E16EE552E7CFD9FF12006D980101DCBF0D
:100B20002BD0E1AF09D0020ED96FF85101E1F9DE07
:100B30000101F66BF56B1200CAC1E9FFCBC1EAFFF8
:100B4000EE52080EEF6ECAC1E9FFCBC1EAFF020EFA
:100B5000E926000EEA22300EEE6E040EED6ECAC1DA
:100B6000E9FFCBC1EAFF8C0EEF6ED2C1E9FFD3C122
:100B7000EAFF840EEF6E1200040130AF0DD00101C8
:100B8000010ED96FF75101E1CCDE0101F66BF56B77
:100B9000F45123E140EF04F00101020ED96FCAC104
:100BA000E9FFCBC1EAFFEE52080EEF6ECAC1E9FFC2
:100BB000CBC1EAFF020EE926000EEA22300EEE6EED
:100BC000040EED6ECAC1E9FFCBC1EAFF840EEF6EE1
:100BD000F66BF56BF45101E153DE1200D9CFE6FF5D
:100BE000E1CFD9FFE652080EDF6E0101DD5D000E98
:100BF000DE590AE2DDC1DFFFD85102E1010E03D068
:100C0000D80502E1020ED86FDF50116AE850DD5DB1
:100C1000DD6F1150DE59DE6FD2C1E9FFD3C1EAFFAB
:100C2000EE52DFCFEFFF380EE66F040EE76FDCB158
:100C300018D0DF502DE0DAC1F6FFDBC1F7FFDA2B69
:100C4000000EDB230800F550E66EE6C1E9FFE7C1C0
:100C5000EAFFE62B000EE723E552E750EF6EDF06D2
:100C6000E8D7DF5015E0DAC1E9FFDBC1EAFFDA2B94
:100C7000000EDB23EF50E66EE6C1E9FFE7C1EAFFB5
:100C8000E62B000EE723E552E750EF6EDF06E9D7CB
:100C9000E552E552E7CFD9FF1200D9CFE6FFE1CF09
:100CA000D9FF020EE126C8C1E9FFC9C1EAFFEE5231
:100CB000EFCFDFFFDFCF10F010500101E25D000E3B
:100CC000E35902E2E2C1DFFFDF50106E116AE85023
:100CD000E25DE26F1150E359E36F010EDB6ADF5012
:100CE000F36E010EDBCFF4FFF350F45C16E2010E5D
:100CF000DB50EA6A380FE96E040EEA22EF50E66E26
:100D0000DFC1E9FFE0C1EAFFDF2B000EE023E5527F
:100D1000E750EF6E010EDB2AE2D7000ED880E255D5
:100D2000000EE35527E2CAC1E9FFCBC1EAFFEE524C
:100D3000080EEF6ECAC1E9FFCBC1EAFF020EE92639
:100D4000000EEA22380EEE6E040EED6EC8C1E9FF09
:100D5000C9C1EAFFEF50400B06E1CAC1E9FFCBC1B0
:100D6000EAFFC80E05D0CAC1E9FFCBC1EAFF880E71
:100D7000EF6E28D0CAC1E9FFCBC1EAFFEE52080EE0
:100D8000EF6ECAC1E9FFCBC1EAFF020EE926000EF1
:100D9000EA22300EEE6E040EED6ECAC1E9FFCBC141
:100DA000EAFF840EEF6EE451E51107E005D0E5C1DE
:100DB000FAFF0101E451F96EFADF0101E19FF451FC
:100DC00001E15EDD020EE15C02E2E16AE552E16E04
:100DD000E552E7CFD9FF1200D9CFE6FFE1CFD9FF27
:100DE000E6520101DC8F020EE66EE66AE66A710EDB
:100DF000E66E0F0EE66E78EC11F0106E050EE15EF9
:100E00001050DF6ADF50106E116A0C0E105C000E7D
:100E1000115810E2DF50040DF3CFE9FFF4CFEAFFE1
:100E2000000EE926040EEA22EE6AEE6AEE6AEE6A27
:100E3000DF2AE8D76D8CDF6A030EDF5C10E2DF503B
:100E4000EA6AED0FE96E010EEA22EF6ADF50EA6A04
:100E5000F00FE96E010EEA22EF6ADF2AEDD7010EEC
:100E6000E66EE66AE66AC70EE66E010EE66E78EC9E
:100E700011F0106E050EE15E10506D9C0101080E20
:100E8000D26F040ED36F000EC86F040EC96FC8C1B5
:100E9000CAF1CB6F32C4C6F1C65102E1100E12D0B6
:100EA000010EE66EE66AC60EE66E010EE66E010EF5
:100EB000E66EE66A51EC0DF0106E060EE15E105023
:100EC0000101200EC56FE552E552E7CFD9FF1200B0
:100ED000D9CFE6FFE1CFD9FF020EE126000EDE6E8C
:100EE000040EDD6EFD0EDB50E824126EFE0EDB50AC
:100EF000040DF3501224040DF4CF11F0D9CFE9FF03
:100F0000DACFEAFFF350EE261150ED22DECFE9FFF3
:100F1000DDCFEAFFEF9EFD0EDB500AE1FE0EEA6A2E
:100F2000DB34FE0BEA36E96ECC0EE926010E09D061
:100F3000FE0EEA6ADB34FE0BEA36E96ED20EE926D3
:100F4000010EEA22DECFEEFFDDCFEDFFDECFE9FFBF
:100F5000DDCFEAFFEF9CDECFE9FFDDCFEAFF040E35
:100F6000E926000EEA22EF8C020EE15C02E2E16A61
:100F7000E552E16EE552E7CFD9FF1200D9CFE6FF87
:100F8000E1CFD9FF020EE126FD0EDBA407D0E66A11
:100F9000FE0EDBCFE6FF9CDFE552E552FD0EDBA245
:100FA00008D0010EE66EFE0EDBCFE6FF91DFE552C4
:100FB000E552FE0EDB50116A700F106E0F0E1122FB
:100FC00010C0DEFF11C0DDFFDECFE9FFDDCFEAFF9D
:100FD000FD0EDBCFEFFF020EE15C02E2E16AE552BB
:100FE000E16EE552E7CFD9FF1200D9CFE6FFE1CF9E
:100FF000D9FF020EE126FE0EDB5020E1CAC1E9FF57
:10100000CBC1EAFFEE52080EEF6ECAC1E9FFCBC1B9
:10101000EAFF020EE926000EEA22300EEE6E040E02
:10102000ED6ECAC1E9FFCBC1EAFF8C0EEF6ED2C1F3
:10103000E9FFD3C1EAFF840EEF6E3BD0FD0EDB501B
:10104000E824126EFE0EDB50040DF3501224040D42
:10105000F3CF10F0F4CF11F0000E1026040E112281
:1010600010C0DEFF11C0DDFF840EDECFE9FFDDCF53
:10107000EAFFE850EF12FD0EDB50E824126EFE0E80
:10108000DB50040DF3501224010F040DF3CF10F0C8
:10109000F4CF11F0000E1026040E112210C0DEFF56
:1010A00011C0DDFF840EDECFE9FFDDCFEAFFE8509F
:1010B000EF12020EE15C02E2E16AE552E16EE552F6
:1010C000E7CFD9FF1200D9CFE6FFE1CFD9FF020E5B
:1010D000E126FD0EDB500AE0FE0EEA6ADB34FE0B71
:1010E000EA36E96ED20EE926010E09D0FE0EEA6A52
:1010F000DB34FE0BEA36E96ECC0EE926010EEA225D
:10110000EECFDEFFEDCFDDFFD9CFE9FFDACFEAFF8B
:10111000EE50ED1003E1F36AF46A44D0DECFE9FF4C
:10112000DDCFEAFF020EE926000EEA22FB0EDBCF3E
:10113000EEFFFC0EDBCFEDFFDECFE9FFDDCFEAFFF8
:10114000EE52FA0EDBCFEFFF400EDECFE9FFDDCF30
:10115000EAFFE850EF16880EDECFE9FFDDCFEAFFA9
:10116000E850EF12FD0EDB500AE0FE0EEA6ADB34B7
:10117000FE0BEA36E96ED20EE926010E09D0FE0E0C
:10118000EA6ADB34FE0BEA36E96ECC0EE926010E84
:10119000EA22EF74DECF10F0DDCF11F010C0F3FFC4
:1011A00011C0F4FF020EE15C02E2E16AE552E16E79
:1011B000E552E7CFD9FF1200D9CFE6FFE1CFD9FF43
:1011C0006DA84ED0FE0EEA6ADB34FE0BEA36E96EFD
:1011D000D20EE926010EEA22EE50EFCFEAFFE96EC9
:1011E000400EEE16EE6AEE6AEE6AFE0EEA6ADB3436
:1011F000FE0BEA36E96ED20EE926010EEA22EE5027
:10120000EFCFEAFFE96EEE7CFE0EEA6ADB34FE0BFE
:10121000EA36E96ED20EE926010EEA22EF74400E9C
:10122000106EFE0EEA6ADB34FE0BEA36E96ED20E71
:10123000E926010EEA22EE50EFCFEAFFE96E1050E8
:10124000EF16FE0EEA6ADB34FE0BEA36E96ED20ECA
:10125000E926010EEA22EE50EFCFEAFFE96EEF7CBD
:10126000E552E7CFD9FF12006D6A696A0101C56BCB
:1012700012000101C55113E16D6A696A160E6F6EA5
:101280009F0E6B6E7B0E696ED08EA28AA08AF28E44
:101290006DB602D06D86FCD70101010EC56F12003C
:1012A000DACFE4FFE2CFDAFFE9CFE4FFEACFE4FFF1
:1012B000F6CFE4FFF7CFE4FFF5CFE4FFF3CFE4FF91
:1012C000F4CFE4FFFACFE4FF00EE00F0100EE804E4
:1012D00003E3EECFE4FFFBD700EE10F0080EE804C6
:1012E00003E3EECFE4FFFBD7E652F2A41ED0F29464
:1012F000D00EE66E8A0EE66E41EC11F0E552E55234
:101300000101C55102E139EC09F0200E0101E76E3F
:10131000C519E8AE02D0E73402D0E750C55D05E359
:101320006D50020B02E194D9827CA2EC00F0E552F0
:1013300000EE17F0080EE80403E3E5CFEDFFFBD75E
:1013400000EE0FF0100EE80403E3E5CFEDFFFBD74E
:10135000E5CFFAFFE5CFF4FFE5CFF3FFE5CFF5FFEB
:10136000E5CFF7FFE5CFF6FFE5CFEAFFE5CFE9FFF1
:10137000E5CFDAFF1100D8CFE4FFE0CFE4FFE46E61
:10138000DACFE4FFE652E552E5CFDAFFE550E5CFEC
:10139000E0FFE5CFD8FF10000101BB6BBC6BBD6B5C
:1013A000BE6BE80EBB5D030EBC59000EBD59000EAE
:1013B000BE5906E2BB2B000EBC23BD23BE23F1D7D2
:1013C0009268300E936E946A826B8251106E116A2D
:1013D000400E105C000E115809E28251EA6A000FBB
:1013E000E96E010EEA22EF6A822BEFD7806B816BE8
:1013F00016EC00F039EC09F0190EE66E050EE66EFB
:10140000EF0EE66EE6EC10F0E552E552E552E66AC4
:10141000080EE66E5DEC11F0E552E5521D0EC86E49
:101420000D0EE66E240EE66ED00EE66E66D8E55220
:10143000E552E552F3CF83F1F4CF84F1E66A6B0E07
:10144000E66ED00EE66E59D8E552E552E552F3CF7E
:1014500083F1F4CF84F1020EE66E370EE66ED00E05
:10146000E66E4BD8E552E552E552F3CF83F1F4CF67
:1014700084F1160EE66E0A0EE66E180EE66E3DD884
:10148000E552E552E552F3CF83F1F4CF84F1800EBB
:10149000D56ED00EE66E8A0EE66E41EC11F0E55286
:1014A000E552F28EF28A39EC09F0200E0101E76E66
:1014B000C519E8AE02D0E73402D0E750C55DF3E3CA
:1014C0006D50020BF0E1010EE66EF90EE66E010EB4
:1014D000E66E64EC0EF0E552E552E5520009E3E0F9
:1014E000300E0101F95D02E1FD6BFE6B310EF95D1D
:1014F000DAE1010EFD6FFE6BD6D7D9CFE6FFE1CF63
:10150000D9FFC7EC11F0C580C5B0FED7FE0EDBCF0A
:10151000E6FFADEC10F0E552000902E0020E27D024
:10152000C7EC11F0C5AC02D0030E21D09E96FD0E83
:10153000DBCFE6FFADEC10F0E552000902E0040E4F
:1015400016D0C7EC11F0C5AC02D0050E10D09E9697
:10155000FC0EDBCFE6FFADEC10F0E552000902E037
:10156000080E05D0C7EC11F0C5AC03D0090EF36E20
:1015700006D09E96C584C5B4FED79E96F36AF46ADB
:10158000E552E7CFD9FF1200D9CFE6FFE1CFD9FF6F
:10159000C7EC11F0C580C5B0FED7FE0EDBCFE6FF6D
:1015A000ADEC10F0E552000902E0210E36D0C7EC98
:1015B00011F0C550400B01E0010E0101B76FB86B8F
:1015C000B96BBA6BE850B811B911BA1102E0220E2A
:1015D00024D09E96FD0EDBCFE6FFADEC10F0E55279
:1015E000000902E0230E19D0C7EC11F0C5AC02D0FF
:1015F000240E13D09E96C582C5B2FED7FE0EDB2800
:10160000E66EADEC10F0E552000902E0260E05D0C2
:10161000C7EC11F0C5AC04D0270EF36EF46A14D0F9
:101620009E96C586C5B6FED7C58AC588C5B8FED7FD
:101630009E96C584C5B4FED79E969E96C950106EE0
:10164000116AF36E11C0F4FFE552E7CFD9FF120023
:10165000C7EC11F0C580C5B0FED7D00EE66EADEC7C
:1016600010F0E552000901E01200C7EC11F0C5507E
:10167000400B01E0010E0101B76FB86BB96BBA6B9B
:10168000E850B811B911BA1101E012009E963B0E54
:10169000E66EADEC10F0E552000901E01200C7EC77
:1016A00011F0C5BC12009E96C582C5B2FED7D10E00
:1016B000E66EADEC10F0E552000901E01200C7EC57
:1016C00011F0C5BC12009E96C586C5B6FED7C9509E
:1016D0000101856FC59AC588C5B8FED79E96C58697
:1016E000C5B6FED7C9500101866FC59AC588C5B871
:1016F000FED79E96C586C5B6FED7C9500101876F35
:10170000C59AC588C5B8FED79E96C586C5B6FED70C
:10171000C9500101886FC59AC588C5B8FED79E9685
:10172000C586C5B6FED7C9500101896FC59AC5885F
:10173000C5B8FED79E96C586C5B6FED7C95001016D
:101740008A6FC59AC588C5B8FED79E96C586C5B6A8
:10175000FED7C9500101A16FC59AC588C5B8FED78B
:101760009E96C586C5B6FED7C9500101A26FC59A1F
:10177000C588C5B8FED79E96C586C5B6FED7C950E2
:1017800001018B6FC59AC588C5B8FED79E96C586E0
:10179000C5B6FED7C95001018C6FC59AC588C5B8BA
:1017A000FED79E96C586C5B6FED7C95001018D6F7E
:1017B000C59AC588C5B8FED79E96C586C5B6FED75C
:1017C000C95001018E6FC59AC588C5B8FED79E96CF
:1017D000C586C5B6FED7C95001018F6FC59AC588A9
:1017E000C5B8FED79E96C586C5B6FED7C9500101BD
:1017F000906FC58AC588C5B8FED79E96C584C5B406
:10180000FED79E96030EE66E180EE66EBDDEE5521E
:10181000E552F3CF92F1090EE66E180EE66EB4DED5
:10182000E552E552F3CF83F1F4CF84F1040EE66E76
:10183000180EE66EA9DEE552E552F3CF91F1090EDE
:10184000E66E180EE66EA0DEE552E552F3CF83F1A8
:10185000F4CF84F1050EE66E180EE66E95DEE552C5
:10186000E552F3CF94F1090EE66E180EE66E8CDEAB
:10187000E552E552F3CF83F1F4CF84F1060EE66E24
:10188000180EE66E81DEE552E552F3CF93F1090EB4
:10189000E66E180EE66E78DEE552E552F3CF83F180
:1018A000F4CF84F1070EE66E180EE66E6DDEE5529B
:1018B000E552F3CF96F1090EE66E180EE66E64DE81
:1018C000E552E552F3CF83F1F4CF84F1080EE66ED2
:1018D000180EE66E59DEE552E552F3CF95F1090E8A
:1018E000E66E180EE66E50DEE552E552F3CF83F158
:1018F000F4CF84F1870EE66E92EC11F0E552CEEC57
:1019000011F007EC00F00009FCE1C4CF97F1C3CF60
:1019100098F18F0EE66E92EC11F0E552CEEC11F0DC
:1019200007EC00F00009FCE1C4CF99F1C3CF9AF1B4
:10193000970EE66E92EC11F0E552CEEC11F007EC4A
:1019400000F00009FCE1C4CF9BF1C3CF9CF1A70ECE
:10195000E66E92EC11F0E552CEEC11F007EC00F0DF
:101960000009FCE1C4CF9DF1C3CF9EF101010D0E32
:101970009F6F0A0EA06F62EC0FF0050190510BE112
:101980001C0EE66E850EE66E010EE66EC4EC0EF0E1
:10199000E552E552E55262EF0FF0D9CFE6FFE1CF15
:1019A000D9FF040EE126D880000E05010055C20EB5
:1019B0000155010E0255000E03553CE300C588F5A4
:1019C00001C589F502C58AF503C58BF5146A1B0E9E
:1019D000156EB70E166E176A14C004F015C005F028
:1019E000066E17C007F088C509F089C50AF08AC5D8
:1019F0000BF08BC50CF01DEC11F004C010F005C00D
:101A000011F006C012F007C013F01006000E115AB4
:101A1000125A135A10C0DFFF010E11C0DBFF020E75
:101A200012C0DBFF030E13C0DBFFDF50AF6E010EF1
:101A3000DB50B06E040EE15C02E2E16AE552E16E59
:101A4000E552E7CFD9FF1200120012001200120077
:101A50009BEF0DF01200EBEF0DF00101E80520E126
:101A60000101E9051DE1A09AF0DF6D920101E96B2A
:101A70000101100EC36F0E0EC46FC307000EC45BCE
:101A8000C351C411FAE16D84080EC36F070EC46F11
:101A9000C307000EC45BC351C411FAE16D94A08A60
:101AA0001200D9CFE6FFE1CFD9FFFD0EDBCF06F064
:101AB000FE0EDBCF07F0050E061801E1075036E0F9
:101AC000E868061802E17F0E07182FE0030E0618DB
:101AD00001E1075028E0020E061801E1075021E05D
:101AE000010E061801E107501AE0740E061801E114
:101AF000075013E0750E061801E107500CE0730E55
:101B0000061801E1075005E0720E06180FE10750B4
:101B10000DD09CDF0BD098DF09D097DF07D09BDF7B
:101B200005D098DF03D094DF01D091DF010EE5529C
:061B3000E7CFD9FF12000F
:0A1B3600040130511F0B010801E00B
:101B400012003051600BE842E842E842E842E842C5
:101B5000010801E01200345103E0340501E01200F5
:101B60003151220A33E0030A26E0010A15E0210A76
:101B70000DE0010A01E012000101A00EDA6F050E6E
:101B8000DB6F080EDD6FDE6BDC8123D00101A00E60
:101B9000DA6F050EDB6F1DD036C4E2F137C4E3F116
:101BA0000101000EDF6F050EE06F9A0EE46F190E53
:101BB000E56FE18F12000101880EDA6F050EDB6F11
:101BC000070EDD6FDE6BC10EDC6F120032C49BF5B9
:101BD0000101DC8F12000501886B4B0E896F8A6B47
:101BE0008B6B8C6B8D6B080E8E6F05018F6B1A0ED5
:101BF000E66E010EE66EBEEC07F0E552E5521E0EF3
:101C0000E66E020EE66EBEEC07F0E552E552400EBF
:101C1000E66E080EE66E050EE66EE66A020EE66EEB
:101C200063EC08F0106E050EE15E1050F3CF97F5EF
:101C3000F4CF98F50501996B9A6B906B1200D9CF90
:101C4000E6FFE1CFD9FFFD0EDBCF06F0FE0EDBCFC6
:101C500007F0050E061801E1075002E0000E30D033
:101C6000FB0EDBCF10F0FC0EDBCF11F0050197511E
:101C7000101816E19851111813E1400EE66E080E87
:101C8000E66E050EE66EE66A020EE66E63EC08F09E
:101C9000106E050EE15E1050F3CF97F5F4CF98F576
:101CA000FB0EDBCF10F0FC0EDBCF11F005019951DC
:101CB000101805E19A51111802E1906B956B010E15
:101CC000E552E7CFD9FF1200D9CFE6FFE1CFD9FF28
:101CD00005018F6B9751981102E1000E08D097C54E
:101CE000E9FF98C5EAFFEF50800B01E0010E000903
:101CF00045E1FC0EDBCF10F097C5E9FF98C5EAFF80
:101D0000EE52EF50D880105408E297C5E9FF98C50D
:101D1000EAFFEE52FC0EEFCFDBFF8F6BFC0EDB50C9
:101D20008F5D19E28F51EA6A080FE96E050EEA220B
:101D3000EF50E66E8F51E76EFD0EDBCFE9FFFE0E32
:101D4000DBCFEAFFE750E926000EEA22E552E75032
:101D5000EF6E8F2BE3D7400EE66E080EE66E050E93
:101D6000E66EE66A020EE66E63EC08F0106E050E93
:101D7000E15E1050F3CF97F5F4CF98F505018F5140
:101D8000E552E7CFD9FF1200D9CFE6FFE1CFD9FF67
:101D9000A09A050190510CE1FD0EDBCF91F5FE0EEE
:101DA000DBCF92F5FC0EDBCF95F5010E966F906FB1
:101DB000A08AE552E7CFD9FF1200D9CFE6FFE1CFE5
:101DC000D9FF030EE126A09A050190512DE1DF6AAB
:101DD000FD0EDBCF06F0FE0EDBCF07F0DE5206C0B5
:101DE000DEFF07C0DDFFDD52DF2ADF50106E116A13
:101DF000FF0E101802E111500BE0010EDBCFE9FFDE
:101E0000DB2A020EDBCFEAFF01E3DB2AEF50ECE135
:101E1000FD0EDBCF91F5FE0EDBCF92F5DFCF95F512
:101E20000501010E966F906FA08A030EE15C02E23D
:101E3000E16AE552E16EE552E7CFD9FF1200D9CF52
:101E4000E6FFE1CFD9FF030EE126A09A05019051EC
:101E50002EE1DF6AFD0EDBCF06F0FE0EDBCF07F0D2
:101E6000DE5206C0DEFF07C0DDFFDD52DF2ADF5095
:101E7000106E116AFF0E101802E111500CE0010EF5
:101E8000DBCFF6FFDB2A020EDBCFF7FF01E3DB2A15
:101E90000800F550EBE1FD0EDBCF91F5FE0EDBCF38
:101EA00092F5DFCF95F50501966B010E906FA08A34
:101EB000030EE15C02E2E16AE552E16EE552E7CF32
:101EC000D9FF1200D9CFE6FFE1CFD9FF020EE126FC
:101ED000A09A050199519A1102E1000E08D099C506
:101EE000E9FF9AC5EAFFEF50800B01E0010E0009FF
:101EF00006E1030E905D01E1906B905102E1A08A32
:101F00007ED0020E905D16E1E66A000EE66EE66A8D
:101F1000010EE66E020EE66E63EC08F0106E050E22
:101F2000E15E1050F3CF99F5F4CF9AF50501030E59
:101F3000906F64D0900562E1400E106E116A955169
:101F4000105C000E115803E2400EDF6E02D095C502
:101F5000DFFFDF50955D956F480E936F050E946F10
:101F6000010EDFCFDBFF965116E1010EDB5028E0BA
:101F700091C5F6FF92C5F7FF0800F55093C5E9FF3C
:101F800094C5EAFFEF6E932B000E9423912B9223BE
:101F9000010EDB06EAD7010EDB5012E091C5E9FF26
:101FA00092C5EAFFEF5093C5E9FF94C5EAFFEF6ED3
:101FB000932B000E9423912B9223010EDB06EBD77B
:101FC0000501955107E1400EDF5C02E1020E01D0F0
:101FD000030E906FDFCFE6FF480EE66E050EE66E4D
:101FE000010EE66E020EE66E63EC08F0106E050E52
:101FF000E15E1050F3CF99F5F4CF9AF5A08A020E66
:10200000E15C02E2E16AE552E16EE552E7CFD9FF19
:022010001200BC
:0E2012001201000202020108D8040A000001B7
:102020000102000109024300020100C0FA09040094
:10203000000102020100052400100104240202052F
:1020400024060001052401000107058103080002A0
:1020500009040100020A0000000705020240000016
:10206000070582024000000403090434034D00699F
:1020700000630072006F0063006800690070002058
:102080000054006500630068006E006F006C006F14
:102090000067007900200049006E0063002E0014E4
:1020A00003430044004300200069002D005000530A
:0B20B000004400242067206B209F20CC
:0420BC001E0EF66E90
:1020C000000EF76E000EF86E05010900F550AD6FB9
:1020D0000900F550AE6F03E1AD6701D03DD00900B6
:1020E000F550A86F0900F550A96F0900F550AA6FC7
:1020F00009000900F550E96E0900F550EA6E090083
:1021000009000900F550AB6F0900F550AC6F0900EC
:102110000900F6CFAFF5F7CFB0F5F8CFB1F5A8C508
:10212000F6FFA9C5F7FFAAC5F8FF0501AB5302E109
:10213000AC5307E00900F550EE6EAB07F8E2AC07D0
:10214000F9D7AFC5F6FFB0C5F7FFB1C5F8FF050178
:0A215000AD07000EAE5BBFD7120012
:06215A00D9CFE6FFDACF49
:10216000E6FFE1CFD9FFE2CFDAFFFD0EDB50C96E0B
:10217000C6AE02D0FF0E24D00F0EC61408080FE022
:102180000F0EC6140B080BE0C6889EA6FED7C750DC
:10219000040B03E1C750010B10E0000E11D00F0E2D
:1021A000C614080804E00F0EC6140B0809E1C7B0F6
:1021B000FED7C7EC11F0C5AC02D0FE0E01D0000E68
:0C21C000E552E5CFDAFFE7CFD9FF1200AF
:0421CC00D9CFE6FF82
:1021D000DACFE6FFE1CFD9FFE2CFDAFFC26AC06A09
:1021E000FC0EDB407F0B3C0BC26EFC0EDB38F00BB1
:1021F000300B106EFB0EDB500F0B1010C16EFD0E7E
:10220000DB50040DF350380B116EFD0EDB380F0B55
:10221000070B106EFD0EDB50800B10101110C06EFE
:10222000FC0EDBAE03D09E9C9D8CF28CC280E552EE
:0A223000E5CFDAFFE7CFD9FF120077
:06223A00036A026A016A5A
:10224000006A200EE76ED89004360536063607364B
:1022500000360136023603360950005C0A50015838
:102260000B5002580C50035809E30950005E0A5005
:10227000015A0B50025A0C50035A042AE72EE4D795
:0222800012004A
:0E228200D9CFE6FFDACFE6FFE1CFD9FFE2CFFA
:10229000DAFFE652E652FC0EDBCFDEFFDBCFDDFFDE
:1022A000010EDB50D76EDF50D66EE552E552E55297
:0A22B000E5CFDAFFE7CFD9FF1200F7
:0622BA00D9CFE6FFDACFE8
:1022C000E6FFE1CFD9FFE2CFDAFF3F0EC716C66ABD
:1022D000C56AFD0EDB50C612FC0EDB50C71293829E
:1022E0009380C68AE552E5CFDAFFE7CFD9FF120027
:1022F000FE0EE3CFE9FFFF0EE3CFEAFFE9CFF3FFE6
:10230000EACFF4FFFB0EE35003E1FC0EE35009E0DB
:10231000FB0EE30602E2FC0EE306FD0EE350EE6E5A
:04232000F1D71200DF
:0C232400D9CFE6FFDACFE6FFE1CFD9FF0A
:10233000E2CFDAFFC30EC214106EFD0EDB407F0B3E
:102340003C0B1010C26EE552E5CFDAFFE7CFD9FFA4
:02235000120079
:0E235200000EF36E00EE00F0080E01D812002F
:10236000EA6002D0EE6AFCD7F350E9601200EE6A30
:02237000FCD798
:0E23720013EE00F023EE00F0F86A0F9C5EEC14
:0E23800010F003EC00F0CCEC09F0FBD71200DB
:02238E001F0E20
:0C239000C514FDE1C750040BFAE1120077
:04239C00C2821200E7
:0623A00000000000000037
:020000040030CA
:0100000022DD
:010001000EF0
:010002002ECF
:010003000AF2
:010005008377
:010006008178
:00000001FF
