:020000040000fa
:080000000002040000000000f2
:020000040000fa
:100400000f842100007f220000018800000000000e
:100410000c000700605128000100200011000700b7
:10042000000020000000e000020032000000020096
:100430000000000024790200000000000040da0003
:100440000000fe004440a900e02120000000e00080
:100450000300320000002000a00188004440a800f2
:100460000000060091018800800078000000eb0089
:1004700015003700e280400032a0b4009101ba00bc
:10048000e280400032a0b4009102ba00e280400055
:1004900032a0b4000002eb00472bde00f507b200eb
:1004a000602ce10004003a000059eb008301e900f0
:1004b000fdff3e00040037006128e100010032002a
:1004c0000082eb00040007001101ba000200e00006
:1004d000e8ff3a00000006003159ba008301e90044
:1004e0000c0032002159ba008301e90008003200f3
:1004f0000400e00003003a00e280400032a0b400b3
:10050000f5ff370011d9ba008301e900faff3a007c
:100510008100e800e180400032a0b4000000060045
:1005200000000000000000000000000000000000cb
:1005300000000000000000000000000000000000bb
:1005400000000000000000000000000000000000ab
:10055000000000000000000000000000000000009b
:10056000800078001104b100030035009101b10052
:1005700001003c000050a000000006008000780050
:100580001106b100030035009101b10001003c00eb
:100590000050a100000006006022b8000602200002
:1005a0000000d0008180d2000482d2008582d20077
:1005b0000000a0000202520083825a0003003100b2
:1005c0000202420083824a000000a1000603e90003
:1005d000f3ff3a00000006000400fa00e0bf9f00ad
:1005e000e4815700812978000002eb000f003700fa
:1005f0006fb89700904078007fb89700104078005f
:100600000402e80080cf5000040032008180fb002b
:100610000080fb0000805000070037006fb8970093
:100620000000e800e0bf9f009309e800820f52003d
:10063000efff3a000000eb000080fa000000060027
:100640008001eb000200370061f079008301e800cf
:10065000828f5100fcff3a00000006000003780082
:1006600080027800020278008001eb000800370069
:100670000402e90063c07800805a78008301e80032
:100680000004e00002003a008000eb0006003700a2
:10069000828f5100f6ff3a00fbff37000040eb006d
:1006a00080f07a008100e800848f5000fbff3a0060
:1006b00006007800000006008001eb000200370011
:1006c000817178008301e800828f5100fcff3a00bd
:1006d00000000600800078003004e000feff3a00d1
:1006e000010050000000e9000000060080017800d1
:1006f0000001780031407800005978000004e000e3
:10070000fcff3a000300780000000600104178006a
:10071000814f5100040032000000e8000204e000b4
:0c072000faff3a000000eb0000000600a9
:020000040000fa
:020000040001f9
:0457f400fffc0000b6
:020000040000fa
:020000040001f9
:0457f800be1b0000d4
:020000040000fa
:020000040001f9
:0457fc007f3f0000eb
:020000040000fa
:100008007e8500007e8500007e8500007e850000dc
:100018007e8500007e8500007e8500007e850000cc
:100028007e8500007e8500007e8500007e850000bc
:100038007e8500007e8500007e8500007e850000ac
:100048007e8500007e8500007e8500000e7b000016
:100058007e8500007e8500007e8500007e8500008c
:100068007e8500007e8500007e8500007e8500007c
:100078007e8500007e8500007e8500007e8500006c
:100088007e8500007e8500007e8500007e8500005c
:100098007e8500007e8500007e8500007e8500004c
:1000a8007e8500007e8500007e8500007e8500003c
:1000b8007e8500007e8500007e8500007e8500002c
:1000c8007e8500007e8500007e8500007e8500001c
:1000d8007e8500007e8500007e8500007e8500000c
:1000e8007e8500007e8500007e8500007e850000fc
:1000f8007e8500007e8500007e8500007e850000ec
:100108007e8500007e8500007e8500007e850000db
:100118007e8500007e8500007e8500007e850000cb
:100128007e8500007e8500007e8500007e850000bb
:100138007e8500007e8500007e8500007e850000ab
:100148007e8500007e8500007e8500007e8500009b
:100158007e8500007e8500007e8500007e8500008b
:100168007e8500007e8500007e8500007e8500007b
:100178007e8500007e850000105a00007e85000004
:100188007e8500007e8500007e8500007e8500005b
:100198007e8500007e8500007e8500007e8500004b
:1001a8007e8500007e8500007e8500007e8500003b
:1001b8007e8500007e8500007e8500007e8500002b
:1001c8007e8500007e8500007e8500007e8500001b
:1001d8007e8500007e8500007e8500007e8500000b
:1001e8007e8500007e8500007e8500007e850000fb
:0801f8007e8500007e850000f9
:020000040000fa
:100208007e8500007e8500007e8500007e850000da
:100218007e8500007e8500007e8500007e850000ca
:100228007e8500007e8500007e8500007e850000ba
:100238007e8500007e8500007e8500007e850000aa
:100248007e8500007e8500007e8500000e7b000014
:100258007e8500007e8500007e8500007e8500008a
:100268007e8500007e8500007e8500007e8500007a
:100278007e8500007e8500007e8500007e8500006a
:100288007e8500007e8500007e8500007e8500005a
:100298007e8500007e8500007e8500007e8500004a
:1002a8007e8500007e8500007e8500007e8500003a
:1002b8007e8500007e8500007e8500007e8500002a
:1002c8007e8500007e8500007e8500007e8500001a
:1002d8007e8500007e8500007e8500007e8500000a
:1002e8007e8500007e8500007e8500007e850000fa
:1002f8007e8500007e8500007e8500007e850000ea
:100308007e8500007e8500007e8500007e850000d9
:100318007e8500007e8500007e8500007e850000c9
:100328007e8500007e8500007e8500007e850000b9
:100338007e8500007e8500007e8500007e850000a9
:100348007e8500007e8500007e8500007e85000099
:100358007e8500007e8500007e8500007e85000089
:100368007e8500007e8500007e8500007e85000079
:100378007e8500007e850000105a00007e85000002
:100388007e8500007e8500007e8500007e85000059
:100398007e8500007e8500007e8500007e85000049
:1003a8007e8500007e8500007e8500007e85000039
:1003b8007e8500007e8500007e8500007e85000029
:1003c8007e8500007e8500007e8500007e85000019
:1003d8007e8500007e8500007e8500007e85000009
:1003e8007e8500007e8500007e8500007e850000f9
:0803f8007e8500007e850000f7
:020000040000fa
:10072c001201000000020000ef02000001080000ae
:10073c00d804000057000000010000000102000076
:10074c00000100000902000062000000030100002b
:10075c0002c000003209000004000000000200008a
:10076c000806000050000000070500008102000090
:10077c0040000000010700000501000002400000dd
:10078c0000010000080b0000010200000200000044
:10079c00000000000904000001000000010200003c
:1007ac000201000000050000240000001001000000
:1007bc0004240000020200000524000006010000d1
:1007cc0001050000240100000001000007050000e5
:1007dc00820300000800000002090000040200006f
:1007ec00000200000a0000000000000007050000e5
:1007fc000302000040000000000700000583000019
:10080c000240000000000000040300000904000086
:10081c00340300004d00000069000000630000007c
:10082c00720000006f000000630000006800000010
:10083c00690000007000000020000000540000005f
:10084c006500000063000000680000006e000000fe
:10085c006f0000006c0000006f00000067000000db
:10086c007900000020000000490000006e0000002c
:10087c00630000002e0000003a0300004d00000051
:10088c006900000063000000720000006f000000af
:10089c0063000000680000006900000070000000a8
:1008ac0020000000430000006f0000006d000000fd
:1008bc00700000006f000000730000006900000071
:1008cc0074000000650000002000000044000000df
:1008dc006500000076000000690000006300000065
:1008ec00650000000000000000000000a88300006c
:1008fc000a8400000e840000428400000080000086
:10090c00040200002000000000000000542e000033
:10091c00476f00006b6100006e2000004750000024
:10092c005320000055530000422000004c6f000083
:10093c006767000065720000202000003030000066
:10094c00303100005374000061720000742000000c
:10095c0047500000532000004c6f000067670000f8
:10096c0065720000004300006f6e00006e650000b1
:10097c0063740000207400006f20000055530000c9
:10098c00422100002000000053740000617200003e
:10099c0074200000555300004220000053650000f5
:1009ac006e6400002120000000530000746f0000f2
:1009bc0070200000555300004220000053650000d9
:1009cc006e64000021200000200000006100000087
:1009dc0047500000534c00006f6700002e6300006e
:1009ec0073760000002400004750000047470000c9
:1009fc004100000024470000504700005341000014
:100a0c00002400004750000047530000560000002f
:100a1c0024470000505200004d4300000024000009
:100a2c00475000005654000047000000009500009d
:100a3c00000000000000000001f9000000000000b0
:100a4c000000000008870000040000000000000007
:100a5c0009af000000000000010000000a1b0000ac
:100a6c0000000000010000000cc3000000000000aa
:100a7c00000000000daf00000200000000000000ac
:100a8c0010ff0000000000000000000011ff00003b
:100a9c00000000000100000012ff00000000000038
:100aac000100000018ff0000000000000100000021
:100abc0019ff0000000000000100000020ff0000f2
:100acc00000000000000000021ff000000000000fa
:100adc000000000026df0000010000000000000004
:100aec003773000000000000000000003a250000f1
:100afc0004000000000000003b2500000000000086
:100b0c0000000000001000000210000004100000a3
:100b1c00061000000710000007080000071800006e
:100b2c00091000000b1000000d0200000d12000057
:100b3c000d1a00000d1e00000f1000002e2e0000dc
:100b4c0000200000202000002020000020200000b9
:0c0b5c002020000020200000000000000d
:020000040000fa
:100b68000400fa000000eb00000f780006003700d0
:100b78009e007800e05821008080400010c0b3003b
:100b8800804878001e0fe800200020009e0f10000b
:100b9800f7ff34000040eb00fef6b7000040eb0022
:100ba800f4f6b7000080eb008080eb0080b7880087
:100bb80091b788000080eb008080eb00c0b7880008
:100bc800d1b78800d530070000642100480207002b
:100bd8000004e00036003a0001b8800000642100fb
:100be8008008780001b880000000eb00d000980071
:100bf80001b880000000eb00e000980002b8800017
:100c08006000b800700198000109980002b88000df
:100c18006000b800100998002109980001b8800008
:100c2800c0c5b300c058980010002000000f78001d
:100c38000700370001b880001e0078007c004000e3
:100c48008100400000c2b300804878001e0fe80011
:100c5800a00020009e0f1000f6ff340001b88000ad
:100c68000000eb00c010980001b8800000012000cf
:100c7800e010980002b8800090ac8000a1ac800021
:100c8800701198000119980002b8800090ac80009b
:100c9800a1ac800010199800211998000040eb00c1
:100ca80096f5b700100020001007980002003700e2
:100cb8000000eb00100798001e0090000080fa006a
:100cc800000006001400fa00881f780060079800ea
:100cd8007107980002579800135798006e0090000b
:100ce8004010900050079800b000200010079800ae
:100cf8006e00900080189000701090006e019000b7
:100d080010199800211998007e0090006011900039
:100d1800020078000080ea008180ea00300798002d
:100d28005e0090000000e00009003a00ea00470079
:100d380012c0b3006e009000a20707000000e00098
:100d48000f003a00b0012000100798000c0037008f
:100d58005e0090006f0060000000e00008003200b4
:100d6800ea00470012c0b3006e0090009507070024
:100d78000000e00002003a00b001200010079800cf
:100d88001e009000fb0f5000bb0032001e009000b8
:100d98000000e000b8003200ea0047006e00900052
:100da800ed0b0700504798005e409000e24f50005e
:100db800b10032005e4090000004e000a5003a0057
:100dc8006e009000e010900041079800ce0090005f
:100dd800f003200000806000400798001e5090003b
:100de8000080fb00100f98001e0890000000e00033
:100df800040032009e089000e18f50002b00320062
:100e0800990037004e009000e80f5000960032001d
:100e18000000eb0010079800d0c6b30010479800f8
:100e28000040eb00404798001c0037004e409000ff
:100e38000080fb00ee0090007c00400001004000b4
:100e480010407800104798004e4090000080fb004a
:100e5800fe0090007c004000010040001040780037
:100e6800004f78001e4090000080fb00bafd07008c
:100e7800000478001e80fb00b7fd0700800f5400b7
:100e880003003200b00020001007980076003700f9
:100e98004e4090000040e800404798004e409000c7
:100ea800ea4f5000e1ff36006f0037004e00900017
:100eb800be009000010060000000e0006a003a00f7
:100ec8004e009000ef0f5000670032000000eb006a
:100ed80010079800d0c6b300104798007e00900015
:100ee800c0589000a0c2b30080cf50002800320044
:100ef8000040eb0040479800220037004e40900029
:100f08000080fb00ee0090007c00400001004000e3
:100f180010407800104798004e4090000080fb0079
:100f2800fe0090007c004000010040001040780066
:100f3800004f7800a0c2b3009e4f1000140032008a
:100f4800f0c3b3009e4f10000b0032001e4090000b
:100f58000080fb0080fd0700000478001e80fb0075
:100f68007dfd0700800f540003003200b000200010
:100f780010079800060037004e4090000040e80037
:100f8800404798004e409000e74f5000dbff360086
:100f98007e009000c0609000a0c2b30080cf5000d7
:100fa800310032001e0090000000e0002e003a00e0
:100fb80080c0b30040479800220037004e409000a0
:100fc8000080fb00ee0090007c0040000100400023
:100fd80010407800104798004e4090000080fb00b9
:100fe800fe0090007c0040000100400010407800a6
:100ff800004f7800a0c2b3009e4f10001a003200c4
:10100800f0c3b3009e4f10000b0032001e4090004a
:101018000080fb0050fd0700000478001e80fb00e4
:101028004dfd0700800f540003003200b00020007f
:10103800100798000c0037004e4090000040e80070
:10104800404798004e409000ea4f5000dbff3600c2
:10105800050037000e5090000004e00002003a003e
:101068000000eb00100798005e0090000000e80008
:101078005007980045ff37001e0090004f04780085
:101088000080fa00000006001200fa0050079800dd
:1010980061079800624f98000000eb00000f78008d
:1010a8005e00900090007800410798004e00900084
:1010b800306090000004e00003003a007000200057
:1010c800000f78008d0037005e00900080189000b7
:1010d800701090005e019000101998002119980076
:1010e8006e009000100078000000e00009003a004f
:1010f80012c0b300ee0090005e009000b106070039
:101108000000e00010003a00b0012000000f780055
:101118000d0037006e009000100078006f0060002e
:101128000000e0000800320012c0b300ee0090009a
:101138005e009000a30607000000e00002003a00ed
:10114800b0012000000f7800ee0090005e009000d3
:10115800010b0700604798006e4090000004e00013
:1011680003003200b0002000000f78006300370051
:101178005e0190006000b8007001980001099800b5
:101188005e009000a0009000100090005e019000aa
:101198003001980041019800de0090000000eb004b
:1011a800d0009800de0090000000eb00e0009800fe
:1011b8006e409000e14f500003003a00b00020005c
:1011c800000f78002d0037005e009000300190007d
:1011d800c00190004e0090003510070010079800dd
:1011e80021079800fcd6bf000004e000060032008a
:1011f8005a1207000004e0000300320090002000ab
:10120800000f98003f003700de009000b1b788005b
:10121800c2b78000d3b780001e009000ae009000d7
:10122800800f5100818f5900140032000040eb00fc
:10123800fef6b7004e0090009080fb001040900032
:101248000080fb004800dd0001007000000178000c
:101258001e009000ae009000263007000004e00059
:1012680002003a0080002000000f78001e00900065
:10127800ae009000c0b78800d1b788005e0190002a
:10128800b2089000b0ff2f0000806000300998007d
:10129800ee48900070c7b30080cf500004003200c1
:1012a800ee48900010c6b30080cf50000a003a0004
:1012b800de009000310890000000a000b0089800ff
:1012c8005e019000b2089000d0ff2f0000806000ff
:1012d80030099800090037005e019000b2089000bc
:1012e800e0ff2f000080600030099800de009000c9
:1012f800310890000010a000b00898009e00780007
:10130800010f98000e0890000080fa000000060007
:101318001c00fa00200f9800320f9800430f980025
:101328000040eb00204798002e089000100f78002e
:101338001e007800206090000080fb00500f98008d
:101348005e089000e10f50000d0032005e09900029
:10135800e30f5100010032001200370080ff2f0018
:10136800f1ff20002007980031079800f0ff2f00b8
:10137800f1ff20004007980051079800110037003e
:1013880080ff200001002000200798003107980006
:10139800f0ff2f0001002000400798005107980037
:1013a8000800370080ff2f00010020002007980068
:1013b80031079800f0ff2f00010020004007980037
:1013c800510798002e08900030019000c00190004d
:1013d80062079800730798006e019000fe01900064
:1013e8001e0078005e160700000f9800110f980085
:1013f8000e0990009e0990004e009000de009000bb
:10140800800f5100818f590003003a0080c0b3005b
:10141800204798001f0037009e0078004150900038
:101428000082fb00515090000080fb004800dd0066
:101438000400700000017800615090000082fb00f9
:10144800715090000080fb004800dd00040070002f
:10145800800178000e0890009e089000800f5100cf
:10146800818f590002003e00a0c0b30020479800b9
:101478000e0990009e0990002e009000be0090007a
:10148800800f5100818f590002003900c0c3b3009a
:10149800204798002e0890000e0990009e099000a1
:1014a80032009800430098003e089000ce08900053
:1014b80061005000e0805800300f9800410f9800fc
:1014c8003e089000ce089000e00f5000e08f5800d2
:1014d800030032002e4090000004e000b9ff320003
:1014e8002e4090000080fb000080fa0000000600fb
:1014f8000800fa00200798000040eb0020479800f9
:10150800ae0090000040eb00b0609800ae00900084
:10151800c20e2100f00f2000000061009141780008
:10152800e0c86100914870004811de001140900049
:10153800604060000240700090409800c83007008a
:10154800000f78001e007800104078000004e000ca
:101558000500320060c0b3002047980060c0b300a7
:1015680096f5b7003c0037001e0078009000780020
:1015780000102000008060000000e000270032001a
:101588001e007800100090006101b800ae009000c5
:10159800f00f2000000261000158900060406000d8
:1015a80004407000805898004812de0011589000de
:1015b800604060000440700090589800f00f2000d0
:1015c8000082610021589000604060000440700073
:1015d800a05898004819de0031589000604060001b
:1015e80002407000b05898001e00780090009000eb
:1015f80000202000808f50000800360010c2b30081
:101608002047980010c2b30096f5b7002e4090000e
:101618000080fb0030079800120037002e00900071
:1016280013000700204798002e4090000004e000b7
:1016380009003a002e0090003e010700204798005c
:101648002e4090000004e00003003a00ae00900035
:1016580010c0b300b06098002e4090000080fb00de
:10166800300798003e0090000080fa000000060055
:101678000e00fa00300798000040eb003047980051
:101688003e0090009080fb00104090000080fb001e
:101698004800dd0001007000000178006000b8001b
:1016a800142f0700e14f50000500320080c0b3003e
:1016b8003047980080c0b30096f5b700170137008f
:1016c8003e0090009080fb00104090000080fb00de
:1016d8004800dd0001007000000f78001e0078004f
:1016e800e0f8930050c5b30080cf5000a3003a0043
:1016f8001e007800f0f89300a0cab30080cf500015
:101708009e003a003e0090009080fb001040900040
:101718000080fb004800dd0001007000610320002c
:10172800a60e07008040780060c4b30080cf500048
:1017380043003a003e0090009080fb00104090006b
:101748000080fb004800dd000100700071032000ec
:101758009a0e07008040780010c4b30080cf500074
:1017680037003a003e0090009080fb001040900047
:101778000080fb004800dd000100700081032000ac
:101788008e0e07008040780040c5b30080cf50001f
:101798002b003a003e0090009080fb001040900023
:1017a8000080fb004800dd0001007000910320006c
:1017b800820e07008040780010c3b30080cf50002d
:1017c8001f003a003e0090009080fb0010409000ff
:1017d8000080fb004800dd0001007000610220006d
:1017e800760e07008040780090c2b30080cf50008a
:1017f80013003a003e009000a0409000e0c0600056
:1018080021409800b0409000e0c06000314098004e
:10181800c0409000e0c0600041409800d040900077
:10182800e0c0600051409800be00900020c0b300a6
:10183800a06098000000eb0050079800ba0037003d
:101848003e0090009080fb00104090000080fb005c
:101858004800dd000100700021052000570e070038
:101868008040780060c4b30080cf500043003a0045
:101878003e0090009080fb00104090000080fb002c
:101888004800dd0001007000310520004b0e070004
:101898008040780010c4b30080cf500037003a0071
:1018a8003e0090009080fb00104090000080fb00fc
:1018b8004800dd0001007000410520003f0e0700d0
:1018c8008040780040c5b30080cf50002b003a001c
:1018d8003e0090009080fb00104090000080fb00cc
:1018e8004800dd000100700051052000330e07009c
:1018f8008040780030c3b30080cf50001f003a000a
:101908003e0090009080fb00104090000080fb009b
:101918004800dd000100700021042000270e0700a8
:101928008040780090c2b30080cf500013003a0086
:101938003e009000a0409000e0c060002140980068
:10194800b0409000e0c0600031409800c040900076
:10195800e0c0600041409800d0409000e0c06000c6
:1019680051409800be00900030c0b300a0609800bd
:101978008000eb00510798006b0037003e00900094
:101988009080fb00104090000080fb004800dd00c4
:1019980001007000200798002e009000e0f89300e6
:1019a80050c5b30080cf500005003a002e009000cb
:1019b800f0f89300a0cab30080cf500005003200b1
:1019c80040c0b30096f5b70040c0b3003047980058
:1019d80052003700ae00900061c093000082fb0007
:1019e80071c093000080fb004800dd000400700017
:1019f8000001780001c893000082fb0011c8930021
:101a08000080fb004800dd000400700080017800c1
:101a1800be009000f00f20000002610021409000fd
:101a28006040600004407000a04098004812de004a
:101a3800314090006040600004407000b040980061
:101a4800f00f20000082610041409000604060007b
:101a580004407000c04098004819de0051409000d2
:101a68006040600002407000d04098002e00900056
:101a7800a0c09300214798002e4090000080fb00f2
:101a8800400798004e009000ee0f50001f003e00e7
:101a980010002000ce0090000100dd0060079800d3
:101aa80000052400ee009000008060000000e000c7
:101ab8000e003a0000802100ee00900000806000d7
:101ac8000000e0000d003a00ee0090006280600027
:101ad8000000e00001003a000c003700be00900052
:101ae80010c0b300a06098000c003700be00900042
:101af80020c0b300a060980008003700be00900026
:101b080030c0b300a06098000400370050c0b30094
:101b180096f5b70050c0b300304798003e4090009b
:101b28000080fb00500798005e0090000080fa00db
:101b3800000006001c00fa00889fbe008a9fbe00b5
:101b4800400f98000040eb00204f98000000eb0089
:101b5800100798000000eb00000f78004e08900076
:101b68009080fb00104090000080fb004800dd00e2
:101b78000100700080017800ce089000214090009c
:101b88000081fb00314090000080fb004800dd0030
:101b98000200700000027800414090000081fb00c4
:101ba800514090000080fb004800dd0002007000fa
:101bb80080027800030178000400be00cd2d0700e4
:101bc800e14f50000300320080c0b300204f98005e
:101bd800eb0237004e0890009080fb001040900008
:101be8000080fb004800dd000100700040079800fd
:101bf800000037004e009000e0f8930050c5b30095
:101c080080cf500005003a004e009000f0f8930095
:101c1800a0cab30080cf50000300320030c0b30028
:101c2800204f9800210237004e0890009080fb005a
:101c3800104090000080fb004800dd0001007000ab
:101c4800e1002000660d0700200798004e0890006c
:101c58009080fb00104090000080fb004800dd00f1
:101c680001007000d1002000540d0700804078006a
:101c78004e08900011609800ce0890002140900016
:101c88000082fb00314090000080fb004800dd002e
:101c98000400700000017800414090000082fb00c1
:101ca800514090000080fb004800dd0004007000f7
:101cb800800178002e009000010020000201400001
:101cc80083814800ce089000f00f200000026100d8
:101cd800614090006040600004407000e04098005f
:101ce8004812de00714090006040600004407000bf
:101cf800f0409800f00f2000008261000148900039
:101d08006040600004407000804898004819de0078
:101d180011489000604060000240700090489800b0
:101d28004e0890009080fb00104090000080fb005f
:101d38004800dd0001007000010120001f0d0700b0
:101d4800804078004e089000016098004e0890008e
:101d58009080fb00104090000080fb004800dd00f0
:101d680001007000610120001d0d07006101b8002d
:101d7800ce089000f00f200000026100415890004a
:101d88006040600004407000c05898004812de00af
:101d9800515890006040600004407000d05898008e
:101da800f00f2000008261006158900060406000e0
:101db80004407000e05898004819de0071589000ff
:101dc8006040600002407000f0589800ce08900013
:101dd800415890000082fb00515890000080fb00a1
:101de8004800dd0004007000000178006158900090
:101df8000082fb00715890000080fb004800dd0065
:101e08000400700080017800e00f5100e08f590055
:101e180020003a004e0890009080fb00104090008f
:101e28000080fb004800dd00010070004102200036
:101e3800050d07000001be00ce089000f00f20003d
:101e4800000261004158900060406000044070004a
:101e5800c05898004812de00515890006040600059
:101e680004407000d0589800f00f200000826100f4
:101e7800615890006040600004407000e05898008d
:101e88004819de0071589000604060000240700000
:101e9800f0589800ce089000614090000081fb0047
:101ea800714090000080fb004800dd0002007000d7
:101eb80000057800014890000081fb00114890005f
:101ec8000080fb004800dd000200700080057800fb
:101ed8004e089000006090000084fb00090020007c
:101ee800ce089000415890000081fb0051589000a6
:101ef8000080fb004800dd0002007000000378004d
:101f0800615890000081fb00715890000080fb0030
:101f18004800dd0002007000800378008800780027
:101f280006007800000ab80007c0b900050178006b
:101f38000001410009b0b9000001410082027800a7
:101f48000a0142008b814a00ce089000f00f200061
:101f58000002610021489000604060000440700069
:101f6800a04898004812de003148900060406000a8
:101f780004407000b0489800f00f20000082610013
:101f8800414890006040600004407000c0489800dc
:101f98004819de005148900060406000024070001f
:101fa800d04898004e0890009080fb0010409000a8
:101fb8000080fb004800dd000100700011012000d6
:101fc800870c070080017800ce089000f00f2000f1
:101fd8000081610021509000604060000240700064
:101fe800a05098004819de00315090006040600011
:101ff80002407000b05098004e0890009080fb009e
:10200800104090000080fb004800dd0001007000d7
:1020180031012000720c070001002000000f980019
:10202800110f98000e0890009e089000e00f5000d5
:10203800e08f58000a003a004e0890009080fb009c
:10204800104090000080fb004800dd000100700097
:10205800010220007c0c0700000f9800110f980067
:102068004e0890009080fb00104090000080fb001c
:102078004800dd0001007000b1002000580c070086
:10208800300798003e0090000000e0000400320095
:102098003e009000610060000004e0000300320090
:1020a80010c2b300204f980000013700ce089000fe
:1020b800215090000081fb00315090000080fb000f
:1020c8004800dd0002007000c500dd003e00900001
:1020d800008040000000e9003e0190001100090066
:1020e8000280d80001002000200f9800310f9800ce
:1020f8002e0090006105b8004e0890000060900026
:102108000084fb0009002000ce0890004158900090
:102118000081fb00515890000080fb004800dd0062
:102128000200700000037800615890000081fb00f5
:10213800715890000080fb004800dd00020070002c
:10214800800378008800780006007800000ab8004c
:1021580007c0b900050178000001410009b0b900c5
:1021680000014100820278000a0142008b814a0086
:102178002e089000be0890000201400083814800ac
:102188000e0890009e0890000200500083805800be
:1021980060079800710798004e0890001060900042
:1021a8000081fb00030020006e009000fe009000fc
:1021b800f7f807000001be00ce089000f00f2000dd
:1021c80000026100415090006040600004407000cf
:1021d800c05098004812de005150900060406000e6
:1021e80004407000d0509800f00f20000082610079
:1021f800615090006040600004407000e05098001a
:102208004819de0071509000604060000240700084
:10221800f0509800ce089000415090000082fb00da
:10222800515090000080fb004800dd000400700061
:1022380000017800615090000082fb00715090000e
:102248000080fb004800dd00040070008001780079
:1022580040ff200001002000800f5100818f5900ad
:1022680004003e00ce08900010c0b300a0609800a3
:102278001b003700ce089000415090000082fb0000
:10228800515090000080fb004800dd000400700001
:1022980000017800615090000082fb0071509000ae
:1022a8000080fb004800dd00040070008001780019
:1022b80040ff2f0001002000800f5100818f59003e
:1022c80004003e00ce08900020c0b300a060980033
:1022d80003003700ce08900030c0b300a06098001b
:1022e8004e08900020609000e34f500035003a00ff
:1022f8004e0890009080fb00104090000080fb008a
:102308004800dd0001007000c1022000ce0b07006c
:1023180090ac8800a1ac8800ce08900021489000bd
:102328000082fb00314890000080fb004800dd007f
:102338000400700000017800414890000082fb0012
:10234800514890000080fb004800dd000400700048
:10235800800178002e089000be089000020140001d
:1023680083814800ce089000f00f20000002610031
:10237800614890006040600004407000e0489800a8
:102388004812de0071489000604060000440700010
:10239800f0489800f00f2000008261000150900082
:1023a8006040600004407000805098004819de00ca
:1023b80011509000604060000240700090509800fa
:1023c800340037006000b80090ac8800a1ac8800e9
:1023d800ce089000214890000082fb003148900010
:1023e8000080fb004800dd00040070000001780058
:1023f800414890000082fb00514890000080fb009b
:102408004800dd000400700080017800ce089000cc
:10241800215090000082fb00315090000080fb00aa
:102428004800dd00040070004400de0001002000c8
:102438000201400083814800ce089000f00f200080
:102448000002610061489000604060000440700034
:10245800e04898004812de00714890006040600033
:1024680004407000f0489800f00f200000826100de
:102478000150900060406000044070008050980057
:102488004819de0011509000604060000240700062
:1024980090509800be00900000202000808f5000cf
:1024a8000200360010c2b300204f98004e0890007a
:1024b80020609000e34f50000d0032002e4890003d
:1024c8000004e000ae0032004e009000a0c0900072
:1024d80090c2b30080cf5000050032004e0090003b
:1024e800a0c0900080c2b30080cf5000a4003a0082
:1024f800ce009000315090000081fb0041509000c8
:102508000080fb004800dd00020070000000e000d1
:102518003a003a004e009000407090000004e0003d
:1025280036003a004e009000507090000004e00021
:1025380032003a004e009000607090000004e00005
:102548002e003a004e009000707090000004e000e9
:102558002a003a004e009000007890000004e00045
:1025680026003a004e009000107890000004e00029
:1025780022003a004e009000207890000004e0000d
:102588001e003a004e009000307890000004e000f1
:102598001a003a004e009000407890000004e000d5
:1025a80016003a004e009000507890000004e000b9
:1025b80012003a004e009000607890000004e0009d
:1025c8000e003a004e009000707890000004e00081
:1025d8000a003a004e009000a0c0900090c2b300dc
:1025e80080cf5000070032004e009000a0c090003d
:1025f80080c2b30080cf50000200320030c0b30068
:10260800204f98002e4890000004e000310032006e
:102618001e0090000000e0002e003a00100020008c
:10262800100798004e0890009080fb001040900022
:102638000080fb004800dd00010070008002780087
:10264800ce089000214090000082fb0031409000ad
:102658000080fb004800dd000400700000017800e5
:10266800414090000082fb00514090000080fb0038
:102678004800dd000400700080017800ce00900062
:10268800217090000082fb00317090000080fb00f8
:102698004800dd0004007000010020000200400036
:1026a8008380480005017800122b0700e14f500095
:1026b8000500320080c0b30096f5b7008000200006
:1026c800500f9800360037000040eb00204f98006c
:1026d80048fd37002e4890000004e0002800320032
:1026e8001e00e00026003a0010002000000f7800cd
:1026f8004e0890009080fb00104090000080fb0086
:102708004800dd000100700080027800ce089000cb
:10271800214090000082fb00314090000080fb00c7
:102728004800dd000400700000017800414090007e
:102738000082fb00514090000080fb004800dd0053
:10274800040070008001780066004100e0804900c4
:1027580005017800e72a0700e14f50000500320024
:1027680080c0b30096f5b70080002000500f980095
:102778000b0037000040eb00204f98001dfd37008c
:102788002e4890000004e000020032002e4890001d
:1027980096f5b7002e4890000080fb00500f980077
:1027a8005e0890004f05be004f04be000080fa008e
:1027b800000006000600fa00200798006000b80034
:1027c800008fbe002e00900020089000010020001d
:1027d800008fbe001e00be00c000dd00000020000b
:1027e800008fbe002e0090005008900001002000cd
:1027f8001e1f70001e9770001e00be000080fa00a9
:10280800000006001200fa0060079800710798009f
:102818006e00900090007800510798006e009000bc
:1028280010199000a0199000028fbe007e00900041
:10283800100078006103b800de0090000158900095
:102848000082fb00115890000080fb004800dd006a
:102858000400700000017800215890000082fb00fd
:10286800315890000080fb004800dd000400700033
:10287800800178004b18dd004511de000201700070
:10288800c519de000600be0041f70700004f98009a
:102898005e009000206090000080fb00000f980010
:1028a8008e089000e18f50001f0035000e0990003f
:1028b800e20f51000e0034008e099000e38f5100a2
:1028c80001003200180037005e0090009060900010
:1028d8000e4890000080fb000181fb0011000900f8
:1028e8000280d8008000fd00004f98000e003700dd
:1028f80090ac8000a1ac8000be0f1000ae8f180015
:10290800090032005e009000906090000e48900030
:102918000080fb000181fb00110009000280d80043
:102928008000fd00004f98001e01be005e00900070
:102938005f0a070020079800310798005e009000a2
:102948009080fb00104090000080fb004800dd00f4
:1029580001007000000278000e4890000081fb0022
:10296800030020002e009000be00900002004000ee
:10297800838048008041eb0004017800e12a0700c9
:102988000004e00003003a000040eb00104f9800fc
:102998000200370010c0b300104f98001e48900086
:1029a8000080fb000080fa00000006001800fa0012
:1029b80070079800010f9800120f98000000eb00b4
:1029c800000f78001e089000206090000080fb0037
:1029d800300f98003e089000e10f50000d003200c3
:1029e800be089000e38f500001003200120037004b
:1029f800f0ff2f00f1ff2000100798002107980032
:102a080080ff2f00f1ff2000300798004107980051
:102a180011003700f0ff2f00010020001007980078
:102a28002107980080ff200001002000300798004f
:102a38004107980008003700f0ff2f000100200030
:102a4800100798002107980080ff2f000100200040
:102a580030079800410798007e0090008e0890008b
:102a6800e00f5000e08f5800070032007e01900010
:102a78008e0990001000200001002000800f5100f6
:102a8800818f59003d003a0020002000000f780097
:102a98003c0037007e0190008e0990001e089000cf
:102aa800af10070050079800610798005e0190007a
:102ab800ee0190001e009000ae009000800f5100c3
:102ac800818f590003003a0010002000000f7800a1
:102ad8002a0037005e009000ee009000e00f5000e2
:102ae800e08f5800070032005e019000ee01900070
:102af8001000200001002000800f5100818f590034
:102b080003003a0020002000000f78001b00370067
:102b18005e019000ee0190003e009000ce00900013
:102b2800800f5100818f59000200390020002000d9
:102b3800000f78008040eb006022b8007e01900012
:102b48008e0990001e089000a71207000001be0021
:102b58001e009000ae009000800f5100818f590038
:102b680002003a0010002000000f78005e0090007c
:102b7800ee00900070079800010f98001e00e0001a
:102b8800c4ff320011c0b3006022b8006011b80061
:102b98001e08900094120700210020009e8f10004c
:102ba80003003a0010002000200f980002003700b0
:102bb8008000eb00210f98002e0890000080fa009a
:102bc800000006001e00fa00300f9800410f980020
:102bd800225f98003e08900090007800110f98003e
:102be8003e089000701190008019900052079800dc
:102bf800630798003e08900010199000a0199000f3
:102c080012079800230798004e08900010007800db
:102c18006103b8009e089000015890000082fb00f4
:102c2800115890000080fb004800dd00040070008f
:102c380000017800215890000082fb003158900074
:102c48000080fb004800dd0004007000800178006f
:102c58004b18dd004511de0002017000c519de00c9
:102c68000600be004af60700104798001e089000ac
:102c7800206090000080fb00e30f5000010032004c
:102c88000e0037001e089000906090001e409000d3
:102c98000080fb000181fb00110009000280d800c0
:102ca8008000fd001047980080ff2f00f1ff2000f2
:102cb8003007980041079800120037005e00900026
:102cc800ee009000e00f5000e08f5800090032003d
:102cd8001e089000906090001e4090000080fb004d
:102ce8000181fb00110009000280d8008000fd006e
:102cf8001047980080ff2f0001002000300798003f
:102d0800410798002e5890000004e00005003a00a2
:102d18004e089000100078006f0060000000e0008e
:102d2800b0003a001e4090000004e00004003a00a1
:102d38004e08900010007800ef0f500003003e008e
:102d48002e5890000004e000290032005e00900038
:102d5800ee009000e00f5000e08f580004003a00a9
:102d68006000b8001007980021079800200037007d
:102d78002e5890000004e0000a0032004e0890002f
:102d8800900078001e089000106090000080fb0002
:102d98004401dd00110009008280d800004f78004e
:102da8001100370010c0b300004f78000e00370044
:102db8001e019000ae0190001e089000e80f070069
:102dc80010079800210798001e019000ae0190009e
:102dd8003e009000ce009000800f5100818f590076
:102de800030031001e4fe9001e04e000f0ff3a0026
:102df8001e019000ae0190003e009000ce009000b1
:102e0800800f5100818f5900710031003e089000f9
:102e18001e019000ae019000121898002318980027
:102e28001e019000ae0190001e08900020090700c6
:102e380070079800010f980092ac8000a3ac800046
:102e48001e009000ae009000820f5000838f580043
:102e580020003a001e4090000081fb000300200083
:102e68007e0090008e089000020340008383480093
:102e78009e089000614890000082fb007148900015
:102e88000080fb004800dd000400700000017800ad
:102e9800015090000082fb00115090000080fb0060
:102ea8004800dd000400700080017800820f5300a4
:102eb800838f5b00070039001e0890002060900097
:102ec800e34f5000030032000000eb00200f980091
:102ed80051003700fcd6bf000004e00006003200b5
:102ee8001e0b07000004e000030032008001eb0025
:102ef800630f98004a0037000000eb00b0b7880065
:102f08000040eb00fef6b7001e0890009080fb0022
:102f1800104090000080fb004800dd0001007000b8
:102f2800000278001e4090000081fb000300200092
:102f38007e0090008e0890000200400083804800c8
:102f480004017800eb280700e14f5000030032002d
:102f58000000eb00200f9800180037002e58900052
:102f68000004e0000e0032001e0890009080fb0074
:102f7800104090000080fb004800dd000100700058
:102f8800800078004e089000100078006f00600004
:102f98004500dd0000804000200f98000700370042
:102fa8001e0890009080fb00104090000080fb00fd
:102fb8004800dd0001007000200f98000080eb0041
:102fc8008080eb00c0b78800d1b7880012003700b6
:102fd80010c0b300fdf6b7000000eb00200f98000a
:102fe8000d0037001e0890009080fb0010409000f4
:102ff8000080fb004800dd000100700080007800c0
:103008004e089000100078006f0060004500dd0059
:1030180000804000200f98002e089000600f980054
:103028006e0890000080fa00000006001400fa0004
:1030380070079800010f9800225798000000eb00d5
:10304800000f78000040eb0096f5b7000040eb0059
:10305800204798000d0037002e4090000081fb00ab
:103068002e4090000080fb00fe0090007c00400095
:10307800010040009040780063004700017178002b
:103088002e4090000040e800204798002e40900015
:10309800ea4f5000f0ff36000e0890008000eb0069
:1030a800010878008e0890007e0090005c00070000
:1030b8000004e0000d003200e3004700ae5190002c
:1030c8000e0990007e009000e10007000080fb00e0
:1030d800000f78001e00e00006003a007e00900015
:1030e80009000700000f78000200370040012000a7
:1030f800000f78001e00780096f5b7001e007800d3
:103108000080fa00000006001400fa00700798001a
:103118007e0090004010900060079800e80047008b
:103128007e00900082070700300798003e0090005c
:103138000000e00037003a00ec0047007e009000f5
:10314800b3030700000f78004e009000de009000e7
:10315800800078001e007800510898004e0090000a
:10316800de00900002002000f3ff2000000278003b
:103178008102780002007800830078000001620074
:10318800018062006102b800040f9800150f9800d2
:103198000e0890009e089000c000dd00000020008e
:1031a800000f9800110f98000e0890009e089000dc
:1031b8006112b800040f9800150f98000e099000ce
:1031c8009e0990000200700083807000100798002c
:1031d800210798001e009000ae0090004008de0015
:1031e8000100200010079800210798009e00900019
:1031f8001e00780021089800ec0047007e0090002f
:1032080080fd0700e14f50000200320090002000ce
:10321800300798003e0090000080fa000000060089
:103228001200fa00600798007107980010c0b300f8
:10323800204f98006e009000801890007010900049
:103248006e019000101998002119980012c0b3005f
:10325800fe0090006e0090005afe0700000f7800f4
:103268001e00e00069003a00b0c1b300204f98008a
:103278006c0037000040eb00104f98007e00900073
:1032880090007800310798000041eb00fe009000a4
:103298006e0090004bfe0700000f78001e00e00053
:1032a800030032001e00780010407800004f98009c
:1032b8007e009000100078008000e8007e009000fa
:1032c800010878000e489000fb4f400003003200d0
:1032d8000e4890000004e00008003a001e00e000dc
:1032e800060032001e4890000040e800104f980089
:1032f8001e4890000004e000e3ff32001e00e000da
:103308003a003a006e00900010199000a019900041
:10331800120798002307980092ac8000a3ac8000a5
:103328001e009000ae009000820f5000838f58005e
:103338001b003a006e00900010007800206090009a
:10334800e34f50000300320020c0b300204f980024
:103358002e0037006e0090001e019000ae01900014
:10336800320098004300980011c0b3006e0090002e
:103378009f000700f54f500003003a0020c0b3003b
:10338800204f9800210037007e009000be01900079
:10339800030878000040eb00204f98001b0037001e
:1033a8006e0090001e019000ae019000320098005f
:1033b8004300980011c0b3006e0090008c00070015
:1033c800f54f500003003a0020c0b300204f98008a
:1033d8000e0037007e009000be01900003087800c0
:1033e8000040eb00204f9800080037001e4890006e
:1033f800e14f500005003a000040eb00204f9800d4
:103408007e009000be009000010878002e489000d1
:10341800e14f500097ff32007e0090003e0190007f
:10342800020878002e4890000004e00003003a00eb
:1034380013002000030f9800020037000000eb0083
:10344800000f98000e0890000080fa0000000600a7
:103458000e00fa00200798003107980042079800ec
:10346800234f98000040eb00204798002e00900062
:1034780080189000701090002e019000101998008c
:103488002119980012c0b300ce0090002e009000c1
:10349800ccfd0700000f78001e00e00003003a0092
:1034a800b0012000600798004e0037001e00780029
:1034b800b2002000be00900066f407002e4890007d
:1034c800f24f500004003a009e00780000c1b3009b
:1034d800b0489800030037009e00780000c2b3008f
:1034e800b04898009e0078000040eb00c048980063
:1034f8009e0078000000eb00a00898009e0078006d
:103508000000eb00d00898001e0178006000b800a9
:1035180060099800710998009e00780020cbb300dc
:10352800d04898009e00780080272700f000980077
:103538009e007800002b2300800898009e007800e9
:10354800002b2300900898009e0078009027270001
:10355800b00898009e007800002b2300c00898004f
:103568001e007800f0089000600890002e0190007e
:1035780010099800210998001e007800f0009000ba
:103588002e009000410898001e00780080089000e6
:103598002e009000510898001e00780030489000d6
:1035a8008080fb002e009000611098004e00900073
:1035b800900078002e00900041109800ce009000f6
:1035c8002e0090008ffc0700e14f500002003200ef
:1035d80090c0b300204798002e4090000080fb0068
:1035e800600798006e0090000080fa000000060056
:1035f8001000fa0050079800414f98005e009000b4
:1036080090007800410798005e009000300190001b
:10361800c001900022079800330798005e009000d0
:103628004700070020079800310798002e009000f7
:10363800be009000e00f5000e08f580003003a00f1
:1036480053012000730798003a0037004e0090009d
:1036580020609000e14f500008003a008040eb00e5
:1036680084ff2000050020002e019000be0190007c
:103678004e009000dc0f0700130037004e0090004a
:1036880020609000e24f500008003a008040eb00b4
:1036980084ff2f00050020002e019000be0190003d
:1036a8004e009000d00f0700070037008040eb0065
:1036b80084ff2f00f5ff20002e019000be0190002e
:1036c8004e009000c80f07005e0090003001900087
:1036d800c0019000028fbe008040eb002e029000d7
:1036e800be0290001e01be004e009000be0f0700f3
:1036f8005e0090002e019000be01900032009800fc
:10370800430098004e489000e14f500007003a00ef
:103718002e019000be0190004e0090005a0607004e
:103728000080fb0070079800020037008001eb0062
:10373800730798007e0090000080fa0000000600e1
:103748001a00fa00300f98006000b800000f9800c7
:10375800110f98003e08900090007800210f980003
:103768003e08900030019000c00190006207980068
:10377800730798002e089000206090000080fb00de
:10378800400f9800ce099000e18f51000c003200e4
:103798004e089000e30f500001003200100037007f
:1037a80070ff2f00f1ff20002007980031079800d4
:1037b800f0ff2f00f1ff2000008fbe000f00370040
:1037c80070ff2000010020002007980031079800b2
:1037d800f0ff2f0001002000008fbe000700370017
:1037e80070ff2f0001002000200798003107980083
:1037f800f0ff2f0001002000008fbe006e01900036
:10380800fe0190001000200001002000800f5100f0
:10381800818f590004003e00200020000100200094
:1038280060079800710798006e019000fe019000f3
:1038380042079800530798006e019000fe0190001f
:103848002e089000460d0700460037006e019000d4
:10385800fe0190002e089000410d0700000f98000f
:10386800110f98000e0890009e089000be0f50009f
:10387800ae8f580004003a006000b8006007980056
:10388800710798003c0037000e0890009e089000d1
:10389800e00f5000e08f5800370032006e009000b3
:1038a800fe00900061004000e0804800600798003a
:1038b800710798000e0990009e0990002e00900054
:1038c800be009000800f5100818f59001600320011
:1038d800ae089000415090000082fb0051509000cb
:1038e8000080fb004800dd00040070000001780043
:1038f800615090000082fb00715090000080fb0036
:103908004800dd0004007000800178006201410079
:10391800e08149006e009000fe009000800f510089
:10392800818f590004003e00200020000100200083
:1039380060079800710798006e019000fe019000e2
:103948004e009000de009000800f5100818f5900da
:1039580004003a006000b8006007980071079800fa
:10396800050037006e009000fe009000e00f500048
:10397800e08f5800b5ff3a006e009000fe009000fe
:103988000080fa00000006000c00fa0040079800ca
:1039980080042000100798000040eb0096f5b7005f
:1039a8004e00900040109000300798004e009000a4
:1039b80030089000610060000000e000490032001b
:1039c800fcd6bf000004e0000800320063080700ce
:1039d8000004e0000500320090c0b30096f5b7007f
:1039e8000080eb00500798005e0037004e00900002
:1039f8001000780011c0b3006022b8006011b80050
:103a0800f90e07006000b80080b7880091b78800f9
:103a18004e00900030019000c00190004e009000d0
:103a280010007800ce0c0700e60047004e0090001a
:103a380077010700000f78001e00e00007003a0039
:103a4800b0c1b30096f5b7000080eb0010079800ee
:103a58001e00900050079800420037001e007800b2
:103a6800430007004e009000a00890001008900046
:103a78001e01780060099800710998004e009000b6
:103a880060109000804078001e007800314898004f
:103a9800e60047004e0090005afb07000004e000d3
:103aa80007003200e60047004e009000580107006a
:103ab800000f78000000eb001007980004003700a2
:103ac80090c0b30096f5b7000080eb00100798008f
:103ad8004e019000b2089000e0ff2f0000806000c7
:103ae800300998000000eb0020079800120037000a
:103af800ae009000600320000088b90080007800c4
:103b0800c04e2100808040004e009000808f500001
:103b180006003a00ae009000e05821008080400086
:103b280010c0b30080487800060037002e009000cf
:103b38000000e800200798002e009000e20f5000d7
:103b4800ebff36009e00900080042000808f50001c
:103b580002003a000000eb00100798001e009000d9
:103b6800500798005e0090000080fa0000000600f0
:103b78000800fa00300798003e00900030089000d6
:103b88007f406000504798003e009000b0089000c9
:103b9800007e2000008060004500de00404798005d
:103ba8003e009000b008900000802f000080600068
:103bb8004b00de00304798003e009000400890001f
:103bc8007f406000204798003e009000c0089000a9
:103bd800001e2000008060004500de0010479800ad
:103be8003e009000c008900000e02f0000806000b8
:103bf8004900de00004f78005e409000fc4f500006
:103c080004003e005e4090000040e80050479800e5
:103c1800280037000040eb0050479800ce40900045
:103c2800a0c3b30080cf500004003e004e40900077
:103c38000040e800404798001e0037000040eb00b5
:103c4800404798003e409000f64f500004003e0068
:103c58003e4090000040e8003047980015003700cb
:103c68000040eb00304798002e409000fd4f500078
:103c780004003e002e4090000040e80020479800d5
:103c88000c00370010c0b300204798001e40900079
:103c9800eb4f500004003e001e4090000040e8003a
:103ca800104798000300370010c0b3001047980071
:103cb8001e4fe8005e4090008080fb003e009000b0
:103cc800310898003e009000b00890004e409000e7
:103cd8000080fb004500dd00808070003e00900001
:103ce800310898003e009000b00890003e409000d7
:103cf8000080fb004b00dd00808070003e009000db
:103d0800310898002e4090008080fb003e00900013
:103d1800410898003e009000c00890001e409000a6
:103d28000080fb004500dd00808070003e009000b0
:103d3800410898003e009000c00890001e80fb00db
:103d48004900dd00808070003e0090004108980026
:103d58000080fa00000006000c00fa0040079800f6
:103d6800510798000040eb00004f78005e0090007b
:103d7800100078006f0060000000e00010003a00ba
:103d88005e009000100078000000e0000c00320097
:103d98004e00900080189000701090004e01900026
:103da800101998002119980012c0b300de00900085
:103db8004e00900083fb070030079800050037008d
:103dc8000041eb00de0090004e0090007dfb0700f4
:103dd800300798003e0090000000e00003003a0021
:103de80020c0b30010479800850037003e009000bf
:103df80010407800304798003e409000fb4f40004c
:103e080003003a0010c0b300104798007c00370048
:103e18003e4090000004e00003003a0020c0b300d8
:103e280010479800760037003e009000b048900098
:103e3800314798000040eb004047980014003700d5
:103e48004e4090008080fb003e00900000804000c3
:103e580010407800204798002e4090000080fb001a
:103e6800c4f10700204798001e80fb002e419000f7
:103e7800ce0090007c00400001004000024878001d
:103e88001e4fe8004e4090000040e8004047980070
:103e98004e409000e74f5000e9ff36003e0090008a
:103ea800b0489000314798003e00900000489000cc
:103eb800204798000040eb00404798001500370065
:103ec8004e4090000080fb00be009000680040005b
:103ed8000100400010407800204798002e409000d4
:103ee8000080fb00a3f10700204798001e80fb001c
:103ef8002e419000ce0090007c0040000100400060
:103f0800024878001e4fe8004e4090000040e8004c
:103f1800404798004e409000e24f5000e8ff3600be
:103f28005e009000900078004e00900041109800cc
:103f38003e00900010407800304798003e409000c6
:103f4800fb4f400003003a0010c0b3001047980030
:103f5800020037000040eb00104798003e00900038
:103f6800f0089000600890004e0190001009980039
:103f7800210998003e0090000efa07004e019000bb
:103f880010019800210198003e009000b048900070
:103f9800314798003e4090008080fb004e00900022
:103fa800611098003e4090000080fb004400de0055
:103fb800610060000004e000090032003e0090004b
:103fc800f00090004e009000410898003e009000dc
:103fd800800890004e0090005108980008003700b3
:103fe8003e009000b00890004e00900041089800f4
:103ff8003e009000c00890004e00900051089800c4
:104008001e4090000080fb000080fa0000000600bf
:104018000a00fa0020079800310798002e00900047
:1040280080189000701090002e01900010199800d0
:104038002119980012c0b300be0090002e00900015
:10404800e0fa0700100798001e0090000000e0004a
:1040580003003a000000eb00400798002c003700ee
:104068001e00900010407800004f78001e04e00009
:1040780002003a000000eb00100798001e009000b4
:104088000000e0002000320051ceb3009ecf1000a7
:1040980003003a000000eb00100798001a003700f0
:1040a8001e009000b0489000014f780013003700c0
:1040b8003e009000100078008000e8003e0090006c
:1040c800010878000041eb00be0090002e0090002f
:1040d800bcfa0700100798001e0090000000e000de
:1040e80003003a000000eb00400798000800370082
:1040f8001e009000b0489000014f7800f0c0b30057
:104108009e4f1000eaff32009e0090004107980081
:104118004e0090000080fa00000006001400fa002b
:104128006007980071079800025798000000eb009c
:10413800300798006e009000100f78006e00900015
:1041480070119000801990001207980023079800ba
:104158006e0090001e019000ae01900012189800a9
:104168002318980012c0b300fe0090006e00900063
:1041780094fa0700500798005e0090000000e000e5
:1041880005003a0010c0b30096f5b700b30120004f
:10419800130f9800460037005e009000104078002a
:1041a800004f98005e0090000000e000030032001d
:1041b8000e4890000004e00003003a00b000200020
:1041c80030079800300037000e489000fb4f400041
:1041d80003003a00b0002000300798002a0037009a
:1041e8005e009000b0489000014f9800de009000fb
:1041f80050ceb300804878005e0090006df907004b
:1042080010079800210798003e0090000000e00089
:1042180005003a00fe0090006e00900079f9070052
:104228000004e00003003a00100020003007980066
:104238001500370092ac8000a3ac80001e009000ef
:10424800ae009000820f5000838f58000e0032009d
:104258000e5090000004e0000b0032001e017800b0
:104268001e009000ae009000d0f907008040780052
:104278000000eb00300798000104e00002003a005b
:1042880010002000300798003e0090000000e00079
:1042980003003a000040eb0096f5b7000200370033
:1042a80010c0b30096f5b7003e019000120f9800b9
:1042b8001e0890000080fa00000006001a00fa00ac
:1042c800200f9800310f98000040eb0040479800fd
:1042d80010002000100f98000040eb0096f5b70082
:1042e8003e0890000000e00005003a0090c1b300cd
:1042f80096f5b7000080eb00400f9800c500370026
:104308003e089000fc0040000041eb002e089000a1
:10431800650707000004e00005003a0020c1b3006b
:1043280096f5b7008080eb00410f9800b900370080
:104338000040eb00504798000e0037005e409000a8
:104348000081fb005e4090000080fb00be089000ea
:104358007c00400001004000904078006600470063
:1043680000004100014878005e4090000040e800ed
:10437800504798005e409000ea4f5000efff36002b
:104388003e089000c0109000110798000000eb0054
:10439800100f98003e089000801890007010900050
:1043a8003e0990001019980021199800f200470062
:1043b80012c0b3003e08900002fa0700000f780010
:1043c8001e00e00005003a00b0c1b30096f5b70042
:1043d8000080eb00400f98008e0037000040eb0093
:1043e80050479800110037005e4090008080fb0025
:1043f8001e00780000804000104178005e40900068
:104408008080fb0066004700008040001040780074
:10441800804f51000200320010c0b300404798009e
:104428005e4090000040e800504798005e409000d1
:10443800ea4f5000ecff36004e4090000004e000c8
:1044480005003a0010c1b30096f5b7008080eb0074
:10445800410f98006f0037000040eb00404798007c
:104468000040eb00fdf6b700f20047000041eb000a
:104478003e089000d3f90700000f78001e00e00006
:1044880008003a00fdd6bf00e14f50002e00320070
:10449800b0c1b30096f5b7000080eb00400f98005c
:1044a8005c0037001e007800104078000004e0002f
:1044b800250032000040eb005047980011003700fb
:1044c8005e4090008080fb001e0078000080400065
:1044d800104178005e4090008080fb006600470035
:1044e8000080400010407800804f510002003200e8
:1044f80010c0b300404798005e4090000040e800bc
:10450800504798005e409000ea4f5000ecff36009c
:104518004e4090000004e00005003a0010c1b300ce
:1045280096f5b7008080eb00410f980039003700fe
:104538000040eb00404798001e0890000000e8008b
:10454800100f9800c8ff37001e009000100f980049
:104558003e08900080189000701090003e0990006e
:104568001019980021199800f20047003e089000a1
:10457800a7fe0700000f78001e00e00005003a00c3
:10458800b0c1b30096f5b7008080eb00410f9800ea
:10459800200037000040eb00504798000e0037001d
:1045a8005e4090000081fb005e4090000080fb00b0
:1045b800be0890007c004000010040009040780058
:1045c8001e00780000004100014878005e4090001d
:1045d8000040e800504798005e409000ea4f5000c5
:1045e800efff3600f20047003e08900085f807000c
:1045f8000004e00005003a0090c0b30096f5b7004b
:104608000080eb00400f9800020037008000eb00ac
:10461800410f98004e0890000080fa000000060044
:104628001200fa0050079800610798000000eb009c
:10463800300798000000eb002007980016003700ac
:10464800ae009000e0582100008040001040780043
:104658000004e0000d003200ae009000e058210098
:10466800808040000040eb0080487800ae00900059
:10467800600320000088b90080007800c04e210047
:104688000080400030079800060037002e00900098
:104698000000e800200798002e009000e20f50006c
:1046a800e7ff34003e0090000000e00005003a00fb
:1046b80000c2b30096f5b7000000eb00000f9800a9
:1046c8006f0137003e009000fc0040000041eb0005
:1046d8005e009000740607000004e0000a003a003b
:1046e800ae009000e05821008080400010c0b30068
:1046f8008048780020c1b30096f5b7008000eb0031
:10470800010f98005e0137006e009000104078009d
:1047180020479800be0090000064210080087800bf
:104728003e0190006000b800100198002101980037
:104738003e0190006000b8003001980041019800e7
:10474800be0090000000eb00c0109800be00900072
:1047580000022000e010980000b880008018900047
:10476800701090003e019000701198000119980097
:1047780000b88000a0189000101890003e0190002a
:104788001019980021199800be009000405d210082
:10479800cb0107008041eb0012c0b300415d21004e
:1047a8003e00900047f107000000e000db003a00ff
:1047b8002e4090000080fb007007980070052000d4
:1047c800fe009000808f50001a0032007005200013
:1047d800fe009000808f500009003c00100420006b
:1047e800fe009000808f5000440032002005200019
:1047f800fe009000808f5000aa003200c2003700ef
:1048080020072000fe009000808f5000a500320095
:1048180070072000fe009000808f500005003200d5
:1048280010062000fe009000808f500033003200f8
:10483800b50037003e0090004010900040079800f7
:10484800e800470012c0b3003e00900033fe0700a6
:10485800000f78001e00e000f3003a00e80047006f
:104868000041eb003e009000f0f90700000f7800cf
:104878001e00e000ec003a00e800470072c7b300f1
:104888003e00900000f20700000f78003e00900004
:10489800601090004400de00610060000004e00049
:1048a80004003200f0c1b30096f5b700f00f200005
:1048b800000f78001e00e000db003a002100200015
:1048c8006011b8003e009000e0070700000f780074
:1048d8006e0090000000e80090407800b0c2b3007d
:1048e80080cf5000d0003a003e009000b008900001
:1048f8000110a00031089800cb0037003e0090005e
:10490800a008900010089000e00f5000e08f5800b9
:104918002e0032003e0090004010900040079800a2
:10492800e800470072c7b3003e009000d6f10700c8
:10493800000f78003e009000601090004400de00f8
:10494800610060000004e00004003200f0c1b30020
:1049580096f5b700f00f2000000f78001e00e00069
:10496800b1003a00210020006011b8003e0090001c
:10497800b6070700000f78001e00e00003003200b1
:10498800a0c1b30096f5b700050037003e009000bf
:1049980030019000c001900000642100f008070079
:1049a8006e0090000000e80090407800b0c2b300ac
:1049b80080cf50009c003a003e009000b008900064
:1049c8000110a00031089800970037003e009000c1
:1049d8004010900040079800e800470012c0b3005c
:1049e8003e009000cdfd0700000f78001e00e0009b
:1049f8008d003a00e80047000041eb003e009000bf
:104a08008af90700000f78001e00e00086003a00cf
:104a1800e800470072c7b3003e0090009af1070013
:104a2800000f78003e009000601090004400de0007
:104a3800610060000004e00004003200f0c1b3002f
:104a480096f5b700f00f2000000f78001e00e00078
:104a580075003a00210020006011b8003e00900067
:104a68007a070700000f78001e00e00002003200fd
:104a7800a0c1b30096f5b7006e0090000000e800f2
:104a880090407800b0c2b30080cf500066003a0072
:104a98003e009000b00890000110a0003108980076
:104aa800610037003e0090004010900040079800d9
:104ab800e800470022c7b3003e00900072f10700eb
:104ac800000f78006e0090000000e8009040780029
:104ad800b0c2b30080cf500053003a003e009000af
:104ae800601090004400de00610060000000e000fb
:104af8004d003a003e009000b00890000100a00070
:104b08003108980048003700f0c1b30096f5b700a7
:104b1800f00f2000000f780043003700415d2100ae
:104b28003e009000e6000700ae40900070c7b3005a
:104b380080cf50000c003200ae40900070c5b3002a
:104b480080cf500008003200ae40900010c6b3007d
:104b580080cf500004003200ae40900010c4b30073
:104b680080cf50002e003a000000eb00400798006c
:104b7800e80047000041eb003e0090002bf90700d9
:104b8800000f78001e00e00027003a00e800470008
:104b980072c7b3003e0090003bf10700000f780099
:104ba8003e009000601090004400de00610060004c
:104bb8000004e00004003200f0c1b30096f5b7002d
:104bc800f00f2000000f78001e00e00016003a00e9
:104bd800210020006011b8003e0090001b0707006c
:104be800000f78001e00e00002003200a0c1b300f0
:104bf80096f5b7006e0090000000e800904078003d
:104c0800b0c2b30080cf500007003a003e009000c9
:104c1800b00890000110a000310898000200370089
:104c2800b0002000000f7800bc2207000004e0005c
:104c3800050032003e019000b2089000e0ff2f000e
:104c480000806000300998001e00e0000800320073
:104c5800ae009000e05821008080400010c0b300f2
:104c6800804878000000eb00300798000200370009
:104c78000040eb0096f5b7003e009000000f98004a
:104c88000e0890000080fa00000006000200fa00fa
:104c9800000f78000040eb0096f5b7001e00780082
:104ca80080089000700090000080fa000000060064
:104cb8000800fa0020079800e05921001007980022
:104cc8000040eb0096f5b700942207000004e000ce
:104cd8000500320080c1b30096f5b7000080eb00f4
:104ce80030079800540037001e009000fc00400078
:104cf8000041eb002e009000eb0407000004e000e8
:104d080005003a0020c1b30096f5b7000080eb001b
:104d180030079800480037009e009000006421008a
:104d2800800878001e0190006000b800100198000b
:104d3800210198001e0190006000b8003001980021
:104d4800410198009e0090000000eb00c010980000
:104d58009e00900000022000e010980000b880003b
:104d680080189000701090001e019000701198003b
:104d78000119980000b88000a01890001018900041
:104d88001e01900010199800211998009e009000ab
:104d9800405d21004a0007008041eb0012c0b300cb
:104da800415d21001e009000c6ef0700000f78004b
:104db8001e00e00005003200b0c0b30096f5b70051
:104dc8000080eb00300798001b0037001e009000a1
:104dd800601090004400de00610060000004e00004
:104de8000500320030c1b30096f5b7000080eb0033
:104df80030079800100037001e0090008102200044
:104e08008080400012c0b3001e009000c3fc070061
:104e1800000f78001e00e00003003a000000eb00dd
:104e2800300798000400370010c0b30096f5b700ab
:104e38000080eb00300798003e0090000080fa00e8
:104e4800000006000200fa00000f7800fcd6bf0040
:104e58000004e00001003200400307001e01780052
:104e68006000b80070019800010998009e00780061
:104e78000000eb00e00098009e0078000000eb00c6
:104e8800d00098001e007800a0009000100090004c
:104e98001e01780030019800410198000000eb00e5
:104ea800b0b788000080fa00000006000000fa0091
:104eb80096d5bf000080fb000080fa0000000600c5
:104ec8000c00fa0040079800510798004e00900027
:104ed800200798005e0090001007980060c3b30098
:104ee800604798000040eb00004f78000b00370047
:104ef8001e80fb00800078002e009000008140009a
:104f08001e80fb00800078001e009000008040009a
:104f180010407800004978001e4fe8006e4090006d
:104f28009e4f1000f2ff39000080fa0000000600d2
:104f38000800fa0020079800310798000000eb00ed
:104f4800000f78002e00900090007800110798005c
:104f58002e009000faf907003e0190000089be007b
:104f68003e0090001000be00e00f5000e08f580097
:104f780003003a0050012000000f78003f0037007e
:104f88001e00900020609000e14f500010003a0091
:104f98003e0090001001be008040eb0084ff20001e
:104fa800050020001e0090008f0907000001be00c8
:104fb800f0ff2f0001002000800f5100818f590061
:104fc80026003a0090002000000f780023003700e8
:104fd8001e00900020609000e24f500010003a0040
:104fe8003e0090001001be008040eb0084ff2f00bf
:104ff800050020001e0090007b0907000001be008c
:10500800f0ff2f0001002000800f5100818f590010
:1050180012003a0090002000000f78000f003700bf
:105028003e0090001001be008040eb0084ff2f007e
:10503800f5ff20001e0090006b0907000001be006c
:10504800f0ff2f00f1ff2000800f5100818f5900e1
:1050580002003a0090002000000f78001e00e000d7
:1050680006003a003e0090001001be001e009000ad
:10507800050007000080fb00000f78001e00780084
:105088000080fa00000006001000fa0040079800af
:1050980052079800630798000040eb00004f780023
:1050a8005e019000ee0190004e0090008000070025
:1050b8001007980021079800fcd6bf000004e00004
:1050c80006003200a50207000004e00003003200d9
:1050d8009000200070079800350037000000eb00b2
:1050e800b0b78800fed6bf000004e0000b003a000d
:1050f8004e0090009080fb00104090000080fb0064
:105108004800dd0001007000022020008000eb0054
:1051180067ed070010c0b300fef6b7000040eb00d3
:1051280060479800190037004e0090009080fb00ff
:10513800104090000080fb004800dd000100700076
:10514800000178001e029000ae0290001e00900040
:10515800ae00900061004000e08048001007980011
:10516800210798008041eb000400be00e5200700fd
:10517800e14f50000200320090c0b300004f7800a9
:105188006e4090000040e800604798004e00900094
:10519800906090006e40900080cf50000200360072
:1051a8001e04e000e0ff32001e80fb00700798003c
:1051b8007e0090000080fa00000006000400fa005b
:1051c800000f7800110798001e0090001e00400094
:1051d800104078000080fb000080fa000000060004
:1051e8000800fa002007980031079800be009000d8
:1051f8002e009000008040009040780031479800d1
:10520800be0090002e009000008040000000e800e2
:1052180090407800214798002e4090000080fb00c5
:10522800000f78001e0078004800dd00000f7800ad
:105238003e4090000080fb001e0f70001e007800aa
:105248000080fa00000006000c00fa0040079800f1
:1052580051079800de0090004e009000e0ff070024
:10526800300798005e0090008080e8004e009000b3
:10527800dbff0700200798002e00900001002000a7
:10528800008fbe001e00be00c000dd000000200030
:10529800008fbe003e009000010020001e1f70001d
:1052a8001e9770001e00be000080fa000000060075
:1052b8000a00fa00889fbe0020079800320798006d
:1052c800430798002e009000206090000080fb00ab
:1052d800e30f500001003200230037003e00900029
:1052e800ce00900062035000e08358002e0090002a
:1052f800106090000082fb00050020008600780006
:1053080004007800000cb80005b0b9000901780065
:105318000001410007a0b9000001410082047800a3
:10532800ae009000614890000082fb007148900038
:105338000080fb004800dd000400700000017800d8
:10534800015090000082fb00115090000080fb008b
:105358004800dd000400700080017800021f44004e
:1053680003974c00420037003e009000ce009000aa
:10537800e00f5000e08f5800070032003e01900017
:10538800ce0190001000200001002000800f510085
:10539800818f590014003a00ae0090002148900017
:1053a8000082fb00314890000080fb004800dd00cf
:1053b8000400700000017800414890000082fb0062
:1053c800514890000080fb004800dd000400700098
:1053d800800178003e009000ce009000001f410040
:1053e80001974900220037003e009000ce0090004f
:1053f80062035000e08358002e0090001060900077
:105408000082fb0005002000860078000400780078
:10541800000cb80005b0b90009017800000141008e
:1054280007a0b9000001410082047800ae00900096
:10543800614890000082fb00714890000080fb00ea
:105448004800dd0004007000000178000150900061
:105458000082fb00115090000080fb004800dd0036
:105468000400700080017800021f440003974c007c
:105478001e00be004f04be000080fa0000000600b7
:105488000a00fa0020079800614798000040eb00e6
:1054980096f5b7006e4090008080fb0080fd2f00dd
:1054a800008060000000e00005003200f0c1b30099
:1054b80096f5b7000080eb00400798003c003700e5
:1054c8002e00900040109000100798002e009000c9
:1054d80080189000701090002e019000101998000c
:1054e800211998008e80e8002e009000c8fa070065
:1054f800000f78001e00e00005003a00b0c1b300bc
:1055080096f5b7000080eb004007980028003700a8
:105518001e007800304890000080fb004300de0049
:10552800610060000004e00005003200f0c1b30033
:1055380096f5b7000080eb00400798001c00370084
:105548002e009000601090004400de0061006000b2
:105558000004e000060032006e4090000044a00005
:105568008080fb002e009000611098000400370036
:105578006e4090008080fb002e0090006110980023
:105588008e80e8002e0090009ef407000004e000e2
:1055980005003a0090c0b30096f5b7000080eb0014
:1055a80040079800020037000000eb004007980011
:1055b8004e0090000080fa00000006002600fa0065
:1055c800600f9800710f9800021798001317980041
:1055d800fe0890000e1090000088b900010020001d
:1055e800400f9800510f98006e089000300f9800f7
:1055f8000000eb00100f98000000eb001007980067
:105608001e10900030089000610060000000e0006b
:1056180007003a00d0c1b30096f5b700900020000b
:10562800100f98008000eb00211798004801370000
:105638004e089000de089000e00f5000e08f580000
:1056480003003a000001eb002217980040013700e0
:10565800322007000004e0000700320080c1b300d8
:1056680096f5b70080012000100f98008001eb002c
:1056780023179800360137000040eb00fef6b7000c
:105688001e10900090007800210f98001e109000c6
:1056980060019000020f98001e10900070019000a9
:1056a8008009900042079800530798001e10900048
:1056b80030019000c00190002e089000fcfe070009
:1056c80060079800710798001e1090005000900025
:1056d8006101b8006e009000fe00900000004100db
:1056e800818049006007980071079800b1b7800071
:1056f8001e109000808f50000d003200fcd6bf00b5
:105708000004e00008003200140107000004e00073
:105718000500320090c0b30096f5b7008001eb0099
:10572800231798000a0137001e109000b0b78800b0
:10573800c2b78000d3b780006e009000fe009000d2
:10574800800f5100818f590021003200fcd6bf0024
:105758000004e00008003200000107000004e00037
:105768000500320090c0b30096f5b7008000eb004a
:1057780021179800f60037000040eb00fef6b7004e
:105788002e0890009080fb00104090000080fb00e5
:105798004800dd0001007000000178006e009000f4
:1057a800fe009000d31e07000004e00004003a0049
:1057b800b0c1b30096f5b70080002000100f980024
:1057c8006e019000fe019000c2b78800d3b7880030
:1057d8001e10900010099000a00990002207980060
:1057e80033079800c00037004e019000de0190009a
:1057f8002e009000be009000800f5100818f59004c
:1058080004003a001e109000b00890000120a0008b
:10581800310898000e0890006103b800ae089000a7
:10582800015890000082fb00115890000080fb0096
:105838004800dd0004007000000178002158900045
:105848000082fb00315890000080fb004800dd001a
:105858000400700080017800820f5300838f5b0082
:1058680070003a0010c0b300004f7800fcd6bf00ab
:105878000004e00008003200b80007000004e0005f
:105888000500320090c0b30096f5b7008001eb0028
:1058980023179800ae0037000000eb00000f9800b7
:1058a8001e109000500090008000e8001e1090002c
:1058b800510098001e109000d00090002e08900013
:1058c800106090000080fb00808f500016003a00a6
:1058d8009e1090000000eb00d00098001e10900071
:1058e80030089000640060000000e000080032000a
:1058f8008040eb001e1090003df707000080fb0081
:10590800100f98000040eb00004f780006003700a9
:1059180012002000030020001e1090007cee0700fb
:105928000080fb00100f98001e089000f50f500033
:1059380005003a0050c1b30096f5b7000000eb002f
:1059480020179800820037001e0890000000e00031
:1059580034003a001e10900030019000c001900001
:105968002e08900052fe0700600798007107980003
:105978001e109000500090006101b8006e00900069
:10598800fe009000000041008180490060079800f7
:10599800710798009e109000b1b788001e04e000bf
:1059a8001c0032002e0890009080fb0010409000f0
:1059b8000080fb004800dd00010070000001780055
:1059c8006e009000fe0090004a1e07000004e000f0
:1059d8000b003a00b0c1b30096f5b7008000200074
:1059e800100f98000080eb008080eb00c0b78800a3
:1059f800d1b788000001eb00221798005400370047
:105a08006e009000fe009000c0b78800d1b78800f3
:105a1800040037006e019000fe019000c2b78800b4
:105a2800d3b788001e0890000000e0002e003a005e
:105a38002e0890009080fb00104090000080fb0032
:105a48004800dd0001007000800078000e0890001a
:105a5800808040003e089000104078008048780020
:105a68000e0890000000e800000f98003e08900023
:105a78000000e800300f98004e009000de00900013
