:020000040000FA
:06000000F8EF13F01200FE
:020006001200E6
:0600080050EF09F01200A8
:02000E00C250DE
:08001000020B01E0010E1200D9
:06001800DEEF09F012000A
:02001E000100DF
:0C0020003A2800008F0500006E00000070
:04002C00D9CFE6FF43
:10003000E1CFD9FFE652A09A6A6A686A706A020E36
:10004000E66EE66AE66A710EE66E0F0EE66EBAECD2
:1000500012F0106E050EE15E1050160E6F6E9F0EC0
:100060006B6E7B0E696EDF6ADF50106E116A0C0ECC
:10007000105C000E115810E2DF50040DF3CFE9FFC1
:10008000F4CFEAFF000EE926040EEA22EE6AEE6AD9
:10009000EE6AEE6ADF2AE8D76D8C6E6A6D986D9C09
:1000A00068A607D068960001776B7C6B7D6B7E6BD2
:1000B000F7D70001010E906F916F926B936B846B79
:1000C000DF6A030EDF5C26E2EA6ADF34FE0BEA3603
:1000D000E96E6D0EE926000EEA22EE6AED6AEA6A22
:1000E000DF34FE0BEA36E96E670EE926000EEA22DF
:1000F000EE6AED6ADF50EA6A880FE96E000EEA22C6
:10010000EF6ADF50EA6A8B0FE96E000EEA22EF6AAF
:10011000DF2AD7D70001080E6D6F040E6E6F160E22
:10012000706E0401300E026F040E036F080E016F33
:10013000840E006F0001616B606BE552E552E7CF02
:10014000D9FF1200D9CFE6FFE1CFD9FFE652000177
:10015000600507E16DBA05D0686A69806988020E9A
:10016000606F6850040B05E06950040B02E068946E
:10017000C6D86DB257D06850010B09E06950010B29
:1001800006E054DFA08A0001040E606F689068509A
:10019000100B05E06950100B02E09CD8689868AC21
:1001A00019D069AC0FD0010EE66EE66A000EE66E5D
:1001B000E66A730EE66EE66A7AEC0EF0106E060ED4
:1001C000E15E1050689C00018E5101E08E078E5157
:1001D00001E156DB6850200B04E06950200B01E080
:1001E00060D86850020B13E06950020B10E0010E5A
:1001F000E66EE66A000EE66EE66AE6687F0EE66E7A
:100200007AEC0EF0106E060EE15E10506A6A040E73
:100210000001E76E6019E8AE02D0E73402D0E75083
:10022000605D02E2A19A38D069A635D0DF6A040E7B
:10023000DF5C31E268A62FD06CCF85F000018551DC
:10024000780BE842E842E842866F689685B506D0AA
:100250008651EA6A8B0FE96E000E05D08651EA6A74
:10026000880FE96E000EEA22EF70865102E15ED837
:1002700010D0000EE66EE66A850EE66E000EE66EA3
:10028000720EE66EE66A7AEC0EF0106E060EE15E15
:100290001050DF2ACCD7A19AE552E552E7CFD9FF1B
:1002A000120070A015D063C0E9FF64C0EAFFEF50F0
:1002B00080080DE16DC0E9FF6EC0EAFFEF508408D1
:1002C00006E163C0E9FF64C0EAFF8C0EEF6E709038
:1002D000689A1200698468986D820001010E846F2B
:1002E000000EE66EE66AE66EE66A750EE66EE66A91
:1002F0007AEC0EF0106E060EE15E10501200000156
:10030000846B000EE66EE66AE66EE66A740EE66ED2
:10031000E66A7AEC0EF0106E060EE15E10506D92F9
:10032000699468A402D06894FCD71200D9CFE6FF84
:10033000E1CFD9FFE65200012D0E8E6FFD0E85151F
:1003400053E17E0E8515E8407F0B040DF3CF63F07B
:10035000F4CF64F0000E6327040E642363C065F0DD
:1003600064C066F0657563C0E9FF64C0EAFFEF50E2
:100370003C0BE842E8420D0835E1DF6A080EDF5C1D
:1003800023E263C0E9FF64C0EAFF020EE926000E23
:10039000EA22EE50EFCFEAFFE96EEF50E66EDF5053
:1003A000EA6A300FE96E040EEA22E552E750EF6E7A
:1003B00063C0E9FF64C0EAFF020EE926000EEA22EC
:1003C000EE2AEF22DF2ADAD763C0E9FF64C0EAFF32
:1003D000020EE926000EEA22300EEE6E040EED6EDD
:1003E0000DD807D03AD805D0FD0E8515040801E1D7
:1003F00059D8E552E552E7CFD9FF12000001736BDF
:100400008F6B926B936B876B746B6DC0E9FF6EC0E3
:10041000EAFFEF9E6D756DC0E9FF6EC0EAFFEF9ECB
:100420006D7565C0E9FF66C0EAFFEF9E776B786B7C
:10043000796B7C6B7D6B7E6B8CD8000EE66EE66A0A
:10044000E66EE66A030EE66EE66A7AEC0EF0106E71
:10045000060EE15E10508DEF05F0020E0001745D96
:1004600002E14DEF06F0746B87511AE165C0E9FFB8
:1004700066C0EAFFEE52080EEF6E65C0E9FF66C087
:10048000EAFF020EE926000EEA22300EEE6E040E9E
:10049000ED6E65C0E9FF66C0EAFF8C0EEF6E1200DC
:1004A000876B1200D9CFE6FFE1CFD9FFE6526DC0CE
:1004B000E9FF6EC0EAFFEF50400B01E0010EDF6E76
:1004C00000016D75080E605D08E132C46EFF6E506C
:1004D00002E0100E01D0040E606F740526E16DC0BD
:1004E000E9FF6EC0EAFF020EE926000EEA22380E8E
:1004F000EE6E040EED6E72DB020E0001735D06E11E
:100500006DC0E9FF6EC0EAFF840E0DD0DF5006E13A
:100510006DC0E9FF6EC0EAFFC80E05D06DC0E9FFEF
:100520006EC0EAFF880EEF6E0FD07CAF0CD07F510B
:10053000801107E005D080C0FAFF00017F51F96EFD
:10054000FADF00017C9F746BE552E552E7CFD9FFDB
:10055000120004013051600BE842E842E842E842F0
:10056000E842000901E0120031510C0A50E00B0A88
:100570003FE00C0A31E0010A22E00B0A1EE0020A09
:100580001CE0030A18E0080A10E0010A0CE00F0A58
:1005900008E0030A01E012000001778F080E606F87
:1005A0001200CFEF04F0ECEF06F00001610E756F62
:1005B000000E766F0CD02CEF05F008EF03F03451ED
:1005C0000001756F766B620E7527000E76237781BA
:1005D000010E786F778F12000001778F040134517C
:1005E000EA6A620FE96E000EEA2232C4EFFF1200DF
:1005F000000EE66EE66AE66EE66A020EE66EE66AF1
:100600007AEC0EF0106E060EE15E10501200120031
:10061000D9CFE6FFE1CFD9FF050EE126040132056F
:1006200010E130511F0B00090CE10001778F030E20
:100630000401315D04E10001010E836F02D000016D
:10064000836B0401325101E011D130511F0B0208BC
:1006500001E00CD134510F0B000901E107D13451F5
:100660000F0B020801E202D1200E0001605D01E0E3
:10067000FDD0778F040134BF16D034510F0BE96ED3
:10068000EA6AD890E936EA36670EE926000EEA22D1
:10069000EECFDEFFEDCFDDFF34510F0BEA6A8B0F9B
:1006A000E96E000E15D034510F0BE96EEA6AD8904E
:1006B000E936EA366D0EE926000EEA22EECFDEFFBD
:1006C000EDCFDDFF34510F0BEA6A880FE96E000EA3
:1006D000EA22020EEFCFDBFFD950020FE96EDACF2C
:1006E000EAFFEF50010B03E1000EDF9401D0DF843D
:1006F00034BF0BD034510F0BE96EEA6AD890E9365B
:10070000EA36670EE926000E0AD034510F0BE96E67
:10071000EA6AD890E936EA366D0EE926000EEA223A
:10072000DECFEEFFDDCFEDFF030E315D20E1DECF4A
:10073000E9FFDDCFEAFFEF50800B11E034BF07D0B7
:1007400034510F0BEA6A8B0FE96E000E06D034515C
:100750000F0BEA6A880FE96E000EEA22EF82840E20
:10076000DECFE9FFDDCFEAFFE850EF127FD0DF7484
:10077000DECFE9FFDDCFEAFFEF50800B1BE0DECFDD
:10078000E9FFDDCFEAFFEF9EDECFE9FFDDCFEAFF35
:10079000EF8C020EE66EE66ADECFE6FFDDCFE6FF07
:1007A000050EE66EE66A7AEC0EF0106E060EE15E5D
:1007B000105005D0DECFE9FFDDCFEAFFEF8CDF740C
:1007C000D950020FE96EDACFEAFFEF50020B07E1D2
:1007D000DECFE9FFDDCFEAFFEF50800B2BE0040115
:1007E00034BF07D034510F0BEA6A8B0FE96E000E4D
:1007F00006D034510F0BEA6A880FE96E000EEA2228
:10080000EF923B0E106EDECFE9FFDDCFEAFFE8503E
:10081000EF16020EE66EE66ADECFE6FFDDCFE6FFFC
:10082000050EE66EE66A7AEC0EF0106E060EE15EDC
:10083000105007D03B0EDECFE9FFDDCFEAFFE850D6
:10084000EF16040134510F0B116A700F106E0F0E6A
:100850001122030E10C0DBFF040E11C0DBFF030EDC
:10086000DBCFE9FF040EDBCFEAFFEF90050EE15C82
:1008700002E2E16AE552E16EE552E7CFD9FF1200EC
:10088000000190514DE1010E906F915149E1010E2F
:10089000916F020E745D0DE16DC0E9FF6EC0EAFF5D
:1008A000EE52EF6A6DC0E9FF6EC0EAFFC80EEF6E50
:1008B0001200740535E1876B63C0E9FF64C0EAFF8D
:1008C000EE52080EEF6E63C0E9FF64C0EAFF020E4D
:1008D000E926000EEA22300EEE6E040EED6E63C0C5
:1008E000E9FF64C0EAFF840EEF6E010E876F65C0FA
:1008F000E9FF66C0EAFFEE52080EEF6E65C0E9FF41
:1009000066C0EAFF020EE926000EEA22300EEE6E05
:10091000040EED6E65C0E9FF66C0EAFF800EEF6E63
:1009200012000001926B936B020E745D18E165C0BA
:10093000E9FF66C0EAFFEE52080EEF6E65C0E9FF00
:1009400066C0EAFF020EE926000EEA22380EEE6EBD
:10095000040EED6E65C0E9FF66C0EAFF1DD0785158
:100960000401365D000179510401375904E236C4AF
:1009700078F037C479F032D96DC0E9FF6EC0EAFF74
:10098000020EE926000EEA22380EEE6E040EED6E1F
:100990006DC0E9FF6EC0EAFFC80EEF6E1200800E58
:1009A0000401305D58E10001C00E776F040133513E
:1009B000030A2FE0010A09E0030A4BE10001640E7B
:1009C000756F220E766F120E3ED03251F66EF76AB8
:1009D000D890F636F736050EF626230EF7220900D4
:1009E000F5CF75F00A00F5CF76F0020E0001F76A38
:1009F0007525F66E7651F7220800F5CF78F0030ED4
:100A0000F76A7525F66E7651F7220800F5CF79F072
:100A10001200030E325D1AE23251F66EF76AD89078
:100A2000F636F736070EF626230EF7220900F5CF25
:100A300075F00A00F5CF76F075C0F6FF76C0F7FFC7
:100A40000800F5500001786F796B12000001776B98
:100A500012000001776B1200D9CFE6FFE1CFD9FF7A
:100A6000020EE1260401386B396B30511F0B020A6C
:100A700011E0030A0CE0010A3CE10001778F040158
:100A800038810001830535E10401388332D000014B
:100A9000778F2FD00001778F040134BF0BD03451F2
:100AA0000F0BE96EEA6AD890E936EA36670EE92656
:100AB000000E0AD034510F0BE96EEA6AD890E9367D
:100AC000EA366D0EE926000EEA22EECFDEFFEDCF0C
:100AD000DDFFDECFE9FFDDCFEAFFEF50800B09E05D
:100AE000DECFE9FFDDCFEAFFEF50040B02E0010E9D
:100AF000386F000177AF07D0380E756F040E766F30
:100B00007781020E786F020EE15C02E2E16AE55243
:100B1000E16EE552E7CFD9FF12006D98000177BF73
:100B20002BD07CAF09D0020E746F935101E1F9DE36
:100B30000001916B906B120065C0E9FF66C0EAFF8F
:100B4000EE52080EEF6E65C0E9FF66C0EAFF020EC6
:100B5000E926000EEA22300EEE6E040EED6E65C040
:100B6000E9FF66C0EAFF8C0EEF6E6DC0E9FF6EC054
:100B7000EAFF840EEF6E1200040130AF0DD00001C9
:100B8000010E746F925101E1CCDE0001916B906B0C
:100B90008F5123E140EF04F00001020E746F65C035
:100BA000E9FF66C0EAFFEE52080EEF6E65C0E9FF8E
:100BB00066C0EAFF020EE926000EEA22300EEE6E53
:100BC000040EED6E65C0E9FF66C0EAFF840EEF6EAD
:100BD000916B906B8F5101E153DE1200D9CFE6FF8C
:100BE000E1CFD9FFE652080EDF6E0001785D000EFE
:100BF00079590AE278C0DFFF735102E1010E03D098
:100C0000730502E1020E736FDF50116AE850785DE0
:100C1000786F11507959796F6DC0E9FF6EC0EAFFA6
:100C2000EE52DFCFEFFF380E816F040E826F77B187
:100C300018D0DF502DE075C0F6FF76C0F7FF752B9A
:100C4000000E76230800F550E66E81C0E9FF82C0F1
:100C5000EAFF812B000E8223E552E750EF6EDF069C
:100C6000E8D7DF5015E075C0E9FF76C0EAFF752BC5
:100C7000000E7623EF50E66E81C0E9FF82C0EAFFE6
:100C8000812B000E8223E552E750EF6EDF06E9D795
:100C9000E552E552E7CFD9FF1200D9CFE6FFE1CF09
:100CA000D9FF020EE12663C0E9FF64C0EAFFEE52FD
:100CB000EFCFDFFFDFCF10F0105000017D5D000EA1
:100CC0007E5902E27DC0DFFFDF50106E116AE850EE
:100CD0007D5D7D6F11507E597E6F010EDB6ADF50A6
:100CE000F36E010EDBCFF4FFF350F45C16E2010E5D
:100CF000DB50EA6A380FE96E040EEA22EF50E66E26
:100D00007AC0E9FF7BC0EAFF7A2B000E7B23E55215
:100D1000E750EF6E010EDB2AE2D7000ED8807D553A
:100D2000000E7E5527E265C0E9FF66C0EAFFEE527D
:100D3000080EEF6E65C0E9FF66C0EAFF020EE92605
:100D4000000EEA22380EEE6E040EED6E63C0E9FF6F
:100D500064C0EAFFEF50400B06E165C0E9FF66C0E2
:100D6000EAFFC80E05D065C0E9FF66C0EAFF880E3D
:100D7000EF6E28D065C0E9FF66C0EAFFEE52080EAC
:100D8000EF6E65C0E9FF66C0EAFF020EE926000EBD
:100D9000EA22300EEE6E040EED6E65C0E9FF66C00D
:100DA000EAFF840EEF6E7F51801107E005D080C00E
:100DB000FAFF00017F51F96EFADF00017C9F8F512D
:100DC00001E15EDD020EE15C02E2E16AE552E16E04
:100DD000E552E7CFD9FF1200D9CFE6FFE1CFD9FF27
:100DE000E6520001778F020EE66EE66AE66A710E41
:100DF000E66E0F0EE66EBAEC12F0106E050EE15EB6
:100E00001050DF6ADF50106E116A0C0E105C000E7D
:100E1000115810E2DF50040DF3CFE9FFF4CFEAFFE1
:100E2000000EE926040EEA22EE6AEE6AEE6AEE6A27
:100E3000DF2AE8D76D8CDF6A030EDF5C10E2DF503B
:100E4000EA6A880FE96E000EEA22EF6ADF50EA6A6A
:100E50008B0FE96E000EEA22EF6ADF2AEDD7010E52
:100E6000E66EE66AE66A620EE66E000EE66EBAECC2
:100E700012F0106E050EE15E10506D9C0001080E20
:100E80006D6F040E6E6F000E636F040E646F63C0AF
:100E900065F0666F32C461F0615102E1100E12D04C
:100EA000010EE66EE66A610EE66E000EE66E010E5B
:100EB000E66EE66A7AEC0EF0106E060EE15E1050F9
:100EC0000001200E606FE552E552E7CFD9FF120016
:100ED000D9CFE6FFE1CFD9FF020EE126000EDE6E8C
:100EE000040EDD6EFD0EDB50E824126EFE0EDB50AC
:100EF000040DF3501224040DF4CF11F0D9CFE9FF03
:100F0000DACFEAFFF350EE261150ED22DECFE9FFF3
:100F1000DDCFEAFFEF9EFD0EDB500AE1FE0EEA6A2E
:100F2000DB34FE0BEA36E96E670EE926000E09D0C7
:100F3000FE0EEA6ADB34FE0BEA36E96E6D0EE92638
:100F4000000EEA22DECFEEFFDDCFEDFFDECFE9FFC0
:100F5000DDCFEAFFEF9CDECFE9FFDDCFEAFF040E35
:100F6000E926000EEA22EF8C020EE15C02E2E16A61
:100F7000E552E16EE552E7CFD9FF1200D9CFE6FF87
:100F8000E1CFD9FF020EE126FD0EDBA407D0E66A11
:100F9000FE0EDBCFE6FF9CDFE552E552FD0EDBA245
:100FA00008D0010EE66EFE0EDBCFE6FF91DFE552C4
:100FB000E552FE0EDB50116A700F106E0F0E1122FB
:100FC00010C0DEFF11C0DDFFDECFE9FFDDCFEAFF9D
:100FD000FD0EDBCFEFFF020EE15C02E2E16AE552BB
:100FE000E16EE552E7CFD9FF1200D9CFE6FFE1CF9E
:100FF000D9FF020EE126FE0EDB5020E165C0E9FFBD
:1010000066C0EAFFEE52080EEF6E65C0E9FF66C0EB
:10101000EAFF020EE926000EEA22300EEE6E040E02
:10102000ED6E65C0E9FF66C0EAFF8C0EEF6E6DC025
:10103000E9FF6EC0EAFF840EEF6E3BD0FD0EDB5081
:10104000E824126EFE0EDB50040DF3501224040D42
:10105000F3CF10F0F4CF11F0000E1026040E112281
:1010600010C0DEFF11C0DDFF840EDECFE9FFDDCF53
:10107000EAFFE850EF12FD0EDB50E824126EFE0E80
:10108000DB50040DF3501224010F040DF3CF10F0C8
:10109000F4CF11F0000E1026040E112210C0DEFF56
:1010A00011C0DDFF840EDECFE9FFDDCFEAFFE8509F
:1010B000EF12020EE15C02E2E16AE552E16EE552F6
:1010C000E7CFD9FF1200D9CFE6FFE1CFD9FF020E5B
:1010D000E126FD0EDB500AE0FE0EEA6ADB34FE0B71
:1010E000EA36E96E6D0EE926000E09D0FE0EEA6AB8
:1010F000DB34FE0BEA36E96E670EE926000EEA22C3
:10110000EECFDEFFEDCFDDFFD9CFE9FFDACFEAFF8B
:10111000EE50ED1003E1F36AF46A44D0DECFE9FF4C
:10112000DDCFEAFF020EE926000EEA22FB0EDBCF3E
:10113000EEFFFC0EDBCFEDFFDECFE9FFDDCFEAFFF8
:10114000EE52FA0EDBCFEFFF400EDECFE9FFDDCF30
:10115000EAFFE850EF16880EDECFE9FFDDCFEAFFA9
:10116000E850EF12FD0EDB500AE0FE0EEA6ADB34B7
:10117000FE0BEA36E96E6D0EE926000E09D0FE0E72
:10118000EA6ADB34FE0BEA36E96E670EE926000EEA
:10119000EA22EF74DECF10F0DDCF11F010C0F3FFC4
:1011A00011C0F4FF020EE15C02E2E16AE552E16E79
:1011B000E552E7CFD9FF1200D9CFE6FFE1CFD9FF43
:1011C0006DA84ED0FE0EEA6ADB34FE0BEA36E96EFD
:1011D0006D0EE926000EEA22EE50EFCFEAFFE96E2F
:1011E000400EEE16EE6AEE6AEE6AFE0EEA6ADB3436
:1011F000FE0BEA36E96E6D0EE926000EEA22EE508D
:10120000EFCFEAFFE96EEE7CFE0EEA6ADB34FE0BFE
:10121000EA36E96E6D0EE926000EEA22EF74400E02
:10122000106EFE0EEA6ADB34FE0BEA36E96E6D0ED6
:10123000E926000EEA22EE50EFCFEAFFE96E1050E9
:10124000EF16FE0EEA6ADB34FE0BEA36E96E6D0E2F
:10125000E926000EEA22EE50EFCFEAFFE96EEF7CBE
:10126000E552E7CFD9FF12006D6A696A0001606B31
:1012700012000001605113E16D6A696A160E6F6E0B
:101280009F0E6B6E7B0E696ED08EA28AA08AF28E44
:101290006DB602D06D86FCD70001010E606F1200A2
:1012A000DACFE4FFE2CFDAFFE9CFE4FFEACFE4FFF1
:1012B000F6CFE4FFF7CFE4FFF5CFE4FFF3CFE4FF91
:1012C000F4CFE4FFFACFE4FF00EE00F0100EE804E4
:1012D00003E3EECFE4FFFBD700EE10F0080EE804C6
:1012E00003E3EECFE4FFFBD7E652F2A435D0F2944D
:1012F000580EE66E8A0EE66E71EC13F0E552E5527A
:101300000001605102E139EC09F0200E0001E76EA6
:101310006019E8AE02D0E73402D0E750605D28E300
:101320006D50020B25E10001955103E08BEC10F0AC
:10133000FAD7300EE66E280EE66E48EC10F0E55255
:10134000E5528BEC10F0BD0EE66E050EE66E08EC75
:1013500013F0E552E5520CD09EAA0AD0AB50020B16
:1013600003E1AB50040B03E0AB6A900EAB6E9E9AA8
:10137000A2EC00F0E55200EE17F0080EE80403E3DB
:10138000E5CFEDFFFBD700EE0FF0100EE80403E30E
:10139000E5CFEDFFFBD7E5CFFAFFE5CFF4FFE5CFD3
:1013A000F3FFE5CFF5FFE5CFF7FFE5CFF6FFE5CF9C
:1013B000EAFFE5CFE9FFE5CFDAFF1100D8CFE4FF80
:1013C000E0CFE4FFE46EDACFE4FFE652E552E5CF8A
:1013D000DAFFE550E5CFE0FFE5CFD8FF10009268D7
:1013E000100E936E800E946E190EE66EE66A3C0E39
:1013F000E66ED6EC11F0E552E552E5528294829207
:10140000050EE66E8F0EE66E050EE66E8BEC12F0A4
:10141000E552E552E552020EE66EE66AFFDAE55263
:10142000E5520401C26BBD0EE66E050EE66ED4EC0D
:1014300012F0E552E552F3CF10F0F4CF11F00401B1
:10144000F350C25D000EF4540EE2C251EA6ABD0FC1
:10145000E96E050EEA22EF50E66EA4EC13F0E552B9
:101460000401C22BE0D7AB98AB88050EE66EE66AA6
:10147000D5DAE552E5520401C26BC20EE66E050EE6
:10148000E66ED4EC12F0E552E552F3CF10F0F4CF53
:1014900011F00401F350C25D000EF4540EE2C2518B
:1014A000EA6AC20FE96E050EEA22EF50E66EA4EC7E
:1014B00013F0E5520401C22BE0D7AB98AB88C26BA6
:1014C000BD0EE66E050EE66ED4EC12F0E552E55266
:1014D000F3CF10F0F4CF11F00401F350C25D000E11
:1014E000F4540EE2C251EA6ABD0FE96E050EEA221B
:1014F000EF50E66EA4EC13F0E5520401C22BE0D7E6
:10150000AB98AB88AB50020B02E0828401D082948E
:10151000AB50040B02E0828201D082920B0EE66E89
:10152000040EE66EEB0EE66E54EC12F0E552E55258
:10153000E5520401C26BC251106E116A400E105C7C
:10154000000E115809E2C251EA6A400FE96E040E1A
:10155000EA22EF6AC22BEFD7C06BC16B16EC00F02A
:10156000870ED56E580EE66E8A0EE66E71EC13F09D
:10157000E552E552F28EF28A00016051FDE139EC4C
:1015800009F0FAD7D9CFE6FFE1CFD9FF11EC14F07B
:10159000C580C5B0FED7FE0EDBCFE6FF1BEC12F018
:1015A000E552000902E0020E27D011EC14F0C5ACA0
:1015B00002D0030E21D09E96FD0EDBCFE6FF1BEC82
:1015C00012F0E552000902E0040E16D011EC14F0FE
:1015D000C5AC02D0050E10D09E96FC0EDBCFE6FF08
:1015E0001BEC12F0E552000902E0080E05D011ECE8
:1015F00014F0C5AC03D0090EF36E06D09E96C584D8
:10160000C5B4FED79E96F36AF46AE552E7CFD9FFD8
:101610001200D9CFE6FFE1CFD9FF11EC14F0C5805D
:10162000C5B0FED7FE0EDBCFE6FF1BEC12F0E55295
:10163000000902E0210E36D011EC14F0C550400B29
:1016400001E0010E0401E36FE46BE56BE66BE8502B
:10165000E411E511E61102E0220E24D09E96FD0E63
:10166000DBCFE6FF1BEC12F0E552000902E0230E8F
:1016700019D011EC14F0C5AC02D0240E13D09E96F4
:10168000C582C5B2FED7FE0EDB28E66E1BEC12F05B
:10169000E552000902E0260E05D011EC14F0C5ACAD
:1016A00004D0270EF36EF46A14D09E96C586C5B694
:1016B000FED7C58AC588C5B8FED79E96C584C5B471
:1016C000FED79E969E96C950106E116AF36E11C099
:1016D000F4FFE552E7CFD9FF1200827C11EC14F041
:1016E000C580C5B0FED7D00EE66E1BEC12F0E552F9
:1016F000000901E0120011EC14F0C550400B01E0AC
:10170000010E0401E36FE46BE56BE66BE850E41156
:10171000E511E61101E012009E963B0EE66E1BEC11
:1017200012F0E552000901E0120011EC14F0C5BC02
:1017300012009E96C582C5B2FED7D10EE66E1BEC96
:1017400012F0E552000901E0120011EC14F0C5BCE2
:1017500012009E96C586C5B6FED7C9500401C56F56
:10176000C59AC588C5B8FED79E96C586C5B6FED7AC
:10177000C9500401C66FC59AC588C5B8FED79E96E4
:10178000C586C5B6FED7C9500401C76FC59AC588BE
:10179000C5B8FED79E96C586C5B6FED7C95004010A
:1017A000C86FC59AC588C5B8FED79E96C586C5B60A
:1017B000FED7C9500401C96FC59AC588C5B8FED700
:1017C0009E96C586C5B6FED7C9500401CA6FC59A94
:1017D000C588C5B8FED79E96C586C5B6FED7C59A3C
:1017E000C588C5B8FED79E96C586C5B6FED7C59A2C
:1017F000C588C5B8FED79E96C586C5B6FED7C95062
:101800000401CB6FC59AC588C5B8FED79E96C5861C
:10181000C5B6FED7C9500401CC6FC59AC588C5B8F6
:10182000FED79E96C586C5B6FED7C9500401CD6FBA
:10183000C59AC588C5B8FED79E96C586C5B6FED7DB
:10184000C9500401CE6FC59AC588C5B8FED79E960B
:10185000C586C5B6FED7C9500401CF6FC59AC588E5
:10186000C5B8FED79E96C586C5B6FED7C950040139
:10187000D06FC58AC588C5B8FED79E96C584C5B445
:10188000FED79E96030EE66E180EE66EC2DEE55299
:10189000E552F3CFD2F4090EE66E180EE66EB9DE0D
:1018A000E552E552F3CFC3F4F4CFC4F4040EE66E70
:1018B000180EE66EAEDEE552E552F3CFD1F4090E16
:1018C000E66E180EE66EA5DEE552E552F3CFC3F4E0
:1018D000F4CFC4F4050EE66E180EE66E9ADEE552FD
:1018E000E552F3CFD4F4090EE66E180EE66E91DEE3
:1018F000E552E552F3CFC3F4F4CFC4F4060EE66E1E
:10190000180EE66E86DEE552E552F3CFD3F4090EEB
:10191000E66E180EE66E7DDEE552E552F3CFC3F4B7
:10192000F4CFC4F4070EE66E180EE66E72DEE552D2
:10193000E552F3CFD6F4090EE66E180EE66E69DEB8
:10194000E552E552F3CFC3F4F4CFC4F4080EE66ECB
:10195000180EE66E5EDEE552E552F3CFD5F4090EC1
:10196000E66E180EE66E55DEE552E552F3CFC3F48F
:10197000F4CFC4F4870EE66EBBEC13F0E5521BEC1B
:1019800014F007EC00F00009FCE1C4CFD7F4C3CF9A
:10199000D8F48F0EE66EBBEC13F0E5521BEC14F09E
:1019A00007EC00F00009FCE1C4CFD9F4C3CFDAF4AE
:1019B000970EE66EBBEC13F0E5521BEC14F007EC4F
:1019C00000F00009FCE1C4CFDBF4C3CFDCF49F0ED0
:1019D000E66EBBEC13F0E5521BEC14F007EC00F0E4
:1019E0000009FCE1C4CFDDF4C3CFDEF404010D0E29
:1019F000DF6F0A0EE06F0001955103E08BEC10F0F1
:101A0000FAD71C0EE66EC50EE66E040EE66EEDEC21
:101A10000FF0E552E552E5528BEF10F0D9CFE6FF1B
:101A2000E1CFD9FF0401C26BC251106E116AFD0EE5
:101A3000DBCF12F0FE0EDBCF13F011501318E8AE1F
:101A400002D0133404D01250105C135011582BE202
:101A5000640EE66E8DEC13F0E552640EE66E8DECCE
:101A600013F0E552640EE66E8DEC13F0E552640E51
:101A7000E66E8DEC13F0E552640EE66E8DEC13F01D
:101A8000E552640EE66E8DEC13F0E552640EE66EE0
:101A90008DEC13F0E552500EE66E8DEC13F0E5522E
:101AA0000401C22BC1D7E552E7CFD9FF1200D9CF2D
:101AB000E6FFE1CFD9FF0401C26BC251106E116A7B
:101AC000FD0EDBCF12F0FE0EDBCF13F0115013181A
:101AD000E8AE02D0133404D01250105C13501158E9
:101AE0003FE2640EE66E06EC14F0E552640EE66E1C
:101AF00006EC14F0E552640EE66E06EC14F0E552C6
:101B0000640EE66E06EC14F0E552640EE66E06EC2A
:101B100014F0E552640EE66E06EC14F0E552640E25
:101B2000E66E06EC14F0E552640EE66E06EC14F078
:101B3000E552640EE66E06EC14F0E552640EE66EB5
:101B400006EC14F0E552640EE66E06EC14F0E55275
:101B5000240EE66E06EC14F0E5520401C22BADD75C
:101B6000E552E7CFD9FF1200D9CFE6FFE1CFD9FF89
:101B7000020EE126030E106E116AFD0EDBCF08F097
:101B8000FE0EDBCF09F010C00DF011C00EF0E2EC3C
:101B900012F008C0DEFF09C0DDFF0401C26B0401C2
:101BA000C251106E116ADECF12F0DDCF13F011506A
:101BB0001318E8AE02D0133404D01250105C135046
:101BC00011580AE2000000000000000000000000C0
:101BD00000000401C22BE3D7020EE15C02E2E16ADD
:101BE000E552E16EE552E7CFD9FF1200D9CFE6FF0B
:101BF000E1CFD9FF040EE126D880000E0501005583
:101C0000C20E0155010E0255000E03553CE300C5FE
:101C100088F501C589F502C58AF503C58BF5146AF7
:101C20001B0E156EB70E166E176A14C006F015C09F
:101C300007F0086E17C009F088C50BF089C50CF0D5
:101C40008AC50DF08BC50EF02EEC13F006C010F017
:101C500007C011F008C012F009C013F01006000E02
:101C6000115A125A135A10C0DFFF010E11C0DBFFC8
:101C7000020E12C0DBFF030E13C0DBFFDF50AF6E9E
:101C8000010EDB50B06E040EE15C02E2E16AE55247
:101C9000E16EE552E7CFD9FF1200120012001200E8
:101CA0001200C4EF0EF0120014EF0FF000018305D4
:101CB00020E1000184051DE1A09AF0DF6D92000192
:101CC000846B0401100EEA6F0E0EEB6FEA07000E34
:101CD000EB5BEA51EB11FAE16D84080EEA6F070E37
:101CE000EB6FEA07000EEB5BEA51EB11FAE16D9442
:101CF000A08A1200D9CFE6FFE1CFD9FFFD0EDBCFDE
:101D000008F0FE0EDBCF09F0050E081801E10950BE
:101D100036E0E868081802E17F0E09182FE0030E8C
:101D2000081801E1095028E0020E081801E10950E5
:101D300021E0010E081801E109501AE0740E08189C
:101D400001E1095013E0750E081801E109500CE09B
:101D5000730E081801E1095005E0720E08180FE132
:101D600009500DD09CDF0BD098DF09D097DF07D04A
:101D70009BDF05D098DF03D094DF01D091DF010E07
:081D8000E552E7CFD9FF120084
:081D8800040130511F0B01089A
:101D900001E012003051600BE842E842E842E842BC
:101DA000E842010801E01200345103E0340501E08B
:101DB00012003151220A33E0030A26E0010A15E03D
:101DC000210A0DE0010A01E012000001A50E756F65
:101DD000000E766F080E786F796B778123D0000143
:101DE000A50E756F000E766F1DD036C47DF037C41A
:101DF0007EF00001000E7A6F050E7B6FEC0E7F6F98
:101E00001B0E806F7C8F12000001880E756F050E0F
:101E1000766F070E786F796BC10E776F120032C440
:101E2000A0F00001778F12000501886B4B0E896FBF
:101E30008A6B8B6B8C6B8D6B080E8E6F0001946BB5
:101E40001A0EE66E010EE66EBEEC07F0E552E552A4
:101E50001E0EE66E020EE66EBEEC07F0E552E5528F
:101E6000400EE66E080EE66E050EE66EE66A020E9F
:101E7000E66E63EC08F0106E050EE15E1050F3CFD5
:101E80009CF0F4CF9DF000019E6B9F6B956B120050
:101E9000D9CFE6FFE1CFD9FFFD0EDBCF08F0FE0E74
:101EA000DBCF09F0050E081801E1095002E0000E31
:101EB00030D0FB0EDBCF10F0FC0EDBCF11F00001B9
:101EC0009C51101816E19D51111813E1400EE66E59
:101ED000080EE66E050EE66EE66A020EE66E63EC2E
:101EE00008F0106E050EE15E1050F3CF9CF0F4CFB9
:101EF0009DF0FB0EDBCF10F0FC0EDBCF11F00001EC
:101F00009E51101805E19F51111802E1956B9A6BD3
:101F1000010EE552E7CFD9FF1200D9CFE6FFE1CF9E
:101F2000D9FF0001946B9C519D1102E1000E08D075
:101F30009CC0E9FF9DC0EAFFEF50800B01E0010E5D
:101F4000000945E1FC0EDBCF10F09CC0E9FF9DC00D
:101F5000EAFFEE52EF50D880105408E29CC0E9FF2F
:101F60009DC0EAFFEE52FC0EEFCFDBFF946BFC0E40
:101F7000DB50945D19E29451EA6A080FE96E050E90
:101F8000EA22EF50E66E9451E76EFD0EDBCFE9FFDB
:101F9000FE0EDBCFEAFFE750E926000EEA22E5520B
:101FA000E750EF6E942BE3D7400EE66E080EE66E18
:101FB000050EE66EE66A020EE66E63EC08F0106E41
:101FC000050EE15E1050F3CF9CF0F4CF9DF00001C0
:101FD0009451E552E7CFD9FF1200D9CFE6FFE1CF08
:101FE000D9FFA09A000195510CE1FD0EDBCF96F0D0
:101FF000FE0EDBCF97F0FC0EDBCF9AF0010E9B6F4D
:10200000956FA08AE552E7CFD9FF1200D9CFE6FF3E
:10201000E1CFD9FF030EE126A09A000195512DE1F1
:10202000DF6AFD0EDBCF08F0FE0EDBCF09F0DE52DB
:1020300008C0DEFF09C0DDFFDD52DF2ADF50106E71
:10204000116AFF0E101802E111500BE0010EDBCFF8
:10205000E9FFDB2A020EDBCFEAFF01E3DB2AEF50C8
:10206000ECE1FD0EDBCF96F0FE0EDBCF97F0DFCF7D
:102070009AF00001010E9B6F956FA08A030EE15C40
:1020800002E2E16AE552E16EE552E7CFD9FF1200C4
:10209000D9CFE6FFE1CFD9FF030EE126A09A0001D8
:1020A00095512EE1DF6AFD0EDBCF08F0FE0EDBCF8F
:1020B00009F0DE5208C0DEFF09C0DDFFDD52DF2A75
:1020C000DF50106E116AFF0E101802E111500CE083
:1020D000010EDBCFF6FFDB2A020EDBCFF7FF01E3B9
:1020E000DB2A0800F550EBE1FD0EDBCF96F0FE0E8B
:1020F000DBCF97F0DFCF9AF000019B6B010E956F5D
:10210000A08A030EE15C02E2E16AE552E16EE5526B
:10211000E7CFD9FF1200D9CFE6FFE1CFD9FF020EFA
:10212000E126A09A00019E519F1102E1000E08D005
:102130009EC0E9FF9FC0EAFFEF50800B01E0010E57
:10214000000906E1030E955D01E1956B955102E1F1
:10215000A08A7ED0020E955D16E1E66A000EE66E5C
:10216000E66A010EE66E020EE66E63EC08F0106E93
:10217000050EE15E1050F3CF9EF0F4CF9FF000010A
:10218000030E956F64D0950562E1400E106E116AE2
:102190009A51105C000E115803E2400EDF6E02D01F
:1021A0009AC0DFFFDF509A5D9A6F480E986F050E58
:1021B000996F010EDFCFDBFF9B5116E1010EDB5063
:1021C00028E096C0F6FF97C0F7FF0800F55098C0CA
:1021D000E9FF99C0EAFFEF6E982B000E9923962B2A
:1021E0009723010EDB06EAD7010EDB5012E096C002
:1021F000E9FF97C0EAFFEF5098C0E9FF99C0EAFFF6
:10220000EF6E982B000E9923962B9723010EDB0679
:10221000EBD700019A5107E1400EDF5C02E1020EAC
:1022200001D0030E956FDFCFE6FF480EE66E050E78
:10223000E66E010EE66E020EE66E63EC08F0106EBE
:10224000050EE15E1050F3CF9EF0F4CF9FF0A08A10
:10225000020EE15C02E2E16AE552E16EE552E7CF8F
:04226000D9FF120090
:0C2264001201000202020108D8040A0066
:1022700000010102000109024300020100C0FA0945
:1022800004000001020201000524001001042402E0
:102290000205240600010524010001070581030849
:1022A000000209040100020A0000000705020240C2
:1022B0000000070582024000000403090434034DB6
:1022C000006900630072006F0063006800690070BD
:1022D00000200054006500630068006E006F006C11
:1022E000006F0067007900200049006E0063002E37
:1022F000001403430044004300200069002D0050F7
:0D23000000530044007622B922BD22F122D4
:02230E001E0EA1
:10231000F66E000EF76E000EF86E04010900F5501F
:10232000F16F0900F550F26F03E1F16701D03DD084
:102330000900F550EC6F0900F550ED6F0900F550FC
:10234000EE6F09000900F550E96E0900F550EA6EDC
:10235000090009000900F550EF6F0900F550F06F12
:1023600009000900F6CFF3F4F7CFF4F4F8CFF5F451
:10237000ECC4F6FFEDC4F7FFEEC4F8FF0401EF5321
:1023800002E1F05307E00900F550EE6EEF07F8E2C6
:10239000F007F9D7F3C4F6FFF4C4F7FFF5C4F8FF6C
:0C23A0000401F107000EF25BBFD7120031
:0423AC00D9CFE6FFA0
:1023B000DACFE6FFE1CFD9FFE2CFDAFFAC6AAB6A52
:1023C000FD0EDBB0AC88DBA202D0AC8CAB8CDBB4F6
:1023D000AC8EDBA602D0AB8801D0AB8ADBB8AC8474
:1023E0009E98DBBAAB86DBAC02D09D8A01D09D9A69
:1023F0009E9ADBAE02D09D8801D09D98FB0EDB50EB
:10240000AF6EFB0EFC0EDBCF11F011C010F0116AA5
:102410001050B06EAC8AAB8E949C948EAC50100B66
:1024200004E0AC50800B01E1948CE552E5CFDAFF7B
:06243000E7CFD9FF120006
:0A243600D9CFE6FFDACFE6FFE1CFD1
:10244000D9FFE2CFDAFFFD0EDB50C96EC6AE02D077
:10245000FF0E24D00F0EC61408080FE00F0EC6148E
:102460000B080BE0C6889EA6FED7C750040B03E1FD
:10247000C750010B10E0000E11D00F0EC614080853
:1024800004E00F0EC6140B0809E1C7B0FED711EC2B
:1024900014F0C5AC02D0FE0E01D0000EE552E5CF1F
:0824A000DAFFE7CFD9FF1200BB
:0824A800D9CFE6FFDACFE6FF11
:1024B000E1CFD9FFE2CFDAFFC26AC06AFC0EDB408F
:1024C0007F0B3C0BC26EFC0EDB38F00B300B106E3A
:1024D000FB0EDB500F0B1010C16EFD0EDB50040D18
:1024E000F350380B116EFD0EDB380F0B070B106E1F
:1024F000FD0EDB50800B10101110C06EFC0EDBAE19
:1025000003D09E9C9D8CF28CC280E552E5CFDAFF11
:06251000E7CFD9FF120025
:0A251600D9CFE6FFDACFE6FFE1CFF0
:10252000D9FFE2CFDAFFE652E652DF6AFB0EDB505C
:10253000DF5C18E29EAAFED752EC13F0E76E010EA4
:10254000E7CFDBFFFC0EDBCFE9FFFD0EDBCFEAFFC1
:10255000010EDBCFEFFFFC0EDB2AFD0E01E3DB2AD1
:10256000DF2AE4D7E552E552E552E5CFDAFFE7CFBF
:04257000D9FF12007D
:0C257400FE0EE3CFE9FFFF0EE3CFEAFF0D
:10258000E9CFF3FFEACFF4FFFB0EE35003E1FC0ECB
:10259000E35009E0FB0EE30602E2FC0EE306FD0E4B
:1025A000E350EE6EF1D71200FE0EE3CFE9FFFF0E0F
:1025B000E3CFEAFFF36AF46AEE5203E0F34AF42A47
:0425C000FBD7120033
:0C25C400006A0EAEEBEF12F00D6C0E1E64
:1025D000E86A0E22001E09AEF3EF12F0086C091E25
:1025E000E86A0922001ED2EC13F009BE03EF13F0D3
:1025F00000AE000C086C091EE86A0922046C051E76
:10260000E86A0522000C00BEFAEF12F00188FF0C08
:10261000D9CFE6FFDACFE6FFE1CFD9FFE2CFDAFF8D
:10262000ACA2FED7FC0EDBCFE9FFFD0EDBCFEAFF4D
:10263000EF50E66EA4EC13F0E552FC0EDBCFE9FFA1
:10264000DB2AFD0EDBCFEAFF01E3DB2AEF50E8E1F6
:0C265000E552E5CFDAFFE7CFD9FF12001A
:04265C00056A046A9D
:10266000036A026A200EE76ED890063607360836EF
:10267000093602360336043605360B50025C0C5020
:1026800003580D5004580E50055809E30B50025ED4
:102690000C50035A0D50045A0E50055A062AE72EC4
:0426A000E4D7120069
:0C26A400D9CFE6FFDACFE6FFE1CFD9FF87
:1026B000E2CFDAFFE652F20E0501FD17ABAC03D014
:1026C000FD91ABB0FD81ABB4FD85ABB2FD87AE50E3
:1026D000DF6EDF50E552E552E5CFDAFFE7CFD9FFF5
:0226E0001200E6
:0E26E200D9CFE6FFDACFE6FFE1CFD9FFE2CF96
:1026F000DAFFE652E652FC0EDBCFDEFFDBCFDDFF7A
:10270000010EDB50D76EDF50D66EE552E552E55232
:0A271000E5CFDAFFE7CFD9FF120092
:06271A00FF0EE350196EF2
:10272000EF0E01D0F30EE76EE72E94EF13F00C0ED0
:10273000186EE76AE72E9AEF13F0182E99EF13F050
:08274000192E92EF13F01200B4
:08274800D9CFE6FFDACFE6FF6E
:10275000E1CFD9FFE2CFDAFFACAC04D0AC900501F9
:10276000FDB3AC80FD0EDB50AD6EE552E5CFDAFF78
:06277000E7CFD9FF1200C3
:0A277600D9CFE6FFDACFE6FFE1CF8E
:10278000D9FFE2CFDAFFC30EC214106EFD0EDB409C
:102790007F0B3C0B1010C26EE552E5CFDAFFE7CF9E
:0427A000D9FF12004B
:0C27A400056A046A100EE76ED890083633
:1027B0000936043605360D50045C0E50055805E305
:1027C0000D50045E0E50055A082AE72EF0D712006D
:1027D000000EF36E00EE00F0080E01D81200EA6061
:1027E00002D0EE6AFCD7F350E9601200EE6AFCD723
:1027F00013EE00F023EE00F0F86A019C87EC11F074
:0C28000003EC00F0EFEC09F0FBD7120035
:04280C00FF0EE35088
:10281000E84E1200000000D000D000D0E82EFAD719
:022820001200A4
:0E2822001F0EC514FDE1C750040BFAE11200B1
:06283000522C310D0A00DC
:04283600C282120048
:06283A0000000000000098
:10284000000000000000000000006B616E6F70650A
:10285000726F00706970706900636F6F6C006A75E9
:10286000610D00002B2B0D0A522C310D0A53462C02
:10287000310D0A53532C30303830303030300D0A9F
:1028800053522C33323030303030300D0A534857E9
:102890002C324132422C34423431344534463530C6
:0828A0003435353234460D0ACF
:020000040030CA
:0100000022DD
:010001000EF0
:010002002ECF
:010003000AF2
:010005008377
:010006008178
:00000001FF
