:020000040000FA
:0600000010EF14F01200E5
:020006001200E6
:0600080050EF09F01200A8
:02000E00C250DE
:08001000020B01E0010E1200D9
:06001800D9EF09F012000F
:02001E000100DF
:0C00200064280000C3050000340000004C
:04002C00D9CFE6FF43
:10003000E1CFD9FFE652A09A6A6A686A706A020E36
:10004000E66EE66AE66A710EE66E0F0EE66E7AEC12
:1000500013F0106E050EE15E1050160E6F6E9F0EBF
:100060006B6E7B0E696EDF6ADF50106E116A0C0ECC
:10007000105C000E115810E2DF50040DF3CFE9FFC1
:10008000F4CFEAFF000EE926040EEA22EE6AEE6AD9
:10009000EE6AEE6ADF2AE8D76D8C6E6A6D986D9C09
:1000A00068A607D068960501A66BAB6BAC6BAD6B11
:1000B000F7D70501010EBF6FC06FC16BC26BB36B89
:1000C000DF6A030EDF5C26E2EA6ADF34FE0BEA3603
:1000D000E96E9C0EE926050EEA22EE6AED6AEA6AEE
:1000E000DF34FE0BEA36E96E960EE926050EEA22AB
:1000F000EE6AED6ADF50EA6AB70FE96E050EEA2292
:10010000EF6ADF50EA6ABA0FE96E050EEA22EF6A7B
:10011000DF2AD7D70501080E9C6F040E9D6F160EBF
:10012000706E0401300E026F040E036F080E016F33
:10013000840E006F0501906B8F6BE552E552E7CF9F
:10014000D9FF1200D9CFE6FFE1CFD9FFE652050172
:100150008F0507E16DBA05D0686A69806988020E6B
:100160008F6F6850040B05E06950040B02E068943F
:10017000C6D86DB257D06850010B09E06950010B29
:1001800006E054DFA08A0501040E8F6F6890685066
:10019000100B05E06950100B02E09CD8689868AC21
:1001A00019D069AC0FD0010EE66EE66A000EE66E5D
:1001B000E66A730EE66EE66A83EC0EF0106E060ECB
:1001C000E15E1050689C0501BD5101E0BD07BD51C5
:1001D00001E156DB6850200B04E06950200B01E080
:1001E00060D86850020B13E06950020B10E0010E5A
:1001F000E66EE66A000EE66EE66AE6687F0EE66E7A
:1002000083EC0EF0106E060EE15E10506A6A040E6A
:100210000501E76E8F19E8AE02D0E73402D0E7504F
:100220008F5D02E2A19A38D069A635D0DF6A040E4C
:10023000DF5C31E268A62FD06CCFB4F50501B45174
:10024000780BE842E842E842B56F6896B4B506D04C
:10025000B551EA6ABA0FE96E050E05D0B551EA6AE2
:10026000B70FE96E050EEA22EF70B55102E15ED8D4
:1002700010D0000EE66EE66AB40EE66E050EE66E6F
:10028000720EE66EE66A83EC0EF0106E060EE15E0C
:100290001050DF2ACCD7A19AE552E552E7CFD9FF1B
:1002A000120070A015D092C5E9FF93C5EAFFEF5088
:1002B00080080DE19CC5E9FF9DC5EAFFEF50840869
:1002C00006E192C5E9FF93C5EAFF8C0EEF6E7090D0
:1002D000689A1200698468986D820501010EB36FF7
:1002E000000EE66EE66AE66EE66A750EE66EE66A91
:1002F00083EC0EF0106E060EE15E10501200050148
:10030000B36B000EE66EE66AE66EE66A740EE66EA3
:10031000E66A83EC0EF0106E060EE15E10506D92F0
:10032000699468A402D06894FCD71200D9CFE6FF84
:10033000E1CFD9FFE65205012D0EBD6FFD0EB415BC
:1003400053E17E0EB415E8407F0B040DF3CF92F518
:10035000F4CF93F5000E9227040E932392C594F5E3
:1003600093C595F5947592C5E9FF93C5EAFFEF50E3
:100370003C0BE842E8420D0835E1DF6A080EDF5C1D
:1003800023E292C5E9FF93C5EAFF020EE926000EBB
:10039000EA22EE50EFCFEAFFE96EEF50E66EDF5053
:1003A000EA6A300FE96E040EEA22E552E750EF6E7A
:1003B00092C5E9FF93C5EAFF020EE926000EEA2284
:1003C000EE2AEF22DF2ADAD792C5E9FF93C5EAFFCA
:1003D000020EE926000EEA22300EEE6E040EED6EDD
:1003E0000DD807D03AD805D0FD0EB415040801E1A8
:1003F00059D8E552E552E7CFD9FF12000501A26BAB
:10040000BE6BC16BC26BB66BA36B9CC5E9FF9DC590
:10041000EAFFEF9E9C759CC5E9FF9DC5EAFFEF9E34
:100420009C7594C5E9FF95C5EAFFEF9EA66BA76B87
:10043000A86BAB6BAC6BAD6B8CD8000EE66EE66A4E
:10044000E66EE66A030EE66EE66A83EC0EF0106E68
:10045000060EE15E10508DEF05F0020E0501A35D62
:1004600002E14DEF06F0A36BB6511AE194C5E9FF26
:1004700095C5EAFFEE52080EEF6E94C5E9FF95C5EB
:10048000EAFF020EE926000EEA22300EEE6E040E9E
:10049000ED6E94C5E9FF95C5EAFF8C0EEF6E120074
:1004A000B66B1200D9CFE6FFE1CFD9FFE6529CC56B
:1004B000E9FF9DC5EAFFEF50400B01E0010EDF6E42
:1004C00005019C75080E8F5D08E132C46EFF6E5009
:1004D00002E0100E01D0040E8F6FA30526E19CC52B
:1004E000E9FF9DC5EAFF020EE926000EEA22380E5A
:1004F000EE6E040EED6E72DB020E0501A25D06E1EA
:100500009CC5E9FF9DC5EAFF840E0DD0DF5006E1D2
:100510009CC5E9FF9DC5EAFFC80E05D09CC5E9FF53
:100520009DC5EAFF880EEF6E0FD0ABAF0CD0AE5179
:10053000AF1107E005D0AFC5FAFF0501AE51F96E66
:10054000FADF0501AB9FA36BE552E552E7CFD9FF78
:10055000120004013051600BE842E842E842E842F0
:10056000E842000901E0120031510C0A50E00B0A88
:100570003FE00C0A31E0010A22E00B0A1EE0020A09
:100580001CE0030A18E0080A10E0010A0CE00F0A58
:1005900008E0030A01E012000501A68F080E8F6F24
:1005A0001200CFEF04F0ECEF06F00501900EA46FFF
:1005B000050EA56F0CD02CEF05F008EF03F03451B9
:1005C0000501A46FA56B910EA427050EA523A68196
:1005D000010EA76FA68F12000501A68F04013451EA
:1005E000EA6A910FE96E050EEA2232C4EFFF1200AB
:1005F000000EE66EE66AE66EE66A020EE66EE66AF1
:1006000083EC0EF0106E060EE15E10501200120028
:10061000D9CFE6FFE1CFD9FF050EE126040132056F
:1006200010E130511F0B00090CE10501A68F030EEC
:100630000401315D04E10501010EB26F02D0050134
:10064000B26B0401325101E011D130511F0B02088D
:1006500001E00CD134510F0B000901E107D13451F5
:100660000F0B020801E202D1200E05018F5D01E0AF
:10067000FDD0A68F040134BF16D034510F0BE96EA4
:10068000EA6AD890E936EA36960EE926050EEA229D
:10069000EECFDEFFEDCFDDFF34510F0BEA6ABA0F6C
:1006A000E96E050E15D034510F0BE96EEA6AD89049
:1006B000E936EA369C0EE926050EEA22EECFDEFF89
:1006C000EDCFDDFF34510F0BEA6AB70FE96E050E6F
:1006D000EA22020EEFCFDBFFD950020FE96EDACF2C
:1006E000EAFFEF50010B03E1000EDF9401D0DF843D
:1006F00034BF0BD034510F0BE96EEA6AD890E9365B
:10070000EA36960EE926050E0AD034510F0BE96E33
:10071000EA6AD890E936EA369C0EE926050EEA2206
:10072000DECFEEFFDDCFEDFF030E315D20E1DECF4A
:10073000E9FFDDCFEAFFEF50800B11E034BF07D0B7
:1007400034510F0BEA6ABA0FE96E050E06D0345128
:100750000F0BEA6AB70FE96E050EEA22EF82840EEC
:10076000DECFE9FFDDCFEAFFE850EF127FD0DF7484
:10077000DECFE9FFDDCFEAFFEF50800B1BE0DECFDD
:10078000E9FFDDCFEAFFEF9EDECFE9FFDDCFEAFF35
:10079000EF8C020EE66EE66ADECFE6FFDDCFE6FF07
:1007A000050EE66EE66A83EC0EF0106E060EE15E54
:1007B000105005D0DECFE9FFDDCFEAFFEF8CDF740C
:1007C000D950020FE96EDACFEAFFEF50020B07E1D2
:1007D000DECFE9FFDDCFEAFFEF50800B2BE0040115
:1007E00034BF07D034510F0BEA6ABA0FE96E050E19
:1007F00006D034510F0BEA6AB70FE96E050EEA22F4
:10080000EF923B0E106EDECFE9FFDDCFEAFFE8503E
:10081000EF16020EE66EE66ADECFE6FFDDCFE6FFFC
:10082000050EE66EE66A83EC0EF0106E060EE15ED3
:10083000105007D03B0EDECFE9FFDDCFEAFFE850D6
:10084000EF16040134510F0B116A700F106E0F0E6A
:100850001122030E10C0DBFF040E11C0DBFF030EDC
:10086000DBCFE9FF040EDBCFEAFFEF90050EE15C82
:1008700002E2E16AE552E16EE552E7CFD9FF1200EC
:100880000501BF514DE1010EBF6FC05149E1010E9D
:10089000C06F020EA35D0DE19CC5E9FF9DC5EAFF97
:1008A000EE52EF6A9CC5E9FF9DC5EAFFC80EEF6EE8
:1008B0001200A30535E1B66B92C5E9FF93C5EAFFC7
:1008C000EE52080EEF6E92C5E9FF93C5EAFF020EE5
:1008D000E926000EEA22300EEE6E040EED6E92C591
:1008E000E9FF93C5EAFF840EEF6E010EB66F94C563
:1008F000E9FF95C5EAFFEE52080EEF6E94C5E9FFD9
:1009000095C5EAFF020EE926000EEA22300EEE6ED1
:10091000040EED6E94C5E9FF95C5EAFF800EEF6EFB
:1009200012000501C16BC26B020EA35D18E194C5F4
:10093000E9FF95C5EAFFEE52080EEF6E94C5E9FF98
:1009400095C5EAFF020EE926000EEA22380EEE6E89
:10095000040EED6E94C5E9FF95C5EAFF1DD0A751C1
:100960000401365D0501A8510401375904E236C47B
:10097000A7F537C4A8F532D99CC5E9FF9DC5EAFFA4
:10098000020EE926000EEA22380EEE6E040EED6E1F
:100990009CC5E9FF9DC5EAFFC80EEF6E1200800EF0
:1009A0000401305D58E10501C00EA66F040133510A
:1009B000030A2FE0010A09E0030A4BE10501760E64
:1009C000A46F220EA56F120E3ED03251F66EF76A5A
:1009D000D890F636F736170EF626230EF7220900C2
:1009E000F5CFA4F50A00F5CFA5F5020E0501F76ACB
:1009F000A425F66EA551F7220800F5CFA7F5030E42
:100A0000F76AA425F66EA551F7220800F5CFA8F5E0
:100A10001200030E325D1AE23251F66EF76AD89078
:100A2000F636F736190EF626230EF7220900F5CF13
:100A3000A4F50A00F5CFA5F5A4C5F6FFA5C5F7FFF7
:100A40000800F5500501A76FA86B12000501A66B01
:100A500012000501A66B1200D9CFE6FFE1CFD9FF46
:100A6000020EE1260401386B396B30511F0B020A6C
:100A700011E0030A0CE0010A3CE10501A68F040124
:100A800038810501B20535E10401388332D0050112
:100A9000A68F2FD00501A68F040134BF0BD034518F
:100AA0000F0BE96EEA6AD890E936EA36960EE92627
:100AB000050E0AD034510F0BE96EEA6AD890E93678
:100AC000EA369C0EE926050EEA22EECFDEFFEDCFD8
:100AD000DDFFDECFE9FFDDCFEAFFEF50800B09E05D
:100AE000DECFE9FFDDCFEAFFEF50040B02E0010E9D
:100AF000386F0501A6AF07D0380EA46F040EA56F9E
:100B0000A681020EA76F020EE15C02E2E16AE552E5
:100B1000E16EE552E7CFD9FF12006D980501A6BF3F
:100B20002BD0ABAF09D0020EA36FC25101E1F9DEA9
:100B30000501C06BBF6B120094C5E9FF95C5EAFFC4
:100B4000EE52080EEF6E94C5E9FF95C5EAFF020E5E
:100B5000E926000EEA22300EEE6E040EED6E94C50C
:100B6000E9FF95C5EAFF8C0EEF6E9CC5E9FF9DC5B8
:100B7000EAFF840EEF6E1200040130AF0DD00501C4
:100B8000010EA36FC15101E1CCDE0501C06BBF6B4B
:100B9000BE5123E140EF04F00501020EA36F94C59E
:100BA000E9FF95C5EAFFEE52080EEF6E94C5E9FF26
:100BB00095C5EAFF020EE926000EEA22300EEE6E1F
:100BC000040EED6E94C5E9FF95C5EAFF840EEF6E45
:100BD000C06BBF6BBE5101E153DE1200D9CFE6FFFF
:100BE000E1CFD9FFE652080EDF6E0501A75D000ECA
:100BF000A8590AE2A7C5DFFFA25102E1010E03D006
:100C0000A20502E1020EA26FDF50116AE850A75D53
:100C1000A76F1150A859A86F9CC5E9FF9DC5EAFFB1
:100C2000EE52DFCFEFFF380EB06F040EB16FA6B1FA
:100C300018D0DF502DE0A4C5F6FFA5C5F7FFA42B03
:100C4000000EA5230800F550E66EB0C5E9FFB1C55A
:100C5000EAFFB02B000EB123E552E750EF6EDF063E
:100C6000E8D7DF5015E0A4C5E9FFA5C5EAFFA42B2E
:100C7000000EA523EF50E66EB0C5E9FFB1C5EAFF4F
:100C8000B02B000EB123E552E750EF6EDF06E9D737
:100C9000E552E552E7CFD9FF1200D9CFE6FFE1CF09
:100CA000D9FF020EE12692C5E9FF93C5EAFFEE5295
:100CB000EFCFDFFFDFCF10F010500501AC5D000E6D
:100CC000AD5902E2ACC5DFFFDF50106E116AE8508B
:100CD000AC5DAC6F1150AD59AD6F010EDB6ADF50EA
:100CE000F36E010EDBCFF4FFF350F45C16E2010E5D
:100CF000DB50EA6A380FE96E040EEA22EF50E66E26
:100D0000A9C5E9FFAAC5EAFFA92B000EAA23E5524F
:100D1000E750EF6E010EDB2AE2D7000ED880AC550B
:100D2000000EAD5527E294C5E9FF95C5EAFFEE52E6
:100D3000080EEF6E94C5E9FF95C5EAFF020EE9269D
:100D4000000EEA22380EEE6E040EED6E92C5E9FF3B
:100D500093C5EAFFEF50400B06E194C5E9FF95C546
:100D6000EAFFC80E05D094C5E9FF95C5EAFF880ED5
:100D7000EF6E28D094C5E9FF95C5EAFFEE52080E44
:100D8000EF6E94C5E9FF95C5EAFF020EE926000E55
:100D9000EA22300EEE6E040EED6E94C5E9FF95C5A5
:100DA000EAFF840EEF6EAE51AF1107E005D0AFC57C
:100DB000FAFF0501AE51F96EFADF0501AB9FBE5196
:100DC00001E15EDD020EE15C02E2E16AE552E16E04
:100DD000E552E7CFD9FF1200D9CFE6FFE1CFD9FF27
:100DE000E6520501A68F020EE66EE66AE66A710E0D
:100DF000E66E0F0EE66E7AEC13F0106E050EE15EF5
:100E00001050DF6ADF50106E116A0C0E105C000E7D
:100E1000115810E2DF50040DF3CFE9FFF4CFEAFFE1
:100E2000000EE926040EEA22EE6AEE6AEE6AEE6A27
:100E3000DF2AE8D76D8CDF6A030EDF5C10E2DF503B
:100E4000EA6AB70FE96E050EEA22EF6ADF50EA6A36
:100E5000BA0FE96E050EEA22EF6ADF2AEDD7010E1E
:100E6000E66EE66AE66A910EE66E050EE66E7AECCE
:100E700013F0106E050EE15E10506D9C0501080E1A
:100E80009C6F040E9D6F000E926F040E936F92C5BF
:100E900094F5956F32C490F5905102E1100E12D086
:100EA000010EE66EE66A900EE66E050EE66E010E27
:100EB000E66EE66A83EC0EF0106E060EE15E1050F0
:100EC0000501200E8F6FE552E552E7CFD9FF1200E2
:100ED000D9CFE6FFE1CFD9FF020EE126000EDE6E8C
:100EE000040EDD6EFD0EDB50E824126EFE0EDB50AC
:100EF000040DF3501224040DF4CF11F0D9CFE9FF03
:100F0000DACFEAFFF350EE261150ED22DECFE9FFF3
:100F1000DDCFEAFFEF9EFD0EDB500AE1FE0EEA6A2E
:100F2000DB34FE0BEA36E96E960EE926050E09D093
:100F3000FE0EEA6ADB34FE0BEA36E96E9C0EE92609
:100F4000050EEA22DECFEEFFDDCFEDFFDECFE9FFBB
:100F5000DDCFEAFFEF9CDECFE9FFDDCFEAFF040E35
:100F6000E926000EEA22EF8C020EE15C02E2E16A61
:100F7000E552E16EE552E7CFD9FF1200D9CFE6FF87
:100F8000E1CFD9FF020EE126FD0EDBA407D0E66A11
:100F9000FE0EDBCFE6FF9CDFE552E552FD0EDBA245
:100FA00008D0010EE66EFE0EDBCFE6FF91DFE552C4
:100FB000E552FE0EDB50116A700F106E0F0E1122FB
:100FC00010C0DEFF11C0DDFFDECFE9FFDDCFEAFF9D
:100FD000FD0EDBCFEFFF020EE15C02E2E16AE552BB
:100FE000E16EE552E7CFD9FF1200D9CFE6FFE1CF9E
:100FF000D9FF020EE126FE0EDB5020E194C5E9FF89
:1010000095C5EAFFEE52080EEF6E94C5E9FF95C54F
:10101000EAFF020EE926000EEA22300EEE6E040E02
:10102000ED6E94C5E9FF95C5EAFF8C0EEF6E9CC589
:10103000E9FF9DC5EAFF840EEF6E3BD0FD0EDB504D
:10104000E824126EFE0EDB50040DF3501224040D42
:10105000F3CF10F0F4CF11F0000E1026040E112281
:1010600010C0DEFF11C0DDFF840EDECFE9FFDDCF53
:10107000EAFFE850EF12FD0EDB50E824126EFE0E80
:10108000DB50040DF3501224010F040DF3CF10F0C8
:10109000F4CF11F0000E1026040E112210C0DEFF56
:1010A00011C0DDFF840EDECFE9FFDDCFEAFFE8509F
:1010B000EF12020EE15C02E2E16AE552E16EE552F6
:1010C000E7CFD9FF1200D9CFE6FFE1CFD9FF020E5B
:1010D000E126FD0EDB500AE0FE0EEA6ADB34FE0B71
:1010E000EA36E96E9C0EE926050E09D0FE0EEA6A84
:1010F000DB34FE0BEA36E96E960EE926050EEA228F
:10110000EECFDEFFEDCFDDFFD9CFE9FFDACFEAFF8B
:10111000EE50ED1003E1F36AF46A44D0DECFE9FF4C
:10112000DDCFEAFF020EE926000EEA22FB0EDBCF3E
:10113000EEFFFC0EDBCFEDFFDECFE9FFDDCFEAFFF8
:10114000EE52FA0EDBCFEFFF400EDECFE9FFDDCF30
:10115000EAFFE850EF16880EDECFE9FFDDCFEAFFA9
:10116000E850EF12FD0EDB500AE0FE0EEA6ADB34B7
:10117000FE0BEA36E96E9C0EE926050E09D0FE0E3E
:10118000EA6ADB34FE0BEA36E96E960EE926050EB6
:10119000EA22EF74DECF10F0DDCF11F010C0F3FFC4
:1011A00011C0F4FF020EE15C02E2E16AE552E16E79
:1011B000E552E7CFD9FF1200D9CFE6FFE1CFD9FF43
:1011C0006DA84ED0FE0EEA6ADB34FE0BEA36E96EFD
:1011D0009C0EE926050EEA22EE50EFCFEAFFE96EFB
:1011E000400EEE16EE6AEE6AEE6AFE0EEA6ADB3436
:1011F000FE0BEA36E96E9C0EE926050EEA22EE5059
:10120000EFCFEAFFE96EEE7CFE0EEA6ADB34FE0BFE
:10121000EA36E96E9C0EE926050EEA22EF74400ECE
:10122000106EFE0EEA6ADB34FE0BEA36E96E9C0EA7
:10123000E926050EEA22EE50EFCFEAFFE96E1050E4
:10124000EF16FE0EEA6ADB34FE0BEA36E96E9C0E00
:10125000E926050EEA22EE50EFCFEAFFE96EEF7CB9
:10126000E552E7CFD9FF12006D6A696A05018F6BFD
:10127000120005018F5113E16D6A696A160E6F6ED7
:101280009F0E6B6E7B0E696ED08EA28AA08AF28E44
:101290006DB602D06D86FCD70501010E8F6F12006E
:1012A000DACFE4FFE2CFDAFFE9CFE4FFEACFE4FFF1
:1012B000F6CFE4FFF7CFE4FFF5CFE4FFF3CFE4FF91
:1012C000F4CFE4FFFACFE4FF00EE00F0100EE804E4
:1012D00003E3EECFE4FFFBD700EE10F0080EE804C6
:1012E00003E3EECFE4FFFBD7E652F2A430D0F29452
:1012F000580EE66E8A0EE66E5EEC13F0E552E5528D
:1013000005018F5102E139EC09F0200E0501E76E6D
:101310008F19E8AE02D0E73402D0E7508F5D23E3A7
:101320006D50020B20E10001615103E094EC10F0DC
:10133000FAD7100EE66EC30EE66E050EE66EF6ECFC
:101340000FF0E552E552E55294EC10F00CD09EAA55
:101350000AD0AB50020B03E1AB50040B03E0AB6AC5
:10136000900EAB6E9E9AA2EC00F0E55200EE17F0E4
:10137000080EE80403E3E5CFEDFFFBD700EE0FF026
:10138000100EE80403E3E5CFEDFFFBD7E5CFFAFF4E
:10139000E5CFF4FFE5CFF3FFE5CFF5FFE5CFF7FFAE
:1013A000E5CFF6FFE5CFEAFFE5CFE9FFE5CFDAFFCE
:1013B0001100D8CFE4FFE0CFE4FFE46EDACFE4FF22
:1013C000E652E552E5CFDAFFE550E5CFE0FFE5CFA5
:1013D000D8FF10009268100E936E800E946E190E56
:1013E000E66EE66A7C0EE66EDFEC11F0E552E55241
:1013F000E5529E9A9D8AF28C82948292050EE66E48
:10140000C30EE66E050EE66EC6EC12F0E552E5522E
:10141000E552010EE66EE66A0ADBE552E552FA0E87
:10142000106E270E116E126A10C0E6FFE66E12C033
:10143000E6FF94EC12F0E552E552E552010EE66E3D
:10144000E66AF5DAE552E552AB50020B03E1AB5028
:10145000040B03E0AB6A900EAB6E82948282EE0EB8
:10146000106E270E116E126A10C0E6FFE66E12C0F3
:10147000E6FF94EC12F0E552E552E552010EE66EFD
:10148000E66AD5DAE552E552AB50020B03E1AB5008
:10149000040B03E0AB6A900EAB6E82848292E20E84
:1014A000106E270E116E126A10C0E6FFE66E12C0B3
:1014B000E6FF94EC12F0E552E552E552010EE66EBD
:1014C000E66AB5DAE552E552AB50020B03E1AB50E8
:1014D000040B03E0AB6A900EAB6E82848282DE0E58
:1014E000106E270E116E126A10C0E6FFE66E12C073
:1014F000E6FF94EC12F0E552E552E552010EE66E7D
:10150000E66A95DAE552E552AB50020B03E1AB50C7
:10151000040B03E0AB6A900EAB6E82948292010ED4
:10152000E66EE66A84DAE552E552828482820B0E28
:10153000E66E040EE66EEB0EE66E5DEC12F0E55222
:10154000E552E5520401C26BC251106E116A400EA1
:10155000105C000E115809E2C251EA6A400FE96EB0
:10156000040EEA22EF6AC22BEFD7C06BC16B16ECF8
:1015700000F0840ED56E580EE66E8A0EE66E5EECB6
:1015800013F0E552E552F28EF28A05018F51FDE12A
:1015900039EC09F0FAD7D9CFE6FFE1CFD9FF29EC32
:1015A00014F0C580C5B0FED7FE0EDBCFE6FF24ECFD
:1015B00012F0E552000902E0020E27D029EC14F0E7
:1015C000C5AC02D0030E21D09E96FD0EDBCFE6FF08
:1015D00024EC12F0E552000902E0040E16D029ECCA
:1015E00014F0C5AC02D0050E10D09E96FC0EDBCFD9
:1015F000E6FF24EC12F0E552000902E0080E05D0E7
:1016000029EC14F0C5AC03D0090EF36E06D09E96FB
:10161000C584C5B4FED79E96F36AF46AE552E7CF57
:10162000D9FF1200D9CFE6FFE1CFD9FF29EC14F0A2
:10163000C580C5B0FED7FE0EDBCFE6FF24EC12F06E
:10164000E552000902E0210E36D029EC14F0C55015
:10165000400B01E0010E0401E36FE46BE56BE66B08
:10166000E850E411E511E61102E0220E24D09E9626
:10167000FD0EDBCFE6FF24EC12F0E552000902E09C
:10168000230E19D029EC14F0C5AC02D0240E13D0CF
:101690009E96C582C5B2FED7FE0EDB28E66E24EC10
:1016A00012F0E552000902E0260E05D029EC14F0F4
:1016B000C5AC04D0270EF36EF46A14D09E96C5868E
:1016C000C5B6FED7C58AC588C5B8FED79E96C5845F
:1016D000C5B4FED79E969E96C950106E116AF36EE1
:1016E00011C0F4FFE552E7CFD9FF1200827C29EC4C
:1016F00014F0C580C5B0FED7D00EE66E24EC12F013
:10170000E552000901E0120029EC14F0C550400B2D
:1017100001E0010E0401E36FE46BE56BE66BE8505A
:10172000E411E511E61101E012009E963B0EE66E13
:1017300024EC12F0E552000901E0120029EC14F04B
:10174000C5BC12009E96C582C5B2FED7D10EE66E0C
:1017500024EC12F0E552000901E0120029EC14F02B
:10176000C5BC12009E96C586C5B6FED7C9500401F9
:10177000C56FC59AC588C5B8FED79E96C586C5B63D
:10178000FED7C9500401C66FC59AC588C5B8FED733
:101790009E96C586C5B6FED7C9500401C76FC59AC7
:1017A000C588C5B8FED79E96C586C5B6FED7C950B2
:1017B0000401C86FC59AC588C5B8FED79E96C58670
:1017C000C5B6FED7C9500401C96FC59AC588C5B84A
:1017D000FED79E96C586C5B6FED7C9500401CA6F0E
:1017E000C59AC588C5B8FED79E96C586C5B6FED72C
:1017F000C59AC588C5B8FED79E96C586C5B6FED71C
:10180000C59AC588C5B8FED79E96C586C5B6FED70B
:10181000C9500401CB6FC59AC588C5B8FED79E963E
:10182000C586C5B6FED7C9500401CC6FC59AC58818
:10183000C5B8FED79E96C586C5B6FED7C950040169
:10184000CD6FC59AC588C5B8FED79E96C586C5B664
:10185000FED7C9500401CE6FC59AC588C5B8FED75A
:101860009E96C586C5B6FED7C9500401CF6FC59AEE
:10187000C588C5B8FED79E96C586C5B6FED7C950E1
:101880000401D06FC58AC588C5B8FED79E96C584A9
:10189000C5B4FED79E96030EE66E180EE66EC2DE47
:1018A000E552E552F3CFD2F4090EE66E180EE66E5D
:1018B000B9DEE552E552F3CFC3F4F4CFC4F4040E1D
:1018C000E66E180EE66EAEDEE552E552F3CFD1F4C9
:1018D000090EE66E180EE66EA5DEE552E552F3CF70
:1018E000C3F4F4CFC4F4050EE66E180EE66E9ADE6D
:1018F000E552E552F3CFD4F4090EE66E180EE66E0B
:1019000091DEE552E552F3CFC3F4F4CFC4F4060EF2
:10191000E66E180EE66E86DEE552E552F3CFD3F49E
:10192000090EE66E180EE66E7DDEE552E552F3CF47
:10193000C3F4F4CFC4F4070EE66E180EE66E72DE42
:10194000E552E552F3CFD6F4090EE66E180EE66EB8
:1019500069DEE552E552F3CFC3F4F4CFC4F4080EC8
:10196000E66E180EE66E5EDEE552E552F3CFD5F474
:10197000090EE66E180EE66E55DEE552E552F3CF1F
:10198000C3F4F4CFC4F4870EE66EC2EC13F0E55254
:1019900030EC14F007EC00F00009FCE1C4CFD7F400
:1019A000C3CFD8F48F0EE66EC2EC13F0E55230ECE4
:1019B00014F007EC00F00009FCE1C4CFD9F4C3CF68
:1019C000DAF4970EE66EC2EC13F0E55230EC14F048
:1019D00007EC00F00009FCE1C4CFDBF4C3CFDCF47A
:1019E0009F0EE66EC2EC13F0E55230EC14F007ECFB
:1019F00000F00009FCE1C4CFDDF4C3CFDEF4040144
:101A00000D0EDF6F0A0EE06F0001615103E094ECF0
:101A100010F0FAD71C0EE66EC50EE66E040EE66EEA
:101A2000F6EC0FF0E552E552E55294EF10F0D9CF05
:101A3000E6FFE1CFD9FF0401C26BC251106E116AFB
:101A4000FD0EDBCF12F0FE0EDBCF13F0115013189A
:101A5000E8AE02D0133404D01250105C1350115869
:101A60002BE2640EE66E94EC13F0E552640EE66E23
:101A700094EC13F0E552640EE66E94EC13F0E5522C
:101A8000640EE66E94EC13F0E552640EE66E94EC90
:101A900013F0E552640EE66E94EC13F0E552640E1A
:101AA000E66E94EC13F0E552500EE66E94EC13F0F3
:101AB000E5520401C22BC1D7E552E7CFD9FF12008E
:101AC000D9CFE6FFE1CFD9FF0401C26BC251106E3E
:101AD000116AFD0EDBCF12F0FE0EDBCF13F01150BA
:101AE0001318E8AE02D0133404D01250105C135017
:101AF00011583FE2640EE66E1EEC14F0E552640EDF
:101B0000E66E1EEC14F0E552640EE66E1EEC14F068
:101B1000E552640EE66E1EEC14F0E552640EE66EBD
:101B20001EEC14F0E552640EE66E1EEC14F0E55265
:101B3000640EE66E1EEC14F0E552640EE66E1EECCA
:101B400014F0E552640EE66E1EEC14F0E552640EDD
:101B5000E66E1EEC14F0E552640EE66E1EEC14F018
:101B6000E552240EE66E1EEC14F0E5520401C22B81
:101B7000ADD7E552E7CFD9FF1200D9CFE6FFE1CFCD
:101B8000D9FF020EE126030E106E116AFD0EDBCFA7
:101B900008F0FE0EDBCF09F010C00DF011C00EF002
:101BA000F5EC12F008C0DEFF09C0DDFF0401C26BD6
:101BB0000401C251106E116ADECF12F0DDCF13F0B6
:101BC00011501318E8AE02D0133404D01250105C38
:101BD000135011580AE2000000000000000000004D
:101BE000000000000401C22BE3D7020EE15C02E218
:101BF000E16AE552E16EE552E7CFD9FF1200D9CF95
:101C0000E6FFE1CFD9FF040EE126D880000E0501E2
:101C10000055C20E0155010E0255000E03553CE35E
:101C200000C588F501C589F502C58AF503C58BF5A0
:101C3000146A1B0E156EB70E166E176A14C006F0E6
:101C400015C007F0086E17C009F088C50BF089C5EC
:101C50000CF08AC50DF08BC50EF01BEC13F006C01E
:101C600010F007C011F008C012F009C013F0100600
:101C7000000E115A125A135A10C0DFFF010E11C084
:101C8000DBFF020E12C0DBFF030E13C0DBFFDF50D1
:101C9000AF6E010EDB50B06E040EE15C02E2E16A51
:101CA000E552E16EE552E7CFD9FF120012001200B3
:101CB00012001200CDEF0EF012001DEF0FF0050123
:101CC000B20520E10501B3051DE1A09AF0DF6D9298
:101CD0000501B36B0401100EEA6F0E0EEB6FEA07FD
:101CE000000EEB5BEA51EB11FAE16D84080EEA6F2E
:101CF000070EEB6FEA07000EEB5BEA51EB11FAE11E
:101D00006D94A08A1200D9CFE6FFE1CFD9FFFD0E76
:101D1000DBCF08F0FE0EDBCF09F0050E081801E15D
:101D2000095036E0E868081802E17F0E09182FE034
:101D3000030E081801E1095028E0020E081801E11D
:101D4000095021E0010E081801E109501AE0740E53
:101D5000081801E1095013E0750E081801E1095057
:101D60000CE0730E081801E1095005E0720E081826
:101D70000FE109500DD09CDF0BD098DF09D097DF21
:101D800007D09BDF05D098DF03D094DF01D091DF2F
:0A1D9000010EE552E7CFD9FF120063
:061D9A00040130511F0B93
:101DA000010801E012003051600BE842E842E842CD
:101DB000E842E842010801E01200345103E0340532
:101DC00001E012003151220A33E0030A26E0010A41
:101DD00015E0210A0DE0010A01E012000501710E73
:101DE000A46F000EA56F080EA76FA86BA68123D065
:101DF0000501710EA46F000EA56F1DD036C4ACF5A1
:101E000037C4ADF50501000EA96F050EAA6FFE0ED1
:101E1000AE6F1B0EAF6FAB8F12000501880EA46F63
:101E2000050EA56F070EA76FA86BC10EA66F120057
:101E300032C46CF00501A68F12000501886B4B0EB1
:101E4000896F8A6B8B6B8C6B8D6B080E8E6F0001AC
:101E5000606B1A0EE66E010EE66EBEEC07F0E55200
:101E6000E5521E0EE66E020EE66EBEEC07F0E5527F
:101E7000E552400EE66E080EE66E050EE66EE66A68
:101E8000020EE66E63EC08F0106E050EE15E105077
:101E9000F3CF68F0F4CF69F000016A6B6B6B616B94
:101EA0001200D9CFE6FFE1CFD9FFFD0EDBCF08F05E
:101EB000FE0EDBCF09F0050E081801E1095002E023
:101EC000000E30D0FB0EDBCF10F0FC0EDBCF11F09C
:101ED00000016851101816E16951111813E1400E04
:101EE000E66E080EE66E050EE66EE66A020EE66E19
:101EF00063EC08F0106E050EE15E1050F3CF68F051
:101F0000F4CF69F0FB0EDBCF10F0FC0EDBCF11F04D
:101F100000016A51101805E16B51111802E1616B63
:101F2000666B010EE552E7CFD9FF1200D9CFE6FF6D
:101F3000E1CFD9FF0001606B6851691102E1000E29
:101F400008D068C0E9FF69C0EAFFEF50800B01E0EC
:101F5000010E000945E1FC0EDBCF10F068C0E9FF7F
:101F600069C0EAFFEE52EF50D880105408E268C012
:101F7000E9FF69C0EAFFEE52FC0EEFCFDBFF606BBA
:101F8000FC0EDB50605D19E26051EA6A080FE96EF1
:101F9000050EEA22EF50E66E6051E76EFD0EDBCFD4
:101FA000E9FFFE0EDBCFEAFFE750E926000EEA224A
:101FB000E552E750EF6E602BE3D7400EE66E080E59
:101FC000E66E050EE66EE66A020EE66E63EC08F05B
:101FD000106E050EE15E1050F3CF68F0F4CF69F09B
:101FE00000016051E552E7CFD9FF1200D9CFE6FFDB
:101FF000E1CFD9FFA09A000161510CE1FD0EDBCFCA
:1020000062F0FE0EDBCF63F0FC0EDBCF66F0010E5C
:10201000676F616FA08AE552E7CFD9FF1200D9CF71
:10202000E6FFE1CFD9FF030EE126A09A000161513E
:102030002DE1DF6AFD0EDBCF08F0FE0EDBCF09F0ED
:10204000DE5208C0DEFF09C0DDFFDD52DF2ADF50AF
:10205000106E116AFF0E101802E111500BE0010E14
:10206000DBCFE9FFDB2A020EDBCFEAFF01E3DB2A4D
:10207000EF50ECE1FD0EDBCF62F0FE0EDBCF63F044
:10208000DFCF66F00001010E676F616FA08A030E5B
:10209000E15C02E2E16AE552E16EE552E7CFD9FF89
:1020A0001200D9CFE6FFE1CFD9FF030EE126A09AB7
:1020B000000161512EE1DF6AFD0EDBCF08F0FE0E5C
:1020C000DBCF09F0DE5208C0DEFF09C0DDFFDD52C4
:1020D000DF2ADF50106E116AFF0E101802E1115056
:1020E0000CE0010EDBCFF6FFDB2A020EDBCFF7FFA1
:1020F00001E3DB2A0800F550EBE1FD0EDBCF62F0D7
:10210000FE0EDBCF63F0DFCF66F00001676B010EE0
:10211000616FA08A030EE15C02E2E16AE552E16EC2
:10212000E552E7CFD9FF1200D9CFE6FFE1CFD9FFC3
:10213000020EE126A09A00016A516B1102E1000E25
:1021400008D06AC0E9FF6BC0EAFFEF50800B01E0E6
:10215000010E000906E1030E615D01E1616B615151
:1021600002E1A08A7ED0020E615D16E1E66A000EF1
:10217000E66EE66A010EE66E020EE66E63EC08F0AD
:10218000106E050EE15E1050F3CF6AF0F4CF6BF0E5
:102190000001030E616F64D0610562E1400E106EB4
:1021A000116A6651105C000E115803E2400EDF6E9A
:1021B00002D066C0DFFFDF50665D666F480E646F59
:1021C000050E656F010EDFCFDBFF675116E1010ED3
:1021D000DB5028E062C0F6FF63C0F7FF0800F5504F
:1021E00064C0E9FF65C0EAFFEF6E642B000E652353
:1021F000622B6323010EDB06EAD7010EDB5012E0EF
:1022000062C0E9FF63C0EAFFEF5064C0E9FF65C048
:10221000EAFFEF6E642B000E6523622B6323010E31
:10222000DB06EBD70001665107E1400EDF5C02E1FF
:10223000020E01D0030E616FDFCFE6FF480EE66E9F
:10224000050EE66E010EE66E020EE66E63EC08F019
:10225000106E050EE15E1050F3CF6AF0F4CF6BF014
:10226000A08A020EE15C02E2E16AE552E16EE5520B
:06227000E7CFD9FF1200C8
:0A2276001201000202020108D80460
:102280000A0000010102000109024300020100C02E
:10229000FA090400000102020100052400100104F3
:1022A000240202052406000105240100010705811E
:1022B0000308000209040100020A000000070502E9
:1022C00002400000070582024000000403090434B4
:1022D000034D006900630072006F006300680069CD
:1022E000007000200054006500630068006E006FFD
:1022F000006C006F0067007900200049006E0063E9
:10230000002E001403430044004300200069002D08
:0F231000005000530044008822CB22CF22032329
:102320001E0EF66E000EF76E000EF86E0401090028
:10233000F550F16F0900F550F26F03E1F16701D03C
:102340003DD00900F550EC6F0900F550ED6F090024
:10235000F550EE6F09000900F550E96E0900F550DF
:10236000EA6E090009000900F550EF6F0900F55009
:10237000F06F09000900F6CFF3F4F7CFF4F4F8CFCB
:10238000F5F4ECC4F6FFEDC4F7FFEEC4F8FF04016A
:10239000EF5302E1F05307E00900F550EE6EEF074E
:1023A000F8E2F007F9D7F3C4F6FFF4C4F7FFF5C479
:0E23B000F8FF0401F107000EF25BBFD7120028
:0223BE00D9CF75
:1023C000E6FFDACFE6FFE1CFD9FFE2CFDAFFAC6A72
:1023D000AB6AFD0EDBB0AC88DBA202D0AC8CAB8C60
:1023E000DBB4AC8EDBA602D0AB8801D0AB8ADBB805
:1023F000AC849E98DBBAAB86DBAC02D09D8A01D060
:102400009D9A9E9ADBAE02D09D8801D09D98FB0ECE
:10241000DB50AF6EFB0EFC0EDBCF11F011C010F0E5
:10242000116A1050B06EAC8AAB8E949C948EAC50F6
:10243000100B04E0AC50800B01E1948CE552E5CF29
:08244000DAFFE7CFD9FF12001B
:08244800D9CFE6FFDACFE6FF71
:10245000E1CFD9FFE2CFDAFFFD0EDB50C96EC6AE89
:1024600002D0FF0E24D00F0EC61408080FE00F0E86
:10247000C6140B080BE0C6889EA6FED7C750040BF7
:1024800003E1C750010B10E0000E11D00F0EC6146F
:10249000080804E00F0EC6140B0809E1C7B0FED708
:1024A00029EC14F0C5AC02D0FE0E01D0000EE552AE
:0A24B000E5CFDAFFE7CFD9FF1200F5
:0624BA00D9CFE6FFDACFE6
:1024C000E6FFE1CFD9FFE2CFDAFFC26AC06AFC0EB5
:1024D000DB407F0B3C0BC26EFC0EDB38F00B300B8D
:1024E000106EFB0EDB500F0B1010C16EFD0EDB509B
:1024F000040DF350380B116EFD0EDB380F0B070B7C
:10250000106EFD0EDB50800B10101110C06EFC0E13
:10251000DBAE03D09E9C9D8CF28CC280E552E5CF51
:08252000DAFFE7CFD9FF12003A
:08252800D9CFE6FFDACFE6FF90
:10253000E1CFD9FFE2CFDAFFACA2FED7FB0EDBCFB3
:10254000F6FFFC0EDBCFF7FFFD0EDBCFF8FF080038
:10255000F550E66EABEC13F0E552D950FB0FE96E87
:10256000FF0EDA20EA6EEFCFF6FFEE2AEFCFF7FF8D
:10257000000EEE22EFCFF8FFEE220800F550DCE16E
:0C258000E552E5CFDAFFE7CFD9FF1200EB
:04258C00D9CFE6FFBE
:10259000DACFE6FFE1CFD9FFE2CFDAFFE652E6522B
:1025A000DF6AFB0EDB50DF5C18E29EAAFED73FEC31
:1025B00013F0E76E010EE7CFDBFFFC0EDBCFE9FF88
:1025C000FD0EDBCFEAFF010EDBCFEFFFFC0EDB2AB7
:1025D000FD0E01E3DB2ADF2AE4D7E552E552E5529E
:0A25E000E5CFDAFFE7CFD9FF1200C4
:0625EA00006A0EAEFEEFD8
:1025F00012F00D6C0E1EE86A0E22001E09AE06EFE8
:1026000013F0086C091EE86A0922001ED9EC13F0C9
:1026100009BE16EF13F000AE000C086C091EE86A44
:102620000922046C051EE86A0522000C00BE0DEFAD
:0626300013F00188FF0C0D
:0A263600056A046A036A026A200EB6
:10264000E76ED89006360736083609360236033666
:10265000043605360B50025C0C5003580D500458DC
:102660000E50055809E30B50025E0C50035A0D50F2
:0E267000045A0E50055A062AE72EE4D712002F
:02267E00D9CFB2
:10268000E6FFDACFE6FFE1CFD9FFE2CFDAFFE6528D
:10269000F20E0501F717ABAC03D0F791ABB0F781A1
:1026A000ABB4F785ABB2F787AE50DF6EDF50E552C3
:0C26B000E552E5CFDAFFE7CFD9FF1200BA
:0426BC00D9CFE6FF8D
:1026C000DACFE6FFE1CFD9FFE2CFDAFFE652E652FA
:1026D000FC0EDBCFDEFFDBCFDDFF010EDB50D76E64
:1026E000DF50D66EE552E552E552E5CFDAFFE7CF8F
:0426F000D9FF1200FC
:0C26F400FE0EE3CFE9FFFF0EE3CFEAFF8C
:10270000E9CFF3FFEACFF4FFFB0EE35003E1FC0E49
:10271000E35009E0FB0EE30602E2FC0EE306FD0EC9
:08272000E350EE6EF1D7120048
:08272800FF0EE350196EEF0EE5
:1027300001D0F30EE76EE72E9BEF13F00C0E186E30
:10274000E76AE72EA1EF13F0182EA0EF13F0192E71
:0627500099EF13F01200E6
:0A275600D9CFE6FFDACFE6FFE1CFAE
:10276000D9FFE2CFDAFFACAC04D0AC900501F7B3EF
:10277000AC80FD0EDB50AD6EE552E5CFDAFFE7CF62
:04278000D9FF12006B
:0C278400D9CFE6FFDACFE6FFE1CFD9FFA6
:10279000E2CFDAFFC30EC214106EFD0EDB407F0BDA
:1027A0003C0B1010C26EE552E5CFDAFFE7CFD9FF40
:0227B000120015
:0E27B200056A046A100EE76ED89008360936E4
:1027C000043605360D50045C0E50055805E30D50D7
:0E27D000045E0E50055A082AE72EF0D71200BC
:0227DE00522C7B
:1027E000310053522C3332303030303030005353BC
:0F27F0002C33303030303030300053462C310035
:10280000000EF36E00EE00F0080E01D81200EA6030
:1028100002D0EE6AFCD7F350E9601200EE6AFCD7F2
:1028200013EE00F023EE00F0F86A019C90EC11F03A
:0C28300003EC00F0EAEC09F0FBD712000A
:04283C00FF0EE35058
:10284000E84E1200000000D000D000D0E82EFAD7E9
:02285000120074
:0E2852001F0EC514FDE1C750040BFAE1120081
:04286000C28212001E
:0C28640000000000000000000000000068
:10287000000000006B616E6F7065726F00706970B0
:10288000706900636F6F6C006A75610D00002B2B1F
:082890000D0A53462C310D0A1C
:020000040030CA
:0100000022DD
:010001000EF0
:010002002ECF
:010003000AF2
:010005008377
:010006008178
:00000001FF
