:020000040000FA
:06000000FCEF00F012000D
:020006000000F8
:060008000FEF00F01200F2
:02000E001200DE
:060018005FEF00F0120092
:02001E00DACF37
:10002000E4FFE2CFDAFFE9CFE4FFEACFE4FFF6CF67
:10003000E4FFF7CFE4FFF5CFE4FFF3CFE4FFF4CF25
:10004000E4FFFACFE4FF00EE00F0020EE80403E361
:10005000EECFE4FFFBD700EE02F0000EE80403E36E
:10006000EECFE4FFFBD7E652F2A405D0F29443D8DA
:10007000E552E552817AE55200EE01F0000EE80407
:1000800003E3E5CFEDFFFBD700EE01F0020EE8043D
:1000900003E3E5CFEDFFFBD7E5CFFAFFE5CFF4FFB4
:1000A000E5CFF3FFE5CFF5FFE5CFF7FFE5CFF6FFAF
:1000B000E5CFEAFFE5CFE9FFE5CFDAFF1100D8CFC2
:1000C000E4FFE0CFE4FFE46EDACFE4FFE652E5526E
:1000D000E5CFDAFFE550E5CFE0FFE5CFD8FF100030
:1000E000819A92681C0E936E946A840ED56E03D822
:1000F000F28EF28AFFD7580EE66E8A0EE66ED0EFC9
:0201000000F00D
:0E010200060EF66E000EF76E000EF86E00018F
:100110000900F550656F0900F550666F03E16567EA
:1001200001D03DD00900F550606F0900F550616FB6
:100130000900F550626F09000900F550E96E0900E9
:10014000F550EA6E090009000900F550636F0900D7
:10015000F550646F09000900F6CF67F0F7CF68F03B
:10016000F8CF69F060C0F6FF61C0F7FF62C0F8FF2A
:100170000001635302E1645307E00900F550EE6E9D
:100180006307F8E26407F9D767C0F6FF68C0F7FFB6
:1001900069C0F8FF00016507000E665BBFD712005B
:1001A000D9CFE6FFDACFE6FFE1CFD9FFE2CFDAFF22
:1001B000E652E652FC0EDBCFDEFFDBCFDDFF010EA9
:1001C000DB50D76EDF50D66EE552E552E552E5CFF3
:0801D000DAFFE7CFD9FF1200AE
:0801D800000EF36E00EE00F0D2
:1001E000080E01D81200EA6002D0EE6AFCD7F35084
:0801F000E9601200EE6AFCD781
:0801F80013EE00F023EE00F00D
:10020000F86A019C81EC00F007EC00F070EC00F063
:04021000FBD7120006
:020000040030CA
:0100000021DE
:010001000EF0
:010002002ECF
:010003000AF2
:010005008377
:010006008178
:00000001FF
