:020000040000FA
:060000000DEF0FF01200ED
:020006001200E6
:0600080027EF06F01200D4
:02000E00257853
:0100100000EF
:020012001200DA
:06001800D4EF07F0120016
:02001E000100DF
:0C002000881E000000010000D20000005B
:04002C0052EC05F09D
:10003000FB0EDBCFF3FFDB06F35000090AE0A0EC78
:1000400005F0FA0E0BEC06F0F3E1151CF1E1010EE0
:1000500001D0000E81EF05F052EC05F03B0EE124DB
:1000600002E3E168E652E16E010EDB6A020EDB6A32
:10007000F90EDBCFF6FFFA0EDBCFF7FFFB0EDBCF7F
:10008000F8FF0800F550DF6EDF5002E1A5EF04F045
:10009000250EDF5C02E098EF04F0030EDB6A040E2D
:1000A000DB6A050EDB6A060EDB6A070EDB6ABAEC5A
:1000B00004F02D0EDF5C0CE02B0EDF5C09E0200E5F
:1000C000DF5C06E0230EDF5C03E0300EDF5C1AE14C
:1000D000DF50300A14E0130A0FE0030A0AE00B0AAB
:1000E00005E0060AE4E1030EDB80E1D7030EDB82C4
:1000F000DED7030EDB84DBD7030EDB86D8D7030EF7
:10010000DB88D5D72A0EDF5C1BE1B6EC04F004ECEB
:1001100005F010E0030EDB8008680968130EDBCFE2
:100120000DF0140EDBCF0EF020EC0CF0040E06C028
:10013000DBFF03D0130EEDEC04F0BAEC04F00BD0AF
:10014000090EDB6A5BEC05F003E0CFEC05F0FAD7B3
:10015000090EEDEC04F0030EDBB0DB982E0EDF5C35
:100160001BE1BAEC04F02A0EDF5C0BE1B6EC04F004
:1001700004EC05F003E1130E3FEC05F0BAEC04F0DB
:100180000BD0090EDB6A5BEC05F003E0CFEC05F069
:10019000FAD7090E3FEC05F0680EDF5C07E1BAEC18
:1001A00004F0680EDF5C1DE1030E18D0740EDF5CF6
:1001B00017E07A0EDF5C14E0480EDF5C06E0540EB8
:1001C000DF5C03E05A0EDF5C02E1020E07D06C0E2A
:1001D000DF5C03E06A0EDF5C04E1010E92EC05F0E7
:1001E000C9DBDF506E0A01E17FD31E0A01E192D123
:1001F000200A01E18FD13F0A01E149D11A0A01E148
:1002000046D10D0A01E143D1200A01E140D13A0A69
:1002100001E13DD1200A01E13AD1260A01E135D1BF
:100220000D0A01E132D11A0A01E1D9D0200A4AE0CF
:10023000300A1FE0460A0EE0250A01E083D3D950B8
:10024000F90FE96EFF0EDA20EA6E010EEE5E000E87
:10025000EE5AEE5AA0EC05F0250EE66E95DB03E1B2
:10026000151C01E169D39CEC05F001E26BD3DB2A9C
:1002700069D3080EDB6A040EDB50010806E2040EA7
:10028000DB0464EC05F0DB508BDB080EDB5009E08F
:10029000030EDB50010B05E172DB01E04DD3080ECC
:1002A000DB6A64DBEFCFDFFF14EC06F003E1151C23
:1002B00001E142D39CEC05F001E3DB2A60DB01E1C4
:1002C00041D33AD3070EDB5002080FE1E0EC05F012
:1002D000030EA7EC05F00E0EEECFDBFF0F0EEECFF8
:1002E000DBFF100EEECFDBFF20D0F70EDBCF17F0D9
:1002F000F80EDBCF18F0020E175E000E185AF70E3C
:1003000017C0DBFFF80E18C0DBFF17C0E9FF18C0ED
:10031000EAFF97EC05F0166A0E0E14C0DBFF0F0E15
:1003200015C0DBFF100E16C0DBFF0E0EDBCFE6FFA5
:100330000F0EDBCFE6FF100EDBCFE6FFD9EC0DF0A2
:10034000E552E552E552130E07C0DBFF140E08C05C
:10035000DBFF060EDB5005E0130EDBEC05F001E2DF
:100360006ADBFFEC05F002E2130E37DBC2EC05F0AE
:1003700006E0040EDBEC05F002E2050E2EDB030EB8
:10038000DBB005D0FCDA01E0D7D2080EDB6A090E3B
:10039000DB6A0E0EDBCFF6FF0F0EDBCFF7FF100E82
:1003A000DBCFF8FF0800F550DF6EDF5014E005ECFE
:1003B00006F011E214EC06F003E1151C01E1BCD2D9
:1003C000BBDB01E3DB2A090EDB2AD9500E0FE96EF5
:1003D000000ECBDBE7D7D3DA01E1B4D2ADD2C6DA77
:1003E000110EEECFDBFF120EEDCFDBFF110EDBCFD8
:1003F000E6FF120EDBCFE6FFCBEC0DF0E552E55247
:10040000130EF3CFDBFF140EF4CFDBFF060EDB5031
:1004100004E0130ED0DB01E20EDBFFEC05F002E29C
:10042000130EDBDAAFDB05E0040EC5DB02E2050EDE
:10043000D4DA030EDBB005D0A2DA01E07DD2080EDB
:10044000DB6A090EDB6A110EDBCFE9FF120EDBCF90
:10045000EAFFEFCFDFFFDF5014E0D7DB12E2E4DB8F
:1004600003E1151C01E168D267DB01E3DB2A090E19
:10047000DB2A110EDB2ADBCFE9FF120EE8E3DB2AD1
:10048000E6D77DDA01E15ED257D2030EDB8E070E8E
:10049000DB0410E195DB040E5ADB0A0EEECFDBFF26
:1004A0000B0EEECFDBFF0C0EEECFDBFF0D0EEECF13
:1004B000DBFF6CD0070EDB5003082CE1030EDBAE34
:1004C0000DD0B2DA020E76DAEFCF14F0156A166AA2
:1004D000176A14AE39D01568166835D0F70EDBCF21
:1004E00015F0F80EDBCF16F0020E155E000E165A50
:1004F000F70E15C0DBFFF80E16C0DBFF15C0E9FFD5
:1005000016C0EAFFEFCF14F00A0E14C0DBFF0B0E8B
:10051000DB6A38D0070EDB50020809E1030EDBAEC0
:1005200004D059DB16AE10D00ED055DB0DD0030E23
:10053000DBAE12D079DA020E3DDAF9DA166A176A02
:1005400015AE02D016681768E2DA0C0E16C0DBFF93
:100550000D0E17C0DBFF1AD0F70EDBCF16F0F80E2A
:10056000DBCF17F0020E165E000E175AF70E16C0FC
:10057000DBFFF80E17C0DBFF16C0E9FF17C0EAFF6C
:10058000D6DAC5DA0C0EDB6A0D0EDB6A060EDB501E
:1005900005E1010EF36E050EF3CFDBFF150EDB6AEE
:1005A000160EDB6AD950370F146E000EDA20156E66
:1005B000390E14C0DBFF3A0E15C0DBFF380EDB6AC4
:1005C000080EDB6A0A0EAEDADF50780A12E0200A63
:1005D00010E0280A0CE0200A0AE03F0A06E00D0AB3
:1005E00002E0200A08E1020E05D0080E03D0080E32
:1005F000DF26100E97DA030EDBBE02D0DB92DB940F
:10060000DB50800B24E08ADAD890030EEB50000A0E
:1006100008E6000EEE5C000EEE58000EEE58000EDE
:10062000EE5815E213DA0B680C680D680E685CEC86
:100630000DF00A0E02C0DBFF0B0E03C0DBFF0C0E39
:1006400004C0DBFF0D0E05C0DBFF2D0E08D0030E2E
:10065000DBA202D02B0E03D0DBA408D0200EF36E59
:10066000170EF3CFDBFF150EDB2A02D0170EDB6A65
:10067000050EDB5003E1B7D901E189D0680E146E95
:100680001E0E156E000E166E070EDBCF17F0186AE1
:10069000196A1A6A17C00BF018C00CF019C00DF0D7
:1006A0001AC00EF0D3D92DEC0EF014500224F36EC4
:1006B00015500320F46E16500420F86EF4CFF7FFA7
:1006C000F3CFF6FF0800090EF5CFDBFF580EDF5C15
:1006D0000FE1610EF36E090E7BD90AE3200E146E52
:1006E000090EDBCFE7FF1450E75E090EE7CFDBFF13
:1006F000070EDBCF14F0156A166A176A0FDA14C0FA
:100700000BF015C00CF016C00DF017C00EF0EECFB8
:1007100006F0EECF07F0EECF08F0EFCF09F02DECAA
:100720000EF009C0EDFF08C0EDFF07C0EDFF06C0E9
:10073000EFFF390EDBCFE9FFDB063A0EDBCFEAFF36
:1007400001E2DB06090EDBCFEFFF150EDB2A4BD9EA
:1007500095E1030EDBA61DD06F0EDF5C06E1C1D96B
:1007600018E3150EDB285BDA14D0780EDF5C09E0A5
:10077000580EDF5C06E0620EDF5C03E0420EDF5CD9
:1007800008E1020EF36E160EF3CFDBFF02D0150E5A
:10079000DB6A030EDB50100B0EE0040EDBCF14F00F
:1007A000050EDB50D880145406E2060EDB5003E140
:1007B000040EDB5034DA95D90AE2050EDBCFE7FFF1
:1007C000150EDB50E75E050EE7CFDBFF02D0050E0E
:1007D000DB6A040EDBCF14F0160E45D9D880145412
:1007E00014E2160EDBCFE6FF150EDBCFE6FF040E9C
:1007F000DBCFE6FF050EDB50E552E75CE552D88023
:10080000E754E552D880E7545FD9030EDB50010B63
:100810000BE1080EDB5008E0B2D801E08DD0080EE5
:10082000DB50BED8080EDB6A170EDB5007E088D914
:10083000170EF1D903E1151C01E17ED0160EDB5035
:1008400016E07ED9300EE66E9FD802E1151C74E0EA
:1008500077D9DFCFE6FFE1EC0CF0E552E552E55247
:10086000F4CF15F00001F31C02E1151C65E0050E44
:10087000DBCF14F0160EDB50D880145409E2050EBD
:10088000DBCFE7FF160EDB50E75E050EE7CFDBFFA1
:10089000300EE66E050ECBD94FE1390EDB2ADBCFE9
:1008A000E9FF3A0E01E3DB2ADBCFEAFF090EEFCFC7
:1008B000DBFFDB500EE044D9090EADD902E1151C77
:1008C0003BE0390EDB2ADBCFE9FF3A0EEDE3DB2A12
:1008D000EBD755D831E1160EDBCFE6FF080EC3D8B3
:1008E000E552E7245DD82ED0070EDB50030A1CE04A
:1008F000010A14E0030A07E07BD9DBCFEEFF020E0A
:10090000DBCFEDFF1FD0F5D8196A17AE02D01868FB
:1009100019682CD8BCD819C0EEFF14D0EAD817BE7D
:10092000186824D8B4D80ED063D9DBCFEFFF0AD033
:100930007BD905E1151C03E1F368F46810D0FCD8FD
:1009400001E3DB2A79D941EF00F0010EDBCF14F08F
:10095000020EDBCF15F014C0F3FF15C0F4FF3B0E01
:10096000E15C02E2E16AE552E16ECBD029D9020EE8
:10097000A7EF05F061D90800F550DF6E1200200ED8
:10098000E66E080E17EF06F0E1EC0CF0E552E552CA
:10099000E552F3CF14F0F4CF15F00001F31C120070
:1009A000146E156AD950010F4DD91450EE2615500A
:1009B000ED221200185E000E195AF70E18C0DBFF68
:1009C000F80E19C0DBFF18C0E9FF19C0EAFF1200DA
:1009D000DBCFF4FFF350F45C1200DB50E76E040E43
:1009E000E7CFDBFF12000A0EDBCF14F00B0EDBCFDC
:1009F00015F00C0EDBCF16F00D0EDBCF17F01450F8
:100A00001510161017101200130EEECFDBFF140E88
:100A1000EDCFDBFF130EDBCF14F0140EDBCF15F0A0
:100A20000001800E15141200F70EDBCF18F0F80E3F
:100A3000DBCF19F01200050EDB50E66ED950130F14
:100A400001D9E552E750EE6EED6A12000A0EDBCFD7
:100A500006F00B0EDBCF07F00C0EDBCF08F00D0E0F
:100A6000DBCF09F01200DBCFE6FF150EDBCFE6FF90
:100A7000050EDB50E552E724E552E7241200DB5077
:100A8000CED8010EF36E060EF3CFDBFF1200EE5050
:100A9000EFCFEAFFE96E16C0EEFF17C0EEFF18C0F9
:100AA000EEFF1200D9CFE6FFDACFE6FFE1CFD9FFA4
:100AB000E2CFDAFF1200DFCFE6FFE66AEBEC0EF0E2
:100AC000E552E552F3501200E76E080EE7CFDBFF68
:100AD0001200EECF14F0EECF15F0EFCF16F0176A3C
:100AE0001200050EDBCF14F0150EDB50D880145425
:100AF0001200010EDBCF16F0020EDBCF17F0186AE2
:100B00001200E552E5CFDAFFE7CFD9FF12000A0E57
:100B100014C0DBFF0B0E15C0DBFF1200D9500A0F0B
:100B200022EF06F0F36E070EF3CFDBFF1200EECFDD
:100B300014F0EFCF15F01200010EDB2A020E1200A6
:100B4000FC0EDBCFE6FFFD0EDBCFE6FF1200145EEE
:100B5000000E155AF70E14C0DBFFF80E15C0DBFFB0
:100B600014C0E9FF15C0EAFF1200DA20EA6EEF2A8E
:100B7000EECFF6FF000EEF22EECFF7FFEF22EECF23
:100B8000F8FF1200040EDBCFE6FF130EDB50E55238
:100B9000E75C9ADFDB5004DF060EDB501200090E23
:100BA000DB500A0DF350DF24D00FE76E090EE7CFBC
:100BB000DBFFBAEF04F0DB50F36E050EE8EF04F054
:100BC000F70EDBCF14F0F80EDBCF15F01200DFCFFD
:100BD000E6FFC4EF04F028DF030EECDE69EF05F05A
:100BE00016EC00F0E552E552E552E552000912001C
:100BF000BDDEEE50EFCFEAFFE96E010E1200130EDC
:100C0000DB50F36E040EE8EF04F0040EDB50F36EDD
:100C1000090EE8EF04F0DBCFE6FFC4EF04F0E76E67
:100C2000050EE7CFDBFF12008BDFE7EF05F0DBCF30
:100C3000E6FF86DFF0EF05F0D950F90FE96EFF0E01
:0E0C4000B5EF05F0E96E000EDA20EA6E120044
:020C4E00DACFFB
:100C5000E4FFE2CFDAFFE9CFE4FFEACFE4FFF6CF2B
:100C6000E4FFF7CFE4FFF5CFE4FFF3CFE4FFF4CFE9
:100C7000E4FFFACFE4FF00EE00F0140EE80403E313
:100C8000EECFE4FFFBD700EE14F0070EE80403E319
:100C9000EECFE4FFFBD7E652F2A462D1F294580EF5
:100CA000E66E8A0EE66E70EC0EF0E552E552827446
:100CB0005ADAA9C0E6FFAAC0E6FF0E0E1B6E000EB0
:100CC0001C6E1D6A1BC0E6FFE66E1DC0E6FFC10E6E
:100CD000E66E000EE66EA4EC0BF01E6E070EE15EF3
:100CE0001E50ABC0E6FFACC0E6FF0E0E1B6E000E42
:100CF0001C6E1D6A1BC0E6FFE66E1DC0E6FFC20E3D
:100D0000E66E000EE66EA4EC0BF01E6E070EE15EC2
:100D10001E50ADC0E6FFAEC0E6FF0E0E1B6E000E0D
:100D20001C6E1D6A1BC0E6FFE66E1DC0E6FFC30E0B
:100D3000E66E000EE66EA4EC0BF01E6E070EE15E92
:100D40001E50AFC0E6FFB0C0E6FF0E0E1B6E000ED9
:100D50001C6E1D6A1BC0E6FFE66E1DC0E6FFC40EDA
:100D6000E66E000EE66EA4EC0BF01E6E070EE15E62
:100D70001E50B1C0E6FFB2C0E6FF0E0E1B6E000EA5
:100D80001C6E1D6A1BC0E6FFE66E1DC0E6FFC50EA9
:100D9000E66E000EE66EA4EC0BF01E6E070EE15E32
:100DA0001E50B3C0E6FFB4C0E6FF0E0E1B6E000E71
:100DB0001C6E1D6A1BC0E6FFE66E1DC0E6FFC60E78
:100DC000E66E000EE66EA4EC0BF01E6E070EE15E02
:100DD0001E50B5C0E6FFB6C0E6FF0E0E1B6E000E3D
:100DE0001C6E1D6A1BC0E6FFE66E1DC0E6FFC70E47
:100DF000E66E000EE66EA4EC0BF01E6E070EE15ED2
:100E00001E50B7C0E6FFB8C0E6FF0E0E1B6E000E08
:100E10001C6E1D6A1BC0E6FFE66E1DC0E6FFC80E15
:100E2000E66E000EE66EA4EC0BF01E6E070EE15EA1
:100E30001E50B9C0E6FFBAC0E6FF0E0E1B6E000ED4
:100E40001C6E1D6A1BC0E6FFE66E1DC0E6FFC90EE4
:100E5000E66E000EE66EA4EC0BF01E6E070EE15E71
:100E60001E50BBC0E6FFBCC0E6FF0E0E1B6E000EA0
:100E70001C6E1D6A1BC0E6FFE66E1DC0E6FFCA0EB3
:100E8000E66E000EE66EA4EC0BF01E6E070EE15E41
:100E90001E50BDC0E6FFBEC0E6FF0E0E1B6E000E6C
:100EA0001C6E1D6A1BC0E6FFE66E1DC0E6FFCB0E82
:100EB000E66E000EE66EA4EC0BF01E6E070EE15E11
:100EC0001E50BFC0E6FFC0C0E6FF0E0E1B6E000E38
:100ED0001C6E1D6A1BC0E6FFE66E1DC0E6FFCC0E51
:100EE000E66E000EE66EA4EC0BF01E6E070EE15EE1
:100EF0001E50C1C0A9F1C2C0AAF1C2C0ABF1C3C0AB
:100F0000ACF1C3C0ADF1C4C0AEF1C4C0AFF1C5C057
:100F1000B0F1C5C0B1F1C6C0B2F1C6C0B3F1C7C02F
:100F2000B4F1C7C0B5F1C8C0B6F1C8C0B7F1C9C007
:100F3000B8F1C9C0B9F1CAC0BAF1CAC0BBF1CBC0DF
:100F4000BCF1CBC0BDF1CCC0BEF1CCC0BFF1CDC0B7
:100F5000C0F1A00EE66E010EE66EE6D9E552E5524E
:100F6000E55200EE1AF0070EE80403E3E5CFEDFFCB
:100F7000FBD700EE13F0140EE80403E3E5CFEDFF1A
:100F8000FBD7E5CFFAFFE5CFF4FFE5CFF3FFE5CFE1
:100F9000F5FFE5CFF7FFE5CFF6FFE5CFEAFFE5CFB9
:100FA000E9FFE5CFDAFF1100D8CFE4FFE0CFE4FF9F
:100FB000E46EDACFE4FFE652E552E5CFDAFFE55022
:100FC000E5CFE0FFE5CFD8FF10009268100E936EDA
:100FD000800E946E82948292190EE66EE66A3C0E42
:100FE000E66E9CEC0CF0E552E552E552050EE66E1D
:100FF000000EE66E010EE66EFEEC0DF0E552E552D7
:10100000E552010EE66EE66AA3DAE552E5528294F5
:101010008292320EE66E010EE66E86D9E552E552F8
:1010200082948282370EE66E010EE66E7DD9E5521D
:10103000E55282848292430EE66E010EE66E74D90A
:10104000E552E552828482824F0EE66E010EE66E14
:101050006BD9E552E55282948292010EE66EE66A01
:1010600077DAE552E552520EE66E010EE66E5CD975
:10107000E552E55282948282010EE66EE66A68DAF3
:10108000E552E552760EE66E010EE66E4DD9E5525A
:10109000E55282848292010EE66EE66A59DAE552E2
:1010A000E5522E0EE66E010EE66E3ED9E552E55291
:1010B000050EE66EE66A4CDAE552E5520B0EE66E78
:1010C000040EE66EEB0EE66E94EC0DF0E552E55282
:1010D000E552E66A080EE66E8CEC0EF0E552E5523B
:1010E0001D0EC86E0D0EE66E240EE66ED00EE66E78
:1010F00081D9E552E552E552F3CF61F0F4CF62F0C9
:10110000E66A6B0EE66ED00EE66E74D9E552E552D5
:10111000E552F3CF61F0F4CF62F0020EE66E370EC7
:10112000E66ED00EE66E66D9E552E552E552F3CF93
:1011300061F0F4CF62F0750EE66ED00EE66EA1D9C6
:10114000E552E552F3CF63F0F4CF64F0800ED56E34
:10115000580EE66E8A0EE66E70EC0EF0E552E55221
:10116000F28EF28AFFD73DEC0FF0C580C5B0FED7F6
:10117000D00EE66E23EC0DF0E552000901E01200FE
:101180003DEC0FF0C550400B01E0010E0001836FF4
:10119000846B856B866BE85084118511861101E0A4
:1011A00012009E963B0EE66E23EC0DF0E552000910
:1011B00001E012003DEC0FF0C5BC12009E96C58206
:1011C000C5B2FED7D10EE66E23EC0DF0E552000954
:1011D00001E012003DEC0FF0C5BC12009E96C586E2
:1011E000C5B6FED7C9500001A96FAA6BC59AC588BC
:1011F000C5B8FED79E96C586C5B6FED7C9500001B4
:10120000AB6FAC6BC59AC588C5B8FED79E96C58630
:10121000C5B6FED7C9500001AD6FAE6BC59AC58883
:10122000C5B8FED79E96C586C5B6FED7C950000183
:10123000AF6FB06BC59AC588C5B8FED79E96C586F8
:10124000C5B6FED7C9500001B16FB26BC59AC5884B
:10125000C5B8FED79E96C586C5B6FED7C950000153
:10126000B36FB46BC59AC588C5B8FED79E96C586C0
:10127000C5B6FED7C59AC588C5B8FED79E96C586A1
:10128000C5B6FED7C59AC588C5B8FED79E96C58691
:10129000C5B6FED7C9500001B56FB66BC59AC588F3
:1012A000C5B8FED79E96C586C5B6FED7C950000103
:1012B000B76FB86BC59AC588C5B8FED79E96C58668
:1012C000C5B6FED7C9500001B96FBA6BC59AC588BB
:1012D000C5B8FED79E96C586C5B6FED7C9500001D3
:1012E000BB6FBC6BC59AC588C5B8FED79E96C58630
:1012F000C5B6FED7C9500001BD6FBE6BC59AC58883
:10130000C5B8FED79E96C586C5B6FED7C9500001A2
:10131000BF6FC06BC58AC588C5B8FED79E96C58409
:10132000C5B4FED79E961200D9CFE6FFE1CFD9FF14
:10133000020EE126FD0EDBCFDEFFDBCFDDFFDECFD1
:10134000E9FFDDCFEAFFEF500D0810E0ACA2F7D7C0
:10135000DFCFE9FFDF2A010EDBCFEAFF01E3DB2A63
:10136000EF50E66EBEEC0EF0E552E9D70D0EE66EDC
:10137000BEEC0EF0E552020EE15C02E2E16AE552DB
:10138000E16EE552E7CFD9FF1200D9CFE6FFE1CFFA
:10139000D9FF020EE126FD0EDBCFDEFFDBCFDDFF46
:1013A000ACB2FED751EC0EF0E66EDECFE9FFDDCF3A
:1013B000EAFFE552E750EF6EDECFE9FFDDCFEAFF4F
:1013C000EF500D0804E1020EE15C0FE20CD0DECF1D
:1013D000E9FFDDCFEAFFEF500A08E2E0DF2A010E65
:1013E000DFE3DB2ADDD7E16AE552E16EE552E7CFC4
:1013F000D9FF1200D9CFE6FFE1CFD9FF3DEC0FF0C6
:10140000C580C5B0FED7FE0EDBCFE6FF23EC0DF0A6
:10141000E552000902E0020E27D03DEC0FF0C5AC0A
:1014200002D0030E21D09E96FD0EDBCFE6FF23EC0B
:101430000DF0E552000902E0040E16D03DEC0FF06D
:10144000C5AC02D0050E10D09E96FC0EDBCFE6FF99
:1014500023EC0DF0E552000902E0080E05D03DEC4A
:101460000FF0C5AC03D0090EF36E06D09E96C5846E
:10147000C5B4FED79E96F36AF46AE552E7CFD9FF6A
:101480001200D9CFE6FFE1CFD9FF3DEC0FF0C580C8
:10149000C5A003D0FDD7C5B0FED7FE0EDBCFE6FF5B
:1014A00023EC0DF0E552000902E0210E36D03DECB0
:1014B0000FF0C550400B01E0010E0001836F846BFB
:1014C000856B866BE85084118511861102E0220E2F
:1014D00024D09E96FD0EDBCFE6FF23EC0DF0E55207
:1014E000000902E0230E19D03DEC0FF0C5AC02D08C
:1014F000240E13D09E96C582C5B2FED7FE0EDB2801
:10150000E66E23EC0DF0E552000902E0260E05D050
:101510003DEC0FF0C5AC04D0270EF36EF46A14D086
:101520009E96C586C5B6FED7C58AC588C5B8FED7FE
:101530009E96C584C5B4FED79E969E96C950146EDD
:10154000156AF36E15C0F4FFE552E7CFD9FF12001C
:10155000D9CFE6FFE1CFD9FF0001606B6051146E77
:10156000156AFD0EDBCF16F0FE0EDBCF17F015501F
:101570001718E8AE02D0173404D01650145C175078
:1015800015583FE2640EE66EA7EC0EF0E552640ECD
:10159000E66EA7EC0EF0E552640EE66EA7EC0EF0D8
:1015A000E552640EE66EA7EC0EF0E552640EE66EB0
:1015B000A7EC0EF0E552640EE66EA7EC0EF0E552D5
:1015C000640EE66EA7EC0EF0E552640EE66EA7EC34
:1015D0000EF0E552640EE66EA7EC0EF0E552640ED6
:1015E000E66EA7EC0EF0E552640EE66EA7EC0EF088
:1015F000E552500EE66EA7EC0EF0E5520001602BAE
:10160000ADD7E552E7CFD9FF1200D9CFE6FFE1CF42
:10161000D9FF0001606B6051146E156AFD0EDBCFBF
:1016200016F0FE0EDBCF17F015501718E8AE02D0FB
:10163000173404D01650145C175015583FE2640E4E
:10164000E66E29EC0FF0E552640EE66E29EC0FF021
:10165000E552640EE66E29EC0FF0E552640EE66E7C
:1016600029EC0FF0E552640EE66E29EC0FF0E5521E
:10167000640EE66E29EC0FF0E552640EE66E29EC7E
:101680000FF0E552640EE66E29EC0FF0E552640EA1
:10169000E66E29EC0FF0E552640EE66E29EC0FF0D1
:1016A000E552640EE66E29EC0FF0E552240EE66E6C
:1016B00029EC0FF0E5520001602BADD7E552E7CFE2
:1016C000D9FF1200D9CFE6FFE1CFD9FF020EE12604
:1016D000030E146E156AFD0EDBCF08F0FE0EDBCF95
:1016E00009F014C00DF015C00EF0FAEC0BF008C0B4
:1016F000DEFF09C0DDFF0001606B00016051146E68
:10170000156ADECF16F0DDCF17F015501718E8AECA
:1017100002D0173404D01650145C175015580AE242
:1017200000000000000000000000000000000001B8
:10173000602BE3D7020EE15C02E2E16AE552E16E62
:08174000E552E7CFD9FF1200CA
:08174800D9CFE6FFDACFE6FF7E
:10175000E1CFD9FFE2CFDAFFE652E652E652E65297
:10176000D950F90F146EFF0EDA20156E020E14C058
:10177000DBFF030E15C0DBFF020EDBCFE6FF030E1F
:10178000DBCFE6FFF90EDBCFE6FFFA0EDBCFE6FF9D
:10179000FB0EDBCFE6FFD950FC0FE66EFF0EDA2022
:1017A000E66E2CEC00F0146E070EE15C02E2E16ADA
:1017B000E552E16E1450F3CFDEFFF4CFDDFFFC0EF7
:1017C000DBCFE9FFFD0EDBCFEAFFEF6ADECF14F0DF
:1017D000DDCF15F014C0F3FF15C0F4FF040EE15C7B
:1017E00002E2E16AE552E16EE552E5CFDAFFE7CFCA
:0417F000D9FF12000B
:0C17F400006A0EAE03EF0CF00D6C0E1E30
:10180000E86A0E22001E09AE0BEF0CF0086C091EF0
:10181000E86A0922001ED5EC0EF009BE1BEF0CF0A1
:1018200000AE000C086C091EE86A0922046C051E53
:10183000E86A0522000C00BE12EF0CF00188FF0CD4
:1018400009C013F008C012F008500D02F4CF07F0E1
:10185000F3CF06F009500E02F4CF09F0F3CF08F0F1
:101860000D02F3500726F4500822E86A09221250AC
:101870000E02F3500726F4500822E86A09220EAE41
:1018800046EF0CF01250085E1350095A13AE000CCC
:0A1890000D50085E0E50095A000CBE
:06189A001E0EF66E000EAA
:1018A000F76E000EF86E01010900F550D76F0900C0
:1018B000F550D86F03E1D76701D03DD00900F5504E
:1018C000D26F0900F550D36F0900F550D46F0900AD
:1018D0000900F550E96E0900F550EA6E09000900AB
:1018E0000900F550D56F0900F550D66F09000900C1
:1018F000F6CFD9F1F7CFDAF1F8CFDBF1D2C1F6FFAD
:10190000D3C1F7FFD4C1F8FF0101D55302E1D6538B
:1019100007E00900F550EE6ED507F8E2D607F9D7D3
:10192000D9C1F6FFDAC1F7FFDBC1F8FF0101D70724
:08193000000ED85BBFD71200C6
:08193800D9CFE6FFDACFE6FF8C
:10194000E1CFD9FFE2CFDAFFAC6AAB6AFD0EDBB0C4
:10195000AC88DBA202D0AC8CAB8CDBB4AC8EDBA64B
:1019600002D0AB8801D0AB8ADBB8AC849E98DBBADE
:10197000AB86DBAC02D09D8A01D09D9A9E9ADBAEED
:1019800002D09D8801D09D98FB0EDB50AF6EFB0E00
:10199000FC0EDBCF15F015C014F0156A1450B06EB4
:1019A000AC8AAB8E949C948EAC50100B04E0AC507F
:1019B000800B01E1948CE552E5CFDAFFE7CFD9FF48
:0219C000120013
:0E19C200D9CFE6FFDACFE6FFE1CFD9FFE2CFC3
:1019D000DAFFFB0EDBCF14F0FC0EDBCF15F00001BD
:1019E000800E15141AE1FB0EDBCFE9FFFC0EDBCFF6
:1019F000EAFFEECFF3FFEDCFF4FFEE2A000EEF2269
:101A0000F3CFE9FFF4CFEAFFFD0EDBCFEFFFEF509E
:101A1000156AF36E15C0F4FF10D0FB0EDB50FE0804
:101A200006E1FD0EDBCFE6FF1BEC0FF005D0FD0E4F
:101A3000DBCFE6FF03EC00F0E552E552E5CFDAFF3D
:061A4000E7CFD9FF120000
:0A1A4600D9CFE6FFDACFE6FFE1CFCB
:101A5000D9FFE2CFDAFFFD0EDB50C96EC6AE02D071
:101A6000FF0E24D00F0EC61408080FE00F0EC61488
:101A70000B080BE0C6889EA6FED7C750040B03E1F7
:101A8000C750010B10E0000E11D00F0EC61408084D
:101A900004E00F0EC6140B0809E1C7B0FED73DECF9
:101AA0000FF0C5AC02D0FE0E01D0000EE552E5CF1E
:081AB000DAFFE7CFD9FF1200B5
:081AB80006500B02F3CF02F00F
:101AC000F4CF03F00C02F3500326000EF420046E52
:101AD00006500D02F3500426000EF420056E065049
:101AE0000E02F350052607500B02F3500326F45064
:101AF0000422000E052207500C02F3500426F45075
:101B0000052207500D02F350052608500B02F35032
:101B10000426F450052208500C02F3500526095003
:081B20000B02F3500526120030
:081B2800D9CFE6FFDACFE6FF9A
:101B3000E1CFD9FFE2CFDAFFC26AC06AFC0EDB4018
:101B40007F0B3C0BC26EFC0EDB38F00B300B146EBF
:101B5000FB0EDB500F0B1410C16EFD0EDB50040D9D
:101B6000F350380B156EFD0EDB380F0B070B146EA0
:101B7000FD0EDB50800B14101510C06EFC0EDBAE9A
:101B800003D09E9C9D8CF28CC280E552E5CFDAFF9B
:061B9000E7CFD9FF1200AF
:0A1B9600FE0EE3CFE9FFFF0EE3CFE0
:101BA000EAFFF36AF46AEE5203E0F34AF42AFBD741
:101BB0001200FF0EE3CFF8FFE552FF0EE3CFF7FF71
:101BC000E552FF0EE3CFF6FFE552E66AE66AE66A03
:101BD0000900F55209E0FD0EE32A05E1FE0EE32AB5
:101BE00002E1FF0EE32AF4D7FD0EE3CF07F0FE0E6D
:0C1BF000E3CF08F0FF0EE3CF09F0120075
:041BFC00D9CFE6FF58
:101C0000DACFE6FFE1CFD9FFE2CFDAFFE652E652C4
:101C1000DF6AFB0EDB50DF5C18E29EAAFED751ECB8
:101C20000EF0E76E010EE7CFDBFFFC0EDBCFE9FF26
:101C3000FD0EDBCFEAFF010EDBCFEFFFFC0EDB2A50
:101C4000FD0E01E3DB2ADF2AE4D7E552E552E55237
:0A1C5000E5CFDAFFE7CFD9FF12005D
:061C5A00056A046A036A3A
:101C6000026A200EE76ED890063607360836093627
:101C700002360336043605360B50025C0C5003580E
:101C80000D5004580E50055809E30B50025E0C50DD
:101C9000035A0D50045A0E50055A062AE72EE4D76F
:021CA000120030
:0E1CA200D9CFE6FFDACFE6FFE1CFD9FFE2CFE0
:101CB000DAFFE652F20E0101DC17ABAC03D0DC9187
:101CC000ABB0DC81ABB4DC85ABB2DC87AE50DF6E91
:101CD000DF50E552E552E5CFDAFFE7CFD9FF12003A
:101CE000D9CFE6FFDACFE6FFE1CFD9FFE2CFDAFFC7
:101CF000E652E652FC0EDBCFDEFFDBCFDDFF010E4E
:101D0000DB50D76EDF50D66EE552E552E552E5CF97
:081D1000DAFFE7CFD9FF120052
:081D1800D9CFE6FFDACFE6FFA8
:101D2000E1CFD9FFE2CFDAFF3F0EC716C66AC56A18
:101D3000FD0EDB50C612FC0EDB50C712938293805F
:0E1D4000C68AE552E5CFDAFFE7CFD9FF1200E1
:021D4E00FF0E86
:101D5000E350206EEF0E01D0F30EE76EE72EAEEFEC
:101D60000EF00C0E1F6EE76AE72EB4EF0EF01F2E7A
:0C1D7000B3EF0EF0202EACEF0EF01200CE
:041D7C00D9CFE6FFD6
:101D8000DACFE6FFE1CFD9FFE2CFDAFFACAC04D087
:101D9000AC900101DCB3AC80FD0EDB50AD6EE552C2
:0A1DA000E5CFDAFFE7CFD9FF12000C
:061DAA00056A046A100E38
:101DB000E76ED89008360936043605360D50045CB7
:101DC0000E50055805E30D50045E0E50055A082AC2
:061DD000E72EF0D712001F
:0A1DD600F36AF46AFF0EE124E96EDF
:101DE000FF0EE220EA6EED6607D02F0EEF6404D0FE
:0A1DF0003A0EEF6001D0F32A120052
:061DFA00000EF36E00EE86
:101E000000F0080E01D81200EA6002D0EE6AFCD79A
:0A1E1000F350E9601200EE6AFCD7FF
:061E1A0013EE00F023EEC0
:101E200000F0F86A019C4DEC0CF009EC00F0E5ECD8
:061E300007F0FBD71200D1
:0A1E3600FF0EE350ACBA04D0AF6A0F
:101E4000AB8EAC8A949CACA2FED7AD6EF36EF46AF6
:021E500012007E
:0E1E5200FF0EE350E84E1200000000D000D05A
:081E600000D0E82EFAD71200B1
:081E68003031323334353637D6
:091E7000383961626364656600A3
:061E7A001F0EC514FDE17E
:081E8000C750040BFAE1120047
:081E8800000000000000000052
:101E900000000000000000006B616E6F7065726FE3
:101EA00000706970706900636F6F6C006A75610D16
:101EB00000002B2B0D00522C310D53462C310D53AD
:101EC000532C34303030303030310D53522C3330CD
:101ED0003030303030300D505A0D50532C303130BE
:101EE00032303330343035303630373038303930C6
:101EF000303041304230433044304530460D50435D
:101F00002C31323334353637383930313233343599
:101F10003637383930313233343536373839304660
:101F2000462C31302C32300D5348572C3030304253
:101F30002C6161626263636464656566663030313A
:101F40003132323333343435353636373738383941
:0A1F50003930306161626263630D95
:020000040030CA
:0100000002FD
:010001000EF0
:010002000EEF
:010003000AF2
:010005008179
:010006008178
:00000001FF
