:020000040000FA
:0600000094EF07F012006E
:020006001200E6
:0600080016EF00F01200EB
:02000E00C250DE
:08001000020B01E0010E1200D9
:0600180000EF01F01200F0
:02001E000100DF
:0C0020006C0F000000010000B90000009F
:04002C00DACFE4FF44
:10003000E2CFDAFFE9CFE4FFEACFE4FFF6CFE4FF57
:10004000F7CFE4FFF5CFE4FFF3CFE4FFF4CFE4FF15
:10005000FACFE4FF00EE00F0100EE80403E3EECF69
:10006000E4FFFBD700EE10F0040EE80403E3EECF4C
:10007000E4FFFBD7E652F2A49FD0F294580EE66E4E
:100080008A0EE66E0DEC07F0E552E5529CD9A6C249
:10009000E6FFA7C2E6FF42C2E6FF43C2E6FFBDDAC3
:1000A000E552E552E552E552A8C2E6FFA9C2E6FFD5
:1000B00044C2E6FF45C2E6FFB0DAE552E552E5523A
:1000C000E552AAC2E6FFABC2E6FF46C2E6FF47C260
:1000D000E6FFA3DAE552E552E552E552ACC2E6FF8F
:1000E000ADC2E6FF48C2E6FF49C2E6FF96DAE55236
:1000F000E552E552E552AEC2E6FFAFC2E6FF4AC2A4
:10010000E6FF4BC2E6FF89DAE552E552E552E552D9
:10011000B0C2E6FFB1C2E6FF4CC2E6FF4DC2E6FF49
:100120007CDAE552E552E552E552B2C2E6FFB3C2CF
:10013000E6FF4EC2E6FF4FC2E6FF6FDAE552E55238
:10014000E552E552B4C2E6FFB5C2E6FF50C2E6FF93
:1001500051C2E6FF62DAE552E552E552E55201018D
:10016000300E8B6F8C6F8D6F8E6F76C28FF177C272
:1001700090F179C291F17AC292F17CC293F17DC281
:1001800094F17FC295F180C296F182C297F183C249
:1001900098F185C299F186C29AF188C29BF189C211
:1001A0009CF18BC29DF18CC29EF1820EE66E010E17
:1001B000E66EABDAE552E552E55200EE13F0040EBE
:1001C000E80403E3E5CFEDFFFBD700EE0FF0100EE0
:1001D000E80403E3E5CFEDFFFBD7E5CFFAFFE5CF7A
:1001E000F4FFE5CFF3FFE5CFF5FFE5CFF7FFE5CF70
:1001F000F6FFE5CFEAFFE5CFE9FFE5CFDAFF110033
:10020000D8CFE4FFE0CFE4FFE46EDACFE4FFE652BC
:10021000E552E5CFDAFFE550E5CFE0FFE5CFD8FFC7
:10022000100092681C0E936E800E946E0201520EA6
:100230008E6F020E8F6F550E906F020E916F580EDB
:10024000926F020E936F5B0E946F020E956F5E0EAF
:10025000966F020E976F610E986F020E996F640E83
:100260009A6F020E9B6F670E9C6F020E9D6F6A0E57
:100270009E6F020E9F6F6D0EA06F020EA16F700E2B
:10028000A26F020EA36F730EA46F020EA56F760EFF
:10029000A66F020EA76F790EA86F020EA96F7C0ED3
:1002A000AA6F020EAB6F7F0EAC6F020EAD6F820EA7
:1002B000AE6F020EAF6F850EB06F020EB16F880E7B
:1002C000B26F020EB36F8B0EB46F020EB56F190EC4
:1002D000E66EE66A3C0EE66EE4EC05F0E552E552A9
:1002E000E552050EE66E000EE66E010EE66E99EC26
:1002F00006F0E552E552E552010EE66EE66A19DBBC
:10030000E552E552140EE66E010EE66EFED9E55298
:10031000E552190EE66E010EE66EF7D9E552E5528A
:10032000250EE66E010EE66EF0D9E552E552310E6D
:10033000E66E010EE66EE9D9E552E552010EE66E73
:10034000E66AF7DAE552E552340EE66E010EE66E25
:10035000DCD9E552E552010EE66EE66AEADAE552CC
:10036000E552580EE66E010EE66ECFD9E552E55223
:10037000010EE66EE66ADDDAE552E552100EE66E33
:10038000010EE66EC2D9E552E552050EE66EE66A4A
:10039000D0DAE552E5520B0EE66E040EE66EEB0E79
:1003A000E66E62EC06F0E552E552E552820ED56E3D
:1003B000580EE66E8A0EE66E0DEC07F0E552E55239
:1003C000F28EF28AFFD7870EE66E57EC07F0E55201
:1003D000B4EC07F007EC00F00009FCE1C4500201A6
:1003E000426F436BC350446F456B8F0EE66E57EC04
:1003F00007F0E552B4EC07F007EC00F00009FCE16F
:10040000C4500201466F476BC350486F496B970E4B
:10041000E66E57EC07F0E552B4EC07F007EC00F09D
:100420000009FCE1C45002014A6F4B6BC3504C6F92
:100430004D6BA70EE66E57EC07F0E552B4EC07F0F3
:1004400007EC00F00009FCE1C45002014E6F4F6B55
:10045000C350506F516B1200ADEC07F0C580C5B0B2
:10046000FED7D00EE66E29EC06F0E552000901E059
:100470001200ADEC07F0C550400B01E0010E020187
:10048000236F246B256B266BE85024112511261150
:1004900001E012009E963B0EE66E29EC06F0E55256
:1004A000000901E01200ADEC07F0C5BC12009E96F9
:1004B000C582C5B2FED7D10EE66E29EC06F0E55234
:1004C000000901E01200ADEC07F0C5BC12009E96D9
:1004D000C586C5B6FED7C95002012A6F2B6BC59AD7
:1004E000C588C5B8FED79E96C586C5B6FED7C95085
:1004F00002012C6F2D6BC59AC588C5B8FED79E9694
:10050000C586C5B6FED7C95002012E6F2F6BC59A9E
:10051000C588C5B8FED79E96C586C5B6FED7C95054
:100520000201306F316BC59AC588C5B8FED79E965B
:10053000C586C5B6FED7C9500201326F336BC59A66
:10054000C588C5B8FED79E96C586C5B6FED7C95024
:100550000201346F356BC59AC588C5B8FED79E9623
:10056000C586C5B6FED7C59AC588C5B8FED79E96BE
:10057000C586C5B6FED7C59AC588C5B8FED79E96AE
:10058000C586C5B6FED7C9500201366F376BC59A0E
:10059000C588C5B8FED79E96C586C5B6FED7C950D4
:1005A0000201386F396BC59AC588C5B8FED79E96CB
:1005B000C586C5B6FED7C95002013A6F3B6BC59AD6
:1005C000C588C5B8FED79E96C586C5B6FED7C950A4
:1005D00002013C6F3D6BC59AC588C5B8FED79E9693
:1005E000C586C5B6FED7C95002013E6F3F6BC59A9E
:1005F000C588C5B8FED79E96C586C5B6FED7C95074
:100600000201406F416BC58AC588C5B8FED79E966A
:10061000C584C5B4FED79E961200D9CFE6FFE1CFC0
:10062000D9FF040EE126F00EE76EFD0EDBCF10F0D1
:10063000E7501016116A040ED89011321032E804F7
:10064000FBE110C0DEFF11C0DDFF0F0EE76EFD0EF7
:10065000DBCF10F0FE0EE7501016116A020E10C02C
:10066000DBFF030E11C0DBFFDECF10F0DDCF11F09A
:10067000D890115004E60A0E105C000E115802E2E8
:10068000300E01D0370EDE26000EDD22020EDBCF4B
:1006900010F0030EDBCF11F0D890115004E60A0ED3
:1006A000105C000E115807E2D950020FE96EDACF44
:1006B000EAFF300E06D0D950020FE96EDACFEAFF1A
:1006C000370EEE26000EED22FB0EDBCFE9FFFC0E0F
:1006D000DBCFEAFFDFCFEFFF010EE76EFB0EDBCFD4
:1006E000E9FFFC0EDBCFEAFFE750E926000EEA2225
:1006F000020EDBCFEFFF040EE15C02E2E16AE5529D
:10070000E16EE552E7CFD9FF1200D9CFE6FFE1CF86
:10071000D9FF020EE126FD0EDBCFDEFFDBCFDDFFD2
:10072000DECFE9FFDDCFEAFFEF500D0810E0ACA20D
:10073000F7D7DFCFE9FFDF2A010EDBCFEAFF01E3C6
:10074000DB2AEF50E66E40EC07F0E552E9D70D0EDC
:10075000E66E40EC07F0E552020EE15C02E2E16A6F
:10076000E552E16EE552E7CFD9FF1200D9CFE6FF9F
:10077000E1CFD9FF020EE126FD0EDBCFDEFFDBCF9E
:10078000DDFFACB2FED7EEEC06F0E66EDECFE9FFA1
:10079000DDCFEAFFE552E750EF6EDECFE9FFDDCFB8
:1007A000EAFFEF500D0804E1020EE15C0FE20CD00D
:1007B000DECFE9FFDDCFEAFFEF500A08E2E0DF2AF3
:1007C000010EDFE3DB2ADDD7E16AE552E16EE55297
:1007D000E7CFD9FF1200D9CFE6FFE1CFD9FFADECCB
:1007E00007F0C580C5B0FED7FE0EDBCFE6FF29ECD3
:1007F00006F0E552000902E0020E27D0ADEC07F04A
:10080000C5AC02D0030E21D09E96FD0EDBCFE6FFD5
:1008100029EC06F0E552000902E0040E16D0ADEC1A
:1008200007F0C5AC02D0050E10D09E96FC0EDBCFB3
:10083000E6FF29EC06F0E552000902E0080E05D0BB
:10084000ADEC07F0C5AC03D0090EF36E06D09E9652
:10085000C584C5B4FED79E96F36AF46AE552E7CF25
:10086000D9FF1200D9CFE6FFE1CFD9FFADEC07F0F9
:10087000C580C5A003D0FDD7C5B0FED7FE0EDBCF27
:10088000E6FF29EC06F0E552000902E0210E36D021
:10089000ADEC07F0C550400B01E0010E0201236FE3
:1008A000246B256B266BE85024112511261102E0DC
:1008B000220E24D09E96FD0EDBCFE6FF29EC06F03B
:1008C000E552000902E0230E19D0ADEC07F0C5ACEB
:1008D00002D0240E13D09E96C582C5B2FED7FE0E5E
:1008E000DB28E66E29EC06F0E552000902E0260E50
:1008F00005D0ADEC07F0C5AC04D0270EF36EF46A5A
:1009000014D09E96C586C5B6FED7C58AC588C5B81B
:10091000FED79E96C584C5B4FED79E969E96C950B6
:10092000106E116AF36E11C0F4FFE552E7CFD9FFE4
:100930001200D9CFE6FFE1CFD9FF0201006B0051D1
:10094000106E116AFD0EDBCF12F0FE0EDBCF13F03E
:1009500011501318E8AE02D0133404D01250105CBA
:10096000135011583FE2640EE66E29EC07F0E55291
:10097000640EE66E29EC07F0E552640EE66E29EC93
:1009800007F0E552640EE66E29EC07F0E552640EBE
:10099000E66E29EC07F0E552640EE66E29EC07F0EE
:1009A000E552640EE66E29EC07F0E552640EE66E41
:1009B00029EC07F0E552640EE66E29EC07F0E552EB
:1009C000640EE66E29EC07F0E552640EE66E29EC43
:1009D00007F0E552500EE66E29EC07F0E5520201F1
:1009E000002BADD7E552E7CFD9FF1200D9CFE6FFF4
:1009F000E1CFD9FF0201006B0051106E116AFD0EAC
:100A0000DBCF12F0FE0EDBCF13F011501318E8AE5F
:100A100002D0133404D01250105C135011583FE22E
:100A2000640EE66EA2EC07F0E552640EE66EA2ECF0
:100A300007F0E552640EE66EA2EC07F0E552640E94
:100A4000E66EA2EC07F0E552640EE66EA2EC07F04B
:100A5000E552640EE66EA2EC07F0E552640EE66E17
:100A6000A2EC07F0E552640EE66EA2EC07F0E55248
:100A7000640EE66EA2EC07F0E552640EE66EA2ECA0
:100A800007F0E552640EE66EA2EC07F0E552240E84
:100A9000E66EA2EC07F0E5520201002BADD7E5525D
:100AA000E7CFD9FF1200D9CFE6FFE1CFD9FF020E81
:100AB000E126030E106E116AFD0EDBCF08F0FE0E6C
:100AC000DBCF09F010C00DF011C00EF0C8EC06F03D
:100AD00008C0DEFF09C0DDFF0201006B020100510A
:100AE000106E116ADECF12F0DDCF13F01150131823
:100AF000E8AE02D0133404D01250105C13501158D9
:100B00000AE20000000000000000000000000000F9
:100B10000201002BE3D7020EE15C02E2E16AE5523A
:0A0B2000E16EE552E7CFD9FF1200A5
:060B2A001E0EF66E000E27
:100B3000F76E000EF86E01010900F550BE6F090056
:100B4000F550BF6F03E1BE6701D03DD00900F550FD
:100B5000B96F0900F550BA6F0900F550BB6F090075
:100B60000900F550E96E0900F550EA6E0900090028
:100B70000900F550BC6F0900F550BD6F0900090070
:100B8000F6CFC0F1F7CFC1F1F8CFC2F1B9C1F6FF8E
:100B9000BAC1F7FFBBC1F8FF0101BC5302E1BD536D
:100BA00007E00900F550EE6EBC07F8E2BD07F9D783
:100BB000C0C1F6FFC1C1F7FFC2C1F8FF0101BE0706
:080BC000000EBF5BBFD712005D
:080BC800D9CFE6FFDACFE6FF0A
:100BD000E1CFD9FFE2CFDAFFAC6AAB6AFD0EDBB042
:100BE000AC88DBA202D0AC8CAB8CDBB4AC8EDBA6C9
:100BF00002D0AB8801D0AB8ADBB8AC849E98DBBA5C
:100C0000AB86DBAC02D09D8A01D09D9A9E9ADBAE6A
:100C100002D09D8801D09D98FB0EDB50AF6EFB0E7D
:100C2000FC0EDBCF11F011C010F0116A1050B06E45
:100C3000AC8AAB8E949C948EAC50100B04E0AC50FC
:100C4000800B01E1948CE552E5CFDAFFE7CFD9FFC5
:020C5000120090
:0E0C5200D9CFE6FFDACFE6FFE1CFD9FFE2CF40
:100C6000DAFFFD0EDB50C96EC6AE02D0FF0E24D0F7
:100C70000F0EC61408080FE00F0EC6140B080BE089
:100C8000C6889EA6FED7C750040B03E1C750010BD0
:100C900010E0000E11D00F0EC614080804E00F0E6D
:100CA000C6140B0809E1C7B0FED7ADEC07F0C5AC20
:100CB00002D0FE0E01D0000EE552E5CFDAFFE7CFFD
:040CC000D9FF120046
:0C0CC400D9CFE6FFDACFE6FFE1CFD9FF81
:100CD000E2CFDAFFC26AC06AFC0EDB407F0B3C0B3E
:100CE000C26EFC0EDB38F00B300B106EFB0EDB50CF
:100CF0000F0B1010C16EFD0EDB50040DF350380BBE
:100D0000116EFD0EDB380F0B070B106EFD0EDB5066
:100D1000800B10101110C06EFC0EDBAE03D09E9C39
:100D20009D8CF28CC280E552E5CFDAFFE7CFD9FF88
:020D30001200AF
:0E0D3200D9CFE6FFDACFE6FFE1CFD9FFE2CF5F
:100D4000DAFFE652E652DF6AFB0EDB50DF5C18E2A8
:100D50009EAAFED7EEEC06F0E76E010EE7CFDBFFB2
:100D6000FC0EDBCFE9FFFD0EDBCFEAFF010EDBCF90
:100D7000EFFFFC0EDB2AFD0E01E3DB2ADF2AE4D7BE
:100D8000E552E552E552E5CFDAFFE7CFD9FF120091
:100D9000006A0EAED1EF06F00D6C0E1EE86A0E2250
:100DA000001E09AED9EF06F0086C091EE86A092298
:100DB000001E6EEC07F009BEE9EF06F000AE000C75
:100DC000086C091EE86A0922046C051EE86A0522FF
:0C0DD000000C00BEE0EF06F00188FF0CF4
:040DDC00D9CFE6FF86
:100DE000DACFE6FFE1CFD9FFE2CFDAFFE652F20E2B
:100DF0000101C317ABAC03D0C391ABB0C381ABB49B
:100E0000C385ABB2C387AE50DF6EDF50E552E5520B
:0A0E1000E5CFDAFFE7CFD9FF1200AB
:060E1A00D9CFE6FFDACF9C
:100E2000E6FFE1CFD9FFE2CFDAFFE652E652FC0E51
:100E3000DBCFDEFFDBCFDDFF010EDB50D76EDF50F7
:100E4000D66EE552E552E552E5CFDAFFE7CFD9FF9E
:020E500012008E
:0E0E5200FF0EE350156EEF0E01D0F30EE76EAB
:100E6000E72E30EF07F00C0E146EE76AE72E36EF30
:100E700007F0142E35EF07F0152E2EEF07F01200B5
:100E8000D9CFE6FFDACFE6FFE1CFD9FFE2CFDAFF35
:100E9000ACAC04D0AC900101C3B3AC80FD0EDB5010
:0E0EA000AD6EE552E5CFDAFFE7CFD9FF1200C5
:020EAE00D9CF9A
:100EB000E6FFDACFE6FFE1CFD9FFE2CFDAFFC30EDC
:100EC000C214106EFD0EDB407F0B3C0B1010C26E87
:0C0ED000E552E5CFDAFFE7CFD9FF1200B2
:040EDC00056A046A35
:100EE000100EE76ED89008360936043605360D50D8
:100EF000045C0E50055805E30D50045E0E50055A73
:080F0000082AE72EF0D71200C9
:080F0800000EF36E00EE00F094
:100F1000080E01D81200EA6002D0EE6AFCD7F35046
:080F2000E9601200EE6AFCD743
:080F280013EE00F023EE00F0CF
:100F3000F86A019C95EC05F003EC00F011EC01F06F
:040F4000FBD71200C9
:0C0F4400FF0EE350E84E1200000000D049
:0A0F500000D000D0E82EFAD71200FE
:060F5A001F0EC514FDE1AD
:080F6000C750040BFAE1120076
:040F6800C28212002F
:040F6C000000000081
:100F7000000000000000000000000000522C310DB5
:100F800053462C310D53532C343030303030303107
:100F90000D53522C33303030303030300D505A0D2C
:100FA00050532C30313032303330343035303630ED
:100FB00037303830393030304130423043304430CF
:100FC0004530460D50432C313233343536373839BD
:100FD00030313233343536373839303132333435D5
:100FE000363738393046462C31302C32300D5348A4
:100FF000572C303030422C616162626363646465F7
:10100000656666303031313232333334343535361B
:101010003637373838393930306162636161610D94
:0510200053422C340DC9
:020000040030CA
:0100000001FE
:010001000EF0
:010002000EEF
:010003000AF2
:010005008179
:010006008178
:00000001FF
