:020000040000FA
:060000002EEF0CF01200CF
:020006001200E6
:060008008EEF06F012006D
:02000E000000F0
:0400100000000000EC
:06001800F4EF06F01200F7
:02001E000100DF
:0C0020000E000000F901000006000000C6
:04002C0059EC06F095
:10003000A09A6A6A686A706AA4EC05F0F1EC05F0AF
:10004000DF6ADAEC05F003E28AEC05F0FAD76D8C92
:100050006E6A6D986D9C68A607D068960101DC6B8E
:10006000E16BE26BE36BF7D70101010EF56FF66F01
:10007000F76BF86BE96BDF6A030EDF5C11E2EA6A8B
:10008000DF345CEC06F0EA22EE6AED6AEA6ADF34FD
:1000900063EC06F0EA22EE6AED6A9AEC05F0ECD722
:1000A0000101080ED26F040ED36F160E706E04019C
:1000B000300E026F040E036F080E016F840E006F86
:1000C0000101C66BC56BE55264EF05F059EC06F013
:1000D0000101C50507E16DBA05D0686A69806988C4
:1000E000020EC56F6850040B05E06950040B02E076
:1000F000689498D86DB245D06850010B09E06950FA
:10010000010B06E093DFA08A0101040EC56F689021
:100110006850100B05E06950100B02E078D8689821
:1001200068AC0FD069AC05D0F8EC05F0730E51EC5B
:1001300005F0689C0101F35101E0F307F35101E17F
:1001400020DA6850200B04E06950200B01E04CD805
:100150006850020B0BE06950020B08E0F8EC05F068
:10016000E6687F0EE66E6AEC06F06A6A040E01012C
:10017000E76EC519E8AE02D0E73402D0E750C55D9E
:1001800002E2A19A2ED069A62BD0DF6A040EDF5CB2
:1001900027E268A625D06CCFEAF10101EA51780B7D
:1001A000E842E842E842EB6F6896EAB504D0EB51CA
:1001B00071EC06F003D0EB5176EC06F0EA22EF701A
:1001C000EB5102E13DD80AD0000EE66EE66AEA0E77
:1001D000E66E010EE66E720E51EC05F0DF2AD6D700
:1001E000A19AE55264EF05F070A00FD070EC05F015
:1001F000EF50800809E15AEC05F0EF50840804E163
:1002000070EC05F08C0EEF6E7090689A12006984A5
:1002100068986D820101010EE96FC0EC05F0750E62
:1002200051EF05F00101E96BC0EC05F0740E51ECE3
:1002300005F06D92699468A402D06894FCD712000E
:1002400059EC06F001012D0EF36FFD0EEA1540E1A9
:100250007E0EEA15E8407F0B040DF3CFC8F1F4CF12
:10026000C9F1000EC827040EC923C8C1CAF1C9C10B
:10027000CBF1CA7570EC05F0EF503C0BE842E84258
:100280000D0824E1DF6A080EDF5C1AE270EC05F06D
:10029000020EE926000EADEC05F0EF50E66EDF50E1
:1002A000EA6A300FE96E040EEA22E552E750EF6E7B
:1002B00070EC05F085EC06F0EE2AEF22DF2AE3D79A
:1002C00070EC05F025EC06F00BD807D026D805D049
:1002D000FD0EEA15040801E12FD8E55264EF05F0A0
:1002E0000101D86BF46BF76BF86BEC6BD96BE2DB4D
:1002F000EF9ED275DFDBEF9ED27514EC06F0EF9E19
:10030000DC6BDD6BDE6BE16BE26BE36B50D8C0EC5A
:1003100005F0030EC6DB7BEF03F0020E0101D95D91
:1003200002E1E7EF03F0D96BEC5104E1B1DB8C0E95
:10033000EF6E1200EC6B120059EC06F0BBDBEF50D5
:10034000400B01E0010EDF6E0101D275080EC55DA4
:1003500008E132C46EFF6E5002E0100E01D0040EB0
:10036000C56FD90513E1A6DBC0DBF2D9020E01018E
:10037000D85D03E19FDB840E07D0DF5003E19ADBF9
:10038000C80E02D097DB880EEF6E0FD0E1AF0CD015
:10039000E451E51107E005D0E5C1FAFF0101E451A0
:1003A000F96EFADF0101E19FD96BE5528DD30401AB
:1003B0003051600BE842E842E842E842E842000976
:1003C00001E0120031510C0A45E00B0A3FE00C0A33
:1003D00031E0010A22E00B0A1EE0020A1CE0030AD7
:1003E00018E0080A10E0010A0CE00F0A08E0030A0E
:1003F00001E012000101DC8F080EC56F120003EF4F
:1004000003F04BEF04F00101C60EDA6F010EDB6F53
:100410000CD040EF03F02BEF02F034510101DA6F02
:10042000DB6BC70EDA27010EDB23DC81010EDD6FEB
:10043000DC8F12000101DC8F04013451EA6AC70F1E
:10044000E96E010EEA2232C4EFFF120099DB020EC0
:1004500051EF05F0120033DB050EE12604013205F1
:1004600010E130511F0B00090CE10101DC8F030E7C
:100470000401315D04E10101010EE86F02D00101C8
:10048000E86B0401325101E075D030511F0B0208B6
:1004900071E134510F0B00096DE034510F0B02086C
:1004A00069E3200E0101C55D65E1DC8F040134BF05
:1004B00004D0E6DB6BDB70DB03D0E7DB67DB70DBF4
:1004C000EA22020EEFCFDBFF9ADB010B03E1000E05
:1004D000DF9401D0DF8434BF02D0D2DB01D0D5DB82
:1004E000EA22DECFEEFFDDCFEDFF030E315D0DE141
:1004F000D1DB07E034BF02D04FDB01D051DBEA2271
:10050000EF82840E8AEC06F035D0DF74C3DB06E0A0
:10051000CCDAEF9ECADAEF8CA2DB02D0C6DAEF8C1F
:10052000DF746DDB020B02E1B5DB0DE0040134BFCB
:1005300002D032DB01D034DBEA22EF923B0E106EA8
:10054000DADB8DDB02D03B0ED6DB040134510F0B1E
:10055000116A700F106E0F0E1122030E10C0DBFF18
:10056000040E11C0DBFF030EDBCFE9FF040EDBCF6F
:10057000EAFFEF90050EE15C02E2E16AE552E16E0E
:10058000A3D20101F55121E1010EF56FF6511DE1F4
:10059000010EF66F020ED95D07E18CDAEE52EF6ABA
:1005A00089DAC80EEF6E1200D9050FE1EC6B98DA0C
:1005B000EE52080EEF6E94DA48DB92DA840EEF6E9C
:1005C000010EEC6F65DA800EEF6E12000101F76B21
:1005D000F86B020ED95D04E192DB87DA25DB10D0DF
:1005E000DD510401365D0101DE510401375904E299
:1005F00036C4DDF137C4DEF1ABD85CDA76DA5ADA2C
:10060000C80EEF6E1200800E0401305D38E101016A
:10061000C00EDC6F04013351030A1AE0010A09E03D
:10062000030A2BE10101980EDA6F150EDB6F120E33
:100630001ED0F3DA390EF626160EC4DA020E0101C8
:10064000E5DAF5CFDDF1030EE1DAF5CFDEF11200E8
:10065000030E325D0FE2E1DA3B0EF626160EB2DA39
:10066000DAC1F6FFDBC1F7FF0800F5500101DD6FCD
:10067000DE6B12000101DC6B12000101DC6B120069
:10068000EADA0401386B396B30511F0B020A11E0B2
:10069000030A0CE0010A1EE10101DC8F040138812C
:1006A0000101E80517E10401388314D00101DC8F52
:1006B00011D00101DC8F040134BF02D0E1DA01D096
:1006C000E4DA64DAE7DA06E0F0D9EF50040B02E08E
:1006D000010E386F0101DCAF07D0380EDA6F040E5F
:1006E000DB6FDC81020EDD6F020EE15C02E2E16A8B
:1006F000E552E16EE9D16D980101DCBF0DD0E1AFAB
:1007000009D0020ED96FF85101E160DF0101F66BEB
:10071000F56B120039EF06F0040130AF0DD0010186
:10072000010ED96FF75101E151DF0101F66BF56B55
:10073000F4510DE1C1EF02F00101020ED96FA8D909
:10074000840EEF6EF66BF56BF45101E11ADF1200C7
:10075000B0DA080EDF6E0101DD5D000EDE590AE23F
:10076000DDC1DFFFD85102E1010E03D0D80502E15F
:10077000020ED86FDF50116AE850DD5DDD6F115059
:10078000DE59DE6F97D9EE52DFCFEFFF380EE66FFE
:10079000040EE76FDCB10DD0DF5017E0DAC1F6FFD1
:1007A000DBC1F7FFDA2B000EDB230800F550DBD9A5
:1007B000F3D7DF500AE0DAC1E9FFDBC1EAFFDA2B49
:1007C000000EDB23EF50CFD9F4D7E5527DD143DAC9
:1007D00087D9EE52EFCFDFFFDFCF10F010500101CD
:1007E000E25D000EE35902E2E2C1DFFFDF50106E6E
:1007F000116AE850E25DE26F1150E359E36F010EB8
:10080000DB6ADF50F36E010EDBCFF4FFF350F45CD4
:1008100016E2010EDB50EA6A380FE96E040EEA2296
:10082000EF50E66EDFC1E9FFE0C1EAFFDF2B000E0B
:10083000E023E552E750EF6E010EDB2AE2D7000E0F
:10084000D880E255000EE3550DE259DA4ED948D969
:10085000EF50400B03E1E8D9C80E02D0E5D9880E6D
:10086000EF6E12D015D9840EEF6EE451E51107E05A
:1008700005D0E5C1FAFF0101E451F96EFADF01018B
:10088000E19FF45101E17DDE020EE15C02E2E16AEA
:10089000E552E16E19D10DDA0101DC8F55D9DF6A1D
:1008A00089D902E237D9FCD76D8CDF6A030EDF5C91
:1008B00002E240D9FBD7010EE66EE66AE66AC70E91
:1008C000E66E010EEED96D9C0101080ED26F040E8A
:1008D000D36F000EC86F040EC96FC8C1CAF1CB6FC9
:1008E00032C4C6F1C65102E1100E0BD0010EE66E05
:1008F000E66AC60EE66E010EE66E010ED2D8010162
:10090000200EC56FE552E0D0A6D9000EDE6E040EB3
:10091000DD6EF1D8040DF4CF11F0D9CFE9FFDACFB5
:10092000EAFFF350EE261150ED22BFD8EF9EFD0EE8
:10093000DB5002E1EAD801D0AFD8EA22DECFEEFFE9
:10094000DDCFEDFFB2D8EF9CB0D8040EE926000E43
:10095000EA22EF8C020EE15C02E2E16AE552E16E0E
:10096000B3D079D9FD0EDBA402D0E66A33D9FD0EEF
:10097000DBA203D0010EE66E2DD9FE0EDB50116A0C
:10098000700F106E0F0E10D990D8FD0EDBCFEFFF59
:10099000020EE15C02E2E16AE552E16E95D05BD9BC
:1009A000FE0EDB5002E165D905D0A5D842D9A3D807
:1009B000010F3FD9020EE15C02E2E16AE552E16E0D
:1009C00083D049D9FD0EDB5002E066D801D09DD816
:1009D000DDD8D9CFE9FFDACFEAFFEE50ED1003E121
:1009E000F36AF46A21D061D890D9FB0EDBCFEEFF19
:1009F000FC0EDBCFEDFF59D8EE52FA0EDBCFEFFF46
:100A0000400E79D9880E86D9FD0EDB5002E044D81D
:100A100001D07BD8EA22EF74DECF10F0DDCF11F0E9
:100A200010C0F3FF11C0F4FF020EE15C02E2E16AC4
:100A3000E552E16E49D043D86DA812D02FD9400EAF
:100A4000EE16EE6AEE6AEE6A29D9EE7C25D8EA2225
:100A5000EF74400E106E22D91050EF161FD9EF7CA4
:100A600033D06D6A696A0101C56B12000101C5517D
:100A70000EE16D6A696AB5D8D08EA28AA08AF28E1C
:100A80006DB602D06D86FCD70101010EC56F120054
:100A900036D9DBD814EF06F0FE0EEA6ADB345CEFE1
:100AA00006F0E66EE66A6AEF06F0DECFE9FFDDCF1C
:100AB000EAFF1200D2C1E9FFD3C1EAFF1200D9CF89
:100AC000E6FFE1CFD9FF1200E552E7CFD9FF1200D0
:100AD00034510F0BE96EEA6AD890E936EA36120013
:100AE000C8C1E9FFC9C1EAFF12000FD9380EEE6E86
:100AF000040EED6E1200FD0EDB50E824126EFE0EA9
:100B0000DB50040DF35012241200FE0EEA6ADB34AF
:100B100063EF06F0DF50040DF3CFE9FFF4CFEAFFF7
:100B2000000EE926040EEA22EE6AEE6AEE6AEE6A2A
:100B3000DF2A1200DF50DAD8EA22EF6ADF50D1D87C
:100B4000EA22EF6ADF2A1200020EE66EE66AE66A21
:100B5000710EE66E0F0E51EF06F0EA22EE50EFCF67
:100B6000EAFFE96E1200E66EE6C1E9FFE7C1EAFFBF
:100B7000E62B000EE723E552E750EF6EDF0612008A
:100B8000000EE66EE66AE66EE66A1200EA22EECF34
:100B9000DEFFEDCFDDFF120034510F0B71EF06F0D9
:100BA00034510F0B76EF06F0112210C0DEFF11C09A
:100BB000DDFF1200DF50106E116A0C0E105C000E8B
:100BC00011581200F7220900F5CFDAF10A00F5CF2B
:100BD000DBF11200FE0EDBCFE6FF96DEE552E552BA
:100BE0001200160E6F6E9F0E6B6E7B0E696E1200FA
:100BF000010EE66EE66A000EE66EE66A1200D95055
:100C0000020FE96EDACFEAFFEF501200F76ADA2539
:100C1000F66EDB51F722080012003251F66EF76AC9
:100C2000D890F636F7361200CAC1E9FFCBC1EAFF09
:100C30001200040DF3CF10F0F4CF11F0000E1026C7
:100C4000040EB2DF840E8AEF06F05FD8300EEE6E2F
:100C5000040EED6E120033DF020EE1261200020ECA
:100C6000E66EE66ADECFE6FFDDCFE6FF050E51EF6A
:100C700005F00EDF8C0EEF6E1DDF840EEF6E12009E
:100C800027DFCC0EE926010E120022DFD20EE92664
:100C9000010E12000ADFEF50800B1200FDDEADEFF7
:100CA00005F0E66E04EC0CF0106E050EE15E1050DF
:100CB000120005DFE6521200FE0BEA36E96ED20E94
:100CC000E926010E1200FE0BEA36E96ECC0EE9268B
:100CD000010E12006EEC08F0106E060EE15E105070
:100CE0001200EA6AF00FE96E010E1200EA6AED0FD7
:100CF000E96E010E1200D9DEE850EF16120094DF03
:100D0000EE52080EEF6E14EF06F0020EE926000E0A
:0C0D1000EA221200CADEE850EF121200C6
:040D1C00DACFE4FF47
:100D2000E2CFDAFFE9CFE4FFEACFE4FFF6CFE4FF5A
:100D3000F7CFE4FFF5CFE4FFF3CFE4FFF4CFE4FF18
:100D4000FACFE4FF00EE00F0100EE80403E3EECF6C
:100D5000E4FFFBD700EE10F0080EE80403E3EECF4B
:100D6000E4FFFBD7E652F2A419D0F29415DAE5526B
:100D7000E5520101C55102E136EC05F0200E0101FA
:100D8000E76EC519E8AE02D0E73402D0E750C55D82
:100D900005E36D50020B02E18970897266EC00F088
:100DA000E55200EE17F0080EE80403E3E5CFEDFF8F
:100DB000FBD700EE0FF0100EE80403E3E5CFEDFFE4
:100DC000FBD7E5CFFAFFE5CFF4FFE5CFF3FFE5CFA3
:100DD000F5FFE5CFF7FFE5CFF6FFE5CFEAFFE5CF7B
:100DE000E9FFE5CFDAFF1100D8CFE4FFE0CFE4FF61
:100DF000E46EDACFE4FFE652E552E5CFDAFFE550E4
:100E0000E5CFE0FFE5CFD8FF10000101BB6BBC6B65
:100E1000BD6BBE6BE80EBB5D030EBC59000EBD5929
:100E2000000EBE5906E2BB2B000EBC23BD23BE2321
:100E3000F1D7C168926A300E936E946A806A816AB3
:100E400089808992826B8251106E116A400E105C0B
:100E5000000E115809E28251EA6A000FE96E010E94
:100E6000EA22EF6A822BEFD7806B816B16EC00F0E1
:100E700036EC05F0E66A080EE66EE9EC0BF0E5529A
:100E8000E5521D0EC86E0D0EE66E240E8BD9E66A75
:100E90006B0E88D9020EE66E370E84D9160EE66EFA
:100EA0000A0EE66E180E5ED9820ED56E75D9F28ED8
:100EB000F28AFFD768D944EC0CF0C580C5B0FED7E4
:100EC000FE0E5AD902E0020E1DD044EC0CF0C5AC67
:100ED00002D0030E17D09E96FD0E4ED902E0040EEE
:100EE00011D044EC0CF0C5AC02D0050E0BD09E9690
:100EF000FC0E42D902E0080E05D044EC0CF0C5AC63
:100F000003D0090EF36E06D09E96C584C5B4FED7F5
:100F10009E96F36AF46A3CD136D944EC0CF0C58055
:100F2000C5B0FED7FE0E28D902E0210E31D044EC28
:100F30000CF0C550400B01E0010E0101B76FB86B1A
:100F4000B96BBA6BE850B811B911BA1102E0220EB0
:100F50001FD09E96FD0E10D902E0230E19D044EC4E
:100F60000CF0C5AC02D0240E13D09E96C582C5B23B
:100F7000FED7FE0EDB28E66E70EC0BF0E5520009A2
:100F800002E0260E05D044EC0CF0C5AC04D0270ED0
:100F9000F36EF46A14D09E96C586C5B6FED7C58A90
:100FA000C588C5B8FED79E96C584C5B4FED79E96A3
:100FB0009E96C950106E116AF36E11C0F4FFE8D00E
:100FC0000501905103E0F6EC09F0FAD7780EE66ED1
:100FD000180EE66ED4EC09F0E552E552F6EF09F092
:100FE000D2D8040EE126D880000E05010055C20EAD
:100FF0000155010E0255000E03553CE300C588F56E
:1010000001C589F502C58AF503C58BF5146A1B0E67
:10101000156EB70E166E176A14C004F015C005F0F1
:10102000066E17C007F088C509F089C50AF08AC5A1
:101030000BF08BC50CF0A9EC0BF004C010F005C050
:1010400011F006C012F007C013F01006000E115A7E
:10105000125A135A10C0DFFF010E11C0DBFF020E3F
:1010600012C0DBFF030E13C0DBFFDF50AF6E010EBB
:10107000DB50B06E040EE15C02E2E16AE552E16E23
:1010800087D01200120012001200D6EF08F01200F2
:1010900026EF09F00101E80520E10101E9051DE164
:1010A000A09AF0DF6D920101E96B0101100EC36F90
:1010B0000E0EC46FC307000EC45BC351C411FAE126
:1010C0006D84080EC36F070EC46FC307000EC45BA8
:1010D000C351C411FAE16D94A08A120054D8FD0ED8
:1010E000DBCF06F0FE0EDBCF07F0050E061801E1A0
:1010F000075036E0E868061802E17F0E07182FE077
:10110000030E061801E1075028E0020E061801E15F
:10111000075021E0010E061801E107501AE0740E95
:10112000061801E1075013E0750E061801E107509B
:101130000CE0730E061801E1075005E0720E061868
:101140000FE107500DD09FDF0BD09BDF09D09ADF56
:1011500007D09EDF05D09BDF03D097DF01D094DF5F
:10116000010E16D0E66EA6DEE552E552E552F3CF4B
:1011700083F1F4CF84F11200DBCFE6FF70EC0BF0CB
:10118000E55200091200D9CFE6FFE1CFD9FF1200E6
:10119000E552E7CFD9FF1200CF0EE66E8A0EE66E5B
:0C11A000CDEF0BF0E66ED00EB2EF08F0C1
:0411AC0004013051B9
:1011B0001F0B010801E012003051600BE842E842C9
:1011C000E842E842E842010801E01200345103E03D
:1011D000340501E012003151220A33E0030A26E00F
:1011E000010A15E0210A0DE0010A01E012000101E7
:1011F000A00EDA6F050EDB6F080EDD6FDE6BDC8193
:1012000023D00101A00EDA6F050EDB6F1DD036C4AE
:10121000E2F137C4E3F10101000EDF6F050EE06F6C
:10122000E00EE46F0F0EE56FE18F12000101880EF2
:10123000DA6F050EDB6F070EDD6FDE6BC10EDC6F44
:10124000120032C49BF50101DC8F12000501886B8E
:101250004B0E896F8A6B8B6B8C6B8D6B080E8E6F50
:1012600005018F6B1A0EE66E010EE66EB1EC04F00E
:10127000E552E5521E0EE66E020EE66EB1EC04F08B
:10128000E552E55224D90501996B9A6B906B1200D7
:1012900049D97BD9050E061801E1075002E0000E7E
:1012A00014D050D905019751101804E19851111824
:1012B00001E10DD947D905019951101805E19A515D
:1012C000111802E1906B956B010E31D12BD90501FC
:1012D0008F6B9751981102E1000E05D041D9EF5064
:1012E000800B01E0010E00092DE1FC0EDBCF10F0B8
:1012F00037D9EE52EF50D880105405E231D9EE5272
:10130000FC0EEFCFDBFF8F6BFC0EDB508F5D19E225
:101310008F51EA6A080FE96E050EEA22EF50E66E79
:101320008F51E76EFD0EDBCFE9FFFE0EDBCFEAFF4C
:10133000E750E926000EEA22E552E750EF6E8F2BC8
:10134000E3D7C5D805018F51F2D0ECD8A09A05019A
:10135000905107E1F0D8FC0EDBCF95F5010E966FAA
:10136000906FA08AE4D00AD917E1C6D8F2D802E17A
:1013700011500BE0010EDBCFE9FFDB2A020EDBCFC1
:10138000EAFF01E3DB2AEF50F1E1D5D8DFCF95F595
:101390000501010E966F906FA08A030EE15C02E2D8
:1013A000E16AE552E16EC3D0E9D818E1A5D8D1D8F9
:1013B00002E111500CE0010EDBCFF6FFDB2A020E3A
:1013C000DBCFF7FF01E3DB2A0800F550F0E1B3D8EB
:1013D000DFCF95F50501966B010E906FA08A030E85
:1013E000E15C02E2E16AE552E16EA1D09BD8020E17
:1013F000E126A09A050199519A1102E1000E08D048
:1014000099C5E9FF9AC5EAFFEF50800B01E0010E94
:10141000000906E1030E905D01E1906B905102E13D
:10142000A08A4ED0020E905D09E1E66A000EE66EDB
:10143000E66A5AD80501030E906F41D090053FE14E
:10144000400E106E116A9551105C000E115803E2A7
:10145000400EDF6E02D095C5DFFFDF50955D956FC2
:10146000480E936F050E946F010EDFCFDBFF965190
:101470000BE1010EDB5012E091C5F6FF92C5F7FFBC
:101480000800F55042D8F5D7010EDB5007E091C5B2
:10149000E9FF92C5EAFFEF5038D8F6D7050195511C
:1014A00007E1400EDF5C02E1020E01D0030E906FF7
:1014B000DFCFE6FF480EE66E050EE66E15D8A08A71
:1014C000020EE15C02E2E16AE552E16E30D0400ECC
:1014D000E66E080EE66E050EE66EE66A46D8F3CFB7
:1014E00097F5F4CF98F51200010EE66E3ED8F3CFD3
:1014F00099F5F4CF9AF51200DF6A47D8DE5206C09C
:10150000DEFF07C0DDFFDD52120093C5E9FF94C581
:10151000EAFFEF6E932B000E9423912B9223010E82
:10152000DB061200D9CFE6FFE1CFD9FF1200E5526A
:10153000E7CFD9FF1200FD0EDBCF91F5FE0EDBCF1A
:1015400092F51200FB0EDBCF10F0FC0EDBCF11F09A
:101550001200DF2ADF50106E116AFF0E1018120001
:1015600097C5E9FF98C5EAFF1200020EE66EE1ECAE
:1015700004F0106E050EE15E10501200D3DF030E72
:10158000E126A09A050190511200FD0EDBCF06F076
:08159000FE0EDBCF07F0120094
:08159800120100020202010829
:1015A000D8040A00000101020001090243000201FF
:1015B00000C0FA0904000001020201000524001025
:1015C000010424020205240600010524010001078C
:1015D00005810308000209040100020A0000000757
:1015E00005020240000007058202400000040309D2
:1015F0000434034D006900630072006F00630068EB
:101600000069007000200054006500630068006EEF
:10161000006F006C006F0067007900200049006EC9
:101620000063002E001403430044004300200069BF
:10163000002D00500053004400AA15ED15F11525AA
:011640001693
:0E1642001E0EF66E000EF76E000EF86E05011D
:101650000900F550AD6F0900F550AE6F03E1AD67BD
:1016600001D03DD00900F550A86F0900F550A96FD1
:101670000900F550AA6F09000900F550E96E09004C
:10168000F550EA6E090009000900F550AB6F09003A
:10169000F550AC6F09000900F6CFAFF5F7CFB0F504
:1016A000F8CFB1F5A8C5F6FFA9C5F7FFAAC5F8FFA1
:1016B0000501AB5302E1AC5307E00900F550EE6EB3
:1016C000AB07F8E2AC07F9D7AFC5F6FFB0C5F7FF37
:1016D000B1C5F8FF0501AD07000EAE5BBFD7120024
:1016E000D9CFE6FFDACFE6FFE1CFD9FFE2CFDAFFCD
:1016F000FD0EDB50C96EC6AE02D0FF0E24D00F0E19
:10170000C61408080FE00F0EC6140B080BE0C688BD
:101710009EA6FED7C750040B03E1C750010B10E093
:10172000000E11D00F0EC614080804E00F0EC614E8
:101730000B0809E1C7B0FED744EC0CF0C5AC02D0F1
:10174000FE0E01D0000EE552E5CFDAFFE7CFD9FF5C
:02175000120085
:0E175200036A026A016A006A200EE76ED890F0
:1017600004360536063607360036013602360336AD
:101770000950005C0A5001580B5002580C50035895
:1017800009E30950005E0A50015A0B50025A0C50EE
:0A179000035A042AE72EE4D71200E2
:06179A00D9CFE6FFDACF13
:1017A000E6FFE1CFD9FFE2CFDAFFE652E652FC0EC8
:1017B000DBCFDEFFDBCFDDFF010EDB50D76EDF506E
:1017C000D66EE552E552E552E5CFDAFFE7CFD9FF15
:0217D000120005
:0E17D200D9CFE6FFDACFE6FFE1CFD9FFE2CFB5
:1017E000DAFF3F0EC716C66AC56AFD0EDB50C61289
:1017F000FC0EDB50C71293829380C68AE552E5CF78
:08180000DAFFE7CFD9FF120067
:08180800FE0EE3CFE9FFFF0E25
:10181000E3CFEAFFE9CFF3FFEACFF4FFFB0EE3509B
:1018200003E1FC0EE35009E0FB0EE30602E2FC0ECE
:0C183000E306FD0EE350EE6EF1D712004F
:04183C00000EF36E39
:1018400000EE00F0080E01D81200EA6002D0EE6A45
:0C185000FCD7F350E9601200EE6AFCD7F0
:04185C0013EE00F097
:1018600023EE00F0F86A0F9C21EC0BF003EC00F083
:0818700005EC07F0FBD71200A4
:081878006B617368696B6F6D11
:08188000612D2D2D2121210015
:081888001F0EC514FDE1C7505D
:06189000040BFAE1120056
:020000040030CA
:0100000022DD
:010001000EF0
:010002002ECF
:010003000AF2
:010005008377
:010006008178
:00000001FF
