:020000040000FA
:060000007DEF02F012008A
:020006000000F8
:060008000FEF00F01200F2
:02000E001200DE
:0600180065EF00F012008C
:02001E00DACF37
:10002000E4FFE2CFDAFFE9CFE4FFEACFE4FFF6CF67
:10003000E4FFF7CFE4FFF5CFE4FFF3CFE4FFF4CF25
:10004000E4FFFACFE4FF00EE00F0100EE80403E353
:10005000EECFE4FFFBD700EE10F0020EE80403E35E
:10006000EECFE4FFFBD7E652F2A40BD0F2940C0ED5
:10007000E66EC60EE66E24EC02F0E552E55289709B
:100080008972E55200EE11F0020EE80403E3E5CFB9
:10009000EDFFFBD700EE0FF0100EE80403E3E5CF11
:1000A000EDFFFBD7E5CFFAFFE5CFF4FFE5CFF3FF98
:1000B000E5CFF5FFE5CFF7FFE5CFF6FFE5CFEAFFA8
:1000C000E5CFE9FFE5CFDAFF1100D8CFE4FFE0CFBD
:1000D000E4FFE46EDACFE4FFE652E552E5CFDAFF63
:1000E000E550E5CFE0FFE5CFD8FF1000D9CFE6FF20
:1000F000E1CFD9FF00016C6B6D6B6E6B6F6B6A6B40
:100100006B6BD8906B5104E6E80E6A5D030E6B5979
:1001100004E26A2B000E6B23F4D7C168926A300E9A
:10012000936E946A806A816A89808992800ED56E06
:10013000680EE66EC50EE66E24EC02F0E552E5525E
:10014000F29EF29A89808992010EE66EE66A68D87C
:10015000E552E55289908982040EE66EE66A60D81F
:10016000E552E552EFD7D9CFE6FFE1CFD9FF000145
:10017000706B716BFD0EDBCF10F0FE0EDBCF11F05C
:1001800071511118E8AE02D0113404D01050705DD6
:100190001150715941E2640EE66E40EC02F0E552F6
:1001A000640EE66E40EC02F0E552640EE66E40EC42
:1001B00002F0E552640EE66E40EC02F0E552640E89
:1001C000E66E40EC02F0E552640EE66E40EC02F0A2
:1001D000E552640EE66E40EC02F0E552640EE66E07
:1001E00040EC02F0E552640EE66E40EC02F0E5529F
:1001F000640EE66E40EC02F0E552640EE66E40ECF2
:1002000002F0E552500EE66E40EC02F0E5520001BD
:10021000702B000E7123AED7E552E7CFD9FF120045
:10022000D9CFE6FFE1CFD9FF0001706B716BFD0EF6
:10023000DBCF10F0FE0EDBCF11F071511118E8AEDC
:1002400002D0113404D01050705D1150715941E248
:10025000640EE66E8BEC02F0E552640EE66E8BECFB
:1002600002F0E552640EE66E8BEC02F0E552640E8D
:10027000E66E8BEC02F0E552640EE66E8BEC02F05B
:10028000E552640EE66E8BEC02F0E552640EE66E0B
:100290008BEC02F0E552640EE66E8BEC02F0E55258
:1002A000640EE66E8BEC02F0E552640EE66E8BECAB
:1002B00002F0E552640EE66E8BEC02F0E552640E3D
:1002C000E66E8BEC02F0E5520001702B000E7123FC
:1002D000AED7E552E7CFD9FF1200D9CFE6FFE1CF85
:1002E000D9FF020EE126030E106E116AFD0EDBCF60
:1002F00008F0FE0EDBCF09F010C00DF011C00EF0BB
:10030000FEEC01F008C0DEFF09C0DDFF0001706BEC
:10031000716BDECF10F0DDCF11F0000171511118BB
:10032000E8AE02D0113404D01050705D11507159F4
:100330000CE20000000000000000000000000000CF
:100340000001702B000E7123E4D7020EE15C02E283
:0E035000E16AE552E16EE552E7CFD9FF1200F7
:02035E00060E89
:10036000F66E000EF76E000EF86E00010900F550F3
:10037000656F0900F550666F03E1656701D03DD0F8
:100380000900F550606F0900F550616F0900F550E4
:10039000626F09000900F550E96E0900F550EA6E38
:1003A000090009000900F550636F0900F550646FFA
:1003B00009000900F6CF67F0F7CF68F0F8CF69F0D1
:1003C00060C0F6FF61C0F7FF62C0F8FF0001635331
:1003D00002E1645307E00900F550EE6E6307F8E2AE
:1003E0006407F9D767C0F6FF68C0F7FF69C0F8FF78
:0C03F00000016507000E665BBFD712001D
:0403FC00006A0EAED7
:1004000007EF02F00D6C0E1EE86A0E22001E09AE08
:100410000FEF02F0086C091EE86A0922001E57EC73
:1004200002F009BE1FEF02F000AE000C086C091EBE
:10043000E86A0922046C051EE86A0522000C00BE69
:0804400016EF02F00188FF0C29
:08044800D9CFE6FFDACFE6FF91
:10045000E1CFD9FFE2CFDAFFE652E652FC0EDBCF66
:10046000DEFFDBCFDDFF010EDB50D76EDF50D66E37
:10047000E552E552E552E5CFDAFFE7CFD9FF1200AA
:10048000FF0EE350136EEF0E01D0F30EE76EE72E72
:1004900047EF02F00C0E126EE76AE72E4DEF02F006
:0E04A000122E4CEF02F0132E45EF02F0120068
:0204AE00056ADD
:1004B000046A100EE76ED890083609360436053601
:1004C0000D50045C0E50055805E30D50045E0E50AF
:0A04D000055A082AE72EF0D71200A3
:0604DA00000EF36E00EEBF
:1004E00000F0080E01D81200EA6002D0EE6AFCD7D4
:0A04F000F350E9601200EE6AFCD739
:0604FA0013EE00F023EEFA
:1005000000F0F86A019CAFEC01F007EC00F076EC2B
:0605100000F0FBD7120011
:0A051600FF0EE350E84E1200000053
:0C05200000D000D000D0E82EFAD7120066
:020000040030CA
:0100000022DD
:010001000EF0
:010002002ECF
:010003000AF2
:010005008377
:010006008178
:00000001FF
