:020000040000FA
:06000000D9EF16F012001A
:0600080066EF11F012008A
:06001800B1EF11F012002F
:0E1000000100D02D0000F300000003000000EE
:02100E00D9CF38
:10101000E6FFE1CFD9FFE652A0940F015F6B626A51
:10102000536B020EE66EE66AE66A540EE66E0F0E2B
:10103000E66EAFEC16F0106E050EE15E1050160E67
:10104000616E0F019F0E5B6F7B0E606EDF6ADF507B
:10105000106E116A0C0E105C000E115810E2DF5079
:10106000040DF3CFE9FFF4CFEAFF000EE926020EEC
:10107000EA22EE6AEE6AEE6AEE6ADF2AE8D7648C4C
:101080000F015C6B6498649C62A607D062960101B4
:10109000576B5C6B5D6B5E6BF7D70101010E706F78
:1010A000716F726B736B646BDF6A030EDF5C26E239
:1010B000EA6ADF34FE0BEA36E96E4D0EE926010ED0
:1010C000EA22EE6AED6AEA6ADF34FE0BEA36E96E7E
:1010D000470EE926010EEA22EE6AED6ADF50EA6A5F
:1010E000680FE96E010EEA22EF6ADF50EA6A6B0FC1
:1010F000E96E010EEA22EF6ADF2AD7D70101080E56
:101100004D6F020E4E6F0F01160E536F0201300E1F
:10111000026F020E036F080E016F840E006F010153
:10112000416B406BE552E552E7CFD9FF1200D9CFB2
:10113000E6FFE1CFD9FFE6520101400507E164BABD
:1011400005D0626A60806088020E406F6250040BB6
:1011500005E06050040B02E06294CDD864A202D096
:10116000A19495D06250010B09E06050010B06E09C
:101170004EDFA0840101040E406F62906250100B9C
:1011800005E06050100B02E0A1D8629862AC19D063
:1011900060AC0FD0010EE66EE66A000EE66EE66AFF
:1011A000730EE66EE66A52EC13F0106E060EE15E08
:1011B0001050629C01016E5101E06E076E5101E119
:1011C00069DB6250200B04E06050200B01E064D822
:1011D0006250020B14E06050020B11E0010EE66E4B
:1011E000E66A000EE66EE66AE6687F0EE66E52EC90
:1011F00013F0106E060EE15E10500F015F6B040ECF
:101200000101E76E4019E8AE02D0E73402D0E750A2
:10121000405D02E2A1943BD060A638D0DF6A040EA4
:10122000DF5C34E262A631D063CF65F10101655124
:10123000780BE842E842E842666F629665B508D0EE
:101240006651EA6A6B0FE96E010EEA22EF7007D071
:101250006651EA6A680FE96E010EEA22EF70665184
:1012600002E160D810D0000EE66EE66A650EE66E0A
:10127000010EE66E720EE66EE66A52EC13F0106E28
:10128000060EE15E1050DF2ACAD700D0A194E552C5
:10129000E552E7CFD9FF12000F0153A115D043C18A
:1012A000E9FF44C1EAFFEF5080080DE14DC1E9FFBD
:1012B0004EC1EAFFEF50840806E143C1E9FF44C193
:1012C000EAFF8C0EEF6E5391629A1200608462986E
:1012D00064820101010E646F000EE66EE66AE66E3E
:1012E000E66A750EE66EE66A52EC13F0106E060EB4
:1012F000E15E105012000101646B000EE66EE66ABA
:10130000E66EE66A740EE66EE66A52EC13F0106E54
:10131000060EE15E10506492609462A402D0629462
:10132000FCD71200D9CFE6FFE1CFD9FFE652010189
:101330002D0E6E6FFD0E651553E17E0E6515E840AE
:101340007F0B040DF3CF43F1F4CF44F1000E43279C
:10135000020E442343C145F144C146F1457543C1E2
:10136000E9FF44C1EAFFEF503C0BE842E8420D08B8
:1013700035E1DF6A080EDF5C23E243C1E9FF44C1C7
:10138000EAFF020EE926000EEA22EE50EFCFEAFF56
:10139000E96EEF50E66EDF50EA6A300FE96E020E3A
:1013A000EA22E552E750EF6E43C1E9FF44C1EAFF8C
:1013B000020EE926000EEA22EE2AEF22DF2ADAD711
:1013C00043C1E9FF44C1EAFF020EE926000EEA220A
:1013D000300EEE6E020EED6E0DD801D03AD805D06B
:1013E000FD0E6515040801E15AD8E552E552E7CF34
:1013F000D9FF12000101536B6F6B726B736B676BDC
:10140000546B4DC1E9FF4EC1EAFFEF9E4D754DC1D2
:10141000E9FF4EC1EAFFEF9E4D7545C1E9FF46C1A8
:10142000EAFFEF9E576B586B596B5C6B5D6B5E6BA5
:1014300093D8000EE66EE66AE66EE66A030EE66E86
:10144000E66A52EC13F0106E060EE15E10509CEF4F
:101450000DF0020E0101545D03E15FEC0EF01ED0B1
:10146000546B67511AE145C1E9FF46C1EAFFEE52EC
:10147000080EEF6E45C1E9FF46C1EAFF020EE926FC
:10148000000EEA22300EEE6E020EED6E45C1E9FF4F
:1014900046C1EAFF8C0EEF6E01D0676B1200D9CF08
:1014A000E6FFE1CFD9FFE6524DC1E9FF4EC1EAFFA9
:1014B000EF50400B01E0010EDF6E01014D75080E8B
:1014C000405D0CE132C25CFF0F015C5104E00101A0
:1014D000100E406F03D00101040E406F540528E147
:1014E0004DC1E9FF4EC1EAFF020EE926000EEA22D5
:1014F000380EEE6E020EED6E80DB020E0101535DC2
:1015000007E14DC1E9FF4EC1EAFF840EEF6E0FD037
:10151000DF5007E14DC1E9FF4EC1EAFFC80EEF6E93
:1015200006D04DC1E9FF4EC1EAFF880EEF6E0FD025
:101530005CAF0CD05F51601107E005D060C1FAFFCD
:1015400001015F51F96EFADF01015C9F546BE552B6
:10155000E552E7CFD9FF120002013051600BE8429B
:10156000E842E842E842E842000901E059D031513E
:101570000C0A55E00B0A44E00C0A36E0010A27E0A9
:101580000B0A23E0020A21E0030A1DE0080A11E029
:10159000010A0CE00F0A08E0030A01E040D0010153
:1015A000578F080E406F3CD006DA3AD0FFEC0EF0B1
:1015B00037D00101410E556F010E566F5781010E54
:1015C000586F578F2DD057DA2BD02BD829D03451C4
:1015D0000101556F566B420E5527010E5623578158
:1015E000010E586F578F1CD00101578F02013451E3
:1015F000EA6A420FE96E010EEA2232C2EFFF10D012
:10160000000EE66EE66AE66EE66A020EE66EE66AD0
:1016100052EC13F0106E060EE15E105001D000D0B7
:101620001200D9CFE6FFE1CFD9FF030EE126020178
:10163000320510E130511F0B00090CE10101578FF9
:10164000030E0201315D04E10101010E636F02D05E
:101650000101636B0201325101E012D130511F0BC5
:10166000020801E00DD134510F0B000901E108D14E
:1016700034510F0B020801E203D1200E0101405D3D
:1016800001E0FED0578F020134BF1AD034510F0B46
:10169000E96EEA6AD890E936EA36470EE926010E85
:1016A000EA22EECFDEFFEDCFDDFF34510F0BEA6A09
:1016B0006B0FE96E010EEA22020EEFCFDBFF19D0AD
:1016C00034510F0BE96EEA6AD890E936EA364D0ECE
:1016D000E926010EEA22EECFDEFFEDCFDDFF345129
:1016E0000F0BEA6A680FE96E010EEA22020EEFCFD5
:1016F000DBFFD950020FE96EDACFEAFFEF50010BA2
:1017000003E1000EDF9401D0DF8434BF10D03451E8
:101710000F0BE96EEA6AD890E936EA36470EE926F9
:10172000010EEA22DECFEEFFDDCFEDFF0FD0345108
:101730000F0BE96EEA6AD890E936EA364D0EE926D3
:10174000010EEA22DECFEEFFDDCFEDFF030E315DAD
:1017500023E1DECFE9FFDDCFEAFFEF50800B13E09E
:1017600034BF09D034510F0BEA6A6B0FE96E010EDA
:10177000EA22EF8208D034510F0BEA6A680FE96E53
:10178000010EEA22EF82840E106EDECFE9FFDDCF7C
:10179000EAFF1050EF1274D0DF74DECFE9FFDDCF27
:1017A000EAFFEF50800B1BE0DECFE9FFDDCFEAFF61
:1017B000EF9EDECFE9FFDDCFEAFFEF8C020EE66E93
:1017C000E66ADECFE6FFDDCFE6FF050EE66EE66AEF
:1017D00052EC13F0106E060EE15E105005D0DECF15
:1017E000E9FFDDCFEAFFEF8CDF74D950020FE96E1D
:1017F000DACFEAFFEF50020B0EE1DECFE9FFDDCFDB
:10180000EAFFEF50800B34E0DECFE9FFDDCFEAFFE7
:10181000EF50040B2DE1020134BF09D034510F0BFE
:10182000EA6A6B0FE96E010EEA22EF9208D034519A
:101830000F0BEA6A680FE96E010EEA22EF923B0E87
:10184000106EDECFE9FFDDCFEAFF1050EF16020E7B
:10185000E66EE66ADECFE6FFDDCFE6FF050EE66E5A
:10186000E66A52EC13F0106E060EE15E105008D0DE
:101870003B0E106EDECFE9FFDDCFEAFF1050EF1612
:10188000030EE15C02E2E16AE552E16EE552E7CF68
:10189000D9FF1200010170514DE1010E706F7151BD
:1018A00049E1010E716F020E545D0DE14DC1E9FF7A
:1018B0004EC1EAFFEE52EF6A4DC1E9FF4EC1EAFFA9
:1018C000C80EEF6E37D0540535E1676B43C1E9FFB1
:1018D00044C1EAFFEE52080EEF6E43C1E9FF44C176
:1018E000EAFF020EE926000EEA22300EEE6E020E2C
:1018F000ED6E43C1E9FF44C1EAFF840EEF6E010EB5
:10190000676F45C1E9FF46C1EAFFEE52080EEF6E70
:1019100045C1E9FF46C1EAFF020EE926000EEA22B0
:10192000300EEE6E020EED6E45C1E9FF46C1EAFFD4
:10193000800EEF6E12000101726B736B020E545D2C
:101940001AE145C1E9FF46C1EAFFEE52080EEF6E0B
:1019500045C1E9FF46C1EAFF020EE926000EEA2270
:10196000380EEE6E020EED6E45C1E9FF46C1EAFF8C
:10197000C80EEF6E1FD058510201365D010159515A
:101980000201375904E236C258F137C259F135D94C
:101990004DC1E9FF4EC1EAFF020EE926000EEA2220
:1019A000380EEE6E020EED6E4DC1E9FF4EC1EAFF3C
:1019B000C80EEF6E1200800E0201305D5BE1010186
:1019C000C00E576F02013351030A34E0010A0EE0E2
:1019D000030A03E00101576B4DD00101AE0E556FB4
:1019E0002B0E566F120E586F596B44D03251F66E53
:1019F000F76AD890F636F7366F0EF6262C0EF722D9
:101A00000900F5CF55F10A00F5CF56F1020E01019C
:101A1000F76A5525F66E5651F7220800F5CF58F1B2
:101A2000030EF76A5525F66E5651F7220800F5CFDA
:101A300059F120D0030E325D1AE23251F66EF76A88
:101A4000D890F636F736710EF6262C0EF7220900DE
:101A5000F5CF55F10A00F5CF56F155C1F6FF56C145
:101A6000F7FF0800F5500101586F596B02D00101D2
:101A7000576B00D01200D9CFE6FFE1CFD9FF020E9D
:101A8000E1260201386B396B30511F0B020A12E05C
:101A9000030A0DE0010A01E03BD00101578F02016A
:101AA00038810101630502E10201388331D001016F
:101AB000578F2ED00101578F020134BF10D03451FF
:101AC0000F0BE96EEA6AD890E936EA36470EE92646
:101AD000010EEA22EECFDEFFEDCFDDFF0FD0345155
:101AE0000F0BE96EEA6AD890E936EA364D0EE92620
:101AF000010EEA22EECFDEFFEDCFDDFFDECFE9FF04
:101B0000DDCFEAFFEF50040B02E0010E386F00D08A
:101B1000010157AF07D0380E556F020E566F57812F
:101B2000020E586F020EE15C02E2E16AE552E16EDC
:101B3000E552E7CFD9FF12006498010157BF2BD0BF
:101B40005CAF09D0020E546F735101E1F4DE010164
:101B5000716B706B1FD045C1E9FF46C1EAFFEE52C1
:101B6000080EEF6E45C1E9FF46C1EAFF020EE92605
:101B7000000EEA22300EEE6E020EED6E45C1E9FF58
:101B800046C1EAFF8C0EEF6E4DC1E9FF4EC1EAFF80
:101B9000840EEF6E31D0020130AF0DD00101010E85
:101BA000546F725101E1C7DE0101716B706B6F51AF
:101BB00001E170DE21D00101020E546F45C1E9FF41
:101BC00046C1EAFFEE52080EEF6E45C1E9FF46C17D
:101BD000EAFF020EE926000EEA22300EEE6E020E39
:101BE000ED6E45C1E9FF46C1EAFF840EEF6E716BF1
:101BF000706B6F5101E14EDE1200D9CFE6FFE1CFED
:101C0000D9FFE652080EDF6E0101585D000E5959EA
:101C10000BE258C1DFFF535103E1010E536F04D0B3
:101C2000530502E1020E536FDF50106E116A10501F
:101C3000585D586F11505959596F4DC1E9FF4EC148
:101C4000EAFFEE52DFCFEFFF380E616F020E626FD8
:101C500057B119D0DF5016E055C1F6FF56C1F7FF56
:101C6000552B000E56230800F550E66E61C1E9FFC2
:101C700062C1EAFF612B000E6223E552E750EF6E6E
:101C8000DF06E8D717D0DF5015E055C1E9FF56C190
:101C9000EAFF552B000E5623EF50E66E61C1E9FFB7
:101CA00062C1EAFF612B000E6223E552E750EF6E3E
:101CB000DF06E9D7E552E552E7CFD9FF1200D9CFC9
:101CC000E6FFE1CFD9FF020EE12643C1E9FF44C19F
:101CD000EAFFEE52EFCFDFFFDFCF10F0105001012F
:101CE0005D5D000E5E5902E25DC1DFFFDF50106EE8
:101CF000116A10505D5D5D6F11505E595E6F010E8F
:101D0000DB6ADF50F36E010EDBCFF4FFF350F45CBF
:101D100016E2010EDB50EA6A380FE96E020EEA2283
:101D2000EF50E66E5AC1E9FF5BC1EAFF5A2B000E85
:101D30005B23E552E750EF6E010EDB2AE2D7000E7F
:101D4000D8805D55000E5E5528E245C1E9FF46C1C9
:101D5000EAFFEE52080EEF6E45C1E9FF46C1EAFF09
:101D6000020EE926000EEA22380EEE6E020EED6E2D
:101D700043C1E9FF44C1EAFFEF50400B07E145C111
:101D8000E9FF46C1EAFFC80EEF6E06D045C1E9FF84
:101D900046C1EAFF880EEF6E28D045C1E9FF46C173
:101DA000EAFFEE52080EEF6E45C1E9FF46C1EAFFB9
:101DB000020EE926000EEA22300EEE6E020EED6EE5
:101DC00045C1E9FF46C1EAFF840EEF6E5F51601125
:101DD00007E005D060C1FAFF01015F51F96EFADF3B
:101DE00001015C9F6F5101E155DD020EE15C02E2F1
:101DF000E16AE552E16EE552E7CFD9FF1200D9CF93
:101E0000E6FFE1CFD9FFE6520101578F020EE66EE1
:101E1000E66AE66A540EE66E0F0EE66EAFEC16F05A
:101E2000106E050EE15E1050DF6ADF50106E116A11
:101E30000C0E105C000E115810E2DF50040DF3CFB1
:101E4000E9FFF4CFEAFF000EE926020EEA22EE6A6D
:101E5000EE6AEE6AEE6ADF2AE8D7648C010EE66E5F
:101E6000E66AE66A420EE66E010EE66EAFEC16F02A
:101E7000106E050EE15E1050649C0101080E4D6F5E
:101E8000020E4E6F000E436F020E446F43C145F1C8
:101E900044C146F132C241F1415103E1100E406F9D
:101EA00013D0010EE66EE66A410EE66E010EE66E96
:101EB000010EE66EE66A52EC13F0106E060EE15E5D
:101EC00010500101200E406FE552E552E7CFD9FFD7
:101ED0001200D9CFE6FFE1CFD9FF020EE126000EB6
:101EE000DE6E020EDD6EFD0EDB50E824126EFE0E7D
:101EF000DB50040DF3501224040DF3CF10F0F4CF97
:101F000011F0D9CFE9FFDACFEAFF1050EE261150D9
:101F1000ED22DECFE9FFDDCFEAFFEF9EFD0EDB50C5
:101F20000FE1FE0EEA6ADB34FE0BEA36E96E470E7D
:101F3000E926010EEA22DECFEEFFDDCFEDFF0ED067
:101F4000FE0EEA6ADB34FE0BEA36E96E4D0EE92638
:101F5000010EEA22DECFEEFFDDCFEDFFDECFE9FF9F
:101F6000DDCFEAFFEF9CDECFE9FFDDCFEAFF040E15
:101F7000E926000EEA22EF8C020EE15C02E2E16A41
:101F8000E552E16EE552E7CFD9FF1200D9CFE6FF67
:101F9000E1CFD9FF020EE126FD0EDBA407D0E66AF1
:101FA000FE0EDBCFE6FF95DFE552E552FD0EDBA22C
:101FB00008D0010EE66EFE0EDBCFE6FF8ADFE552AB
:101FC000E552FE0EDB50116A530F106E0F0E1122F8
:101FD00010C0DEFF11C0DDFFDECFE9FFDDCFEAFF7D
:101FE000FD0EDBCFEFFF020EE15C02E2E16AE5529B
:101FF000E16EE552E7CFD9FF1200D9CFE6FFE1CF7E
:10200000D9FF020EE126FE0EDB5020E145C1E9FFBB
:1020100046C1EAFFEE52080EEF6E45C1E9FF46C128
:10202000EAFF020EE926000EEA22300EEE6E020EE4
:10203000ED6E45C1E9FF46C1EAFF8C0EEF6E4DC162
:10204000E9FF4EC1EAFF840EEF6E3DD0FD0EDB507E
:10205000E824126EFE0EDB50040DF3501224040D22
:10206000F3CF10F0F4CF11F0000E1026020E112263
:1020700010C0DEFF11C0DDFF840E106EDECFE9FF61
:10208000DDCFEAFF1050EF12FD0EDB50E824126E98
:10209000FE0EDB50040DF3501224010F040DF3CF9C
:1020A00010F0F4CF11F0000E1026020E112210C015
:1020B000DEFF11C0DDFF840E106EDECFE9FFDDCF45
:1020C000EAFF1050EF12020EE15C02E2E16AE55213
:1020D000E16EE552E7CFD9FF1200D9CFE6FFE1CF9D
:1020E000D9FF020EE126FD0EDB500FE0FE0EEA6A7C
:1020F000DB34FE0BEA36E96E4D0EE926010EEA22CC
:10210000EECFDEFFEDCFDDFF0ED0FE0EEA6ADB3450
:10211000FE0BEA36E96E470EE926010EEA22EECF03
:10212000DEFFEDCFDDFFD9CFE9FFDACFEAFFEE50DA
:10213000ED1003E1F36AF46A49D0DECFE9FFDDCFA9
:10214000EAFF020EE926000EEA22FB0EDBCFEEFFCD
:10215000FC0EDBCFEDFFDECFE9FFDDCFEAFFEE5275
:10216000FA0EDBCFEFFF400E106EDECFE9FFDDCFC2
:10217000EAFF1050EF16880E106EDECFE9FFDDCFBC
:10218000EAFF1050EF12FD0EDB500CE0FE0EEA6A83
:10219000DB34FE0BEA36E96E4D0EE926010EEA222B
:1021A000EF740BD0FE0EEA6ADB34FE0BEA36E96E02
:1021B000470EE926010EEA22EF74DECF10F0DDCFE4
:1021C00011F010C0F3FF11C0F4FF00D0020EE15C6B
:1021D00002E2E16AE552E16EE552E7CFD9FF120073
:1021E000D9CFE6FFE1CFD9FF64A84ED0FE0EEA6A50
:1021F000DB34FE0BEA36E96E4D0EE926010EEA22CB
:10220000EE50EFCFEAFFE96E400EEE16EE6AEE6A90
:10221000EE6AFE0EEA6ADB34FE0BEA36E96E4D0E1C
:10222000E926010EEA22EE50EFCFEAFFE96EEE7CDE
:10223000FE0EEA6ADB34FE0BEA36E96E4D0EE92645
:10224000010EEA22EF74400E106EFE0EEA6ADB34D5
:10225000FE0BEA36E96E4D0EE926010EEA22EE503B
:10226000EFCFEAFFE96E1050EF16FE0EEA6ADB349C
:10227000FE0BEA36E96E4D0EE926010EEA22EE501B
:10228000EFCFEAFFE96EEF7CE552E7CFD9FF12000E
:10229000646A606A0101406B00D012000101405184
:1022A00014E1646A606A160E616E0F019F0E5B6F27
:1022B0007B0E606ED08EA284A084F28E64B602D0B3
:0C22C0006486FCD70101010E406F120083
:0422CC00DACFE4FF82
:1022D000E2CFDAFFE9CFE4FFEACFE4FFF6CFE4FF95
:1022E000F7CFE4FFF5CFE4FFF3CFE4FFF4CFE4FF53
:1022F000FACFE4FF00EE00F0100EE80403E3EECFA7
:10230000E4FFFBD700EE10F0080EE80403E3EECF85
:10231000E4FFFBD7E65297EC08F0E55200EE17F029
:10232000080EE80403E3E5CFEDFFFBD700EE0FF066
:10233000100EE80403E3E5CFEDFFFBD7E5CFFAFF8E
:10234000E5CFF4FFE5CFF3FFE5CFF5FFE5CFF7FFEE
:10235000E5CFF6FFE5CFEAFFE5CFE9FFE5CFDAFF0E
:102360001100D8CFE4FFE0CFE4FFE46EDACFE4FF62
:10237000E2CFDAFFE652E552E5CFDAFFE550E5CFEE
:10238000E0FFE5CFD8FF10007E6A7F6A9268300ECA
:10239000936E200E946E7888946A240EAC6E900E24
:1023A000AB6E710EAF6E020EB06E080EB86E00010D
:1023B000E56BE551106E116A400E105C000E11586D
:1023C00009E2E551EA6A600FE96E000EEA22EF6A5F
:1023D000E52BEFD7E26BE36BE06BE16B07EC08F00A
:1023E0000001010EE66F0101405102E14EEC11F0D7
:1023F0000001E65101E0E3D8200E0101E76E40192B
:10240000E8AE02D0E73402D0E750405D04E3645008
:10241000020B01E102D8E7D712000001F35118E1E5
:10242000400EE66EA00EE66E000EE66E28EC14F08E
:10243000E552E552E5520001E36FE351000808E27E
:10244000E66B8B728B940001010EF36F0001E46B5D
:102450000001F35112E0AC50020B0FE00001E45117
:10246000EA6AA00FE96E000EEA22EF50AD6EE42B8F
:10247000E351E45D02E10001F36B9E50200B1BE091
:102480003F0E0001E25D17E2E66B8B748B9229D858
:10249000E66E0001E251EA6A600FE96E000EEA2280
:1024A000E552E750EF6EE22BE251EA6A600FE96E07
:1024B000000EEA22EF6A0101755111E10001E251BB
:1024C00000080DE2E2C0E6FF600EE66E000EE66E6A
:1024D00089EC14F0E552E552E5520001E26B2DEF74
:1024E00015F0D9CFE6FFE1CFD9FFE652ABA205D078
:1024F000AB98AE50DF6EAB8802D0AE50DF6EDF50CF
:1025000000D0E552E552E7CFD9FF1200D9CFE6FF60
:10251000E1CFD9FF040EE126D880000E020140551C
:10252000C20E4155010E4255000E435501E23DD009
:1025300040C2C8F241C2C9F242C2CAF243C2CBF29F
:10254000146A1B0E156EB70E166E176A14C004F0CF
:1025500015C005F016C006F017C007F0C8C209F094
:10256000C9C20AF0CAC20BF0CBC20CF08BEC16F059
:1025700004C010F005C011F006C012F007C013F03F
:102580001006000E115A125A135A10C0DFFF010E26
:1025900011C0DBFF020E12C0DBFF030E13C0DBFF16
:1025A000DF50AF6E010EDB50B06E040EE15C02E254
:1025B000E16AE552E16EE552E7CFD9FF1200000172
:1025C000F451F51104E1100EF46F270EF56FF407C6
:1025D000000EF55B64A20AD0F451F51106E18B728E
:1025E0008BA202D08B8401D08B942ED0010140515C
:1025F00003E18B928B9428D0400503E18B828B847E
:1026000023D0020E405D03E18B828B941DD0040E1B
:10261000405D03E18B928B8417D0100E405D07E183
:102620000001F451F51102E18B728B940DD0200E54
:10263000405D0AE10001F451F51106E18B728BA2B5
:1026400002D08B9401D08B84120012001200120071
:102650001200A1EF13F01200F4EF13F00101630573
:1026600020E1010164051DE1A094F0DF6492010105
:10267000646B0001100EE76F0E0EE86FE707000EA7
:10268000E85BE751E811FAE16484080EE76F070E92
:10269000E86FE707000EE85BE751E811FAE16494A0
:1026A000A0841200D9CFE6FFE1CFD9FFFD0EDBCF2A
:1026B00006F0FE0EDBCF07F0050E061801E107500D
:1026C00039E0E868061802E17F0E071831E0030ED2
:1026D000061801E107502AE0020E061801E1075032
:1026E00023E0010E061801E107501CE0740E0618E5
:1026F00001E1075015E0750E061801E107500EE0E4
:10270000730E061801E1075007E0720E061801E18A
:10271000075001E010D00FD09ADF0DD096DF0BD01C
:1027200095DF09D099DF07D096DF05D092DF03D07F
:102730008FDF01D000D0010E00D0E552E7CFD9FFE6
:02274000120085
:0E274200020130511F0B010801E04CD0305154
:10275000600BE842E842E842E842E842010801E052
:1027600042D0345103E0340501E03DD03151220A1A
:1027700035E0030A28E0010A17E0210A0EE0010A09
:1027800001E031D00101850E556F010E566F080E24
:10279000586F596B5781578F26D00101850E556FA1
:1027A000010E566F578F1FD036C25DF137C25EF1F2
:1027B0000101400E5A6F020E5B6F0C0E5F6F250E0B
:1027C000606F5C8F10D00101C80E556F020E566FFE
:1027D000070E586F596BC10E576F05D032C280F18A
:1027E0000101578F00D012000201C86B4B0EC96F58
:1027F000CA6BCB6BCC6BCD6B080ECE6F0101746BCB
:102800001A0EE66E010EE66EC6EC0FF0E552E552CA
:102810001E0EE66E020EE66EC6EC0FF0E552E552B5
:10282000400EE66E480EE66E020EE66EE66A020E98
:10283000E66E6DEC10F0106E050EE15E1050F3CFF9
:102840007CF1F4CF7DF101017E6B7F6B756B120023
:10285000D9CFE6FFE1CFD9FF0101746B7C517D1127
:1028600002E1000E08D07CC1E9FF7DC1EAFFEF5014
:10287000800B01E0010E000945E1FC0EDBCF10F0FA
:102880007CC1E9FF7DC1EAFFEE52EF50D8801054C1
:1028900008E27CC1E9FF7DC1EAFFEE52FC0EEFCFFA
:1028A000DBFF746BFC0EDB50745D19E27451EA6A55
:1028B000480FE96E020EEA22EF50E66E7451E76EA1
:1028C000FD0EDBCFE9FFFE0EDBCFEAFFE750E92686
:1028D000000EEA22E552E750EF6E742BE3D7400E6C
:1028E000E66E480EE66E020EE66EE66A020EE66ED2
:1028F0006DEC10F0106E050EE15E1050F3CF7CF120
:10290000F4CF7DF10101745100D0E552E7CFD9FF3A
:102910001200D9CFE6FFE1CFD9FFA0940101755194
:102920000CE1FD0EDBCF76F1FE0EDBCF77F1FC0E76
:10293000DBCF7AF1010E7B6F756FA084E552E7CF94
:10294000D9FF1200D9CFE6FFE1CFD9FF030EE12670
:10295000A0940101755102E0A0842FD0DF6AFD0E22
:10296000DBCF06F0FE0EDBCF07F0DE5206C0DEFF47
:1029700007C0DDFFDD52DF2ADF50106E116AFF0E47
:10298000101801E1115001E10BD0010EDBCFE9FF7E
:10299000DB2A020EDBCFEAFF01E3DB2AEF50EBE19B
:1029A000FD0EDBCF76F1FE0EDBCF77F1DFCF7AF1D4
:1029B0000101010E7B6F756FA084030EE15C02E2E2
:1029C000E16AE552E16EE552E7CFD9FF1200D9CFB7
:1029D000E6FFE1CFD9FF030EE126A0940101755176
:1029E00002E0A08430D0DF6AFD0EDBCF06F0FE0EE1
:1029F000DBCF07F0DE5206C0DEFF07C0DDFFDD5291
:102A0000DF2ADF50106E116AFF0E101801E111501D
:102A100001E10CD0010EDBCFF6FFDB2A020EDBCF8B
:102A2000F7FF01E3DB2A0800F550EAE1FD0EDBCFFA
:102A300076F1FE0EDBCF77F1DFCF7AF101017B6B10
:102A4000010E756FA084030EE15C02E2E16AE552BB
:102A5000E16EE552E7CFD9FF1200D9CFE6FFE1CF13
:102A6000D9FF020EE126A09401017E517F1102E1FF
:102A7000000E08D07EC1E9FF7FC1EAFFEF50800B56
:102A800001E0010E000902E0A08487D0030E755D0D
:102A900001E1756B755102E1A0847FD0020E755D76
:102AA00016E1E66A000EE66EE66A010EE66E020EBA
:102AB000E66E6DEC10F0106E050EE15E1050F3CF77
:102AC0007EF1F4CF7FF10101030E756F65D07505BE
:102AD00063E1400E106E116A7A51105C000E1158BD
:102AE00003E2400EDF6E02D07AC1DFFFDF507A5D75
:102AF0007A6F880E786F020E796F010EDFCFDBFFE1
:102B00007B5117E1010EDB5013E076C1F6FF77C170
:102B1000F7FF0800F55078C1E9FF79C1EAFFEF6ED1
:102B2000782B000E7923762B7723010EDB06EAD76C
:102B300015D0010EDB5012E076C1E9FF77C1EAFF44
:102B4000EF5078C1E9FF79C1EAFFEF6E782B000EF4
:102B50007923762B7723010EDB06EBD77A5108E138
:102B6000400EDF5C03E1020E756F02D0030E756F3D
:102B7000DFCFE6FF880EE66E020EE66E010EE66E11
:102B8000020EE66E6DEC10F0106E050EE15E105058
:102B9000F3CF7EF1F4CF7FF1A084020EE15C02E27C
:0E2BA000E16AE552E16EE552E7CFD9FF12007F
:022BAE00120112
:102BB000000202000008D8040A000001010200011E
:102BC00009024300020100C03209040000010202B0
:102BD000010005240010010424020205240600015E
:102BE0000524010001070581030800020904010012
:102BF000020A0000000705020240000007058202E9
:102C00004000000403090434034D006900630072AE
:102C1000006F0063006800690070002000540065C8
:102C200000630068006E006F006C006F0067007941
:102C300000200049006E0063002E0034034300446E
:102C40000043002000520053002D003200330032B8
:102C500000200045006D0075006C00610074006983
:102C6000006F006E002000440065006D006F00C022
:072C70002B032C072C3B2C69
:082C7800000EF66E100EF76E5F
:102C8000000EF86E00010900F550EE6F0900F550D6
:102C9000EF6F03E1EE6701D03DD00900F550E96F19
:102CA0000900F550EA6F0900F550EB6F09000900C3
:102CB000F550E96E0900F550EA6E090009000900B7
:102CC000F550EC6F0900F550ED6F09000900F6CFE3
:102CD000F0F0F7CFF1F0F8CFF2F0E9C0F6FFEAC07C
:102CE000F7FFEBC0F8FF0001EC5302E1ED5307E002
:102CF0000900F550EE6EEC07F8E2ED07F9D7F0C0E9
:102D0000F6FFF1C0F7FFF2C0F8FF0001EE07000E7A
:062D1000EF5BBFD71200CB
:0A2D1600036A026A016A006A200ED7
:102D2000E76ED8900436053606360736003601368B
:102D3000023603360950005C0A5001580B50025805
:102D40000C50035809E30950005E0A50015A0B5019
:0E2D5000025A0C50035A042AE72EE4D7120050
:022D5E00FE0E67
:102D6000E3CFE9FFFF0EE3CFEAFFE9CFF3FFEACFBE
:102D7000F4FFFB0EE35003E1FC0EE35009E0FB0E11
:102D8000E30602E2FC0EE306FD0EE350EE6EF1D721
:022D900012002F
:0E2D9200000EF36E00EE00F0030E01D81200EA
:102DA000EA6002D0EE6AFCD7F350E9601200EE6AE6
:022DB000FCD74E
:0E2DB20011EE00F021EE00F0F86A0F9C3CECF0
:0E2DC00016F0E7EC16F0C4EC11F0FBD7120091
:022DCE001200F1
:032DD00000000000
:020000040030CA
:0100000000FF
:0100010032CC
:0100020038C5
:010003001EDE
:01000500807A
:010006008178
:0100080003F4
:00000001FF
