:020000040000fa
:080000000002040000000000f2
:020000040000fa
:04000800e80200000a
:020000040000fa
:04000c00e802000006
:020000040000fa
:04001000e802000002
:020000040000fa
:04001400e8020000fe
:020000040000fa
:04001800e8020000fa
:020000040000fa
:04001c00e8020000f6
:020000040000fa
:04002000e8020000f2
:020000040000fa
:04002400e8020000ee
:020000040000fa
:04002800e8020000ea
:020000040000fa
:04002c00e8020000e6
:020000040000fa
:04003000e8020000e2
:020000040000fa
:04003400e8020000de
:020000040000fa
:04003800e8020000da
:020000040000fa
:04003c00e8020000d6
:020000040000fa
:04004000e8020000d2
:020000040000fa
:04004400e8020000ce
:020000040000fa
:040048003209000079
:020000040000fa
:04004c00e8020000c6
:020000040000fa
:04005000e8020000c2
:020000040000fa
:04005400e8020000be
:020000040000fa
:04005800e8020000ba
:020000040000fa
:04005c00e8020000b6
:020000040000fa
:04006000e8020000b2
:020000040000fa
:04006400e8020000ae
:020000040000fa
:04006800e8020000aa
:020000040000fa
:04006c00e8020000a6
:020000040000fa
:04007000e8020000a2
:020000040000fa
:04007400e80200009e
:020000040000fa
:04007800e80200009a
:020000040000fa
:04007c00e802000096
:020000040000fa
:04008000e802000092
:020000040000fa
:04008400e80200008e
:020000040000fa
:04008800e80200008a
:020000040000fa
:04008c00e802000086
:020000040000fa
:04009000e802000082
:020000040000fa
:04009400e80200007e
:020000040000fa
:04009800e80200007a
:020000040000fa
:04009c00e802000076
:020000040000fa
:0400a000e802000072
:020000040000fa
:0400a400e80200006e
:020000040000fa
:0400a800e80200006a
:020000040000fa
:0400ac00e802000066
:020000040000fa
:0400b000e802000062
:020000040000fa
:0400b400e80200005e
:020000040000fa
:0400b800e80200005a
:020000040000fa
:0400bc00e802000056
:020000040000fa
:0400c000e802000052
:020000040000fa
:0400c400e80200004e
:020000040000fa
:0400c800e80200004a
:020000040000fa
:0400cc00e802000046
:020000040000fa
:0400d000e802000042
:020000040000fa
:0400d400e80200003e
:020000040000fa
:0400d800e80200003a
:020000040000fa
:0400dc00e802000036
:020000040000fa
:0400e000e802000032
:020000040000fa
:0400e400e80200002e
:020000040000fa
:0400e800e80200002a
:020000040000fa
:0400ec00e802000026
:020000040000fa
:0400f000e802000022
:020000040000fa
:0400f400e80200001e
:020000040000fa
:0400f800e80200001a
:020000040000fa
:0400fc00e802000016
:020000040000fa
:04010000e802000011
:020000040000fa
:04010400e80200000d
:020000040000fa
:04010800e802000009
:020000040000fa
:04010c00e802000005
:020000040000fa
:04011000e802000001
:020000040000fa
:04011400e8020000fd
:020000040000fa
:04011800e8020000f9
:020000040000fa
:04011c00e8020000f5
:020000040000fa
:04012000e8020000f1
:020000040000fa
:04012400e8020000ed
:020000040000fa
:04012800e8020000e9
:020000040000fa
:04012c00e8020000e5
:020000040000fa
:04013000e8020000e1
:020000040000fa
:04013400e8020000dd
:020000040000fa
:04013800e8020000d9
:020000040000fa
:04013c00e8020000d5
:020000040000fa
:04014000e8020000d1
:020000040000fa
:04014400e8020000cd
:020000040000fa
:04014800e8020000c9
:020000040000fa
:04014c00e8020000c5
:020000040000fa
:04015000e8020000c1
:020000040000fa
:04015400e8020000bd
:020000040000fa
:04015800e8020000b9
:020000040000fa
:04015c00e8020000b5
:020000040000fa
:04016000e8020000b1
:020000040000fa
:04016400e8020000ad
:020000040000fa
:04016800e8020000a9
:020000040000fa
:04016c00e8020000a5
:020000040000fa
:04017000e8020000a1
:020000040000fa
:04017400e80200009d
:020000040000fa
:04017800e802000099
:020000040000fa
:04017c00e802000095
:020000040000fa
:04018000e802000091
:020000040000fa
:04018400e80200008d
:020000040000fa
:04018800e802000089
:020000040000fa
:04018c00e802000085
:020000040000fa
:04019000e802000081
:020000040000fa
:04019400e80200007d
:020000040000fa
:04019800e802000079
:020000040000fa
:04019c00e802000075
:020000040000fa
:0401a000e802000071
:020000040000fa
:0401a400e80200006d
:020000040000fa
:0401a800e802000069
:020000040000fa
:0401ac00e802000065
:020000040000fa
:0401b000e802000061
:020000040000fa
:0401b400e80200005d
:020000040000fa
:0401b800e802000059
:020000040000fa
:0401bc00e802000055
:020000040000fa
:0401c000e802000051
:020000040000fa
:0401c400e80200004d
:020000040000fa
:0401c800e802000049
:020000040000fa
:0401cc00e802000045
:020000040000fa
:0401d000e802000041
:020000040000fa
:0401d400e80200003d
:020000040000fa
:0401d800e802000039
:020000040000fa
:0401dc00e802000035
:020000040000fa
:0401e000e802000031
:020000040000fa
:0401e400e80200002d
:020000040000fa
:0401e800e802000029
:020000040000fa
:0401ec00e802000025
:020000040000fa
:0401f000e802000021
:020000040000fa
:0401f400e80200001d
:020000040000fa
:0401f800e802000019
:020000040000fa
:0401fc00e802000015
:020000040000fa
:04020800e802000008
:020000040000fa
:04020c00e802000004
:020000040000fa
:04021000e802000000
:020000040000fa
:04021400e8020000fc
:020000040000fa
:04021800e8020000f8
:020000040000fa
:04021c00e8020000f4
:020000040000fa
:04022000e8020000f0
:020000040000fa
:04022400e8020000ec
:020000040000fa
:04022800e8020000e8
:020000040000fa
:04022c00e8020000e4
:020000040000fa
:04023000e8020000e0
:020000040000fa
:04023400e8020000dc
:020000040000fa
:04023800e8020000d8
:020000040000fa
:04023c00e8020000d4
:020000040000fa
:04024000e8020000d0
:020000040000fa
:04024400e8020000cc
:020000040000fa
:04024800e8020000c8
:020000040000fa
:04024c00e8020000c4
:020000040000fa
:04025000e8020000c0
:020000040000fa
:04025400e8020000bc
:020000040000fa
:04025800e8020000b8
:020000040000fa
:04025c00e8020000b4
:020000040000fa
:04026000e8020000b0
:020000040000fa
:04026400e8020000ac
:020000040000fa
:04026800e8020000a8
:020000040000fa
:04026c00e8020000a4
:020000040000fa
:04027000e8020000a0
:020000040000fa
:04027400e80200009c
:020000040000fa
:04027800e802000098
:020000040000fa
:04027c00e802000094
:020000040000fa
:04028000e802000090
:020000040000fa
:04028400e80200008c
:020000040000fa
:04028800e802000088
:020000040000fa
:04028c00e802000084
:020000040000fa
:04029000e802000080
:020000040000fa
:04029400e80200007c
:020000040000fa
:04029800e802000078
:020000040000fa
:04029c00e802000074
:020000040000fa
:0402a000e802000070
:020000040000fa
:0402a400e80200006c
:020000040000fa
:0402a800e802000068
:020000040000fa
:0402ac00e802000064
:020000040000fa
:0402b000e802000060
:020000040000fa
:0402b400e80200005c
:020000040000fa
:0402b800e802000058
:020000040000fa
:0402bc00e802000054
:020000040000fa
:0402c000e802000050
:020000040000fa
:0402c400e80200004c
:020000040000fa
:0402c800e802000048
:020000040000fa
:0402cc00e802000044
:020000040000fa
:0402d000e802000040
:020000040000fa
:0402d400e80200003c
:020000040000fa
:0402d800e802000038
:020000040000fa
:0402dc00e802000034
:020000040000fa
:0402e000e802000030
:020000040000fa
:0402e400e80200002c
:020000040000fa
:0402e800e802000028
:020000040000fa
:0402ec00e802000024
:020000040000fa
:0402f000e802000020
:020000040000fa
:0402f400e80200001c
:020000040000fa
:0402f800e802000018
:020000040000fa
:0402fc00e802000014
:020000040000fa
:04030000e80200000f
:020000040000fa
:04030400e80200000b
:020000040000fa
:04030800e802000007
:020000040000fa
:04030c00e802000003
:020000040000fa
:04031000e8020000ff
:020000040000fa
:04031400e8020000fb
:020000040000fa
:04031800e8020000f7
:020000040000fa
:04031c00e8020000f3
:020000040000fa
:04032000e8020000ef
:020000040000fa
:04032400e8020000eb
:020000040000fa
:04032800e8020000e7
:020000040000fa
:04032c00e8020000e3
:020000040000fa
:04033000e8020000df
:020000040000fa
:04033400e8020000db
:020000040000fa
:04033800e8020000d7
:020000040000fa
:04033c00e8020000d3
:020000040000fa
:04034000e8020000cf
:020000040000fa
:04034400e8020000cb
:020000040000fa
:04034800e8020000c7
:020000040000fa
:04034c00e8020000c3
:020000040000fa
:04035000e8020000bf
:020000040000fa
:04035400e8020000bb
:020000040000fa
:04035800e8020000b7
:020000040000fa
:04035c00e8020000b3
:020000040000fa
:04036000e8020000af
:020000040000fa
:04036400e8020000ab
:020000040000fa
:04036800e8020000a7
:020000040000fa
:04036c00e8020000a3
:020000040000fa
:04037000e80200009f
:020000040000fa
:04037400e80200009b
:020000040000fa
:04037800e802000097
:020000040000fa
:04037c00e802000093
:020000040000fa
:04038000e80200008f
:020000040000fa
:04038400e80200008b
:020000040000fa
:04038800e802000087
:020000040000fa
:04038c00e802000083
:020000040000fa
:04039000e80200007f
:020000040000fa
:04039400e80200007b
:020000040000fa
:04039800e802000077
:020000040000fa
:04039c00e802000073
:020000040000fa
:0403a000e80200006f
:020000040000fa
:0403a400e80200006b
:020000040000fa
:0403a800e802000067
:020000040000fa
:0403ac00e802000063
:020000040000fa
:0403b000e80200005f
:020000040000fa
:0403b400e80200005b
:020000040000fa
:0403b800e802000057
:020000040000fa
:0403bc00e802000053
:020000040000fa
:0403c000e80200004f
:020000040000fa
:0403c400e80200004b
:020000040000fa
:0403c800e802000047
:020000040000fa
:0403cc00e802000043
:020000040000fa
:0403d000e80200003f
:020000040000fa
:0403d400e80200003b
:020000040000fa
:0403d800e802000037
:020000040000fa
:0403dc00e802000033
:020000040000fa
:0403e000e80200002f
:020000040000fa
:0403e400e80200002b
:020000040000fa
:0403e800e802000027
:020000040000fa
:0403ec00e802000023
:020000040000fa
:0403f000e80200001f
:020000040000fa
:0403f400e80200001b
:020000040000fa
:0403f800e802000017
:020000040000fa
:0403fc00e802000013
:020000040000fa
:100400006f8a20000e7f22000e018800000000008d
:10041000000020000000e000020032000001200087
:10042000200288000c000700e08520000100200069
:100430000f000700000020000000e0000200320072
:100440000000020000000000ec08020000000000b4
:100450000040da000000fe00000220000000e00082
:1004600002003200002020009001880000000600f9
:10047000a1028800800078000000eb001a0037001d
:10048000e280400054a0b4009101ba00e280400034
:1004900054a0b4009102ba00e280400054a0b4001d
:1004a0000002eb00472bde00f507b200a601880032
:1004b000602ce10008003a000049eb000201e8006e
:1004c000020039003420ec0002f0a0008301e900b2
:1004d000f9ff3e00040037006128e100010032000e
:1004e0000082eb000b00070011c3ba001101ba0033
:1004f0000604e00003003a000200e000e0ff3a00da
:1005000000000600f607b200a6028800820078000c
:10051000f5ff370004d0a300e20f49001c003900aa
:10052000810278003549ba000201e8000200390072
:100530003420ec0002f0a0008301e9000f0032003b
:100540002549ba000201e800020039003420ec001d
:1005500002f0a0008301e900080032000400e0007e
:100560000600320015c9ba000201e8000200390095
:100570003420ec0002f0a0008301e9008180e80053
:1005800054a0b4000300e000e2ff3a0000000600bf
:100590009102ba00055978008301e900f7ff3200a3
:1005a000c82ade00055978008301e900f3ff320014
:1005b0000400e000f1ff320011d9ba00eeff37006d
:1005c000000000000000000000000000000000002b
:1005d0000040da000000fe000a00fa0011002000ce
:1005e000b1bf9f00c0bf9f006a8057009d020700f7
:1005f0004fb897000080fa00000006000a00fa00d9
:10060000e20f500020003e0010458000e10f500036
:1006100006003200802320004523200023232000f1
:10062000042320000000e00004003a0080222000a3
:10063000452220002322200004222000060028005a
:100640001403630003003a00060878000000280045
:10065000140a700013a8a30001003a0013a0a00020
:1006600002007800050037001388a300feff320067
:100670003102fb00840a78000000e9000000e0007d
:10068000f9ff3a000800370033002000b3bf9f0095
:10069000c0bf9f00d1bf9f00e2bf9f006a8057008c
:1006a000720207006fb99700020078000080fa001c
:1006b000000006000a00fa0051002000b1bf9f00b0
:1006c000c0bf9f006a8057006a0207005fb89700aa
:1006d0000080fa0000000600889fbe0080047800b9
:1006e000204580000000e00004003a000e000700f2
:1006f0000084eb000000e000080035002845800081
:100700000900e0000500320009004400060007006f
:100710000000e00001003d000084eb0008007800cc
:100720004f04be0000000600800078000100e000d9
:1007300003003a000000200020458800000005006a
:100740000080eb0002002000828f500002003e007b
:10075000214588000000eb000000060050088800da
:1007600000000600818320002f0007008000780031
:100770000080eb000100e0000400350081832000d0
:10078000a0002000020007004f80de0000000600ed
:10079000889fbe008a1f78000004be00c900900038
:1007a00069009000808f5000050039000900780032
:1007b000910007008080eb000000e000160035008b
:1007c000084578004900900008587800c004980057
:1007d0001900780000b8a30004003a0000a8a300a4
:1007e00007003200ea4f540005003a000900780083
:1007f000210107008080eb000000e00006003a00c5
:1008000000c0200019006000020032004900900082
:10081000e00498008a80fb00010078004f05780012
:100820004f04be0000000600889fbe008a9fbe00e5
:100830008c1f780080047800010478002f003700b6
:10084000c800900068009000808f500004003900bc
:1008500008007800680007000000e0003a0035005a
:1008600000402000180060000a003200a1002000b3
:100870000900780050000700000678000c00e00036
:1008800004003200618514000a054600cfd5de0061
:1008900004003700090078003b0007000005be0097
:1008a0000006eb0048009000680190000001510034
:1008b000cf91de008a0f51008b8f5900020031006a
:1008c0000205be000006eb000a01be0089007800a8
:1008d00022000700480090000a00400040049800f1
:1008e0000c00e0000400320008007800e20007007d
:1008f0000000e00014003a008a8444001904e0007b
:10090000cfff3a000080200018006000060032008f
:1009100008007800d8000700800078000080eb0015
:100920000100e00009003a0001c02000988060004a
:100930000000eb00050032004800900060049800c1
:100940000000eb00010037000080eb004f0678004c
:100950004f05be004f04be00000006000202be00ac
:100960008001eb000400370061f079006102520061
:10097000e0825a008301e800e00f5200e08f5a0045
:10098000f9ff3a0000000600800078000000eb004c
:10099000610ab8006101b800040341000000e800ea
:1009a000644179000204e000f9ff3a0001005300bd
:1009b000cf80de0000000600889fbe006011b800f6
:1009c0006103b8006112b8000404430085844b0041
:1009d00066427a00814f520001003a008801780097
:1009e0000201e8000404e000f5ff3a00030078008b
:1009f0004f04be0000000600889fbe008a1f7800da
:100a000000047800c8009000680190000000eb002e
:100a1000828f50003d003900180078002200290024
:100a200002016000e20f51000700320001202400a3
:100a30000000e00001003d0001202000008c70005b
:100a40000080eb0031003700020026000200600049
:100a5000820f500009003a0038009000808f50004b
:100a60000600390008007800830007008000780045
:100a70000080eb000100e00024003a001805780037
:100a800000c020000000650019003a00a804900092
:100a90006002200008004000808f540014003a00db
:100aa00000202000010020002b01070020049800f6
:100ab0000000e00005003a0029049800490498006d
:100ac0008904e80039049800080037000a60a00093
:100ad0000a0c78004004980001202000808040002b
:100ae00031049800400c9800500c98000c0007004e
:100af000280090005004980038009000600498008e
:100b000000002600180c70000000eb004f05780074
:100b10004f04be0000000600606220009100370014
:100b2000881f7800088a20001804e00003003a00bb
:100b3000f9ff070020c0b300004c78004f04780094
:100b400000000600889fbe000004780008007800be
:100b500049000700800478000004200018006000ad
:100b600002003200280090008a0007000000eb001d
:100b700020049800384090000004e0000500350093
:100b80000000fb0094fe07000000e00001003200be
:100b90008084eb00181090000000e0000800320094
:100ba000c4fe07000000e000010032008084eb007a
:100bb00018109000770007000000eb001014980058
:100bc00000082000180060000f003200618820003b
:100bd0000000eb00d10f140005003a0000004000b7
:100be00081882000008040000008eb0003003700ef
:100bf0000000e800e80f5000f6ff3a000800780017
:100c0000640007000e003700000c780000c0eb0005
:100c10003044980060022000080040002004980042
:100c20004004980050049800400c9800600498001c
:100c3000500c98007004980076004400000c980056
:100c4000090078004f04be0000000600889fbe0027
:100c500088892000f0045400480078000000e0007b
:100c600001003200b7ff0700890f5400faff3a0075
:100c70004f04be0000000600889fbe008a1f780057
:100c8000000478000800e0000d003a0068882000a9
:100c9000700544008004eb00580078000000e0007c
:100ca00004003200f4ff07000000e00001003d00f6
:100cb0008084eb008a0f5400f7ff3a0025003700cc
:100cc00000002200180060008004eb0021003200c8
:100cd000a80490000f00370009015100384090002f
:100ce0000000fb008900780044fe07000000e000df
:100cf00007003c0028009000400498006004980021
:100d0000500c98001890a0008084eb001100370070
:100d10008084440048019000828f5400eeff390027
:100d200028009000400498009800780002c020003d
:100d30000281600001003a003800900001e8a30041
:100d4000020032006004980001003700500c980047
:100d50008004eb00090078004f0578004f04be00c6
:100d600000000600010020000100e0000800320041
:100d7000010080000100e000050032008100e90070
:100d800001008800818040000200800000b17800ee
:100d9000000006000000e000320032004002be0009
:100da000e50f5200e08f5a002e0036000408a30021
:100db0002c003a00f14480000100e0000200320003
:100dc000810f50000400310021009800f044880099
:100dd0001700370082007800210190000200e00037
:100de00002003200800f5100faff39001103be00eb
:100df00086814000830f50001a003900808f510017
:100e000004003a008418430085904b0001007800ec
:100e1000070037000200e000030032000402400037
:100e2000840f51000f00390022009800a0009800a4
:100e3000a00090000100e0000a0032001001400014
:100e4000828f500007003a00c28920000009eb00a1
:100e50001001be003118410021904900a10090000e
:100e60002100980000000600889fbe008a9fbe00f7
:100e70000004be00e14480000100e00002003200f6
:100e8000010078000f003700f1448000e089200065
:100e900005003700b10f5400a18f5c002b00360015
:100ea00064804000a10090000100e000f9ff3a00da
:100eb00012003700b20f5400a28f5c0023003600ee
:100ec00064004100100178000200e000f9ff3a00e0
:100ed00011017800f1448000e0892000050037000e
:100ee000b10f5400a18f5c001800360064804000f0
:100ef000a1009000828f5000f9ff3a00ca448000a0
:100f0000db448000880f5500898f5d0001003100af
:100f10000805be000a00be00460007000000e00011
:100f200006003a00880f5500898f5d0006003200e8
:100f30008b05d1000a85d300f2ff37000a98be0066
:100f400094ff0700cbff37000000eb004f05be0009
:100f50004f04be0000000600889fbe000002be00d5
:100f600065004000e0804800000378000600a10012
:100f700081017800060178000204be008000eb00c9
:100f8000840f5400858f5c0027003600e50f540065
:100f9000e08f5c0002003e00680020000900200095
:100fa0000800be00b0ff07008000eb000000e0007a
:100fb0001d00320090007800a4ff2f00f5ff2f00e5
:100fc00031014200a1814a00880f5100898f5900e8
:100fd00003003100a10290000508780008003700e6
:100fe0000881400002087800a101900023019800c8
:100ff000100178003119140021911c008888be006e
:10100000100178000000eb000200e0000400320054
:10101000a20190000300e0000100320064004100e2
:10102000e0448800e4804000010078004f04be00e6
:10103000000006000001be008000eb000200e0009e
:101040000600340002007800a3fd0700800078004d
:10105000e18f400001003a008000eb0001007800c1
:101060000000060000c0da000000060000c0da0040
:0c1070000000060000c0da0000000600ce
:020000040000fa
:10107c000d0a0000525300003233000032430000ce
:10108c002d3e00004f4b00002e2e00002e0d0000b8
:10109c00000d00000a4100004443000020530000f2
:1010ac005441000052540000212100000d000000aa
:020000040000fa
:1010bc000008000010000000800000001008000074
:1010cc0088000000820000000100000000360800cb
:1010dc00370836000836080036083600082608009f
:1010ec0000000000000000000000000000000000f4
:1010fc0000000000000000000000000000020800da
:10110c0001015e00085f08005e085e00085e0800d2
:10111c005e084e0008000000000000000000000007
:10112c0000000000000000000000000000000000b3
:10113c0000000200080202008608870008860800ea
:10114c00860886000886080076080000000000006b
:10115c000000000000000000000000000000000083
:10116c0000000000000000001008380008600800b3
:10117c000000000000000000000000000000000063
:10118c00a008000002000000800000009808000089
:10119c0004000000820000000600000000000000b7
:1011ac009c0800000400000080000000a208000061
:1011bc00020000008200000001000000a4080000f2
:0c11cc0002000000800000003a098000d2
:020000040000fa
:1011d8000400fa00000f7800110798004627ef0076
:1011e800c0082b0040168800600820008016880080
:1011f8002135800000fc2f0000806000f000b30063
:10120800203588007136800000fc2f0000806000c7
:101218003000b3007036880080002000401188003c
:10122800008028000011880000402000101188006c
:1012380050c32000900888000000eb0045fd07001f
:10124800e083280045fd0700f084280043fd0700df
:101258000000eb000080fa00000006000000fa0021
:0c1268008500a9000080fa00004006008c
:020000040000fa
:041274000000000076
:020000040000fa
:020000040001f9
:0457f800bf7b000073
:020000040000fa
:020000040001f9
:0457fc00ff3f00006b
:00000001FF
