:020000040000fa
:080000000002040000000000f2
:020000040000fa
:100400008fdf200000bf23000001880000000000f3
:100410000c000700203f2400010020000f0007000f
:10042000000020000000e000020032000000020096
:1004300000000000ac5d0200000000000040da0097
:100440000000fe00201120000000e0000200320049
:10045000002020009001880000000600a102880012
:10046000800078000000eb001a003700e2804000b6
:1004700054a0b4009101ba00e280400054a0b4003e
:100480009102ba00e280400054a0b4000002eb00e8
:10049000472bde00f507b200a6018800602ce100c2
:1004a00008003a000049eb000201e80002003900b0
:1004b0003420ec0002f0a0008301e900f9ff3e00c7
:1004c000040037006128e100010032000082eb00e7
:1004d000040007001101ba000200e000e3ff3a0047
:1004e0000000060004d0a300e20f49001c00390000
:1004f000810278003549ba000201e80002003900a3
:100500003420ec0002f0a0008301e9000f0032006b
:100510002549ba000201e800020039003420ec004d
:1005200002f0a0008301e900080032000400e000ae
:100530000600320015c9ba000201e80002003900c5
:100540003420ec0002f0a0008301e9008180e80083
:1005500054a0b4000300e000e2ff3a0000000600ef
:100560009102ba00055978008301e900f7ff3200d3
:10057000c82ade00055978008301e900f3ff320044
:100580000400e000f1ff320011d9ba00eeff37009d
:10059000103e040000000000ce3c040000000000fb
:1005a000889fbe0080047800c0dd82000000e0006b
:1005b00003003a00100007000000e0000a003500c8
:1005c000c0dd82000900e00002003a00000478006b
:1005d000060037000004780009004000060007000c
:1005e0000000e00001003d000084eb0008007800fe
:1005f0004f04be0000000600800078000000e0000c
:1006000004003a0000a12000c0dd8a00010178004a
:10061000060037000081eb0080df2000808f500053
:1006200002003e00c1dd8a000001eb0002007800fc
:1006300000000600889fbe008a9fbe008c9fbe00ff
:100640000001780001bb25001100e0000b003a001a
:1006500040bb250080dd8a0060dd8a00a1dd8a00c4
:1006600071dd8a00214090000004a000a0409800a5
:10067000614090000004a000e0409800e7004100c5
:10068000c208de00c20cdd0073dd82000da1200077
:1006900080df20000d05500022002000811f78001f
:1006a000110009000205d80000067800cf0078008c
:1006b000c308dd00e485400065dd82008000eb00ba
:1006c00007a1200006bb250001003700800178004b
:1006d000234090000008a300020032000a00370007
:1006e0009409780013027800244090000008a300c9
:1006f000fbff320009814100820f520002003900e5
:10070000830f51004300310013007800830f500025
:10071000eeff3e00870f500002003900860f5000a8
:10072000eaff3900858f51004b003a00860f5000d8
:1007300049003a008100e800e18f5000e3ff3600f5
:100740008c8f5400040036008a8f54000200310060
:100750000b04780012003700614ab8006151b900fb
:10076000b0ff2f00010020000200500083805800dd
:10077000800f5200818f5a00020035000904780072
:10078000070037000d805400b2df20000200400057
:10079000110009000a80d8000a80b900000478001e
:1007a000080078007eff070080017800e10f40001c
:1007b0002900320062dd82000009780064004100f7
:1007c000a2409000808f5100020032000104a0007e
:1007d000010037000104a1002141980088804100f8
:1007e000e48050008109780061dd8a0002bb2500a9
:1007f00082087800214090000004a000a0409800ea
:10080000234090000004a100a041980082017800dc
:10081000a9ff370072dd8a00820f520008003600ff
:1008200012007800a1ba2500a24290008548780005
:1008300040dd8a00040978000040eb002041980068
:1008400082097800234090000004a000a041980095
:1008500064804100010037000000eb004f06be003d
:100860004f05be004f04be000000060064005000ab
:1008700070dd8a00a04090000104a1002140980092
:1008800000000600889fbe008a9fbe000005780019
:10089000e401500013001000c285de0023409000e8
:1008a0000008a3000400320073dd8a00234090009a
:1008b0000004a100a0419800010078005dff07003e
:1008c000000478000000e000170032008a0f50009a
:1008d0001500320060b8970008005000c284de00a6
:1008e000898f550001003600890578004259dd00e6
:1008f0008a00780008007800290007008a0f540059
:10090000090031004248dd00000044008a0f500019
:10091000050036000a0050000000440042dd82005d
:1009200053dd82000288be00080078004f05be003b
:100930004f04be00000006000400fa00e0bf9f0064
:10094000e4815700812978000002eb000f00370096
:100950006fb89700904078007fb8970010407800fb
:100960000402e80080cf5000040032008180fb00c8
:100970000080fb0000805000070037006fb8970030
:100980000000e800e0bf9f009309e800820f5200da
:10099000efff3a000000eb000080fa0000000600c4
:1009a0008001eb000200370061f079008301e8006c
:0c09b000828f5100fcff3a00000006009e
:020000040000fa
:020000040005f5
:0457f400ffff0000b3
:020000040000fa
:020000040005f5
:0457f800ae1b0000e4
:020000040000fa
:020000040005f5
:0457fc007f3f0000eb
:020000040000fa
:10000800846300008463000084630000846300004c
:10001800846300008463000084630000846300003c
:10002800846300008463000084630000846300002c
:10003800846300008463000084630000846300001c
:10004800846300008463000084630000846300000c
:1000580084630000846300008463000084630000fc
:1000680084630000846300008463000084630000ec
:1000780084630000846300008463000084630000dc
:1000880084630000846300008463000084630000cc
:1000980084630000846300008463000084630000bc
:1000a80084630000846300008463000084630000ac
:1000b800846300008463000084630000846300009c
:1000c800846300008463000084630000846300008c
:1000d800846300008463000084630000846300007c
:1000e800846300008463000084630000846300006c
:1000f800846300008463000084630000846300005c
:10010800846300008463000084630000846300004b
:10011800846300008463000084630000846300003b
:10012800846300008463000084630000846300002b
:10013800846300008463000084630000846300001b
:10014800846300008463000084630000846300000b
:1001580084630000846300008463000084630000fb
:1001680084630000846300008463000084630000eb
:100178008463000084630000f228000084630000a8
:1001880084630000846300008463000084630000cb
:1001980084630000846300008463000084630000bb
:1001a80084630000846300008463000084630000ab
:1001b800846300008463000084630000846300009b
:1001c800846300008463000084630000846300008b
:1001d800846300008463000084630000846300007b
:1001e800846300008463000084630000846300006b
:0801f800846300008463000031
:020000040000fa
:10020800846300008463000084630000846300004a
:10021800846300008463000084630000846300003a
:10022800846300008463000084630000846300002a
:10023800846300008463000084630000846300001a
:10024800846300008463000084630000846300000a
:1002580084630000846300008463000084630000fa
:1002680084630000846300008463000084630000ea
:1002780084630000846300008463000084630000da
:1002880084630000846300008463000084630000ca
:1002980084630000846300008463000084630000ba
:1002a80084630000846300008463000084630000aa
:1002b800846300008463000084630000846300009a
:1002c800846300008463000084630000846300008a
:1002d800846300008463000084630000846300007a
:1002e800846300008463000084630000846300006a
:1002f800846300008463000084630000846300005a
:100308008463000084630000846300008463000049
:100318008463000084630000846300008463000039
:100328008463000084630000846300008463000029
:100338008463000084630000846300008463000019
:100348008463000084630000846300008463000009
:1003580084630000846300008463000084630000f9
:1003680084630000846300008463000084630000e9
:100378008463000084630000f228000084630000a6
:1003880084630000846300008463000084630000c9
:1003980084630000846300008463000084630000b9
:1003a80084630000846300008463000084630000a9
:1003b8008463000084630000846300008463000099
:1003c8008463000084630000846300008463000089
:1003d8008463000084630000846300008463000079
:1003e8008463000084630000846300008463000069
:0803f80084630000846300002f
:020000040000fa
:1009bc005374000061720000742000005253000058
:1009cc003233000032430000204d00006f6e0000f7
:1009dc00697400006f720000004300004443000083
:1009ec00204400006576000069630000652000006b
:1009fc0041740000746100006368000065640000cd
:100a0c002100000043440000432000004465000026
:100a1c0076690000636500002044000065740000e6
:100a2c006163000068650000642100000044000060
:100a3c006576000069630000652000004e6f0000c1
:100a4c007420000053750000707000006f7200007d
:100a5c00746500006400000048750000622000000e
:100a6c0069730000206e00006f740000207300009a
:100a7c0075700000706f00007274000065640000f7
:100a8c00004f0000766500007220000043750000e6
:100a9c0072720000656e0000742000004572000048
:100aac00726f00007221000020000000456e0000f3
:100abc00756d00006572000061740000696f0000c4
:100acc006e20000045720000726f00007221000061
:100adc0021200000004900006e69000074690000cc
:100aec00616c0000697a000065200000457200000e
:100afc00726f0000727200002121000020000000c3
:100b0c004f750000742000006f660000204d00003f
:100b1c00656d00006f7200007920000045720000c6
:100b2c00726f000072210000005500006e7300000f
:100b3c007065000063690000666900006564000070
:100b4c0020450000727200006f720000212000002e
:100b5c0020000000415000004920000044650000c6
:100b6c00747400006163000068650000642100007b
:100b7c002020000020200000202000000052000057
:100b8c006573000065740000204400006576000069
:100b9c006963000065210000202000002020000077
:100bac0020200000200000002d2d00002d20000032
:100bbc005265000063650000697600006520000046
:100bcc004461000074610000202d00002d2d0000f8
:040bdc000000000015
:020000040000fa
:100be0000600fa002047980031479800d18e200077
:100bf000914078002e40900080cf500003003200da
:100c00006000200020079800140037003e4090004c
:100c1000a9090700000f78001e00e0000d00320057
:100c20001e017800a2409000f0cdb30000c060002b
:100c3000204198001e017800a2409000f0cbb30044
:100c400000c06000204198000000eb0020079800e1
:100c50000200370040012000200798002e0090007d
:100c60000080fa00000006000200fa00004f780041
:100c7000f8c8bf000080fb004600de006140600055
:100c80000080fb000080fa00000006000400fa006b
:100c9000004f78001047800001f020000100600044
:100ca0000000e00003003a00100320001007980045
:100cb0001d0037001147800000f020008080600098
:100cc00000402000808f50000b003a001047800049
:100cd000010f200001006000f00f500003003a00f7
:100ce000a0032000100798000f0037000003200029
:100cf000100798000c0037001147800000f020001a
:100d00008080600000502000808f500004003a0076
:100d1000eec8bf000080fb001007980002003700fb
:100d200020032000100798001e0090000080fa00a9
:100d3000000006000600fa00008fbe00b0478000e9
:100d40000000e0000d003a002002200039fe0700fc
:100d5000b0478800b04780000000e00003003a0080
:100d60000000eb002007980012003700b147800018
:100d70000000eb0080087800010037005f0c0700de
:100d8000b0478000004788000000eb001047880053
:100d90000080eb00e04788000040eb00ece8b70083
:100da0000040eb00ede8b700fa08a80010002000b2
:100db000200798002e0090000080fa000000060036
:100dc0001600fa006047980071479800024f98009b
:100dd000530798006407980075079800060f98005d
:100de00027579800d18e2000914078006e409000e7
:100df00080cf50000300320060002000200f9800d8
:100e00009a0037001147800000f0200080806000c9
:100e100000402000808f50000300320011002000ad
:100e2000210f980091003700b047800030409000bb
:100e3000624060000004e00003003a00000120006e
:100e4000200f9800890037000e489000eb4f5000ab
:100e500042003a00a14780001107980003003700c4
:100e60001e00900090007800110798001e0090006e
:100e70000000e000060032001e009000604090007c
:100e80008080fb006e009000808f5000f4ff3a00dd
:100e90001e0090000000e000040032001e009000e0
:100ea000200090000000e00003003a003000200025
:100eb000200f98006d0037001e0090002000900069
:100ec000a0009000210798000b0037002e00900032
:100ed00030409000624060000004e00003003a00ef
:100ee00030002000200f9800600037002e00900096
:100ef00090007800210798002e0090000000e0008c
:100f0000f2ff3a001e00900090009000010f780060
:100f1000020037001e007800100f78001e00e0006d
:100f2000060032001e007800204090008080fb0008
:100f30005e009000808f5000f6ff3a001e00e00037
:100f400003003a0030002000200f980047003700cf
:100f50001e0090009e007800210098000e4890002e
:100f6000e14f50000a003a005e0090000000e000ef
:100f700007003a007e4090000080fb0060004000c7
:100f8000e20f500002003e006e009000460f070086
:100f9000b0468000fe40900001487800b0468000d6
:100fa0000000e8008e48900001487800b0468000bc
:100fb0008080e8005e00900080487800b0468000a5
:100fc000e30040005e0090004800de0080487800aa
:100fd000b0468000e40040006e0090008048780039
:100fe000b0468000e50040006e0090004800de0042
:100ff00080487800b0468000e60040007e00900007
:1010000080487800b0468000e70040007e009000f5
:101010004800de0080487800b04780008ef89700d6
:10102000115898002e5090000004e00007003a008c
:10103000b1468000b04780007e0290008e0990008b
:1010400082002000140c070006003700b146800023
:10105000b04780007e0290008e0990008200200040
:10106000cb0b07000000eb00200f98002e0890002b
:101070000080fa00000006000c00fa0020479800eb
:1010800031479800220798003407980045079800d8
:10109000d18e2000914078002e40900080cf5000eb
:1010a0000300320060002000500798003f00370026
:1010b0001147800000f02000808060000040200088
:1010c000808f50000300320010002000500798006d
:1010d000360037003e40900077080700000f780088
:1010e0001e00e0002f0032001e007800d0089000a3
:1010f00000302000008060000000e00003003a00a3
:101100008001200050079800280037001e0078005a
:10111000205890000004e00003003500500120003a
:1011200050079800210037001e00780020409000f2
:101130000042b2000004e000030032001001200071
:1011400050079800190037001e00780020409000da
:101150000044b2000004e00003003200200120003f
:1011600050079800110037001e00780030409000b2
:10117000624060000004e00003003a00000120002b
:1011800050079800090037003e019000ae00900023
:101190001e007800090c07000000eb0050079800c3
:1011a0000200370040012000500798005e009000c8
:1011b0000080fa00000006000400fa00004f7800ea
:1011c000edc8bf009e4f50000300320060002000b9
:1011d000100798000c0037001047800001f0200035
:1011e000010060000000e00003003a003000200031
:1011f00010079800040037000000eb00104788003b
:101200000000eb00100798001e0090000080fa001c
:10121000000006000400fa00004f7800edc8bf008f
:101220009e4f50000300320060002000100798001d
:101230000c0037001147800000412000808f5000d3
:10124000030032003000200010079800050037002e
:10125000104780000000e800104788000000eb0005
:10126000100798001e0090000080fa0000000600a1
:101270000400fa00004f780011479800edc8bf0045
:101280009e4f5000030032006000200010079800bd
:10129000180037001147800000f0200080806000b7
:1012a00000402000808f500003003200100020001a
:1012b000100798000f003700990f07000000e000aa
:1012c00003003200200020001007980009003700ba
:1012d0001e409000eae8b700b047800080c0eb00f5
:1012e0001158980000332000104788000000eb00e0
:1012f000100798001e0090000080fa000000060011
:101300000a00fa0020479800314798002207980009
:1013100033079800d18e2000914078002e40900035
:1013200080cf50000300320060002000400798008a
:10133000190037003e409000df070700000f7800db
:101340001e00e000120032002e009000614060009c
:1013500061406000614060001e01780061406000f3
:10136000c501dd00b2409000f0cdb30000c06000c8
:1013700003407000304198001e007800be009000cd
:10138000011098000000eb004007980002003700b1
:1013900041012000410798004e0090000080fa00b3
:1013a000000006000200fa000000eb004024880064
:1013b000edc8bf000004e0000d0032000040eb006b
:1013c000004f7800edc8bf00240020000500200079
:1013d0000e017800a1062000cd2a0700edc8bf004d
:1013e00013002000d28e200011072000090c0700f6
:1013f0006000b8004ffe07000080fa000000060001
:101400000400fa00004f7800edc8bf009e4f500066
:101410000300320060002000100798000c00370025
:101420001147800000402000808f500003003200f0
:101430003000200010079800050037009404a90030
:1014400000412000104788000000eb0010079800c2
:101450001e0090000080fa00000006002800fa003c
:10146000881f7800e0478000e10f40000400320050
:10147000e0478000104788000080eb00e0478800cc
:101480001047800001f02000010060003017980034
:1014900000202000be109000808f50005e023200bd
:1014a00000202000be109000808f500008003e00f9
:1014b0003e1090000000e0001200320000102000fa
:1014c000be109000808f5000b4003200b905370084
:1014d00000402000be109000808f5000290532008f
:1014e00000502000be109000808f50006205320036
:1014f00000302000be109000808f5000a402320007
:10150000ac05370011478000000f2000808060008c
:10151000211798002e109000f00f50006a00320042
:1015200000022000ae109000808f5000700032004a
:101530002e1090000000e000010032009d053700f1
:1015400098ff0700b14780000000eb00800878009a
:10155000b14780000000eb0090009800b147800088
:10156000314090000024a000b0409800b1478000b6
:10157000314090000014a000b0409800b2478000b5
:10158000b240900000c2b30000c07000304198002b
:10159000b1478000800c200080109800b147800087
:1015a00000042000c0009800b24780006000b8002e
:1015b0000009980011099800b14780000040eb0035
:1015c000a0589800b14780000040eb008058980078
:1015d000b2478000d2089000f0cf2f00008060005a
:1015e00050099800b147800000c0eb009058980067
:1015f00030c0b300dce8b7000040eb00eae8b70019
:101600000040eb00ebe8b7000040eb00ece8b7006f
:101610000000eb00c04788000000eb00a0478800f6
:101620000000eb00204788000000eb0060248800e9
:10163000f00f20005024880011248000c0082000f2
:101640000080600010248800d0072000002488005b
:101650000000eb0080248800f00f20007024880038
:1016600000a020004800de00c02488008000200088
:10167000a0248800a0002000a02488008000200072
:10168000a0248800000320003024880020002000cf
:10169000302588000000eb00402588000000eb00aa
:1016a000b0248800aae4a900a00420000025880036
:1016b0001147800000ff20000080600070004000a3
:1016c000104788003b053700fac8bf006140600042
:1016d0000004e000370532001147800000ff2000c1
:1016e000008060007000400010478800310537001e
:1016f000e60047000040eb0080487800e600470025
:1017000020c3b300904098006601470024002000e9
:10171000050020009106200000c0eb00fc29070016
:101720000000e00019003200100020004024880072
:1017300071048000f0fb2f000080600070048800be
:1017400071068000f00f2f00008060007006880096
:101750007106800000602000008070007006880024
:10176000f10480000004200000807000f004880074
:101770001147800000ff20000080600070004000e2
:10178000104788008cc4a8000a053700fa08a90091
:101790000001200010478800060537001047800030
:1017a000010f2000010060001017980000022000c7
:1017b0009e109000808f5000b00032000002200088
:1017c0009e109000808f500007003e001e10900079
:1017d0000000e0000d0032009e109000f08f5000dd
:1017e00029003200f3043700000320009e1090000f
:1017f000808f500028013200000420009e109000cd
:10180000808f50007d013200ea04370010478000cd
:101810006f006000001798000e109000e10f50005c
:10182000e40432008e109000e18f50000400390073
:101830000e109000e20f50000d003200dd04370062
:1018400010002000502488008c04a800b00f200055
:10185000f0468800000420000024880082c4a8000c
:10186000104780000000e80010478800d1043700ce
:101870001147800000ff20000080600070004000e1
:1018800010478800cb043700104780006f006000cd
:10189000700f9800fe089000e28f50006200320046
:1018a0007e089000e20f500004003e00fe08900009
:1018b0000100e00008003200be0437007e089000fe
:1018c000e30f5000bb043200fe089000e48f50008c
:1018d00060003200b7043700b04680000000e0002e
:1018e00004003200b0468000e0fb07000000eb007f
:1018f000b0468800800020004efb0700b0468800fc
:10190000b04680000000e00005003a0030c3b3009c
:10191000eee8b7000050200010478800a50437000b
:101920000040eb00eae8b7000040eb00ebe8b7004e
:101930000000eb00c047880030c0b300dbe8b70010
:10194000d0002000502588000000eb0060258800b2
:101950000000eb00702588000000eb008025880067
:101960000000eb00902588000000eb00a025880017
:101970000000eb00b02588000000eb00c0258800c7
:101980000000eb00d02588000000eb00e025880077
:101990000000eb00f02588000000eb000026880026
:1019a0000000eb00102688000000eb0020268800d5
:1019b0000000eb00302688000000eb004026880085
:1019c000414920009140780000c8b30000c0600089
:1019d0000004e00006003a00f808a80000c8b300c0
:1019e000ece8b70000082000b0248800aae4a800b2
:1019f0009424a8009424a900f888a900f8a8a900b4
:101a00009484a80030032000f046880000042000e1
:101a10000024880082c4a800104780000000e8006d
:101a200010478800630437009484a9009404a80038
:101a3000b0002000f0468800000420000024880048
:101a400082c4a800104780000000e800104788000a
:101a500058043700f000200060248800f00f2000b8
:101a6000802488001147800000ff20000080600073
:101a700070004000104788004e0437001047800077
:101a80006f006000600f98006e089000e10f50003a
:101a900039003200ee089000e18f50000400390058
:101aa0006e089000e20f50004d00320041043700f4
:101ab000904980000000e00004003200904980005e
:101ac0006afb07000000eb0090498800b1468000e7
:101ad00000c8b30080487800b04680008000e8006d
:101ae00060c0b30080487800b04680008080e80085
:101af0000040eb0080487800b0468000e3004000e2
:101b000010c0b30080487800b0468000e400400078
:101b10000040eb0080487800b0468000e5004000bf
:101b20000040eb0080487800b0468000e6004000ae
:101b300080c0b30080487800b0468000e7004000d5
:101b40000040eb0080487800b0468000b14680003d
:101b5000b5478000840020008001780082002000ca
:101b6000050078000a090700104780000000e8001f
:101b7000104788000f043700b047800030409000c5
:101b8000624060000004e0000a043200b0478000b8
:101b900030409000614060000004e0000e00320020
:101ba000b04680006400400010407800e94f5000cb
:101bb00005003a0050c3b300eee8b7000050200023
:101bc00010478800fb033700104780000000e80042
:101bd00010478800f7033700cd040700f5033700ee
:101be000b0468000104078000080fb0091fa0700aa
:101bf00090498800904980000000e00005003a000c
:101c000030c3b300eee8b700005020001047880052
:101c1000e803370091498000b0468000104078000a
:101c200080487800b1478000b04680007040900046
:101c30000080fb00c0009800b04680000bfb07004e
:101c40000000eb00b0468800b047800040009000e4
:101c500078fa0700b0468800b04680000000e00037
:101c600005003a0030c3b300eee8b7000050200092
:101c700010478800cf03370030c0b300dbe8b7005f
:101c80001147800000ff20000080600070004000cd
:101c900010478800c7033700104780006f006000be
:101ca000500f9800de089000e18f50003b0032009a
:101cb0005e089000e10f500004003900de0890003b
:101cc000e28f500045003200ba033700e4c8bf007d
:101cd000704060000004e000b6033a00b1468000a6
:101ce00000c8b30080487800b04680008000e8005b
:101cf00060c0b30080487800b04680008080e80073
:101d00000040eb0080487800b0468000e3004000cf
:101d100010c0b30080487800b0468000e400400066
:101d20000040eb0080487800b0468000e5004000ad
:101d30000040eb0080487800b0468000e60040009c
:101d4000904980001040780080487800b0468000bc
:101d5000e70040000040eb00804878009049800098
:101d6000104078000080fb0091498000b54680005b
:101d7000b6478000000278008101780082002000d0
:101d80008500780006007800810807001047800071
:101d90000000e8001047880086033700b047800045
:101da00030409000624060000004e0008103320097
:101db000b047800030409000614060000004e000c7
:101dc00004003200104780000000e800104788003f
:101dd000780337004e0407007603370030c0b300a5
:101de000dbe8b7001147800000ff200000806000a2
:101df00070004000104788006e033700a8040700f9
:101e00001147800000f02000008060000010b0004a
:101e1000104788006703370010478000010f20003b
:101e2000010060000000e0000100320061033700a3
:101e3000104780006f006000400f98004e0890002f
:101e4000e10f500032003200ce089000e18f5000c8
:101e5000040039004e089000e20f50003c003200b0
:101e60005403370010c0b300ede8b700b14680005e
:101e70000040eb0080487800b04680008000e80019
:101e800050c0b30080487800b04680008080e800f1
:101e9000edc8bf0080487800b0468000e3004000f5
:101ea0000040eb0080487800b0468000e40040002d
:101eb0000040eb0080487800b0468000e50040001c
:101ec0000040eb0080487800b0468000e60040000b
:101ed0000040eb0080487800b0468000e7004000fa
:101ee0000040eb0080487800b1468000b047800099
:101ef0000002eb008001eb00820020006608070072
:101f0000104780000000e8001047880029033700d0
:101f1000b047800030409000624060000004e00064
:101f200024033200b04780003040900061406000e0
:101f30000004e00004003200104780000000e800c8
:101f4000104788001b033700f1030700190337000f
:101f5000f8c8bf00614060000080fb004700dd0062
:101f600080407800edc8bf0000c07000ece8b7000a
:101f700030c0b300dbe8b7001147800000f020005c
:101f8000008060000010b00010478800090337008f
:101f900010478000010f200001006000300f980002
:101fa00000022000be089000808f5000c800320060
:101fb00000022000be089000808f500007003e0005
:101fc0003e0890000000e0000d003200be089000c6
:101fd000f08f500026003200f60237000003200088
:101fe000be089000808f50002501320000042000c0
:101ff000be089000808f5000d0013200ed02370003
:102000009049800010509000dae8b7000f003700c8
:1020100090478000100090001007980090478000c3
:102020001000780011fa0700914780000000eb00d3
:1020300080087800904780000cfa07000000eb0051
:10204000904788001e0090009047880090478000cd
:102050000000e000eeff3a001147800000ff200082
:10206000008060007000400010478800d1023700f7
:10207000104780006f006000200f98002e0890002d
:10208000e10f500033003200ae089000e18f5000a5
:10209000040039002e089000e20f50003d0032008d
:1020a000c4023700b146800000c8b3008048780001
:1020b000b04680008000e80060c0b300804878002f
:1020c000b04680008080e800dac8bf000040e90028
:1020d00080487800b0468000e300400020c0b30094
:1020e00080487800b0468000e40040000040eb00eb
:1020f00080487800b0468000e50040000040eb00da
:1021000080487800b0468000e600400080c0b30000
:1021100080487800b0468000e70040000040eb00b7
:1021200080487800b0468000b1468000b547800006
:1021300084002000800178008200200005007800e3
:1021400093070700104780000000e8001047880050
:1021500098023700b0478000304090006240600035
:102160000004e00093023200b0478000304090004d
:10217000614060000004e00004003200104780006d
:102180000000e800104788008a023700600307005b
:10219000880237006000200026f907001007980029
:1021a0001e0090000000e00005003a0030c3b300bc
:1021b000eee8b70000502000104788007d0237008d
:1021c0001e049000b046800063004000104078007c
:1021d0000080fb00c800dd00b04680000080e80001
:1021e000104078000080fb000080400011f90700db
:1021f000000c7800180078000000e00009003a00a8
:102200001e00900099f907000000eb0010079800ed
:1022100030c3b300eee8b70000502000104788003c
:10222000640237001e009000100078000001780062
:10223000b046800063004000104078000080fb0042
:10224000c800dd00b04680000080e8001040780043
:102250000080fb0080814000f00f20008080610042
:1022600022409000604060000140700020419800d2
:10227000c818de00324090006040600001407000ed
:10228000304198009e009000904780009000980098
:102290001e009000904788001e00900010007800fb
:1022a000804988009e009000dac8bf00c0409800b6
:1022b00030c0b300dbe8b7001147800000ff20000a
:1022c000008060007000400010478800390237002d
:1022d000104780006f006000100f98009e0890006b
:1022e000e18f5000450032001e089000e10f5000c1
:1022f000040039009e089000e28f50004f00320029
:102300002c023700b146800000c8b3008048780036
:10231000b04680008000e80060c0b30080487800cc
:10232000b04680008080e800dac8bf000040e900c5
:1023300080487800b0468000e300400020c0b30031
:1023400080487800b0468000e40040000040eb0088
:1023500080487800b0468000e50040000040eb0077
:1023600080487800b0468000e6004000904780003a
:10237000100078000080e800104078008048780065
:10238000b0468000e70040009047800010007800d1
:10239000630040001040780080487800904780003b
:1023a0001000780080007800214090000081fb0040
:1023b000314090000080fb004800dd00020070000a
:1023c000800078009047800010007800b5468000bb
:1023d000b64780000102780080017800820020006a
:1023e0008500780006007800e906070010478000a5
:1023f0000000e80010478800ee013700b047800079
:1024000030409000624060000004e000e9013200ca
:10241000b047800030409000614060000004e00060
:1024200004003200104780000000e80010478800d8
:10243000e0013700b6020700de01370030c0b3000c
:10244000dbe8b700dac8bf000040e900dae8b7000f
:10245000dac8bf000004e0000300320000312000b1
:1024600010478800d30137001147800000ff20008b
:10247000008060007000400010478800cd013700e8
:10248000104780006f006000000f98000e08900059
:10249000e10f50004a0032008e089000e18f50009a
:1024a000070039000e089000e20f50008100320052
:1024b0008e089000e38f50008e003200bd0137007f
:1024c00054060700eac8bf000004e00011003a000b
:1024d00090478000c04688000a003700c046800050
:1024e0001000780080498800060807000000e0001e
:1024f0001f003a0047060700c04680001000900009
:10250000c0468800c04680000000e000f3ff3a00ab
:102510001700370090478000c0468800030037004e
:10252000c046800010009000c0468800c046800071
:102530000000e00005003200c0468000c04090006e
:10254000eac8bf0080cf5000f5ff3a00c0468000c7
:102550001000780080498800ea0707000000e000ca
:1025600003003a002b0607000000eb00c04688007d
:10257000f8c8bf00644060000004e0000c003200b6
:10258000c04680000000e00005003a0040c3b300f0
:10259000eee8b700005020001047880085013700a2
:1025a000104780000000e8001047880081013700d4
:1025b000104780000000e800104788007d013700c8
:1025c000f8c8bf00644060000004e00033003a0037
:1025d000f848a800b14680000040eb008048780031
:1025e000b04680008000e80030c0b300804878002a
:1025f000f8c8bf00684060000004e0000500320039
:10260000b04680008080e80030c0b3008048780089
:1026100004003700b04680008080e80040c0b3006e
:1026200080487800b0468000e30040000040eb00a6
:1026300080487800b0468000e40040000040eb0095
:1026400080487800b0468000e50040000040eb0084
:1026500080487800b0468000e60040000040eb0073
:1026600080487800b0468000e70040000040eb0062
:1026700080487800b1468000b04780000002eb003f
:102680008001eb00820020008306070010478000d5
:102690000000e8001047880046013700114780001d
:1026a00000ff20000080600070004000104788009c
:1026b00040013700b0478000304090006240600029
:1026c0000004e0003b013200b04780003040900041
:1026d000614060000004e000040032001047800008
:1026e0000000e800104788003201370008020700a8
:1026f0003001370030c0b300dbe8b700c0468000cf
:102700000000e00005003a0040c3b300eee8b70067
:1027100000502000104788002601370030c0b30069
:10272000dbe8b7001147800000ff20000080600058
:1027300070004000104788001e01370010478000dd
:102740006f006000700798007e009000e10f50005d
:1027500033003200fe009000e18f50000700390086
:102760007e009000e20f50003d003200fe0090001d
:10277000e38f5000400032000e013700b146800068
:102780000040eb0080487800b04680008000e80000
:1027900090c0b30080487800b04680008080e80098
:1027a000eac8bf0080487800b0468000e3004000df
:1027b0000040eb0080487800b0468000e400400014
:1027c0000040eb0080487800b0468000e500400003
:1027d0000040eb0080487800b0468000e6004000f2
:1027e0000040eb0080487800b0468000e7004000e1
:1027f0000040eb0080487800b1468000b047800080
:102800000002eb008001eb0082002000220607009e
:10281000104780000000e80010478800e5003700fe
:10282000b047800030409000624060000004e0004b
:10283000e0003200b047800030409000614060000e
:102840000004e00004003200104780000000e800af
:1028500010478800d7003700ad010700d5003700ca
:1028600030c0b300dbe8b700104780000000e8008c
:1028700010478800cf0037001147800000f020008b
:10288000008060000010b00010478800f8c8bf004a
:102890000044b2000004e00018003200efc8bf009e
:1028a000004f78001e80fb006a00b90080007800ad
:1028b000e08f200000804000100278001e80fb00a6
:1028c0006a00b900e6004000e08f20000080400070
:1028d0001001be00edc8bf009e407800040001005a
:1028e0000000e000b3003a0090c3b300eee8b70088
:1028f0000050200010478800ae003700a14780003c
:10290000210798001b0037002e009000f040900037
:10291000014f78001e80fb006a00b900800078003b
:10292000e08f200000804000100278001e80fb0035
:102930006a00b900e6004000e08f200000804000ff
:102940001001be00edc8bf009e40780004000100e9
:102950000000e00004003a0090c3b300eee8b700c6
:1029600000502000104788002e0090009000780052
:10297000210798002e0090000000e000e2ff3a00de
:102980008c00370011478000000f2000808060001d
:10299000610798006e0090000000e00085003200a2
:1029a000ee009000f08f50000100320081003700ef
:1029b000104780006f006000500798005e00900094
:1029c000e20f50007b003200de009000e28f5000ea
:1029d00007003e005e0090000000e000750032003d
:1029e000de009000e18f50000b00320071003700d4
:1029f0005e009000e40f50006e003200de00900098
:102a0000e48f50000e0039005e009000e50f50008a
:102a100016003200670037009444a80050012000df
:102a2000f0468800000420000024880082c4a8002a
:102a3000104780000000e800104788005d00370064
:102a40009444a9009404a800b0002000f046880037
:102a5000000420000024880082c4a80010478000e1
:102a60000000e800104788005200370000402000b6
:102a7000104788004f00370010478000010f2000ea
:102a8000010060000000e000010032004900370052
:102a900080002000a02488000000eb006024880053
:102aa000f00f20005024880011248000c00820006e
:102ab0000080600010248800d007200000248800d7
:102ac0000000eb0080248800f00f200070248800b4
:102ad0008c04a800eec8bf000080fb0040079800ef
:102ae00040032000ce009000808f5000180032007c
:102af00040032000ce009000808f500008003c0072
:102b00004e009000e70f5000140032003003200008
:102b1000ce009000808f5000160032001800370061
:102b200050032000ce009000808f5000050032003e
:102b300090032000ce009000808f50000a003200e9
:102b40000f00370050c6b300004f78000e0037006a
:102b5000c0c6b300004f78000b003700d0c6b300ea
:102b6000004f780008003700e0c6b300004f78003f
:102b700005003700f0c6b300004f780002003700b0
:102b800000c7b300004f78009e80fb00edc8bf0077
:102b90001400200005002000028f2000dc24070024
:102ba0001147800000ff200000806000700040009e
:102bb000104788004f0478000080fa0000000600eb
:102bc0000400fa002047980031479800d18e200079
:102bd000914078002e40900080cf50000e003a00c7
:102be0003e409000b4010700000f78001e00e00096
:102bf000090032001e017800a240900000c8b30016
:102c000000c07000204198009e0078003140900084
:102c10000014a000b04098000080fa0000000600f8
:102c20000c00fa004047980051479800320798007e
:102c300043079800d18e2000914078004e409000cc
:102c400080cf500009003200be00900060c0b30089
:102c5000804878004e0190006000b8000089be00f6
:102c60001000200050079800380037005e409000a8
:102c700091010700100798001e0090000000e0007e
:102c80002d0032001e009000304090000080fb00bc
:102c90000000d10061406000004f78001e009000ed
:102ca00030409000614060000004e0000900320004
:102cb000be0090000040eb00804878001e009000ad
:102cc00090089000000890004e0190000089be001e
:102cd000160037001e009000204090000042b20015
:102ce0000004e00004003200be00900010c1b300f8
:102cf000804878000d0037001e00900020409000b2
:102d00000044b2000004e000050032001e00900004
:102d1000c05890003e009000014878000300370042
:102d2000be00900090c1b300804878001e80fb0078
:102d30005007980005003700be00900040c1b30066
:102d40008048780010002000500798005e00900036
:102d50000080fa00000006000600fa00000f78006c
:102d600021479800324798002e409000e14f4000e4
:102d700012003a003e4090000004e0000f003a00cc
:102d8000800620009e0f100005003a0085f907001c
:102d9000fa08a9000000eb0020079800090037009e
:102da000b00620009e0f100004003a00fa08a800a8
:102db0000000eb00200798000200370030002000e0
:102dc000200798002e0090000080fa000000060006
:102dd0000c00fa002047980031479800220798001d
:102de0003407980045079800d18e20009140780064
:102df0002e40900080cf5000030032006000200081
:102e0000500798003f0037001147800000f0200075
:102e10008080600000402000808f5000030032005e
:102e20001000200050079800360037003e40900008
:102e300021010700000f78001e00e0002f00320083
:102e40001e007800d0089000003020000080600054
:102e50000000e00003003a008001200050079800c5
:102e6000280037001e007800205890000004e00081
:102e700003003d005001200050079800210037005a
:102e80001e007800204090000042b2000004e000e4
:102e9000030032001001200050079800190037008d
:102ea0001e007800204090000044b2000004e000c2
:102eb0000300320020012000500798001100370065
:102ec0001e00780030409000624060000004e00086
:102ed00003003a0000012000500798000900370065
:102ee0003e019000ae0090001e007800fe04070036
:102ef0000000eb005007980002003700400120005e
:102f0000500798005e0090000080fa000000060064
:102f10000000fa0002478000a2409000f0cbb3000e
:102f200000c060002041980002478000a24090004d
:102f3000f0cdb30000c0600020419800dbc8bf00a6
:102f40000040e900dbe8b700dbc8bf000004e00098
:102f5000050032001047800001ff2f0001006000d3
:102f6000104788000d003700dcc8bf000040e900b2
:102f7000dce8b700dcc8bf000004e000030032005a
:102f800000112000104788000400370070c0b30013
:102f9000eee8b70000502000104788000080fa00db
:102fa000000006000a00fa00204798003147980008
:102fb00042479800330798000000eb00000f7800ac
:102fc0002f0037001e0078004300dd00e6004000bf
:102fd0002091200000804000100078000000d10007
:102fe00061406000e14f500024003a001e0078006c
:102ff000c300dd0020912000008040009040780058
:103000002e40900080cf50001c003a001e00780037
:10301000c300dd002091200000804000904090001f
:103020003e40900080cf500014003a001e0078000f
:103030004300dd008080e8002091200000804000f7
:10304000904078004e40900080cf50000b003a0036
:103050001e0078004300dd00e400400020912000c5
:1030600000804000904090003e00900001487800b1
:103070001000200040079800060037001e0fe800ef
:10308000100020009e0f1000ceff34000000eb0067
:10309000400798004e0090000080fa0000000600f3
:1030a0000600fa0090498000000f78000000eb0055
:1030b00010079800f8c8a900770037001e0090009c
:1030c0004300dd00e6004000209120000080400029
:1030d000100078000000d100614060000004e000b2
:1030e0001e0032001e009000c300dd002091200071
:1030f00000804000904078001e0078004040900022
:1031000080cf500042003a001e009000c300dd0056
:103110002091200000804000904090001e00780028
:103120005040900080cf500039003a001e009000bf
:103130004300dd008080e8002091200000804000f6
:10314000904078001e0078006040900080cf5000d2
:103150002f003a00f8c8a8002d0037001e0090008c
:10316000c300dd0020912000008040009001780025
:103170009e007800014890000081fb0011489000fb
:103180000080fb004800dd0002007000808f5100cd
:103190000f003a001e0090004300dd008080e80030
:1031a0002091200000804000900178009e0078006f
:1031b000214890000081fb00314890000080fb0016
:1031c0004800dd0002007000808f51000f003200c7
:1031d0001e009000c300dd00209120000080400010
:1031e00010007800e10f400009003a001e00900036
:1031f0004300dd008080e800209120000080400036
:1032000010007800e10f400001003a00f8c8a80063
:10321000f8c8bf000044b2000004e0001b00320008
:103220001e0090004300dd00e400400020912000db
:103230000080400010409000efe8b7001e009000b2
:103240004300dd00e60040002091200000804000a7
:10325000100078004200de00614060000004e000e1
:10326000070032001e0090004300dd00e400400033
:10327000209120000080400010407800eae8b7006c
:103280001000200020079800080037001e00900062
:103290000000e800100798001e009000e10f5000a9
:1032a00086ff36000000eb00200798002e009000fb
:1032b0000080fa00000006000800fa00404798006d
:1032c0004e4090000004e00003003a00b047800048
:1032d0003007980020003700a1478000010f7800d8
:1032e000190037001e007800200090000000e00068
:1032f000130032001e00780020009000a000900013
:10330000110798000b0037001e009000a058900095
:103310004e40900080cf500003003a001e00900005
:10332000300798000c0037001e00900090007800d5
:10333000110798001e0090000000e000f2ff3a0024
:103340001e007800100f78001e00e000e5ff3a0034
:103350000000eb00300798003e0090000080fa006b
:10336000000006001600fa000000eb00000f7800d5
:1033700010478000e4c8bf00704060000004e00017
:1033800014023a00e4c8bf00614060000004e0009d
:1033900010013a000040eb00100207000000e000be
:1033a0000b01320000478000005890008080fb0035
:1033b000000f200080806000210f98000002200094
:1033c000ae089000808f50005000320000032000b3
:1033d000ae089000808f50009f0032002e089000b1
:1033e000f00f500001003200ee003700004780006f
:1033f000005890000080fb006f006000100f9800e4
:103400009e089000e18f50001b0032001e089000c3
:10341000e10f500004003c009e0890000100e00015
:1034200008003200360037001e089000e20f5000fe
:10343000230032009e089000ef8f500028003200d9
:103440002f00370002478000b240900070cfb300d9
:1034500000c0600030419800d0c0b3006f06070084
:103460000047800020589000d1c0b30041060700fb
:10347000e408a800d7013700024780000047800019
:103480009008900000089000500198006101980099
:1034900001478000314090000034a000b040980007
:1034a00090c0b3005d0607000047800020589000e0
:1034b00091c0b3002f060700e408a800c50137003b
:1034c000014780000040eb008058980001478000d1
:1034d000314090000014a000b0409800b3003700c5
:1034e000014780000040eb008058980001478000b1
:1034f000314090000014a000b0409800ab003700ad
:1035000010002000000f7800a8003700004780005e
:10351000005890000080fb006f006000000f9800d2
:103520000e089000e20f5000260032008e08900036
:10353000e28f500007003c000e0890000000e00001
:103540000b0032008e089000e18f50001500320011
:103550003e0037000e089000e30f50002b003200b1
:103560008e089000ef8f5000300032003700370097
:1035700002478000b240900070cfb30000c06000ee
:1035800030419800d0c0b3002406070000478000f7
:1035900020589000d1c0b300f6050700e408a80049
:1035a0008c01370090c0b3001c0607000047800064
:1035b0002058900091c0b300ee050700e408a80071
:1035c0008401370002478000004780009008900087
:1035d00000089000500198006101980001478000a8
:1035e000314090000034a000b040980010c0b300fb
:1035f0000a060700004780002058900011c0b30061
:10360000dc050700e408a8007201370001478000cc
:103610000040eb0080589800014780003140900046
:103620000014a000b04098006000370001478000ff
:103630000040eb0080589800014780003140900026
:103640000014a000b040980058003700100020007f
:10365000000f7800550037000047800000589000a8
:103660000080fb006f006000700798007e009000f3
:10367000e20f500026003200fe009000e28f500062
:1036800007003c007e0090000000e0000b003200cc
:10369000fe009000e18f5000150032003e00370020
:1036a0007e009000e30f50002b003200fe009000df
:1036b000ef8f5000300032003700370002478000a3
:1036c000b240900070cfb30000c06000304198005d
:1036d000d0c0b300d10507000047800020589000fb
:1036e000d1c0b300a3050700e408a80039013700e2
:1036f00010c0b300c90507000047800020589000a3
:1037000011c0b3009b050700e408a8003101370091
:103710000247800000478000900890000008900059
:1037200050019800610198000147800031409000ed
:103730000034a000b040980090c0b300b705070067
:10374000004780002058900091c0b3008905070011
:10375000e408a8001f013700014780000040eb008b
:103760008058980001478000314090000014a0006c
:10377000b04098000d003700014780000040eb008a
:103780008058980001478000314090000014a0004c
:10379000b04098000500370010002000000f7800ae
:1037a0000200370010002000000f78001e00e0002b
:1037b00007003200014780000040eb00805898006d
:1037c00001478000314090000014a000b0409800f4
:1037d000e408a800e4c8bf00624060000004e00004
:1037e00081003a0030c0b300fc0007000000e00098
:1037f0007c00320000478000005890008080fb0071
:10380000000f200080806000610798000004200005
:10381000ee009000808f500005003200000520006f
:10382000ee009000808f50003200320062003700be
:1038300000478000005890000080fb006f0060008f
:10384000500798005e009000e10f50001600320013
:10385000de009000ef8f50001b0032005e009000f1
:103860000000e000010032001f0037000047800028
:10387000300090000000e00051003a000147800055
:103880000047800020009000b000980090c0b30076
:1038900062050700004780002058900091c0b300e7
:1038a00034050700cb003700014780000040eb00e3
:1038b0008058980001478000314090000014a0001b
:1038c000b04098003e003700014780000040eb0008
:1038d0008058980001478000314090000014a000fb
:1038e000b04098003600370010002000000f78002c
:1038f0003300370000478000005890000080fb0034
:103900006f00600040079800ce009000e18f5000eb
:10391000160032004e009000ef0f50001b003200e6
:10392000ce0090000100e000010032001f003700cf
:1039300000478000300090000000e00020003a00c6
:10394000014780000047800020009000b0009800f0
:1039500010c0b300310507000047800020589000d8
:1039600011c0b300030507009a003700014780002b
:103970000040eb00805898000147800031409000e3
:103980000014a000b04098000d00370001478000ef
:103990000040eb00805898000147800031409000c3
:1039a0000014a000b040980005003700100020006f
:1039b000000f78000200370010002000000f780090
:1039c0001e00e000070032000147800031409000f7
:1039d0000014a000b0409800014780000040eb00b8
:1039e00080589800e428a800e4c8bf006840600040
:1039f0000004e00077003a0020c0b3007700070021
:103a00000000e0006c003200004780000058900089
:103a10008080fb00000f200080806000310798004c
:103a200000082000be009000808f5000050032008a
:103a300000092000be009000808f50002a00320054
:103a40005200370000478000005890000080fb00c3
:103a50006f006000200798002e009000e10f5000da
:103a60000e003200ae009000ef8f500013003200c5
:103a70002e0090000000e000010032001700370027
:103a800090c0b300e5040700004780002058900074
:103a900091c0b300b70407004e0037000147800013
:103aa0000040eb00805898000147800031409000b2
:103ab0000014a000b0409800360037000147800095
:103ac0000040eb0080589800014780003140900092
:103ad0000014a000b04098002e0037001000200015
:103ae000000f78002b00370000478000005890003e
:103af0000080fb006f006000100798009e0090009f
:103b0000e18f50000e0032001e009000ef0f5000b9
:103b1000130032009e0090000100e000010032001e
:103b20001700370010c0b300bc0407000047800036
:103b30002058900011c0b3008e0407002500370004
:103b4000014780000040eb0080589800014780004a
:103b5000314090000014a000b04098000d003700e4
:103b6000014780000040eb0080589800014780002a
:103b7000314090000014a000b040980005003700cc
:103b800010002000000f7800020037001000200015
:103b9000000f78001e00e00007003200014780009f
:103ba0000040eb00805898000147800031409000b1
:103bb0000014a000b0409800e7c8bf000004e00077
:103bc000030032000040eb00e6e8b70086ff370054
:103bd000e468a8000080fa00000006000a00fa006d
:103be00040479800b0478000500890004800de0031
:103bf000634060008080fb004e4090000080fb002e
:103c0000808f50000a003a00b0478000304090009a
:103c1000624060000004e00005003a00b047800008
:103c20000047880010002000400798007600370009
:103c30000040eb00e7e8b7000000eb001007980039
:103c4000a1478000010f78001e00e0006a003200ea
:103c50001e007800200090000000e00066003200a6
:103c60001e00780020009000a0009000110798002e
:103c7000610037001e0090000000e0004f0032009d
:103c80001e009000500890004800de006340600075
:103c90008080fb004e4090000080fb00808f500031
:103ca00043003a004e4090000080fb00300798002f
:103cb0003e009000e20f500024003200be00900051
:103cc000e38f50000e0032003e0090000000e00044
:103cd00001003200360037001e0090003040900096
:103ce000624060000004e00031003a001e009000d5
:103cf000004788001100200041079800420037006b
:103d00001e00900030409000624060000004e0001f
:103d1000090032001e009000300090000000e0001a
:103d200023003a001e009000a00090001e009000aa
:103d3000310098001e0037001e00900000478800e8
:103d400010002000400798002f0037001e00900050
:103d500030409000624060000004e00014003a002f
:103d60001e00900030409000704060000004e000b1
:103d70000f003a00e7c8bf000040e800e7e8b700de
:103d8000718e200091407800e6c8bf0080cf5000bf
:103d900007003600e7c8bf00e6e8b7001e00900045
:103da00000478800110020004107980016003700e6
:103db0001e00900090007800110798001e009000ef
:103dc0000000e0000c003a001e007800100f7800a0
:103dd0001e00e000080032001e0078002000900065
:103de0000000e000040032001e0078002000900077
:103df000a0009000110798001e00e0009dff3a000f
:103e00000000eb00400798004e0090000080fa0090
:103e1000000006000600fa0031003700a0478000cd
:103e2000900078002107980023003700a047800009
:103e300010009000900078001107980010003700e3
:103e4000a04780001000900020009000100f780024
:103e5000a0478000100090002000900083f207002f
:103e6000a0478000900090000000eb00a0009800a8
:103e7000a0478000100090009e007800210098006c
:103e8000a047800010009000200090000000e0009b
:103e9000ebff3a00a04780001000900073f207008b
:103ea000a14780000000eb0090009800a047800030
:103eb0009e00900011009800a04780001000900024
:103ec0000000e000d9ff3a00a047800067f2070039
:103ed0000000eb00a04788002e009000a04788005b
:103ee000a04780000000e000ccff3a00b04780000f
:103ef000004788000080fa00000006000200fa0077
:103f00000f0037009047800010009000000f7800ed
:103f1000904780001000780054f20700914780001d
:103f20000000eb0080087800904780004ff2070007
:103f30000000eb00904788001e0078009047880042
:103f4000904780000000e000eeff3a0090498000ba
:103f50000000e000040032009049800043f20700b6
:103f60000000eb0090498800b04680000000e000af
:103f700004003200b04680003cf207000000eb0075
:103f8000b0468800a3ff07000080fa00000006008a
:103f90000a00fa00000f7800110798002207980025
:103fa00033079800440798001e017800a240900053
:103fb000f0cdb30000c06000204198001e017800e1
:103fc000a2409000f0cbb30000c0600020419800f8
:103fd0009e007800214090000074a100a04098004d
:103fe0001e017800b2409000e0cfb30000c0600036
:103ff000304198001e017800a240900000ceb3002e
:1040000000c06000204198001e017800b24090007e
:10401000f0ceb30000c06000304198001e00780070
:10402000be009000310898001e0178006000b800c2
:1040300000099800110998004e009000010020002e
:104040001e01780050019800610198009e007800e0
:104050000000eb00f00898001e0078009e00900021
:10406000210898001e007800ae00900071009800b2
:104070009e00780000c2b300805898001e017800ae
:10408000b2409000d0cfb30000c060003041980033
:104090000080fa00000006000a00fa00000f780015
:1040a00011079800220798003307980044079800ea
:1040b0001e017800a2409000f0cdb30000c0600067
:1040c000204198001e017800a2409000f0cbb30080
:1040d00000c06000204198009e00780021409000c0
:1040e0000074a100a04098001e017800b24090002a
:1040f000e0cfb30000c06000304198001e0178009e
:10410000a240900000ceb30000c0600020419800a3
:104110001e017800b2409000f0ceb30000c06000f5
:10412000304198001e007800be00900031089800d1
:104130001e0178006000b80000099800110998007d
:104140004e009000010020001e01780050019800f0
:10415000610198009e0078000000eb00f0089800d4
:104160001e0078009e009000210898001e00780034
:10417000ae009000710098004e0090000000e0003a
:1041800004003a009e00780000c1b30080589800f7
:10419000030037009e00780000c3b30080589800e9
:1041a0001e017800b2409000d0cfb30000c0600084
:1041b000304198000080fa00000006000600fa0076
:1041c000000f780011079800220798009e007800e1
:1041d000214090000074a100a04098001e017800ca
:1041e000b2409000e0cfb30000c0600030419800c2
:1041f0001e017800a240900000ceb30000c0600015
:10420000204198001e017800b2409000f0ceb3002b
:1042100000c06000304198001e0078009e009000b1
:10422000310898001e0178006000b800000998006d
:10423000110998002e009000010020001e01780056
:1042400050019800610198009e0078000000eb008a
:10425000f00898001e007800d00890000030200080
:104260008080600000302000808f500004003a0001
:104270009e00780000c4b3008058980013003700f7
:104280001e007800d0089000003020008080600080
:1042900000102000808f500009003a009e00780036
:1042a00000c6b300805898001e00780030089000c7
:1042b000800078000040eb00904098000300370039
:1042c0009e00780000c8b300805898001e01780056
:1042d000b2409000d0cfb30000c0600030419800e1
:1042e0000080fa00000006000600fa00000f7800c7
:1042f00011079800220798009e0078002140900046
:104300000074a100a04098001e017800b240900007
:10431000e0cfb30000c06000304198001e0178007b
:10432000a240900000ceb30000c060002041980081
:104330001e017800b2409000f0ceb30000c06000d3
:10434000304198001e0078009e00900031089800cf
:104350001e0178006000b80000099800110998005b
:104360002e009000010020001e01780050019800ee
:10437000610198009e0078000000eb00f0089800b2
:104380001e007800d008900000302000808060007f
:1043900000302000808f500004003a009e0078001a
:1043a00000c5b30080589800130037001e00780045
:1043b000d0089000003020008080600000102000b5
:1043c000808f500009003a009e00780000c7b300bb
:1043d000805898001e007800300890008000780017
:1043e0000040eb0090409800030037009e007800ea
:1043f00000c9b300805898001e017800b2409000b8
:10440000d0cfb30000c06000304198000080fa00b7
:10441000000006000c00fa002047980021079800d1
:1044200032079800430798002e009000500798002c
:1044300020072000de009000808f50000500320031
:10444000f0ff2700de009000808f50000100320056
:10445000140037003e00900010489000e14f4000eb
:10446000260032003e009000104890000080fb00c3
:104470006a00b9008080e800e08f200000804000e2
:10448000900178004e009000010020000002be0064
:104490003e019000ae0090002e409000030001000d
:1044a00016003700a0478000000f78001100370089
:1044b0001e007800704090000080fb006a00b90088
:1044c0008080e800e08f20000080400090017800ac
:1044d0004e009000010020000002be003e0190004e
:1044e000ae0090002e409000030001001e007800f6
:1044f000100f78001e00e000edff3a000080fa0087
:10450000000006002400fa000040eb00504f980025
:104510000000eb00300f98000000eb0050079800ff
:1045200080498000000f78000040eb00404f980069
:104530000040eb00704f9800a147800011079800e1
:10454000f828a900f848a8001e00780090407800dc
:10455000315f98001e0fe8001e0078009040780040
:10456000515f98001e0fe8001e0078001040780090
:104570000080fb00000f98001e0fe8001e0078006e
:10458000104078000080fb004800dd0080007800cb
:104590000e08900001004000000f98001e0fe80078
:1045a0001e00780090407800115f98001e0fe80010
:1045b0001e00780090407800614f98001e0fe800c0
:1045c0001e0fe8001e0fe8001e00780090407800e3
:1045d000015f9800000220000e0040008e589000fd
:1045e00011409800010220008e8040000040eb0046
:1045f00080487800020220000e01410024002000c3
:10460000050020009106200000c0eb00401e0700be
:104610000000e00004003a0080c2b300eee8b700fa
:1046200010002000300f98003e5890008080fb0062
:104630005e00900001004000500798008149800012
:104640005e009000008f40004a0137001e00780095
:1046500090407800315f98001e0fe8001e0078003f
:1046600090407800515f98001e0fe8005e5890005f
:10467000e94f500012003a00f828a8001e00780008
:1046800010407800ebe8b700ebc8bf000080fb00eb
:104690000000d100610060000004a2000004e000fe
:1046a00006003a00f8c8bf00684060000004e0005f
:1046b00002003200f848a90001003700f868a9009c
:1046c0005e589000e44f5000090032003e589000c0
:1046d0008080fb005e0090000100400050079800c1
:1046e000814980005e009000008f4000210137006a
:1046f0001e00780090407800415f98001e0fe8008f
:104700001e00780090407800615f98001e0fe8005e
:104710001e00780090407800215f98001e0fe8008e
:104720001e00780090407800415798001e0fe80066
:104730001e00780090407800315798001e0fe80066
:104740001e00780090407800215798001e0fe80066
:10475000f8c8bf000044b2000004e00003003200cb
:10476000efc8bf00705f9800110037007f0047005e
:10477000800178002e519000be5090004e50900065
:1047800008fa07000000e00009003a003e589000d7
:104790008080fb005e009000010040005007980000
:1047a000814980005e009000008f4000f1003700da
:1047b0001e00900030079800030037003e00900074
:1047c00090007800310798003e0090000000e00063
:1047d000050032003e009000e04090004e589000ee
:1047e00080cf5000f5ff3a003e0090000000e0004e
:1047f00019003a00800020008eef07003007980073
:104800003e0090000000e00002003a00100020008e
:10481000300f98003e009000ce5890006140980004
:10482000fe5890003e00900071409800be0090003d
:104830000000eb0090009800be0090000000eb002c
:10484000a00098003e0090009e00900001087800b3
:104850003e009000100798003e0890000000e00025
:1048600008003a006000200072ef0700200798005f
:104870002e0090000000e00002003a00100020002e
:10488000300f98003e0890000000e000b3003a00ae
:104890003e009000900090002e00900001087800eb
:1048a0002e009000ee58900021409800ae0090003d
:1048b0000000eb00a00098003e009000ae009000c9
:1048c000110098006e5890000004e00003003a00c8
:1048d0003e009000ae009000210098003e589000ed
:1048e0008080fb005e0090000100400050079800af
:1048f000814980005e009000008f40000040eb0086
:10490000504f98008a0037001e00780090407800d1
:10491000315f98001e0fe8001e007800904078007c
:10492000515f98001e0fe8005e589000e54f500060
:10493000090032003e5890008080fb005e0090002d
:104940000100400050079800814980005e009000ff
:10495000008f4000760037002002200035ef07006e
:10496000400798004e0090000000e00002003a006e
:1049700010002000300f98001e0078009040780052
:104980004e009000215898001e0fe8001e0078008d
:10499000904078004e009000315898001e0fe800bb
:1049a0001e007800104078008080fb004e009000d0
:1049b000410098001e0fe8004e009000c0009000db
:1049c0001e007800104078000080fb004800dd00e9
:1049d000808040004e009000410098001e0fe800cb
:1049e0001e007800104078008080fb004e00900090
:1049f000210098001e0fe800ce0090000000eb00a0
:104a000090009800ce009000314090000024a0005b
:104a1000b0409800ce009000314090000014a000fb
:104a2000b04098004e0190006000b8000009980066
:104a300011099800ce0090000040eb0080589800cb
:104a4000fe5890004e009000115898004e009000c3
:104a5000d00890000030200080806000001020000e
:104a6000808f50001c003a004e0090002000900003
:104a70000000e00003003a00ce009000100020008b
:104a8000a00098004e00900020009000f00f500011
:104a900003003600ce00900000012000a000980026
:104aa0004e009000200090000000e9008000780097
:104ab000100020000100dd00800078004e00900012
:104ac000210098004e019000b2409000b0cfb3009a
:104ad00000c06000304198004e009000a00090009f
:104ae0004e009000310098002e009000a000900031
:104af0004e009000010878002e009000ce0090003b
:104b0000210098005e4890000040e800504f980057
:104b10003e5890008080fb005e0090000100400045
:104b200050079800814980005e009000008f40008f
:104b30003e0890000000e00008003a00de0090000f
:104b40000e089000808f500004003100de48900075
:104b50002e58900080cf50006bff3900de48900047
:104b60002e58900080cf500002003200100020002c
:104b7000300f98003e0890000000e00004003a006a
:104b8000de0090000e089000808f5000affe3900cc
:104b90001e0090000000e00002003a00100020001b
:104ba000300f98003e0890000000e0003200320014
:104bb0002b0037001e009000300798001e00900068
:104bc00090007800110798001d0037003e0090000b
:104bd00090009000210798003e0090001000900087
:104be000900078003e009000110098000c00370003
:104bf0002e009000a0009000410798002e00900029
:104c000020009000900078002e0090002100980075
:104c10004e00900015ef07000000eb0040079800e1
:104c20002e009000200090000000e000f0ff3a000d
:104c30002e0090000def07000000eb002007980009
:104c40003e009000100090000000e000dfff3a00fe
:104c50003e00900005ef07000000eb0030079800d1
:104c60001e0090000000e000d2ff3a000000eb00c0
:104c700010179800090037006e489000eae8b70066
:104c80000e5890000080fb00804788009e00900036
:104c9000a147880010002000101798001e109000f7
:104ca0000080fa00000006000800fa006047980043
:104cb0006e4090000004e00021003a00a047800010
:104cc000100798001a0037001e0090009000900016
:104cd000010f7800110037001e007800a00090003e
:104ce00021079800080037002e019000b240900084
:104cf00070cfb30000c06000304198002e009000db
:104d000090007800210798002e0090000000e0003d
:104d1000f5ff3a001e007800100f78001e00e0003a
:104d2000edff3a001e0090009000780011079800f7
:104d30001e0090000000e000e3ff3a000b00370087
:104d40006e4090005cf90700200798002e0090004c
:104d50000000e000050032002e019000b2409000fb
:104d600070cfb30000c06000304198000080fa00ae
:104d7000000006000400fa00204798003147980020
:104d8000d0c5b300004f7800f8c8bf006140600094
:104d90000004e0000200320000c8b3001e4f7000a3
:104da0000047800030589000634060000004e0003d
:104db00002003a00f0ceb3001e4f600000478000b2
:104dc0003058900063406000e14f500002003a000c
:104dd000e0cfb3001e4f60001e80fb00502588000e
:104de000ecc8bf000080fb00b02488003e4090006b
:104df0000080fb004401dd002e4090008080fb001d
:104e0000f00720000080600000007100f02488009e
:104e1000e488a8000080fa00000006000600fa00fe
:104e2000404798004e409000e94f500017003a006c
:104e300000a02000000f7800f8c8bf00704060009c
:104e40000004e0000200320040a02000000f7800c3
:104e5000f8c8bf000080fb004400de006140600035
:104e600000c0ea0061406000614060004401dd0074
:104e7000818f200091407800f0ceb30000c0600028
:104e800002407000f8e8b7001600370080a020004c
:104e9000000f7800f8c8bf000042b2000004e00034
:104ea00002003200c0a02000000f7800f8c8bf0048
:104eb0000080fb004500de006140600000c0ea00a9
:104ec00061406000614060004501dd00818f20008d
:104ed00091407800f0cdb30000c060000240700047
:104ee000f8e8b7004e409000ed4f50001a003a002d
:104ef00000478000700090006101b800004780000a
:104f00009008900000089000000151008181590034
:104f1000004780004000900001002000800f5100f9
:104f2000818f59000400360000478000c0009000c7
:104f3000110798002c003700004780007001900096
:104f40000047800090089000000890000000510089
:104f50001007980024003700004780003058900068
:104f600063406000e14f500004003a0000478000b9
:104f7000c0009000110798001b0037000047800018
:104f800050019000e00190000047800090089000e0
:104f90000008900000015100818159000047800005
:104fa0004000900001002000800f5100818f5900c7
:104fb0000400360000478000c000900011079800f0
:104fc0000900370000478000e0009000500090008a
:104fd00000017800004780009008900000089000d1
:104fe00000005100100798004e409000ed4f500017
:104ff00006003a00004780002008900080007800fa
:105000001e007800110098001c0037000047800047
:105010003058900063406000e14f50000e003a00ad
:1050200000478000300890000001780000478000b1
:1050300030089000104090000080fb006600b9002e
:105040006600400060007900800078001e00780053
:1050500011009800090037000047800030089000d8
:105060000001780000478000900890000008900040
:10507000800041001e007800110098009e0078001a
:105080000040eb00904098009e009000f03f200010
:10509000008160001e007800f13f200001016100e6
:1050a00001c02f00108860001008710000478000c8
:1050b000304090000080fb004300de006140600053
:1050c0009e0078000080fb00610060004e01dd0062
:1050d000f0ff2b00910860009108710000478000ec
:1050e000304090000080fb004200de006140600024
:1050f0009e0078000080fb00610060004b01dd0035
:10510000f07f2f0091086000910871009e007800e8
:1051100000002800910870000080fa0000000600de
:105120000800fa00b0478000304090006240600004
:105130000004e00003003a0010002000300798004f
:1051400025003700a1478000110798001d00370097
:105150001e00900090009000010f780014003700ae
:105160001e007800a0009000210798000b00370077
:105170002e00900030409000624060000004e0008b
:1051800003003a001000200030079800120037009a
:105190002e00900090007800210798002e009000cb
:1051a0000000e000f2ff3a001e007800100f7800c7
:1051b0001e00e000eaff3a001e0090009000780018
:1051c000110798001e0090000000e000e0ff3a0088
:1051d0000000eb00300798003e0090000080fa00cd
:1051e000000006003600f800809fbe00829fbe00cf
:1051f000849fbe00869fbe000c00fa0071048000f0
:10520000f0fb2f00008060007004880082c4bf00a3
:105210000044b2000004e0001000320080c4bf006f
:105220000044b2000004e0000c0032000004200042
:1052300000248800f04680000000e900f046880065
:10524000f04680000000e00004003a0082c4a9009b
:10525000104780000000e800104788008cc4bf00a1
:105260000044b2000004e0000d0032008ac4bf0018
:105270000044b2000004e000090032008cc4a90020
:105280000004200050248800114780000003200003
:10529000808f500002003a0000102000e047880094
:1052a0008cc4bf00614060000004e00009003200cf
:1052b0008ac4bf00614060000004e00005003200c5
:1052c00010002000502488008c04a9000000eb008e
:1052d000e04788008cc4bf00684060000004e00024
:1052e000ad0132008ac4bf00684060000004e000e5
:1052f000a90132008cc4bf00624060000004e000dd
:10530000090032008ac4bf00624060000004e0006f
:105310000500320000478000305890006340600074
:10532000e14f50009c013a00e488a90090248000dd
:10533000400798008000200050248800004780002b
:10534000205890000080fb00ef006000f0248000f7
:105350006f006000808f50008e013a004e00900078
:10536000680060000000e0000900320080a020001a
:10537000200798004e009000640060000000e000ec
:105380000b003200c0a02000200798000800370062
:1053900000a02000200798004e00900064006000ec
:1053a0000000e0000200320040a02000200798002a
:1053b0002e0090009000780000c0230080806000e4
:1053c00000802000808f50005c003a00ae0090000a
:1053d000f03f200011006000300798000447800073
:1053e0000047800000099000900990003e00900066
:1053f000010020000200400083804800000a98005d
:10540000110a9800014780000000eb00f0089800a6
:105410000347800000478000304090000080fb0080
:105420004300de00614060000004a20061406000b3
:10543000614060004301dd00b340900070cfb300d5
:1054400000c0600002407000b0419800004780003a
:1054500000589000f04f50000a00320000478000d2
:105460008058900000c2b30080cf50000500320089
:10547000004780008058900000c3b30080cf5000e8
:1054800012003a0000478000000990009009900047
:10549000004780007000900001002000800f510044
:1054a000818f59003b013900024780006000b8003d
:1054b00000099800110998000147800001589000e8
:1054c0000040e80080589800320137000047800013
:1054d0003058900063406000e14f50000e003200f1
:1054e00000478000c00090003e009000808f500078
:1054f00009003e00004780000009900090099000dc
:1055000000478000e000900050009000800f5100a4
:10551000818f59001f013900014780003140900000
:105520000004a000b040980001478000015890009e
:105530000040e80080589800160137002e009000c7
:105540009000780000c023008080600000c0200030
:10555000808f5000070032002e00900090007800ed
:1055600000c023008080600000c02200808f5000b7
:105570003c003a00ae009000f03f200011006000b7
:105580003007980004478000004780000009900021
:10559000900990003e0090000100200002004000b1
:1055a00083804800000a9800110a98000147800093
:1055b0000000eb00f00898000347800000478000df
:1055c000304090000080fb004300de00614060003e
:1055d0000004a20061406000614060004301dd0002
:1055e000b340900070cfb30000c060000240700074
:1055f000b041980000478000305890006340600040
:10560000e14f50000e00320000478000c0009000c3
:105610003e009000808f500009003e00004780004f
:10562000000990009009900000478000e000900081
:1056300050009000800f5100818f5900d500390033
:1056400001478000314090000004a000b040980065
:1056500001478000015890000040e8008058980001
:10566000cc0037002e0090009000780000c023008e
:105670008080600000802200808f500088003a0007
:1056800001478000314090000044a000b0409800e5
:1056900001478000710890000000e800f0089800c1
:1056a0000047800030589000634060000080fb009d
:1056b00050079800de009000e18f50006f0032002c
:1056c0005e009000e10f500004003c00de009000fe
:1056d0000100e00024003200ae0037005e009000c0
:1056e000e20f500004003200de009000e38f500013
:1056f00039003200a700370000478000304090009a
:105700000042b2000004e000a20032000047800026
:10571000f00890000047800000109000808f50003b
:105720009c00360002478000a240900000c4b300f5
:1057300000c07000204198000147800070c1b30094
:10574000c058980002478000004780000058900031
:105750008040780000cfb30000c06000f040b3008c
:10576000005998008b0037000047800030409000bf
:105770000042b2000004e0008600320000478000d2
:10578000f00890000047800000109000808f5000cb
:105790008000360002478000a240900000c4b300a1
:1057a00000c07000204198000147800070c1b30024
:1057b000c0589800024780000047800000589000c1
:1057c0008040780000cfb30000c06000f040b3001c
:1057d000005998006f003700004780002058900063
:1057e0000004e0001c0035000047800030409000bd
:1057f0000042b2000004e000660032000047800072
:10580000f00890000047800000109000808f50004a
:105810006000360002478000a240900000c4b30040
:1058200000c07000204198000147800070c1b300a3
:10583000c058980002478000004780000058900040
:105840008040780000cfb30000c06000f040b3009b
:10585000005998004f003700014780003140900008
:105860000004a000b040980001478000015890005b
:105870000040e8008058980046003700014780004b
:10588000314090000004a000b04098000147800023
:10589000015890000040e800805898003d00370013
:1058a0002e0090009000780000c0230080806000ef
:1058b00000802300808f500011003a0002478000d2
:1058c000a240900000c2b30000c0700020419800c8
:1058d0000147800010c1b300c05898000247800003
:1058e00000478000005890008040780000cfb3004f
:1058f00000c06000f040b300005998002500370058
:1059000002478000224090007f4060000040e80095
:105910007f406000ff416000a240900000ceb300d5
:1059200000c06000034070002041980000478000e4
:10593000204090007f4060000080fb00f30f50008b
:105940001400340002478000a240900000c4b3005d
:1059500000c07000204198000147800030c1b300b2
:10596000c05898000247800000478000005890000f
:105970008040780000cfb30000c06000f040b3006a
:1059800000599800f00f20007024880020002000ab
:105990005024880073f607008cc4bf006440600088
:1059a0000004e0003f0032008ac4bf006440600091
:1059b0000004e0003b00320040002000502488003a
:1059c000a0478000000f78002d0037001e007800ef
:1059d000200090000000e000270032001e00780048
:1059e00020009000a0009000110798001f003700d1
:1059f0001e009000d00890000030200080806000e1
:105a000000302000808f5000070032001e00900000
:105a1000d00890000030200080806000001020003e
:105a2000808f500009003a001e0090003000900066
:105a30000000e000050032001e00900030009000e1
:105a40008000e9001e009000310098001e019000c7
:105a5000b2409000f0ceb30000c06000304198002a
:105a60001e00900090007800110798001e00900022
:105a70000000e000deff3a001e007800100f780002
